{
  "transactions": [
    {
      "hash": "0x9c7dae364896e1a992d5874d568045726c7d5824694ce7e61703e41439866893",
      "transactionType": "CALL",
      "contractName": null,
      "contractAddress": "0x634afea4d8cbe4c1deb5b5fde992f92e92ad4214",
      "function": "mint(address,uint256)",
      "arguments": [
        "0x7956c2C1b85f5aC14c2c537F669B65991428E268",
        "10000000000"
      ],
      "transaction": {
        "from": "0x7956c2c1b85f5ac14c2c537f669b65991428e268",
        "to": "0x634afea4d8cbe4c1deb5b5fde992f92e92ad4214",
        "gas": "0xc295",
        "value": "0x0",
        "input": "0x40c10f190000000000000000000000007956c2c1b85f5ac14c2c537f669b65991428e26800000000000000000000000000000000000000000000000000000002540be400",
        "nonce": "0x62",
        "chainId": "0x14a34"
      },
      "additionalContracts": [],
      "isFixedGasLimit": false
    }
  ],
  "receipts": [
    {
      "status": "0x1",
      "cumulativeGasUsed": "0x876219",
      "logs": [
        {
          "address": "0x634afea4d8cbe4c1deb5b5fde992f92e92ad4214",
          "topics": [
            "0xddf252ad1be2c89b69c2b068fc378daa952ba7f163c4a11628f55a4df523b3ef",
            "0x0000000000000000000000000000000000000000000000000000000000000000",
            "0x0000000000000000000000007956c2c1b85f5ac14c2c537f669b65991428e268"
          ],
          "data": "0x00000000000000000000000000000000000000000000000000000002540be400",
          "blockHash": "0xe1fc14c5390b2b2f73714ccef19d45d2ccaf219be55087d77e274da9e25b9bd7",
          "blockNumber": "0x1650b64",
          "transactionHash": "0x9c7dae364896e1a992d5874d568045726c7d5824694ce7e61703e41439866893",
          "transactionIndex": "0x23",
          "logIndex": "0xcc",
          "removed": false
        }
      ],
      "logsBloom": "0x00000000000000000000000000000000000000000000000000000000000000000000000000000004000800000000000000000000000000000000000000000000000000000000000100000008000000000000000000000000100000000000000000000000020000000000000000000800000000004000000000000010000000000000000000000000000000000000000000000000000000000000000000000000000000000000000000000000000000000000000000000000000000000000000000000002000000000000000000000000000000000000000000000000000020000000000000000000000000000000000000000000000000000000000400000000",
      "type": "0x2",
      "transactionHash": "0x9c7dae364896e1a992d5874d568045726c7d5824694ce7e61703e41439866893",
      "transactionIndex": "0x23",
      "blockHash": "0xe1fc14c5390b2b2f73714ccef19d45d2ccaf219be55087d77e274da9e25b9bd7",
      "blockNumber": "0x1650b64",
      "gasUsed": "0x8ce0",
      "effectiveGasPrice": "0xc8eed",
      "from": "0x7956c2c1b85f5ac14c2c537f669b65991428e268",
      "to": "0x634afea4d8cbe4c1deb5b5fde992f92e92ad4214",
      "contractAddress": null,
      "l1BaseFeeScalar": "0x44d",
      "l1BlobBaseFee": "0x1",
      "l1BlobBaseFeeScalar": "0xa118b",
      "l1Fee": "0x2ad67c86",
      "l1GasPrice": "0x18514c5b",
      "l1GasUsed": "0x640"
    }
  ],
  "libraries": [],
  "pending": [],
  "returns": {},
  "timestamp": 1742566823,
  "chain": 84532,
  "commit": "c39de17"
}