{
  "transactions": [
    {
      "hash": "0xf12e4c92ff9709dcd7195ac770a4267bfe0e7e5a52915389e961397d43e6d29c",
      "transactionType": "CALL",
      "contractName": "BettingContract",
      "contractAddress": "0x2e180501d3d68241dd0318c68fd9be0af1d519a1",
      "function": "gradeBet(uint256,uint256)",
      "arguments": [
        "84",
        "0"
      ],
      "transaction": {
        "from": "0x7956c2c1b85f5ac14c2c537f669b65991428e268",
        "to": "0x2e180501d3d68241dd0318c68fd9be0af1d519a1",
        "gas": "0xca6f",
        "value": "0x0",
        "input": "0xff0beb6200000000000000000000000000000000000000000000000000000000000000540000000000000000000000000000000000000000000000000000000000000000",
        "nonce": "0x212",
        "chainId": "0x14a34"
      },
      "additionalContracts": [],
      "isFixedGasLimit": false
    }
  ],
  "receipts": [
    {
      "status": "0x1",
      "cumulativeGasUsed": "0xa8eb63",
      "logs": [
        {
          "address": "0x2e180501d3d68241dd0318c68fd9be0af1d519a1",
          "topics": [
            "0xaf7faf29a251efa1bcf2b47dab1a72baa0906a2e4ff957e6cb6d4f7c642161ab",
            "0x0000000000000000000000000000000000000000000000000000000000000054"
          ],
          "data": "0x0000000000000000000000000000000000000000000000000000000000000000",
          "blockHash": "0x3c211fe2f41cb2b55e460cc883a4cf7c0a06b1604cca24407a7f68ec7f0af910",
          "blockNumber": "0x1663fc9",
          "transactionHash": "0xf12e4c92ff9709dcd7195ac770a4267bfe0e7e5a52915389e961397d43e6d29c",
          "transactionIndex": "0x31",
          "logIndex": "0xa1",
          "removed": false
        }
      ],
      "logsBloom": "0x00000000000000000000000000000000000010000002000000000000000000000000000000000000000001000000000000000000000000200000000000000000000000000000000000000000000000000000000000000000000000000000000000000000000000000000000000000000000000000000000000000000000000000000000000000000000000000000000000000000000000000000000004000000000000000800000000000000000000000000000000000000000040000000000000000000000000000000000000000000000000000000000000000000000000000000020000400000000000000000000000000000000000000000000000000000",
      "type": "0x2",
      "transactionHash": "0xf12e4c92ff9709dcd7195ac770a4267bfe0e7e5a52915389e961397d43e6d29c",
      "transactionIndex": "0x31",
      "blockHash": "0x3c211fe2f41cb2b55e460cc883a4cf7c0a06b1604cca24407a7f68ec7f0af910",
      "blockNumber": "0x1663fc9",
      "gasUsed": "0x8a6b",
      "effectiveGasPrice": "0x1ff693",
      "from": "0x7956c2c1b85f5ac14c2c537f669b65991428e268",
      "to": "0x2e180501d3d68241dd0318c68fd9be0af1d519a1",
      "contractAddress": null,
      "l1BaseFeeScalar": "0x44d",
      "l1BlobBaseFee": "0x1",
      "l1BlobBaseFeeScalar": "0xa118b",
      "l1Fee": "0x4ba04f",
      "l1GasPrice": "0x2aee0a",
      "l1GasUsed": "0x640"
    }
  ],
  "libraries": [],
  "pending": [],
  "returns": {},
  "timestamp": 1742724721,
  "chain": 84532,
  "commit": "eb49c7f"
}