{
  "transactions": [
    {
      "hash": "0x512a4e13d2dca7214d38e739995f54a72e3e547ceb2f1ad87dec97df69e08560",
      "transactionType": "CALL",
      "contractName": null,
      "contractAddress": "0xa373482b473e33b96412a6c0ca8b847e6bbb4d0d",
      "function": "mint(address,uint256)",
      "arguments": [
        "0x4E5dC9dF946500b07E9c66e4DD29bf9CD062002B",
        "10000000000"
      ],
      "transaction": {
        "from": "0x7956c2c1b85f5ac14c2c537f669b65991428e268",
        "to": "0xa373482b473e33b96412a6c0ca8b847e6bbb4d0d",
        "gas": "0x11eb7",
        "value": "0x0",
        "input": "0x40c10f190000000000000000000000004e5dc9df946500b07e9c66e4dd29bf9cd062002b00000000000000000000000000000000000000000000000000000002540be400",
        "nonce": "0xa6",
        "chainId": "0x14a34"
      },
      "additionalContracts": [],
      "isFixedGasLimit": false
    },
    {
      "hash": "0x801f63ddbef9443282677a6f48a3f718fc3b501aea03e50ae30cd5656600fad6",
      "transactionType": "CALL",
      "contractName": null,
      "contractAddress": "0xa373482b473e33b96412a6c0ca8b847e6bbb4d0d",
      "function": "mint(address,uint256)",
      "arguments": [
        "0x67bFd0B42F5f39710B4E90301289F81Eab6315dA",
        "10000000000"
      ],
      "transaction": {
        "from": "0x7956c2c1b85f5ac14c2c537f669b65991428e268",
        "to": "0xa373482b473e33b96412a6c0ca8b847e6bbb4d0d",
        "gas": "0x11ed7",
        "value": "0x0",
        "input": "0x40c10f1900000000000000000000000067bfd0b42f5f39710b4e90301289f81eab6315da00000000000000000000000000000000000000000000000000000002540be400",
        "nonce": "0xa7",
        "chainId": "0x14a34"
      },
      "additionalContracts": [],
      "isFixedGasLimit": false
    },
    {
      "hash": "0x6b0e37af94378176df1473a0c29a3b08628844b35382728a4673e0f8027f1cfe",
      "transactionType": "CALL",
      "contractName": null,
      "contractAddress": "0xa373482b473e33b96412a6c0ca8b847e6bbb4d0d",
      "function": "mint(address,uint256)",
      "arguments": [
        "0x12BE474D127757d0a6a36631294F8FfBCdeF44F8",
        "10000000000"
      ],
      "transaction": {
        "from": "0x7956c2c1b85f5ac14c2c537f669b65991428e268",
        "to": "0xa373482b473e33b96412a6c0ca8b847e6bbb4d0d",
        "gas": "0x11ed7",
        "value": "0x0",
        "input": "0x40c10f1900000000000000000000000012be474d127757d0a6a36631294f8ffbcdef44f800000000000000000000000000000000000000000000000000000002540be400",
        "nonce": "0xa8",
        "chainId": "0x14a34"
      },
      "additionalContracts": [],
      "isFixedGasLimit": false
    },
    {
      "hash": "0xefa696261faf7aa41e613c1101d41f8e88c4b1015a07138eb3752effdc2a7110",
      "transactionType": "CALL",
      "contractName": null,
      "contractAddress": "0x2e180501d3d68241dd0318c68fd9be0af1d519a1",
      "function": "createPool((string,string[2],uint40,string,string,string))",
      "arguments": [
        "(Will I PARDON MYSELF? The RADICAL LEFT is TERRIFIED of this!, [YES, NO], 1742591582, This pool will close if Trump posts that he will pardon himself, Grade YES if Trump posts about pardoning himself, NO otherwise, 114197092205719557)"
      ],
      "transaction": {
        "from": "0x7956c2c1b85f5ac14c2c537f669b65991428e268",
        "to": "0x2e180501d3d68241dd0318c68fd9be0af1d519a1",
        "gas": "0x94c45",
        "value": "0x0",
        "input": "0x1a5c3706000000000000000000000000000000000000000000000000000000000000002000000000000000000000000000000000000000000000000000000000000000c000000000000000000000000000000000000000000000000000000000000001200000000000000000000000000000000000000000000000000000000067ddd65e00000000000000000000000000000000000000000000000000000000000001e0000000000000000000000000000000000000000000000000000000000000024000000000000000000000000000000000000000000000000000000000000002a0000000000000000000000000000000000000000000000000000000000000003c57696c6c204920504152444f4e204d5953454c463f20546865205241444943414c204c45465420697320544552524946494544206f6620746869732100000000000000000000000000000000000000000000000000000000000000000000004000000000000000000000000000000000000000000000000000000000000000800000000000000000000000000000000000000000000000000000000000000003594553000000000000000000000000000000000000000000000000000000000000000000000000000000000000000000000000000000000000000000000000024e4f000000000000000000000000000000000000000000000000000000000000000000000000000000000000000000000000000000000000000000000000003f5468697320706f6f6c2077696c6c20636c6f7365206966205472756d7020706f73747320746861742068652077696c6c20706172646f6e2068696d73656c6600000000000000000000000000000000000000000000000000000000000000003e477261646520594553206966205472756d7020706f7374732061626f757420706172646f6e696e672068696d73656c662c204e4f206f7468657277697365000000000000000000000000000000000000000000000000000000000000000000123131343139373039323230353731393535370000000000000000000000000000",
        "nonce": "0xa9",
        "chainId": "0x14a34"
      },
      "additionalContracts": [],
      "isFixedGasLimit": false
    },
    {
      "hash": "0x04faecf65258a25f78a1d0183f9176da5e03cdb12359150b4bf09ebb7b634035",
      "transactionType": "CALL",
      "contractName": null,
      "contractAddress": "0x2e180501d3d68241dd0318c68fd9be0af1d519a1",
      "function": "createPool((string,string[2],uint40,string,string,string))",
      "arguments": [
        "(Will I FIRE THE FBI DIRECTOR on day one? The FBI has been WEAPONIZED against us!, [YES, NO], 1742591582, This pool will close if Trump makes a statement about the FBI Director, Grade YES if Trump says he will fire the FBI Director, NO otherwise, 114200175082806882)"
      ],
      "transaction": {
        "from": "0x7956c2c1b85f5ac14c2c537f669b65991428e268",
        "to": "0x2e180501d3d68241dd0318c68fd9be0af1d519a1",
        "gas": "0xad159",
        "value": "0x0",
        "input": "0x1a5c3706000000000000000000000000000000000000000000000000000000000000002000000000000000000000000000000000000000000000000000000000000000c000000000000000000000000000000000000000000000000000000000000001400000000000000000000000000000000000000000000000000000000067ddd65e000000000000000000000000000000000000000000000000000000000000020000000000000000000000000000000000000000000000000000000000000002800000000000000000000000000000000000000000000000000000000000000300000000000000000000000000000000000000000000000000000000000000005057696c6c204920464952452054484520464249204449524543544f52206f6e20646179206f6e653f205468652046424920686173206265656e20574541504f4e495a454420616761696e73742075732100000000000000000000000000000000000000000000000000000000000000000000000000000000000000000000004000000000000000000000000000000000000000000000000000000000000000800000000000000000000000000000000000000000000000000000000000000003594553000000000000000000000000000000000000000000000000000000000000000000000000000000000000000000000000000000000000000000000000024e4f00000000000000000000000000000000000000000000000000000000000000000000000000000000000000000000000000000000000000000000000000465468697320706f6f6c2077696c6c20636c6f7365206966205472756d70206d616b657320612073746174656d656e742061626f75742074686520464249204469726563746f7200000000000000000000000000000000000000000000000000000000000000000000000000000000000000000000000000000000000000000043477261646520594553206966205472756d7020736179732068652077696c6c20666972652074686520464249204469726563746f722c204e4f206f7468657277697365000000000000000000000000000000000000000000000000000000000000000000000000000000000000000000000000000000000000000000000000123131343230303137353038323830363838320000000000000000000000000000",
        "nonce": "0xaa",
        "chainId": "0x14a34"
      },
      "additionalContracts": [],
      "isFixedGasLimit": false
    },
    {
      "hash": "0x50f796ea47472e343bcce651fa0c40221779579389b2cc007004bfe25e099c3b",
      "transactionType": "CALL",
      "contractName": null,
      "contractAddress": "0x2e180501d3d68241dd0318c68fd9be0af1d519a1",
      "function": "createPool((string,string[2],uint40,string,string,string))",
      "arguments": [
        "(Will I WIN the debate against SLEEPY JOE? Everyone knows I won the last one BIGLY!, [YES, NO], 1742591582, This pool will close after the presidential debate, Grade YES if Trump wins the debate, NO otherwise, 114200313009802638)"
      ],
      "transaction": {
        "from": "0x7956c2c1b85f5ac14c2c537f669b65991428e268",
        "to": "0x2e180501d3d68241dd0318c68fd9be0af1d519a1",
        "gas": "0x9417b",
        "value": "0x0",
        "input": "0x1a5c3706000000000000000000000000000000000000000000000000000000000000002000000000000000000000000000000000000000000000000000000000000000c000000000000000000000000000000000000000000000000000000000000001400000000000000000000000000000000000000000000000000000000067ddd65e0000000000000000000000000000000000000000000000000000000000000200000000000000000000000000000000000000000000000000000000000000026000000000000000000000000000000000000000000000000000000000000002c0000000000000000000000000000000000000000000000000000000000000005257696c6c20492057494e207468652064656261746520616761696e737420534c45455059204a4f453f2045766572796f6e65206b6e6f7773204920776f6e20746865206c617374206f6e65204249474c59210000000000000000000000000000000000000000000000000000000000000000000000000000000000000000004000000000000000000000000000000000000000000000000000000000000000800000000000000000000000000000000000000000000000000000000000000003594553000000000000000000000000000000000000000000000000000000000000000000000000000000000000000000000000000000000000000000000000024e4f00000000000000000000000000000000000000000000000000000000000000000000000000000000000000000000000000000000000000000000000000325468697320706f6f6c2077696c6c20636c6f73652061667465722074686520707265736964656e7469616c2064656261746500000000000000000000000000000000000000000000000000000000000000000000000000000000000000000030477261646520594553206966205472756d702077696e7320746865206465626174652c204e4f206f74686572776973650000000000000000000000000000000000000000000000000000000000000000000000000000000000000000000000123131343230303331333030393830323633380000000000000000000000000000",
        "nonce": "0xab",
        "chainId": "0x14a34"
      },
      "additionalContracts": [],
      "isFixedGasLimit": false
    },
    {
      "hash": "0xa48f18a304936a9de2877516bd862fac9645fe78c775312627e4b05193c75008",
      "transactionType": "CALL",
      "contractName": null,
      "contractAddress": "0xa373482b473e33b96412a6c0ca8b847e6bbb4d0d",
      "function": "approve(address,uint256)",
      "arguments": [
        "0x2E180501D3D68241dd0318c68fD9BE0AF1D519a1",
        "10000000000"
      ],
      "transaction": {
        "from": "0x4e5dc9df946500b07e9c66e4dd29bf9cd062002b",
        "to": "0xa373482b473e33b96412a6c0ca8b847e6bbb4d0d",
        "gas": "0xf7ef",
        "value": "0x0",
        "input": "0x095ea7b30000000000000000000000002e180501d3d68241dd0318c68fd9be0af1d519a100000000000000000000000000000000000000000000000000000002540be400",
        "nonce": "0x11f",
        "chainId": "0x14a34"
      },
      "additionalContracts": [],
      "isFixedGasLimit": false
    },
    {
      "hash": "0x8e42c58806256ca92984c63c9e1c3d02e174a336100220b7b4fd8c093c8ea2d2",
      "transactionType": "CALL",
      "contractName": null,
      "contractAddress": "0x036cbd53842c5426634e7929541ec2318f3dcf7e",
      "function": "approve(address,uint256)",
      "arguments": [
        "0x2E180501D3D68241dd0318c68fD9BE0AF1D519a1",
        "500000000"
      ],
      "transaction": {
        "from": "0x4e5dc9df946500b07e9c66e4dd29bf9cd062002b",
        "to": "0x036cbd53842c5426634e7929541ec2318f3dcf7e",
        "gas": "0x12b1b",
        "value": "0x0",
        "input": "0x095ea7b30000000000000000000000002e180501d3d68241dd0318c68fd9be0af1d519a1000000000000000000000000000000000000000000000000000000001dcd6500",
        "nonce": "0x120",
        "chainId": "0x14a34"
      },
      "additionalContracts": [],
      "isFixedGasLimit": false
    },
    {
      "hash": "0xda367f86cdbb54692ef29b27a4ef21e36368f69acac275ab53837e9933d83b7e",
      "transactionType": "CALL",
      "contractName": null,
      "contractAddress": "0x2e180501d3d68241dd0318c68fd9be0af1d519a1",
      "function": "placeBet(uint256,uint256,uint256,address,uint8)",
      "arguments": [
        "4",
        "0",
        "2999999999",
        "0x4E5dC9dF946500b07E9c66e4DD29bf9CD062002B",
        "1"
      ],
      "transaction": {
        "from": "0x4e5dc9df946500b07e9c66e4dd29bf9cd062002b",
        "to": "0x2e180501d3d68241dd0318c68fd9be0af1d519a1",
        "gas": "0xb385c",
        "value": "0x0",
        "input": "0x011c4dd90000000000000000000000000000000000000000000000000000000000000004000000000000000000000000000000000000000000000000000000000000000000000000000000000000000000000000000000000000000000000000b2d05dff0000000000000000000000004e5dc9df946500b07e9c66e4dd29bf9cd062002b0000000000000000000000000000000000000000000000000000000000000001",
        "nonce": "0x121",
        "chainId": "0x14a34"
      },
      "additionalContracts": [],
      "isFixedGasLimit": false
    },
    {
      "hash": "0x1e51e92dd4e67fd625483267fddccbca65a021a18d1ca9a2a15dedc41234bb1d",
      "transactionType": "CALL",
      "contractName": null,
      "contractAddress": "0x2e180501d3d68241dd0318c68fd9be0af1d519a1",
      "function": "placeBet(uint256,uint256,uint256,address,uint8)",
      "arguments": [
        "5",
        "0",
        "2999999999",
        "0x4E5dC9dF946500b07E9c66e4DD29bf9CD062002B",
        "1"
      ],
      "transaction": {
        "from": "0x4e5dc9df946500b07e9c66e4dd29bf9cd062002b",
        "to": "0x2e180501d3d68241dd0318c68fd9be0af1d519a1",
        "gas": "0xa74fa",
        "value": "0x0",
        "input": "0x011c4dd90000000000000000000000000000000000000000000000000000000000000005000000000000000000000000000000000000000000000000000000000000000000000000000000000000000000000000000000000000000000000000b2d05dff0000000000000000000000004e5dc9df946500b07e9c66e4dd29bf9cd062002b0000000000000000000000000000000000000000000000000000000000000001",
        "nonce": "0x122",
        "chainId": "0x14a34"
      },
      "additionalContracts": [],
      "isFixedGasLimit": false
    },
    {
      "hash": "0xfed037b742d91c0ac3c416509e7a52ef90ebdadaba865953ea9cf4d1bd812c4d",
      "transactionType": "CALL",
      "contractName": null,
      "contractAddress": "0x2e180501d3d68241dd0318c68fd9be0af1d519a1",
      "function": "placeBet(uint256,uint256,uint256,address,uint8)",
      "arguments": [
        "6",
        "1",
        "2999999999",
        "0x4E5dC9dF946500b07E9c66e4DD29bf9CD062002B",
        "1"
      ],
      "transaction": {
        "from": "0x4e5dc9df946500b07e9c66e4dd29bf9cd062002b",
        "to": "0x2e180501d3d68241dd0318c68fd9be0af1d519a1",
        "gas": "0xab70f",
        "value": "0x0",
        "input": "0x011c4dd90000000000000000000000000000000000000000000000000000000000000006000000000000000000000000000000000000000000000000000000000000000100000000000000000000000000000000000000000000000000000000b2d05dff0000000000000000000000004e5dc9df946500b07e9c66e4dd29bf9cd062002b0000000000000000000000000000000000000000000000000000000000000001",
        "nonce": "0x123",
        "chainId": "0x14a34"
      },
      "additionalContracts": [],
      "isFixedGasLimit": false
    },
    {
      "hash": "0x6ea6f660e6c3ee2c2af911ec9b8bc2921994698bf511f6307563d6269e8bfc62",
      "transactionType": "CALL",
      "contractName": null,
      "contractAddress": "0x2e180501d3d68241dd0318c68fd9be0af1d519a1",
      "function": "placeBet(uint256,uint256,uint256,address,uint8)",
      "arguments": [
        "4",
        "1",
        "4000000",
        "0x4E5dC9dF946500b07E9c66e4DD29bf9CD062002B",
        "0"
      ],
      "transaction": {
        "from": "0x4e5dc9df946500b07e9c66e4dd29bf9cd062002b",
        "to": "0x2e180501d3d68241dd0318c68fd9be0af1d519a1",
        "gas": "0xa2128",
        "value": "0x0",
        "input": "0x011c4dd90000000000000000000000000000000000000000000000000000000000000004000000000000000000000000000000000000000000000000000000000000000100000000000000000000000000000000000000000000000000000000003d09000000000000000000000000004e5dc9df946500b07e9c66e4dd29bf9cd062002b0000000000000000000000000000000000000000000000000000000000000000",
        "nonce": "0x124",
        "chainId": "0x14a34"
      },
      "additionalContracts": [],
      "isFixedGasLimit": false
    },
    {
      "hash": "0x1c2db9810a4d092fccf97b09384cc771abd14911d0a2684f2e154d87b95f4f80",
      "transactionType": "CALL",
      "contractName": null,
      "contractAddress": "0x2e180501d3d68241dd0318c68fd9be0af1d519a1",
      "function": "placeBet(uint256,uint256,uint256,address,uint8)",
      "arguments": [
        "5",
        "0",
        "1000000",
        "0x4E5dC9dF946500b07E9c66e4DD29bf9CD062002B",
        "0"
      ],
      "transaction": {
        "from": "0x4e5dc9df946500b07e9c66e4dd29bf9cd062002b",
        "to": "0x2e180501d3d68241dd0318c68fd9be0af1d519a1",
        "gas": "0x974a2",
        "value": "0x0",
        "input": "0x011c4dd90000000000000000000000000000000000000000000000000000000000000005000000000000000000000000000000000000000000000000000000000000000000000000000000000000000000000000000000000000000000000000000f42400000000000000000000000004e5dc9df946500b07e9c66e4dd29bf9cd062002b0000000000000000000000000000000000000000000000000000000000000000",
        "nonce": "0x125",
        "chainId": "0x14a34"
      },
      "additionalContracts": [],
      "isFixedGasLimit": false
    },
    {
      "hash": "0x8645bd2eb0b42a9a07ddbb5d0d3c45aeeeb5f00ce7465865659d12674580e516",
      "transactionType": "CALL",
      "contractName": null,
      "contractAddress": "0x2e180501d3d68241dd0318c68fd9be0af1d519a1",
      "function": "placeBet(uint256,uint256,uint256,address,uint8)",
      "arguments": [
        "6",
        "1",
        "2000000",
        "0x4E5dC9dF946500b07E9c66e4DD29bf9CD062002B",
        "0"
      ],
      "transaction": {
        "from": "0x4e5dc9df946500b07e9c66e4dd29bf9cd062002b",
        "to": "0x2e180501d3d68241dd0318c68fd9be0af1d519a1",
        "gas": "0x9c4f6",
        "value": "0x0",
        "input": "0x011c4dd90000000000000000000000000000000000000000000000000000000000000006000000000000000000000000000000000000000000000000000000000000000100000000000000000000000000000000000000000000000000000000001e84800000000000000000000000004e5dc9df946500b07e9c66e4dd29bf9cd062002b0000000000000000000000000000000000000000000000000000000000000000",
        "nonce": "0x126",
        "chainId": "0x14a34"
      },
      "additionalContracts": [],
      "isFixedGasLimit": false
    },
    {
      "hash": "0x4aaa92c8c3dba95e9e31e42735f4759a69311786209f7ea2ac6c8303be9df5a8",
      "transactionType": "CALL",
      "contractName": null,
      "contractAddress": "0xa373482b473e33b96412a6c0ca8b847e6bbb4d0d",
      "function": "approve(address,uint256)",
      "arguments": [
        "0x2E180501D3D68241dd0318c68fD9BE0AF1D519a1",
        "10000000000"
      ],
      "transaction": {
        "from": "0x67bfd0b42f5f39710b4e90301289f81eab6315da",
        "to": "0xa373482b473e33b96412a6c0ca8b847e6bbb4d0d",
        "gas": "0xf7ef",
        "value": "0x0",
        "input": "0x095ea7b30000000000000000000000002e180501d3d68241dd0318c68fd9be0af1d519a100000000000000000000000000000000000000000000000000000002540be400",
        "nonce": "0xa6",
        "chainId": "0x14a34"
      },
      "additionalContracts": [],
      "isFixedGasLimit": false
    },
    {
      "hash": "0xb7b05795f7da20501b19e322ff356c769ea1e572e5f8568b2fba1b00d51795d0",
      "transactionType": "CALL",
      "contractName": null,
      "contractAddress": "0x036cbd53842c5426634e7929541ec2318f3dcf7e",
      "function": "approve(address,uint256)",
      "arguments": [
        "0x2E180501D3D68241dd0318c68fD9BE0AF1D519a1",
        "500000000"
      ],
      "transaction": {
        "from": "0x67bfd0b42f5f39710b4e90301289f81eab6315da",
        "to": "0x036cbd53842c5426634e7929541ec2318f3dcf7e",
        "gas": "0x12b1b",
        "value": "0x0",
        "input": "0x095ea7b30000000000000000000000002e180501d3d68241dd0318c68fd9be0af1d519a1000000000000000000000000000000000000000000000000000000001dcd6500",
        "nonce": "0xa7",
        "chainId": "0x14a34"
      },
      "additionalContracts": [],
      "isFixedGasLimit": false
    },
    {
      "hash": "0x10b5234d677b54788de6fc52ad501b6c90ee1b637025c0fe61e97c6b647b4645",
      "transactionType": "CALL",
      "contractName": null,
      "contractAddress": "0x2e180501d3d68241dd0318c68fd9be0af1d519a1",
      "function": "placeBet(uint256,uint256,uint256,address,uint8)",
      "arguments": [
        "4",
        "0",
        "2999999999",
        "0x67bFd0B42F5f39710B4E90301289F81Eab6315dA",
        "1"
      ],
      "transaction": {
        "from": "0x67bfd0b42f5f39710b4e90301289f81eab6315da",
        "to": "0x2e180501d3d68241dd0318c68fd9be0af1d519a1",
        "gas": "0x9841f",
        "value": "0x0",
        "input": "0x011c4dd90000000000000000000000000000000000000000000000000000000000000004000000000000000000000000000000000000000000000000000000000000000000000000000000000000000000000000000000000000000000000000b2d05dff00000000000000000000000067bfd0b42f5f39710b4e90301289f81eab6315da0000000000000000000000000000000000000000000000000000000000000001",
        "nonce": "0xa8",
        "chainId": "0x14a34"
      },
      "additionalContracts": [],
      "isFixedGasLimit": false
    },
    {
      "hash": "0x956eb81158623b45bffaf4627ffc971814afc7b19f1c9727081c25bbc62ca7c5",
      "transactionType": "CALL",
      "contractName": null,
      "contractAddress": "0x2e180501d3d68241dd0318c68fd9be0af1d519a1",
      "function": "placeBet(uint256,uint256,uint256,address,uint8)",
      "arguments": [
        "5",
        "1",
        "2999999999",
        "0x67bFd0B42F5f39710B4E90301289F81Eab6315dA",
        "1"
      ],
      "transaction": {
        "from": "0x67bfd0b42f5f39710b4e90301289f81eab6315da",
        "to": "0x2e180501d3d68241dd0318c68fd9be0af1d519a1",
        "gas": "0xaf6de",
        "value": "0x0",
        "input": "0x011c4dd90000000000000000000000000000000000000000000000000000000000000005000000000000000000000000000000000000000000000000000000000000000100000000000000000000000000000000000000000000000000000000b2d05dff00000000000000000000000067bfd0b42f5f39710b4e90301289f81eab6315da0000000000000000000000000000000000000000000000000000000000000001",
        "nonce": "0xa9",
        "chainId": "0x14a34"
      },
      "additionalContracts": [],
      "isFixedGasLimit": false
    },
    {
      "hash": "0xdd49162f70fc70db5b2c6c27d43b9530697ad3e5571b556b9b08c886c3f70b04",
      "transactionType": "CALL",
      "contractName": null,
      "contractAddress": "0x2e180501d3d68241dd0318c68fd9be0af1d519a1",
      "function": "placeBet(uint256,uint256,uint256,address,uint8)",
      "arguments": [
        "6",
        "1",
        "2999999999",
        "0x67bFd0B42F5f39710B4E90301289F81Eab6315dA",
        "1"
      ],
      "transaction": {
        "from": "0x67bfd0b42f5f39710b4e90301289f81eab6315da",
        "to": "0x2e180501d3d68241dd0318c68fd9be0af1d519a1",
        "gas": "0x9feaa",
        "value": "0x0",
        "input": "0x011c4dd90000000000000000000000000000000000000000000000000000000000000006000000000000000000000000000000000000000000000000000000000000000100000000000000000000000000000000000000000000000000000000b2d05dff00000000000000000000000067bfd0b42f5f39710b4e90301289f81eab6315da0000000000000000000000000000000000000000000000000000000000000001",
        "nonce": "0xaa",
        "chainId": "0x14a34"
      },
      "additionalContracts": [],
      "isFixedGasLimit": false
    },
    {
      "hash": "0x70ecfea3005200db4f944111217938e8f43de312176a2e539953ba85e22bc3e3",
      "transactionType": "CALL",
      "contractName": null,
      "contractAddress": "0x2e180501d3d68241dd0318c68fd9be0af1d519a1",
      "function": "placeBet(uint256,uint256,uint256,address,uint8)",
      "arguments": [
        "4",
        "1",
        "1000000",
        "0x67bFd0B42F5f39710B4E90301289F81Eab6315dA",
        "0"
      ],
      "transaction": {
        "from": "0x67bfd0b42f5f39710b4e90301289f81eab6315da",
        "to": "0x2e180501d3d68241dd0318c68fd9be0af1d519a1",
        "gas": "0x9f686",
        "value": "0x0",
        "input": "0x011c4dd90000000000000000000000000000000000000000000000000000000000000004000000000000000000000000000000000000000000000000000000000000000100000000000000000000000000000000000000000000000000000000000f424000000000000000000000000067bfd0b42f5f39710b4e90301289f81eab6315da0000000000000000000000000000000000000000000000000000000000000000",
        "nonce": "0xab",
        "chainId": "0x14a34"
      },
      "additionalContracts": [],
      "isFixedGasLimit": false
    },
    {
      "hash": "0x1ae4b2cd23b8e3d7f66109383ead2b10ca6b04700c075a7352ecb848fff535be",
      "transactionType": "CALL",
      "contractName": null,
      "contractAddress": "0x2e180501d3d68241dd0318c68fd9be0af1d519a1",
      "function": "placeBet(uint256,uint256,uint256,address,uint8)",
      "arguments": [
        "5",
        "1",
        "2000000",
        "0x67bFd0B42F5f39710B4E90301289F81Eab6315dA",
        "0"
      ],
      "transaction": {
        "from": "0x67bfd0b42f5f39710b4e90301289f81eab6315da",
        "to": "0x2e180501d3d68241dd0318c68fd9be0af1d519a1",
        "gas": "0x9c516",
        "value": "0x0",
        "input": "0x011c4dd90000000000000000000000000000000000000000000000000000000000000005000000000000000000000000000000000000000000000000000000000000000100000000000000000000000000000000000000000000000000000000001e848000000000000000000000000067bfd0b42f5f39710b4e90301289f81eab6315da0000000000000000000000000000000000000000000000000000000000000000",
        "nonce": "0xac",
        "chainId": "0x14a34"
      },
      "additionalContracts": [],
      "isFixedGasLimit": false
    },
    {
      "hash": "0xb43f69c2d89bcb8d85ec9d6a41d326826c13b353acc3b3e31b9ea7d85c53748c",
      "transactionType": "CALL",
      "contractName": null,
      "contractAddress": "0x2e180501d3d68241dd0318c68fd9be0af1d519a1",
      "function": "placeBet(uint256,uint256,uint256,address,uint8)",
      "arguments": [
        "6",
        "0",
        "4000000",
        "0x67bFd0B42F5f39710B4E90301289F81Eab6315dA",
        "0"
      ],
      "transaction": {
        "from": "0x67bfd0b42f5f39710b4e90301289f81eab6315da",
        "to": "0x2e180501d3d68241dd0318c68fd9be0af1d519a1",
        "gas": "0x8ee37",
        "value": "0x0",
        "input": "0x011c4dd90000000000000000000000000000000000000000000000000000000000000006000000000000000000000000000000000000000000000000000000000000000000000000000000000000000000000000000000000000000000000000003d090000000000000000000000000067bfd0b42f5f39710b4e90301289f81eab6315da0000000000000000000000000000000000000000000000000000000000000000",
        "nonce": "0xad",
        "chainId": "0x14a34"
      },
      "additionalContracts": [],
      "isFixedGasLimit": false
    },
    {
      "hash": "0x32c1252d898abb11c46b33a950d7be7fb10622c816f0e6768c51f8eb771c52c9",
      "transactionType": "CALL",
      "contractName": null,
      "contractAddress": "0xa373482b473e33b96412a6c0ca8b847e6bbb4d0d",
      "function": "approve(address,uint256)",
      "arguments": [
        "0x2E180501D3D68241dd0318c68fD9BE0AF1D519a1",
        "10000000000"
      ],
      "transaction": {
        "from": "0x12be474d127757d0a6a36631294f8ffbcdef44f8",
        "to": "0xa373482b473e33b96412a6c0ca8b847e6bbb4d0d",
        "gas": "0xf7ef",
        "value": "0x0",
        "input": "0x095ea7b30000000000000000000000002e180501d3d68241dd0318c68fd9be0af1d519a100000000000000000000000000000000000000000000000000000002540be400",
        "nonce": "0x8b",
        "chainId": "0x14a34"
      },
      "additionalContracts": [],
      "isFixedGasLimit": false
    },
    {
      "hash": "0xa3e4b1d7b98b8cb543cafe2a463593cfca52a87f99ac131a890a2f9efb2dec8b",
      "transactionType": "CALL",
      "contractName": null,
      "contractAddress": "0x036cbd53842c5426634e7929541ec2318f3dcf7e",
      "function": "approve(address,uint256)",
      "arguments": [
        "0x2E180501D3D68241dd0318c68fD9BE0AF1D519a1",
        "500000000"
      ],
      "transaction": {
        "from": "0x12be474d127757d0a6a36631294f8ffbcdef44f8",
        "to": "0x036cbd53842c5426634e7929541ec2318f3dcf7e",
        "gas": "0x12b1b",
        "value": "0x0",
        "input": "0x095ea7b30000000000000000000000002e180501d3d68241dd0318c68fd9be0af1d519a1000000000000000000000000000000000000000000000000000000001dcd6500",
        "nonce": "0x8c",
        "chainId": "0x14a34"
      },
      "additionalContracts": [],
      "isFixedGasLimit": false
    },
    {
      "hash": "0xf467679f5096d34623671a4518110dec6c89d0d7c38c96b8cc5f6ff8b4c346be",
      "transactionType": "CALL",
      "contractName": null,
      "contractAddress": "0x2e180501d3d68241dd0318c68fd9be0af1d519a1",
      "function": "placeBet(uint256,uint256,uint256,address,uint8)",
      "arguments": [
        "4",
        "1",
        "2999999999",
        "0x12BE474D127757d0a6a36631294F8FfBCdeF44F8",
        "1"
      ],
      "transaction": {
        "from": "0x12be474d127757d0a6a36631294f8ffbcdef44f8",
        "to": "0x2e180501d3d68241dd0318c68fd9be0af1d519a1",
        "gas": "0xab731",
        "value": "0x0",
        "input": "0x011c4dd90000000000000000000000000000000000000000000000000000000000000004000000000000000000000000000000000000000000000000000000000000000100000000000000000000000000000000000000000000000000000000b2d05dff00000000000000000000000012be474d127757d0a6a36631294f8ffbcdef44f80000000000000000000000000000000000000000000000000000000000000001",
        "nonce": "0x8d",
        "chainId": "0x14a34"
      },
      "additionalContracts": [],
      "isFixedGasLimit": false
    },
    {
      "hash": "0x3056bcd1995cad6409c8325fe57d1030df25218b61de55881d8b64b198426a8f",
      "transactionType": "CALL",
      "contractName": null,
      "contractAddress": "0x2e180501d3d68241dd0318c68fd9be0af1d519a1",
      "function": "placeBet(uint256,uint256,uint256,address,uint8)",
      "arguments": [
        "5",
        "0",
        "2999999999",
        "0x12BE474D127757d0a6a36631294F8FfBCdeF44F8",
        "1"
      ],
      "transaction": {
        "from": "0x12be474d127757d0a6a36631294f8ffbcdef44f8",
        "to": "0x2e180501d3d68241dd0318c68fd9be0af1d519a1",
        "gas": "0x9b1bc",
        "value": "0x0",
        "input": "0x011c4dd90000000000000000000000000000000000000000000000000000000000000005000000000000000000000000000000000000000000000000000000000000000000000000000000000000000000000000000000000000000000000000b2d05dff00000000000000000000000012be474d127757d0a6a36631294f8ffbcdef44f80000000000000000000000000000000000000000000000000000000000000001",
        "nonce": "0x8e",
        "chainId": "0x14a34"
      },
      "additionalContracts": [],
      "isFixedGasLimit": false
    },
    {
      "hash": "0x706860d915c875f45ecec109e57839759bcb5290bad68f727f3e85212b162c21",
      "transactionType": "CALL",
      "contractName": null,
      "contractAddress": "0x2e180501d3d68241dd0318c68fd9be0af1d519a1",
      "function": "placeBet(uint256,uint256,uint256,address,uint8)",
      "arguments": [
        "6",
        "1",
        "2999999999",
        "0x12BE474D127757d0a6a36631294F8FfBCdeF44F8",
        "1"
      ],
      "transaction": {
        "from": "0x12be474d127757d0a6a36631294f8ffbcdef44f8",
        "to": "0x2e180501d3d68241dd0318c68fd9be0af1d519a1",
        "gas": "0x9feaa",
        "value": "0x0",
        "input": "0x011c4dd90000000000000000000000000000000000000000000000000000000000000006000000000000000000000000000000000000000000000000000000000000000100000000000000000000000000000000000000000000000000000000b2d05dff00000000000000000000000012be474d127757d0a6a36631294f8ffbcdef44f80000000000000000000000000000000000000000000000000000000000000001",
        "nonce": "0x8f",
        "chainId": "0x14a34"
      },
      "additionalContracts": [],
      "isFixedGasLimit": false
    },
    {
      "hash": "0x0aa49fa916e2f762c520e3eb08127fe3bd483fd06e7ff1f88b7fcd23269bb15e",
      "transactionType": "CALL",
      "contractName": null,
      "contractAddress": "0x2e180501d3d68241dd0318c68fd9be0af1d519a1",
      "function": "placeBet(uint256,uint256,uint256,address,uint8)",
      "arguments": [
        "4",
        "0",
        "4000000",
        "0x12BE474D127757d0a6a36631294F8FfBCdeF44F8",
        "0"
      ],
      "transaction": {
        "from": "0x12be474d127757d0a6a36631294f8ffbcdef44f8",
        "to": "0x2e180501d3d68241dd0318c68fd9be0af1d519a1",
        "gas": "0x8ee37",
        "value": "0x0",
        "input": "0x011c4dd90000000000000000000000000000000000000000000000000000000000000004000000000000000000000000000000000000000000000000000000000000000000000000000000000000000000000000000000000000000000000000003d090000000000000000000000000012be474d127757d0a6a36631294f8ffbcdef44f80000000000000000000000000000000000000000000000000000000000000000",
        "nonce": "0x90",
        "chainId": "0x14a34"
      },
      "additionalContracts": [],
      "isFixedGasLimit": false
    },
    {
      "hash": "0x0a84efd9ef5518e34c01f680850bd41f5b00dc74f90a214d86211075315a11d5",
      "transactionType": "CALL",
      "contractName": null,
      "contractAddress": "0x2e180501d3d68241dd0318c68fd9be0af1d519a1",
      "function": "placeBet(uint256,uint256,uint256,address,uint8)",
      "arguments": [
        "5",
        "0",
        "5000000",
        "0x12BE474D127757d0a6a36631294F8FfBCdeF44F8",
        "0"
      ],
      "transaction": {
        "from": "0x12be474d127757d0a6a36631294f8ffbcdef44f8",
        "to": "0x2e180501d3d68241dd0318c68fd9be0af1d519a1",
        "gas": "0x89204",
        "value": "0x0",
        "input": "0x011c4dd90000000000000000000000000000000000000000000000000000000000000005000000000000000000000000000000000000000000000000000000000000000000000000000000000000000000000000000000000000000000000000004c4b4000000000000000000000000012be474d127757d0a6a36631294f8ffbcdef44f80000000000000000000000000000000000000000000000000000000000000000",
        "nonce": "0x91",
        "chainId": "0x14a34"
      },
      "additionalContracts": [],
      "isFixedGasLimit": false
    },
    {
      "hash": "0xd7bc4be8692fe780060a95aaba5808ec522e851284254fd08ac86da4564fb90e",
      "transactionType": "CALL",
      "contractName": null,
      "contractAddress": "0x2e180501d3d68241dd0318c68fd9be0af1d519a1",
      "function": "placeBet(uint256,uint256,uint256,address,uint8)",
      "arguments": [
        "6",
        "1",
        "1000000",
        "0x12BE474D127757d0a6a36631294F8FfBCdeF44F8",
        "0"
      ],
      "transaction": {
        "from": "0x12be474d127757d0a6a36631294f8ffbcdef44f8",
        "to": "0x2e180501d3d68241dd0318c68fd9be0af1d519a1",
        "gas": "0x9f686",
        "value": "0x0",
        "input": "0x011c4dd90000000000000000000000000000000000000000000000000000000000000006000000000000000000000000000000000000000000000000000000000000000100000000000000000000000000000000000000000000000000000000000f424000000000000000000000000012be474d127757d0a6a36631294f8ffbcdef44f80000000000000000000000000000000000000000000000000000000000000000",
        "nonce": "0x92",
        "chainId": "0x14a34"
      },
      "additionalContracts": [],
      "isFixedGasLimit": false
    },
    {
      "hash": "0x39e47894bc58a685e88d4f5f5dd0f67e35a583a50f4bd84347f94da266311946",
      "transactionType": "CALL",
      "contractName": null,
      "contractAddress": "0x2e180501d3d68241dd0318c68fd9be0af1d519a1",
      "function": "gradeBet(uint256,uint256)",
      "arguments": [
        "4",
        "2"
      ],
      "transaction": {
        "from": "0x7956c2c1b85f5ac14c2c537f669b65991428e268",
        "to": "0x2e180501d3d68241dd0318c68fd9be0af1d519a1",
        "gas": "0xa6bd",
        "value": "0x0",
        "input": "0xff0beb6200000000000000000000000000000000000000000000000000000000000000040000000000000000000000000000000000000000000000000000000000000002",
        "nonce": "0xac",
        "chainId": "0x14a34"
      },
      "additionalContracts": [],
      "isFixedGasLimit": false
    },
    {
      "hash": "0x023064d4539a1c019038118bd3ddd3185d7edee456dc9222136967b542a9a9b5",
      "transactionType": "CALL",
      "contractName": null,
      "contractAddress": "0x2e180501d3d68241dd0318c68fd9be0af1d519a1",
      "function": "gradeBet(uint256,uint256)",
      "arguments": [
        "5",
        "0"
      ],
      "transaction": {
        "from": "0x7956c2c1b85f5ac14c2c537f669b65991428e268",
        "to": "0x2e180501d3d68241dd0318c68fd9be0af1d519a1",
        "gas": "0x73afc",
        "value": "0x0",
        "input": "0xff0beb6200000000000000000000000000000000000000000000000000000000000000050000000000000000000000000000000000000000000000000000000000000000",
        "nonce": "0xad",
        "chainId": "0x14a34"
      },
      "additionalContracts": [],
      "isFixedGasLimit": false
    },
    {
      "hash": "0xb402a0255ef97a1ea63ea4a0ff98710ab5c31c5d2eefd32ea3759aa7dd5310c0",
      "transactionType": "CALL",
      "contractName": null,
      "contractAddress": "0x2e180501d3d68241dd0318c68fd9be0af1d519a1",
      "function": "gradeBet(uint256,uint256)",
      "arguments": [
        "6",
        "1"
      ],
      "transaction": {
        "from": "0x7956c2c1b85f5ac14c2c537f669b65991428e268",
        "to": "0x2e180501d3d68241dd0318c68fd9be0af1d519a1",
        "gas": "0x58e8a",
        "value": "0x0",
        "input": "0xff0beb6200000000000000000000000000000000000000000000000000000000000000060000000000000000000000000000000000000000000000000000000000000001",
        "nonce": "0xae",
        "chainId": "0x14a34"
      },
      "additionalContracts": [],
      "isFixedGasLimit": false
    }
  ],
  "receipts": [
    {
      "status": "0x1",
      "cumulativeGasUsed": "0xa8b790",
      "logs": [
        {
          "address": "0xa373482b473e33b96412a6c0ca8b847e6bbb4d0d",
          "topics": [
            "0xddf252ad1be2c89b69c2b068fc378daa952ba7f163c4a11628f55a4df523b3ef",
            "0x0000000000000000000000000000000000000000000000000000000000000000",
            "0x0000000000000000000000004e5dc9df946500b07e9c66e4dd29bf9cd062002b"
          ],
          "data": "0x00000000000000000000000000000000000000000000000000000002540be400",
          "blockHash": "0x94c7f76c0dcc8328e1ac58607c3ce90db38003d65825de3475e2a6794b013b27",
          "blockNumber": "0x16534ce",
          "transactionHash": "0x512a4e13d2dca7214d38e739995f54a72e3e547ceb2f1ad87dec97df69e08560",
          "transactionIndex": "0x24",
          "logIndex": "0x131",
          "removed": false
        }
      ],
      "logsBloom": "0x00000000000000000000000000000000000000000000000000000000000000000000000000000000000000000000000000000000000000000000000000000000000000000000000000000008000000000000000000200000000000000000000000000000020000000000000000000800000000000000000000000010000000000000000000001000004000000000000000000000000000000000000000000000000000000000000000000000000000000000000000000000000000000000000000010002000000000000000000000000000000000000800000100000000020000000000000000000000000000000000000000000000000000000000000000000",
      "type": "0x2",
      "transactionHash": "0x512a4e13d2dca7214d38e739995f54a72e3e547ceb2f1ad87dec97df69e08560",
      "transactionIndex": "0x24",
      "blockHash": "0x94c7f76c0dcc8328e1ac58607c3ce90db38003d65825de3475e2a6794b013b27",
      "blockNumber": "0x16534ce",
      "gasUsed": "0xcf94",
      "effectiveGasPrice": "0xf099f",
      "from": "0x7956c2c1b85f5ac14c2c537f669b65991428e268",
      "to": "0xa373482b473e33b96412a6c0ca8b847e6bbb4d0d",
      "contractAddress": null,
      "l1BaseFeeScalar": "0x44d",
      "l1BlobBaseFee": "0x1",
      "l1BlobBaseFeeScalar": "0xa118b",
      "l1Fee": "0xb1a3040",
      "l1GasPrice": "0x64d699a",
      "l1GasUsed": "0x640"
    },
    {
      "status": "0x1",
      "cumulativeGasUsed": "0x6762a4",
      "logs": [
        {
          "address": "0xa373482b473e33b96412a6c0ca8b847e6bbb4d0d",
          "topics": [
            "0xddf252ad1be2c89b69c2b068fc378daa952ba7f163c4a11628f55a4df523b3ef",
            "0x0000000000000000000000000000000000000000000000000000000000000000",
            "0x00000000000000000000000067bfd0b42f5f39710b4e90301289f81eab6315da"
          ],
          "data": "0x00000000000000000000000000000000000000000000000000000002540be400",
          "blockHash": "0xa9a57eb0b777d364478e45573dd33810f6d8952b7af9ecb5e26a1a3e914c8fe9",
          "blockNumber": "0x16534d0",
          "transactionHash": "0x801f63ddbef9443282677a6f48a3f718fc3b501aea03e50ae30cd5656600fad6",
          "transactionIndex": "0x21",
          "logIndex": "0xc3",
          "removed": false
        }
      ],
      "logsBloom": "0x00000000000000000080000000000000000000000000000000000000000000000000000000000000000000000000000000000000000000000000000000000000000000000000000000000008000000000000000000200000000000000000000000000000020000000000000000000800000000000000000000000010000000000000000000001000000000000000000000000000000000000000000000000000000000000000280000000000000000000000000000000000000000000000000000000002000000000000000000000000000000000000000000100000000020000000000000000000000000000000000000000000000000000000000000000000",
      "type": "0x2",
      "transactionHash": "0x801f63ddbef9443282677a6f48a3f718fc3b501aea03e50ae30cd5656600fad6",
      "transactionIndex": "0x21",
      "blockHash": "0xa9a57eb0b777d364478e45573dd33810f6d8952b7af9ecb5e26a1a3e914c8fe9",
      "blockNumber": "0x16534d0",
      "gasUsed": "0xcfac",
      "effectiveGasPrice": "0xf09a8",
      "from": "0x7956c2c1b85f5ac14c2c537f669b65991428e268",
      "to": "0xa373482b473e33b96412a6c0ca8b847e6bbb4d0d",
      "contractAddress": null,
      "l1BaseFeeScalar": "0x44d",
      "l1BlobBaseFee": "0x1",
      "l1BlobBaseFeeScalar": "0xa118b",
      "l1Fee": "0xb1a3040",
      "l1GasPrice": "0x64d699a",
      "l1GasUsed": "0x640"
    },
    {
      "status": "0x1",
      "cumulativeGasUsed": "0x985372",
      "logs": [
        {
          "address": "0xa373482b473e33b96412a6c0ca8b847e6bbb4d0d",
          "topics": [
            "0xddf252ad1be2c89b69c2b068fc378daa952ba7f163c4a11628f55a4df523b3ef",
            "0x0000000000000000000000000000000000000000000000000000000000000000",
            "0x00000000000000000000000012be474d127757d0a6a36631294f8ffbcdef44f8"
          ],
          "data": "0x00000000000000000000000000000000000000000000000000000002540be400",
          "blockHash": "0xe38df26872fb7e701bf5352b1bd0bad50d025f6942f48ef95ea4e991f2e7c329",
          "blockNumber": "0x16534d2",
          "transactionHash": "0x6b0e37af94378176df1473a0c29a3b08628844b35382728a4673e0f8027f1cfe",
          "transactionIndex": "0x1c",
          "logIndex": "0xed",
          "removed": false
        }
      ],
      "logsBloom": "0x00000000000000000000000000000000000000000000000000000000000000000000000000000000000000000000000000000000000000000000000000000000000000000000000000000008000000000000000000200000000000000000000000000000020000000000000000000800000000000000000000800010000000000000000000001000000000000000000000000000000000000000000000000000008000000000000000000000000000000000000000000000000000000000000000000002000000000000000100000000000000000000000000100000000020000000000000000000000000000000000000000000000000000000000000000000",
      "type": "0x2",
      "transactionHash": "0x6b0e37af94378176df1473a0c29a3b08628844b35382728a4673e0f8027f1cfe",
      "transactionIndex": "0x1c",
      "blockHash": "0xe38df26872fb7e701bf5352b1bd0bad50d025f6942f48ef95ea4e991f2e7c329",
      "blockNumber": "0x16534d2",
      "gasUsed": "0xcfac",
      "effectiveGasPrice": "0xf09b4",
      "from": "0x7956c2c1b85f5ac14c2c537f669b65991428e268",
      "to": "0xa373482b473e33b96412a6c0ca8b847e6bbb4d0d",
      "contractAddress": null,
      "l1BaseFeeScalar": "0x44d",
      "l1BlobBaseFee": "0x1",
      "l1BlobBaseFeeScalar": "0xa118b",
      "l1Fee": "0xb1a3040",
      "l1GasPrice": "0x64d699a",
      "l1GasUsed": "0x640"
    },
    {
      "status": "0x1",
      "cumulativeGasUsed": "0x94b026",
      "logs": [
        {
          "address": "0x2e180501d3d68241dd0318c68fd9be0af1d519a1",
          "topics": [
            "0xa6911b1100a84108be7e4458ca4926ac7aac190db354ff63847b820b02beb88b"
          ],
          "data": "0x0000000000000000000000000000000000000000000000000000000000000004000000000000000000000000000000000000000000000000000000000000004000000000000000000000000000000000000000000000000000000000000000c000000000000000000000000000000000000000000000000000000000000001200000000000000000000000000000000000000000000000000000000067ddd65e00000000000000000000000000000000000000000000000000000000000001e0000000000000000000000000000000000000000000000000000000000000024000000000000000000000000000000000000000000000000000000000000002a0000000000000000000000000000000000000000000000000000000000000003c57696c6c204920504152444f4e204d5953454c463f20546865205241444943414c204c45465420697320544552524946494544206f6620746869732100000000000000000000000000000000000000000000000000000000000000000000004000000000000000000000000000000000000000000000000000000000000000800000000000000000000000000000000000000000000000000000000000000003594553000000000000000000000000000000000000000000000000000000000000000000000000000000000000000000000000000000000000000000000000024e4f000000000000000000000000000000000000000000000000000000000000000000000000000000000000000000000000000000000000000000000000003f5468697320706f6f6c2077696c6c20636c6f7365206966205472756d7020706f73747320746861742068652077696c6c20706172646f6e2068696d73656c6600000000000000000000000000000000000000000000000000000000000000003e477261646520594553206966205472756d7020706f7374732061626f757420706172646f6e696e672068696d73656c662c204e4f206f7468657277697365000000000000000000000000000000000000000000000000000000000000000000123131343139373039323230353731393535370000000000000000000000000000",
          "blockHash": "0x3de678d4a9817b38e97bcae3e07a595a033456d1b7c8a5bd226f7be288df5369",
          "blockNumber": "0x16534d4",
          "transactionHash": "0xefa696261faf7aa41e613c1101d41f8e88c4b1015a07138eb3752effdc2a7110",
          "transactionIndex": "0x1f",
          "logIndex": "0x14e",
          "removed": false
        }
      ],
      "logsBloom": "0x00000000000000000000000000000000000010000000000000000000000000000000000000000000000001000000000000000000000000000000000000000000000000000000000000000000000000000000000000000000000000000000000000000000000000000000000000000000000000000000000000000000000000000000000000000000000000000000004000000000000000000000000000000000000000000000000000000000000000000000000000000000000000000000000000000000000000000000000000000000000000000000000000000000000000000000028002000000000000000000000000000000000000000000000000000000",
      "type": "0x2",
      "transactionHash": "0xefa696261faf7aa41e613c1101d41f8e88c4b1015a07138eb3752effdc2a7110",
      "transactionIndex": "0x1f",
      "blockHash": "0x3de678d4a9817b38e97bcae3e07a595a033456d1b7c8a5bd226f7be288df5369",
      "blockNumber": "0x16534d4",
      "gasUsed": "0x65b89",
      "effectiveGasPrice": "0xf09c6",
      "from": "0x7956c2c1b85f5ac14c2c537f669b65991428e268",
      "to": "0x2e180501d3d68241dd0318c68fd9be0af1d519a1",
      "contractAddress": null,
      "l1BaseFeeScalar": "0x44d",
      "l1BlobBaseFee": "0x1",
      "l1BlobBaseFeeScalar": "0xa118b",
      "l1Fee": "0x23b47fa2",
      "l1GasPrice": "0x6a3024e",
      "l1GasUsed": "0x1316"
    },
    {
      "status": "0x1",
      "cumulativeGasUsed": "0x5b5425",
      "logs": [
        {
          "address": "0x2e180501d3d68241dd0318c68fd9be0af1d519a1",
          "topics": [
            "0xa6911b1100a84108be7e4458ca4926ac7aac190db354ff63847b820b02beb88b"
          ],
          "data": "0x0000000000000000000000000000000000000000000000000000000000000005000000000000000000000000000000000000000000000000000000000000004000000000000000000000000000000000000000000000000000000000000000c000000000000000000000000000000000000000000000000000000000000001400000000000000000000000000000000000000000000000000000000067ddd65e000000000000000000000000000000000000000000000000000000000000020000000000000000000000000000000000000000000000000000000000000002800000000000000000000000000000000000000000000000000000000000000300000000000000000000000000000000000000000000000000000000000000005057696c6c204920464952452054484520464249204449524543544f52206f6e20646179206f6e653f205468652046424920686173206265656e20574541504f4e495a454420616761696e73742075732100000000000000000000000000000000000000000000000000000000000000000000000000000000000000000000004000000000000000000000000000000000000000000000000000000000000000800000000000000000000000000000000000000000000000000000000000000003594553000000000000000000000000000000000000000000000000000000000000000000000000000000000000000000000000000000000000000000000000024e4f00000000000000000000000000000000000000000000000000000000000000000000000000000000000000000000000000000000000000000000000000465468697320706f6f6c2077696c6c20636c6f7365206966205472756d70206d616b657320612073746174656d656e742061626f75742074686520464249204469726563746f7200000000000000000000000000000000000000000000000000000000000000000000000000000000000000000000000000000000000000000043477261646520594553206966205472756d7020736179732068652077696c6c20666972652074686520464249204469726563746f722c204e4f206f7468657277697365000000000000000000000000000000000000000000000000000000000000000000000000000000000000000000000000000000000000000000000000123131343230303137353038323830363838320000000000000000000000000000",
          "blockHash": "0xbc91708be76cabdf807fb3871069bfd7cac2ad2b1fb224f86dd62968ba0da047",
          "blockNumber": "0x16534d6",
          "transactionHash": "0x04faecf65258a25f78a1d0183f9176da5e03cdb12359150b4bf09ebb7b634035",
          "transactionIndex": "0x12",
          "logIndex": "0x82",
          "removed": false
        }
      ],
      "logsBloom": "0x00000000000000000000000000000000000010000000000000000000000000000000000000000000000001000000000000000000000000000000000000000000000000000000000000000000000000000000000000000000000000000000000000000000000000000000000000000000000000000000000000000000000000000000000000000000000000000000004000000000000000000000000000000000000000000000000000000000000000000000000000000000000000000000000000000000000000000000000000000000000000000000000000000000000000000000028002000000000000000000000000000000000000000000000000000000",
      "type": "0x2",
      "transactionHash": "0x04faecf65258a25f78a1d0183f9176da5e03cdb12359150b4bf09ebb7b634035",
      "transactionIndex": "0x12",
      "blockHash": "0xbc91708be76cabdf807fb3871069bfd7cac2ad2b1fb224f86dd62968ba0da047",
      "blockNumber": "0x16534d6",
      "gasUsed": "0x76593",
      "effectiveGasPrice": "0xf09c6",
      "from": "0x7956c2c1b85f5ac14c2c537f669b65991428e268",
      "to": "0x2e180501d3d68241dd0318c68fd9be0af1d519a1",
      "contractAddress": null,
      "l1BaseFeeScalar": "0x44d",
      "l1BlobBaseFee": "0x1",
      "l1BlobBaseFeeScalar": "0xa118b",
      "l1Fee": "0x25f45501",
      "l1GasPrice": "0x6a3024e",
      "l1GasUsed": "0x144a"
    },
    {
      "status": "0x1",
      "cumulativeGasUsed": "0x29b1d2",
      "logs": [
        {
          "address": "0x2e180501d3d68241dd0318c68fd9be0af1d519a1",
          "topics": [
            "0xa6911b1100a84108be7e4458ca4926ac7aac190db354ff63847b820b02beb88b"
          ],
          "data": "0x0000000000000000000000000000000000000000000000000000000000000006000000000000000000000000000000000000000000000000000000000000004000000000000000000000000000000000000000000000000000000000000000c000000000000000000000000000000000000000000000000000000000000001400000000000000000000000000000000000000000000000000000000067ddd65e0000000000000000000000000000000000000000000000000000000000000200000000000000000000000000000000000000000000000000000000000000026000000000000000000000000000000000000000000000000000000000000002c0000000000000000000000000000000000000000000000000000000000000005257696c6c20492057494e207468652064656261746520616761696e737420534c45455059204a4f453f2045766572796f6e65206b6e6f7773204920776f6e20746865206c617374206f6e65204249474c59210000000000000000000000000000000000000000000000000000000000000000000000000000000000000000004000000000000000000000000000000000000000000000000000000000000000800000000000000000000000000000000000000000000000000000000000000003594553000000000000000000000000000000000000000000000000000000000000000000000000000000000000000000000000000000000000000000000000024e4f00000000000000000000000000000000000000000000000000000000000000000000000000000000000000000000000000000000000000000000000000325468697320706f6f6c2077696c6c20636c6f73652061667465722074686520707265736964656e7469616c2064656261746500000000000000000000000000000000000000000000000000000000000000000000000000000000000000000030477261646520594553206966205472756d702077696e7320746865206465626174652c204e4f206f74686572776973650000000000000000000000000000000000000000000000000000000000000000000000000000000000000000000000123131343230303331333030393830323633380000000000000000000000000000",
          "blockHash": "0x01412235918e650925a1c398493c1d018c28732f70312415db75df941909fb98",
          "blockNumber": "0x16534d8",
          "transactionHash": "0x50f796ea47472e343bcce651fa0c40221779579389b2cc007004bfe25e099c3b",
          "transactionIndex": "0xa",
          "logIndex": "0xd",
          "removed": false
        }
      ],
      "logsBloom": "0x00000000000000000000000000000000000010000000000000000000000000000000000000000000000001000000000000000000000000000000000000000000000000000000000000000000000000000000000000000000000000000000000000000000000000000000000000000000000000000000000000000000000000000000000000000000000000000000004000000000000000000000000000000000000000000000000000000000000000000000000000000000000000000000000000000000000000000000000000000000000000000000000000000000000000000000028002000000000000000000000000000000000000000000000000000000",
      "type": "0x2",
      "transactionHash": "0x50f796ea47472e343bcce651fa0c40221779579389b2cc007004bfe25e099c3b",
      "transactionIndex": "0xa",
      "blockHash": "0x01412235918e650925a1c398493c1d018c28732f70312415db75df941909fb98",
      "blockNumber": "0x16534d8",
      "gasUsed": "0x6b377",
      "effectiveGasPrice": "0xf09b4",
      "from": "0x7956c2c1b85f5ac14c2c537f669b65991428e268",
      "to": "0x2e180501d3d68241dd0318c68fd9be0af1d519a1",
      "contractAddress": null,
      "l1BaseFeeScalar": "0x44d",
      "l1BlobBaseFee": "0x1",
      "l1BlobBaseFeeScalar": "0xa118b",
      "l1Fee": "0x2431ae05",
      "l1GasPrice": "0x6a3024e",
      "l1GasUsed": "0x1359"
    },
    {
      "status": "0x1",
      "cumulativeGasUsed": "0x52c34",
      "logs": [
        {
          "address": "0xa373482b473e33b96412a6c0ca8b847e6bbb4d0d",
          "topics": [
            "0x8c5be1e5ebec7d5bd14f71427d1e84f3dd0314c0f7b2291e5b200ac8c7c3b925",
            "0x0000000000000000000000004e5dc9df946500b07e9c66e4dd29bf9cd062002b",
            "0x0000000000000000000000002e180501d3d68241dd0318c68fd9be0af1d519a1"
          ],
          "data": "0x00000000000000000000000000000000000000000000000000000002540be400",
          "blockHash": "0xc343477af281619da0edb701c7578119595f86892d24e9fe959e6de104bba134",
          "blockNumber": "0x16534da",
          "transactionHash": "0xa48f18a304936a9de2877516bd862fac9645fe78c775312627e4b05193c75008",
          "transactionIndex": "0x3",
          "logIndex": "0x5",
          "removed": false
        }
      ],
      "logsBloom": "0x00000000000000000000000000000000000000000000000000000000000000000000000000000000000000000000000000000000000000000000000000200000000000000000000000000000000000000000000000200000000000000000000000000000000000000000000000000000000000000000000000000000000000000000000000081000804000000000000000000000000000000000000000000000020000000000000000000000000000000000000000000000000000000000000000010000000000000000000000000000000000010000800000100000000000000010000000000000000000000000000000000000000000000000000000000000",
      "type": "0x2",
      "transactionHash": "0xa48f18a304936a9de2877516bd862fac9645fe78c775312627e4b05193c75008",
      "transactionIndex": "0x3",
      "blockHash": "0xc343477af281619da0edb701c7578119595f86892d24e9fe959e6de104bba134",
      "blockNumber": "0x16534da",
      "gasUsed": "0xb380",
      "effectiveGasPrice": "0xf09a8",
      "from": "0x4e5dc9df946500b07e9c66e4dd29bf9cd062002b",
      "to": "0xa373482b473e33b96412a6c0ca8b847e6bbb4d0d",
      "contractAddress": null,
      "l1BaseFeeScalar": "0x44d",
      "l1BlobBaseFee": "0x1",
      "l1BlobBaseFeeScalar": "0xa118b",
      "l1Fee": "0xc34523a",
      "l1GasPrice": "0x6ed91d1",
      "l1GasUsed": "0x640"
    },
    {
      "status": "0x1",
      "cumulativeGasUsed": "0xab0c5a",
      "logs": [
        {
          "address": "0x036cbd53842c5426634e7929541ec2318f3dcf7e",
          "topics": [
            "0x8c5be1e5ebec7d5bd14f71427d1e84f3dd0314c0f7b2291e5b200ac8c7c3b925",
            "0x0000000000000000000000004e5dc9df946500b07e9c66e4dd29bf9cd062002b",
            "0x0000000000000000000000002e180501d3d68241dd0318c68fd9be0af1d519a1"
          ],
          "data": "0x000000000000000000000000000000000000000000000000000000001dcd6500",
          "blockHash": "0xa27e14ff40ed9f9fdb43ca3bfe36fd52ba1c1c36b0acc2218956f03d0c5fffce",
          "blockNumber": "0x16534db",
          "transactionHash": "0x8e42c58806256ca92984c63c9e1c3d02e174a336100220b7b4fd8c093c8ea2d2",
          "transactionIndex": "0x2b",
          "logIndex": "0x11c",
          "removed": false
        }
      ],
      "logsBloom": "0x00000000040000000000000000000000000000000000000000000000000000000000000000000000000000000000000000000000000000000000000000200000000000000000000000000000000000000000000000000000000000000000000800000000000000000000000000000000000000000000000000000000000000000000000000080000804000000000000000000000000000000000000000000000020000000000000000000000000000000000000000000000000000000000000000010000000000000000000000000000000000010000800000000000000000000010000000000000000000000020000000000000000000000000000000000000",
      "type": "0x2",
      "transactionHash": "0x8e42c58806256ca92984c63c9e1c3d02e174a336100220b7b4fd8c093c8ea2d2",
      "transactionIndex": "0x2b",
      "blockHash": "0xa27e14ff40ed9f9fdb43ca3bfe36fd52ba1c1c36b0acc2218956f03d0c5fffce",
      "blockNumber": "0x16534db",
      "gasUsed": "0xd88d",
      "effectiveGasPrice": "0xf09a5",
      "from": "0x4e5dc9df946500b07e9c66e4dd29bf9cd062002b",
      "to": "0x036cbd53842c5426634e7929541ec2318f3dcf7e",
      "contractAddress": null,
      "l1BaseFeeScalar": "0x44d",
      "l1BlobBaseFee": "0x1",
      "l1BlobBaseFeeScalar": "0xa118b",
      "l1Fee": "0xc34523a",
      "l1GasPrice": "0x6ed91d1",
      "l1GasUsed": "0x640"
    },
    {
      "status": "0x1",
      "cumulativeGasUsed": "0xe7267",
      "logs": [
        {
          "address": "0xa373482b473e33b96412a6c0ca8b847e6bbb4d0d",
          "topics": [
            "0xddf252ad1be2c89b69c2b068fc378daa952ba7f163c4a11628f55a4df523b3ef",
            "0x0000000000000000000000004e5dc9df946500b07e9c66e4dd29bf9cd062002b",
            "0x0000000000000000000000002e180501d3d68241dd0318c68fd9be0af1d519a1"
          ],
          "data": "0x00000000000000000000000000000000000000000000000000000000b2d05dff",
          "blockHash": "0x881b8ce245c3728905b58d53d87d611eac24390f9fd04b171e0ce9daa0afb9ee",
          "blockNumber": "0x16534dd",
          "transactionHash": "0xda367f86cdbb54692ef29b27a4ef21e36368f69acac275ab53837e9933d83b7e",
          "transactionIndex": "0x5",
          "logIndex": "0xa",
          "removed": false
        },
        {
          "address": "0x2e180501d3d68241dd0318c68fd9be0af1d519a1",
          "topics": [
            "0xe523847b7270abe685bcbcb11a424b9030e5627e3d5770781dd5bbeb1ddee143",
            "0x0000000000000000000000000000000000000000000000000000000000000001",
            "0x0000000000000000000000000000000000000000000000000000000000000004",
            "0x0000000000000000000000004e5dc9df946500b07e9c66e4dd29bf9cd062002b"
          ],
          "data": "0x000000000000000000000000000000000000000000000000000000000000000000000000000000000000000000000000000000000000000000000000b2d05dff0000000000000000000000000000000000000000000000000000000000000001",
          "blockHash": "0x881b8ce245c3728905b58d53d87d611eac24390f9fd04b171e0ce9daa0afb9ee",
          "blockNumber": "0x16534dd",
          "transactionHash": "0xda367f86cdbb54692ef29b27a4ef21e36368f69acac275ab53837e9933d83b7e",
          "transactionIndex": "0x5",
          "logIndex": "0xb",
          "removed": false
        }
      ],
      "logsBloom": "0x00002000000000000000000000000000000010000000000000000000000000000000000000000000000001000000000000000000000000000000000000040000000000000000000000000008000000000000000000240000000000000000000008000000000000000000000000000000000000000000000000000010000000000000000000081000804000000000000000000000000000000400000000000000000000000000000000000000000000000000000000000000002000000000000000010002000000000000000000000000000000018000800000100000000040000000020000000000000000000000000000000000000010000000000000000000",
      "type": "0x2",
      "transactionHash": "0xda367f86cdbb54692ef29b27a4ef21e36368f69acac275ab53837e9933d83b7e",
      "transactionIndex": "0x5",
      "blockHash": "0x881b8ce245c3728905b58d53d87d611eac24390f9fd04b171e0ce9daa0afb9ee",
      "blockNumber": "0x16534dd",
      "gasUsed": "0x7ac02",
      "effectiveGasPrice": "0xf0992",
      "from": "0x4e5dc9df946500b07e9c66e4dd29bf9cd062002b",
      "to": "0x2e180501d3d68241dd0318c68fd9be0af1d519a1",
      "contractAddress": null,
      "l1BaseFeeScalar": "0x44d",
      "l1BlobBaseFee": "0x1",
      "l1BlobBaseFeeScalar": "0xa118b",
      "l1Fee": "0xc5cb32e",
      "l1GasPrice": "0x6ed91d1",
      "l1GasUsed": "0x654"
    },
    {
      "status": "0x1",
      "cumulativeGasUsed": "0x5129e4",
      "logs": [
        {
          "address": "0xa373482b473e33b96412a6c0ca8b847e6bbb4d0d",
          "topics": [
            "0xddf252ad1be2c89b69c2b068fc378daa952ba7f163c4a11628f55a4df523b3ef",
            "0x0000000000000000000000004e5dc9df946500b07e9c66e4dd29bf9cd062002b",
            "0x0000000000000000000000002e180501d3d68241dd0318c68fd9be0af1d519a1"
          ],
          "data": "0x00000000000000000000000000000000000000000000000000000000b2d05dff",
          "blockHash": "0x28802086c1e97b2c0c61ac813cf823ab350283e0101f83f6f9b8a0c943560dd4",
          "blockNumber": "0x16534df",
          "transactionHash": "0x1e51e92dd4e67fd625483267fddccbca65a021a18d1ca9a2a15dedc41234bb1d",
          "transactionIndex": "0x14",
          "logIndex": "0x57",
          "removed": false
        },
        {
          "address": "0x2e180501d3d68241dd0318c68fd9be0af1d519a1",
          "topics": [
            "0xe523847b7270abe685bcbcb11a424b9030e5627e3d5770781dd5bbeb1ddee143",
            "0x0000000000000000000000000000000000000000000000000000000000000002",
            "0x0000000000000000000000000000000000000000000000000000000000000005",
            "0x0000000000000000000000004e5dc9df946500b07e9c66e4dd29bf9cd062002b"
          ],
          "data": "0x000000000000000000000000000000000000000000000000000000000000000000000000000000000000000000000000000000000000000000000000b2d05dff0000000000000000000000000000000000000000000000000000000000000001",
          "blockHash": "0x28802086c1e97b2c0c61ac813cf823ab350283e0101f83f6f9b8a0c943560dd4",
          "blockNumber": "0x16534df",
          "transactionHash": "0x1e51e92dd4e67fd625483267fddccbca65a021a18d1ca9a2a15dedc41234bb1d",
          "transactionIndex": "0x14",
          "logIndex": "0x58",
          "removed": false
        }
      ],
      "logsBloom": "0x04002000000000000000000000000000000010000000000000000000000000000000000000000000000001000000000000000000000000000000000000000000000010000000000000000008000000000000000000200000000000000000000000000000000000000000000000000000000000000000000000000010000000000000000000081000804000000000001000000800000000000400000000000000000000000000000000000100000000000000000000000000000000000000000000010002000000000000000000000000000000010000800000100000000000000000020000000000000000000000000000000000008010000000000000000000",
      "type": "0x2",
      "transactionHash": "0x1e51e92dd4e67fd625483267fddccbca65a021a18d1ca9a2a15dedc41234bb1d",
      "transactionIndex": "0x14",
      "blockHash": "0x28802086c1e97b2c0c61ac813cf823ab350283e0101f83f6f9b8a0c943560dd4",
      "blockNumber": "0x16534df",
      "gasUsed": "0x7266a",
      "effectiveGasPrice": "0xf0994",
      "from": "0x4e5dc9df946500b07e9c66e4dd29bf9cd062002b",
      "to": "0x2e180501d3d68241dd0318c68fd9be0af1d519a1",
      "contractAddress": null,
      "l1BaseFeeScalar": "0x44d",
      "l1BlobBaseFee": "0x1",
      "l1BlobBaseFeeScalar": "0xa118b",
      "l1Fee": "0xc1fad54",
      "l1GasPrice": "0x6cb5ef9",
      "l1GasUsed": "0x654"
    },
    {
      "status": "0x1",
      "cumulativeGasUsed": "0x1db6b36",
      "logs": [
        {
          "address": "0xa373482b473e33b96412a6c0ca8b847e6bbb4d0d",
          "topics": [
            "0xddf252ad1be2c89b69c2b068fc378daa952ba7f163c4a11628f55a4df523b3ef",
            "0x0000000000000000000000004e5dc9df946500b07e9c66e4dd29bf9cd062002b",
            "0x0000000000000000000000002e180501d3d68241dd0318c68fd9be0af1d519a1"
          ],
          "data": "0x00000000000000000000000000000000000000000000000000000000b2d05dff",
          "blockHash": "0x27b70f2e393700741834383404904a4d9e99f01f3758c1d1334208c152169ea1",
          "blockNumber": "0x16534e0",
          "transactionHash": "0xfed037b742d91c0ac3c416509e7a52ef90ebdadaba865953ea9cf4d1bd812c4d",
          "transactionIndex": "0x4c",
          "logIndex": "0x33c",
          "removed": false
        },
        {
          "address": "0x2e180501d3d68241dd0318c68fd9be0af1d519a1",
          "topics": [
            "0xe523847b7270abe685bcbcb11a424b9030e5627e3d5770781dd5bbeb1ddee143",
            "0x0000000000000000000000000000000000000000000000000000000000000003",
            "0x0000000000000000000000000000000000000000000000000000000000000006",
            "0x0000000000000000000000004e5dc9df946500b07e9c66e4dd29bf9cd062002b"
          ],
          "data": "0x000000000000000000000000000000000000000000000000000000000000000100000000000000000000000000000000000000000000000000000000b2d05dff0000000000000000000000000000000000000000000000000000000000000001",
          "blockHash": "0x27b70f2e393700741834383404904a4d9e99f01f3758c1d1334208c152169ea1",
          "blockNumber": "0x16534e0",
          "transactionHash": "0xfed037b742d91c0ac3c416509e7a52ef90ebdadaba865953ea9cf4d1bd812c4d",
          "transactionIndex": "0x4c",
          "logIndex": "0x33d",
          "removed": false
        }
      ],
      "logsBloom": "0x00002000000000000000000000000000000010000000000000000000000000000000000000000000000001000000000000000000020400000000000000000000000000000000000000000008000000000000000000200000000000000000000000000000000000000000000000000000000000000000000000000010000000000000000400081000804000000000000000000000000000000400000000000000000000000000000000000000000000000000000000800000000000080000400000010002000000000000000000000000000000010000800000100000000000000000020000000000000000000000000000000000000010000000000000000000",
      "type": "0x2",
      "transactionHash": "0xfed037b742d91c0ac3c416509e7a52ef90ebdadaba865953ea9cf4d1bd812c4d",
      "transactionIndex": "0x4c",
      "blockHash": "0x27b70f2e393700741834383404904a4d9e99f01f3758c1d1334208c152169ea1",
      "blockNumber": "0x16534e0",
      "gasUsed": "0x7c1ee",
      "effectiveGasPrice": "0xf0994",
      "from": "0x4e5dc9df946500b07e9c66e4dd29bf9cd062002b",
      "to": "0x2e180501d3d68241dd0318c68fd9be0af1d519a1",
      "contractAddress": null,
      "l1BaseFeeScalar": "0x44d",
      "l1BlobBaseFee": "0x1",
      "l1BlobBaseFeeScalar": "0xa118b",
      "l1Fee": "0xc9fd503",
      "l1GasPrice": "0x6cb5ef9",
      "l1GasUsed": "0x697"
    },
    {
      "status": "0x1",
      "cumulativeGasUsed": "0x1bd5a2",
      "logs": [
        {
          "address": "0x036cbd53842c5426634e7929541ec2318f3dcf7e",
          "topics": [
            "0xddf252ad1be2c89b69c2b068fc378daa952ba7f163c4a11628f55a4df523b3ef",
            "0x0000000000000000000000004e5dc9df946500b07e9c66e4dd29bf9cd062002b",
            "0x0000000000000000000000002e180501d3d68241dd0318c68fd9be0af1d519a1"
          ],
          "data": "0x00000000000000000000000000000000000000000000000000000000003d0900",
          "blockHash": "0xb04a48eea30cf1f8bbab9c652d9c6dd7cf043c42db0de1694d8cfa1809be85e5",
          "blockNumber": "0x16534e2",
          "transactionHash": "0x6ea6f660e6c3ee2c2af911ec9b8bc2921994698bf511f6307563d6269e8bfc62",
          "transactionIndex": "0x6",
          "logIndex": "0x16",
          "removed": false
        },
        {
          "address": "0x2e180501d3d68241dd0318c68fd9be0af1d519a1",
          "topics": [
            "0xe523847b7270abe685bcbcb11a424b9030e5627e3d5770781dd5bbeb1ddee143",
            "0x0000000000000000000000000000000000000000000000000000000000000004",
            "0x0000000000000000000000000000000000000000000000000000000000000004",
            "0x0000000000000000000000004e5dc9df946500b07e9c66e4dd29bf9cd062002b"
          ],
          "data": "0x000000000000000000000000000000000000000000000000000000000000000100000000000000000000000000000000000000000000000000000000003d09000000000000000000000000000000000000000000000000000000000000000000",
          "blockHash": "0xb04a48eea30cf1f8bbab9c652d9c6dd7cf043c42db0de1694d8cfa1809be85e5",
          "blockNumber": "0x16534e2",
          "transactionHash": "0x6ea6f660e6c3ee2c2af911ec9b8bc2921994698bf511f6307563d6269e8bfc62",
          "transactionIndex": "0x6",
          "logIndex": "0x17",
          "removed": false
        }
      ],
      "logsBloom": "0x00002000040000000000000000000000000010000000000000000000000000000000000000000000000001000000000000000000000000000000000000000000000000000000000000000008000000000000000000000000000000000000000808000000000000000000000000000000000000000000000000000010000000000000000000080000804000000000000000000000000000000400000000000000000000000000000000000000000000000000000000000000002000000000000000010002000000000000000000000000000000018000800000000000000000000000020000000000000000000020000000000000000010000000000000000000",
      "type": "0x2",
      "transactionHash": "0x6ea6f660e6c3ee2c2af911ec9b8bc2921994698bf511f6307563d6269e8bfc62",
      "transactionIndex": "0x6",
      "blockHash": "0xb04a48eea30cf1f8bbab9c652d9c6dd7cf043c42db0de1694d8cfa1809be85e5",
      "blockNumber": "0x16534e2",
      "gasUsed": "0x75567",
      "effectiveGasPrice": "0xf09c9",
      "from": "0x4e5dc9df946500b07e9c66e4dd29bf9cd062002b",
      "to": "0x2e180501d3d68241dd0318c68fd9be0af1d519a1",
      "contractAddress": null,
      "l1BaseFeeScalar": "0x44d",
      "l1BlobBaseFee": "0x1",
      "l1BlobBaseFeeScalar": "0xa118b",
      "l1Fee": "0xc52f067",
      "l1GasPrice": "0x6cb5ef9",
      "l1GasUsed": "0x66f"
    },
    {
      "status": "0x1",
      "cumulativeGasUsed": "0x296032",
      "logs": [
        {
          "address": "0x036cbd53842c5426634e7929541ec2318f3dcf7e",
          "topics": [
            "0xddf252ad1be2c89b69c2b068fc378daa952ba7f163c4a11628f55a4df523b3ef",
            "0x0000000000000000000000004e5dc9df946500b07e9c66e4dd29bf9cd062002b",
            "0x0000000000000000000000002e180501d3d68241dd0318c68fd9be0af1d519a1"
          ],
          "data": "0x00000000000000000000000000000000000000000000000000000000000f4240",
          "blockHash": "0xf3543051cdeb3ba38d4cfcf1ece3347e34ffdc14134647492854f50db03debfd",
          "blockNumber": "0x16534e4",
          "transactionHash": "0x1c2db9810a4d092fccf97b09384cc771abd14911d0a2684f2e154d87b95f4f80",
          "transactionIndex": "0x7",
          "logIndex": "0x15",
          "removed": false
        },
        {
          "address": "0x2e180501d3d68241dd0318c68fd9be0af1d519a1",
          "topics": [
            "0xe523847b7270abe685bcbcb11a424b9030e5627e3d5770781dd5bbeb1ddee143",
            "0x0000000000000000000000000000000000000000000000000000000000000005",
            "0x0000000000000000000000000000000000000000000000000000000000000005",
            "0x0000000000000000000000004e5dc9df946500b07e9c66e4dd29bf9cd062002b"
          ],
          "data": "0x000000000000000000000000000000000000000000000000000000000000000000000000000000000000000000000000000000000000000000000000000f42400000000000000000000000000000000000000000000000000000000000000000",
          "blockHash": "0xf3543051cdeb3ba38d4cfcf1ece3347e34ffdc14134647492854f50db03debfd",
          "blockNumber": "0x16534e4",
          "transactionHash": "0x1c2db9810a4d092fccf97b09384cc771abd14911d0a2684f2e154d87b95f4f80",
          "transactionIndex": "0x7",
          "logIndex": "0x16",
          "removed": false
        }
      ],
      "logsBloom": "0x00002000040000000000000000000000000010000000000000000000000000000000000000000000000001000000000000000000000000000000000000000000000010000000000000000008000000000000000000000000000000000000000800000000000000000000000000000000000000000000000000000010000000000000000000080000804000000000001000000800000000000400000000000000000000000000000000000000000000000000000000000000000000000000000000010002000000000000000000000000000000010000800000000000000000000000020000000000000000000020000000000000000010000000000000000000",
      "type": "0x2",
      "transactionHash": "0x1c2db9810a4d092fccf97b09384cc771abd14911d0a2684f2e154d87b95f4f80",
      "transactionIndex": "0x7",
      "blockHash": "0xf3543051cdeb3ba38d4cfcf1ece3347e34ffdc14134647492854f50db03debfd",
      "blockNumber": "0x16534e4",
      "gasUsed": "0x67723",
      "effectiveGasPrice": "0xf09be",
      "from": "0x4e5dc9df946500b07e9c66e4dd29bf9cd062002b",
      "to": "0x2e180501d3d68241dd0318c68fd9be0af1d519a1",
      "contractAddress": null,
      "l1BaseFeeScalar": "0x44d",
      "l1BlobBaseFee": "0x1",
      "l1BlobBaseFeeScalar": "0xa118b",
      "l1Fee": "0xbf813b2",
      "l1GasPrice": "0x6cb5ef9",
      "l1GasUsed": "0x640"
    },
    {
      "status": "0x1",
      "cumulativeGasUsed": "0x2f0f3f",
      "logs": [
        {
          "address": "0x036cbd53842c5426634e7929541ec2318f3dcf7e",
          "topics": [
            "0xddf252ad1be2c89b69c2b068fc378daa952ba7f163c4a11628f55a4df523b3ef",
            "0x0000000000000000000000004e5dc9df946500b07e9c66e4dd29bf9cd062002b",
            "0x0000000000000000000000002e180501d3d68241dd0318c68fd9be0af1d519a1"
          ],
          "data": "0x00000000000000000000000000000000000000000000000000000000001e8480",
          "blockHash": "0xe3bb93ea1851e7b3d0495c590f5efd04b718be10392015c6c80eff1ece05e163",
          "blockNumber": "0x16534e6",
          "transactionHash": "0x8645bd2eb0b42a9a07ddbb5d0d3c45aeeeb5f00ce7465865659d12674580e516",
          "transactionIndex": "0xa",
          "logIndex": "0x36",
          "removed": false
        },
        {
          "address": "0x2e180501d3d68241dd0318c68fd9be0af1d519a1",
          "topics": [
            "0xe523847b7270abe685bcbcb11a424b9030e5627e3d5770781dd5bbeb1ddee143",
            "0x0000000000000000000000000000000000000000000000000000000000000006",
            "0x0000000000000000000000000000000000000000000000000000000000000006",
            "0x0000000000000000000000004e5dc9df946500b07e9c66e4dd29bf9cd062002b"
          ],
          "data": "0x000000000000000000000000000000000000000000000000000000000000000100000000000000000000000000000000000000000000000000000000001e84800000000000000000000000000000000000000000000000000000000000000000",
          "blockHash": "0xe3bb93ea1851e7b3d0495c590f5efd04b718be10392015c6c80eff1ece05e163",
          "blockNumber": "0x16534e6",
          "transactionHash": "0x8645bd2eb0b42a9a07ddbb5d0d3c45aeeeb5f00ce7465865659d12674580e516",
          "transactionIndex": "0xa",
          "logIndex": "0x37",
          "removed": false
        }
      ],
      "logsBloom": "0x00002000040000000000000000000000000010000000000000000000000000000000000000000000000001000000000000000000000400000000000000000000000000000000000000000008000000000000000000000000000000000000000800000000000000000000000000000000000000000000000000000010000000000000000400080000804000000000000000000000000000000400000000000000000000000000000000000000000000000000000000000000000000080000000000010002000000000000000000000000000000010000800000000000000000000000020000000000000000000020000000000000000010000000000000000000",
      "type": "0x2",
      "transactionHash": "0x8645bd2eb0b42a9a07ddbb5d0d3c45aeeeb5f00ce7465865659d12674580e516",
      "transactionIndex": "0xa",
      "blockHash": "0xe3bb93ea1851e7b3d0495c590f5efd04b718be10392015c6c80eff1ece05e163",
      "blockNumber": "0x16534e6",
      "gasUsed": "0x712a7",
      "effectiveGasPrice": "0xf09a7",
      "from": "0x4e5dc9df946500b07e9c66e4dd29bf9cd062002b",
      "to": "0x2e180501d3d68241dd0318c68fd9be0af1d519a1",
      "contractAddress": null,
      "l1BaseFeeScalar": "0x44d",
      "l1BlobBaseFee": "0x1",
      "l1BlobBaseFeeScalar": "0xa118b",
      "l1Fee": "0xc52b5ee",
      "l1GasPrice": "0x6bd3aa9",
      "l1GasUsed": "0x67c"
    },
    {
      "status": "0x1",
      "cumulativeGasUsed": "0x19398c",
      "logs": [
        {
          "address": "0xa373482b473e33b96412a6c0ca8b847e6bbb4d0d",
          "topics": [
            "0x8c5be1e5ebec7d5bd14f71427d1e84f3dd0314c0f7b2291e5b200ac8c7c3b925",
            "0x00000000000000000000000067bfd0b42f5f39710b4e90301289f81eab6315da",
            "0x0000000000000000000000002e180501d3d68241dd0318c68fd9be0af1d519a1"
          ],
          "data": "0x00000000000000000000000000000000000000000000000000000002540be400",
          "blockHash": "0x87ad9c1d234e0943d141dc8faa6d3c6dbd406ff1e050342a3fc8f2a4263f01f6",
          "blockNumber": "0x16534e8",
          "transactionHash": "0x4aaa92c8c3dba95e9e31e42735f4759a69311786209f7ea2ac6c8303be9df5a8",
          "transactionIndex": "0x4",
          "logIndex": "0x22",
          "removed": false
        }
      ],
      "logsBloom": "0x00000000000000000080000000000000000000000000000000000000000000000000000000000000000000000000000000000000000000000000000000200000000000000000000000000000000000000000000000200000000000000000000000000000000000000000000000000000000000000000000000000000000000000000000000081000800000000000000000000000000000000000000000000000020000000000280000000000000000000000000000000000000000000000000000000000000000000000000000000000000000010000000000100000000000000010000000000000000000000000000000000000000000000000000000000000",
      "type": "0x2",
      "transactionHash": "0x4aaa92c8c3dba95e9e31e42735f4759a69311786209f7ea2ac6c8303be9df5a8",
      "transactionIndex": "0x4",
      "blockHash": "0x87ad9c1d234e0943d141dc8faa6d3c6dbd406ff1e050342a3fc8f2a4263f01f6",
      "blockNumber": "0x16534e8",
      "gasUsed": "0xb380",
      "effectiveGasPrice": "0xf0992",
      "from": "0x67bfd0b42f5f39710b4e90301289f81eab6315da",
      "to": "0xa373482b473e33b96412a6c0ca8b847e6bbb4d0d",
      "contractAddress": null,
      "l1BaseFeeScalar": "0x44d",
      "l1BlobBaseFee": "0x1",
      "l1BlobBaseFeeScalar": "0xa118b",
      "l1Fee": "0xbdf2a27",
      "l1GasPrice": "0x6bd3aa9",
      "l1GasUsed": "0x640"
    },
    {
      "status": "0x1",
      "cumulativeGasUsed": "0xa487d",
      "logs": [
        {
          "address": "0x036cbd53842c5426634e7929541ec2318f3dcf7e",
          "topics": [
            "0x8c5be1e5ebec7d5bd14f71427d1e84f3dd0314c0f7b2291e5b200ac8c7c3b925",
            "0x00000000000000000000000067bfd0b42f5f39710b4e90301289f81eab6315da",
            "0x0000000000000000000000002e180501d3d68241dd0318c68fd9be0af1d519a1"
          ],
          "data": "0x000000000000000000000000000000000000000000000000000000001dcd6500",
          "blockHash": "0x0bd8192801f9865306633312d1e2c5c711d20f86c4447ec6def75dc5a7323382",
          "blockNumber": "0x16534ea",
          "transactionHash": "0xb7b05795f7da20501b19e322ff356c769ea1e572e5f8568b2fba1b00d51795d0",
          "transactionIndex": "0x3",
          "logIndex": "0x11",
          "removed": false
        }
      ],
      "logsBloom": "0x00000000040000000080000000000000000000000000000000000000000000000000000000000000000000000000000000000000000000000000000000200000000000000000000000000000000000000000000000000000000000000000000800000000000000000000000000000000000000000000000000000000000000000000000000080000800000000000000000000000000000000000000000000000020000000000280000000000000000000000000000000000000000000000000000000000000000000000000000000000000000010000000000000000000000000010000000000000000000000020000000000000000000000000000000000000",
      "type": "0x2",
      "transactionHash": "0xb7b05795f7da20501b19e322ff356c769ea1e572e5f8568b2fba1b00d51795d0",
      "transactionIndex": "0x3",
      "blockHash": "0x0bd8192801f9865306633312d1e2c5c711d20f86c4447ec6def75dc5a7323382",
      "blockNumber": "0x16534ea",
      "gasUsed": "0xd88d",
      "effectiveGasPrice": "0xf097e",
      "from": "0x67bfd0b42f5f39710b4e90301289f81eab6315da",
      "to": "0x036cbd53842c5426634e7929541ec2318f3dcf7e",
      "contractAddress": null,
      "l1BaseFeeScalar": "0x44d",
      "l1BlobBaseFee": "0x1",
      "l1BlobBaseFeeScalar": "0xa118b",
      "l1Fee": "0xbdf2a27",
      "l1GasPrice": "0x6bd3aa9",
      "l1GasUsed": "0x640"
    },
    {
      "status": "0x1",
      "cumulativeGasUsed": "0x10cdc3e",
      "logs": [
        {
          "address": "0xa373482b473e33b96412a6c0ca8b847e6bbb4d0d",
          "topics": [
            "0xddf252ad1be2c89b69c2b068fc378daa952ba7f163c4a11628f55a4df523b3ef",
            "0x00000000000000000000000067bfd0b42f5f39710b4e90301289f81eab6315da",
            "0x0000000000000000000000002e180501d3d68241dd0318c68fd9be0af1d519a1"
          ],
          "data": "0x00000000000000000000000000000000000000000000000000000000b2d05dff",
          "blockHash": "0x2f6eacdbe9fb74dfadc4ea493ce6edc0a23611b24bc79362421aa8534ad6a3db",
          "blockNumber": "0x16534eb",
          "transactionHash": "0x10b5234d677b54788de6fc52ad501b6c90ee1b637025c0fe61e97c6b647b4645",
          "transactionIndex": "0x36",
          "logIndex": "0x178",
          "removed": false
        },
        {
          "address": "0x2e180501d3d68241dd0318c68fd9be0af1d519a1",
          "topics": [
            "0xe523847b7270abe685bcbcb11a424b9030e5627e3d5770781dd5bbeb1ddee143",
            "0x0000000000000000000000000000000000000000000000000000000000000007",
            "0x0000000000000000000000000000000000000000000000000000000000000004",
            "0x00000000000000000000000067bfd0b42f5f39710b4e90301289f81eab6315da"
          ],
          "data": "0x000000000000000000000000000000000000000000000000000000000000000000000000000000000000000000000000000000000000000000000000b2d05dff0000000000000000000000000000000000000000000000000000000000000001",
          "blockHash": "0x2f6eacdbe9fb74dfadc4ea493ce6edc0a23611b24bc79362421aa8534ad6a3db",
          "blockNumber": "0x16534eb",
          "transactionHash": "0x10b5234d677b54788de6fc52ad501b6c90ee1b637025c0fe61e97c6b647b4645",
          "transactionIndex": "0x36",
          "logIndex": "0x179",
          "removed": false
        }
      ],
      "logsBloom": "0x00002000000000000080000000000000000010000000000000000000000000000000000000000000000001000000000000001000000000000000000000000000000020000000000000000008000000000000000000200000000000000000000008000000000000000000000000000000000000000000000000000010000000000000000000081000800000000000000000000000000000000400000000000000000000000000280000000000000000000000000000000000002000000000000000000002000000000000000000000000000000018000000000100100000000000000020000000000000000000000000000000000000010000000000000000000",
      "type": "0x2",
      "transactionHash": "0x10b5234d677b54788de6fc52ad501b6c90ee1b637025c0fe61e97c6b647b4645",
      "transactionIndex": "0x36",
      "blockHash": "0x2f6eacdbe9fb74dfadc4ea493ce6edc0a23611b24bc79362421aa8534ad6a3db",
      "blockNumber": "0x16534eb",
      "gasUsed": "0x6e3b6",
      "effectiveGasPrice": "0xf097b",
      "from": "0x67bfd0b42f5f39710b4e90301289f81eab6315da",
      "to": "0x2e180501d3d68241dd0318c68fd9be0af1d519a1",
      "contractAddress": null,
      "l1BaseFeeScalar": "0x44d",
      "l1BlobBaseFee": "0x1",
      "l1BlobBaseFeeScalar": "0xa118b",
      "l1Fee": "0xb573800",
      "l1GasPrice": "0x66893f2",
      "l1GasUsed": "0x647"
    },
    {
      "status": "0x1",
      "cumulativeGasUsed": "0x157b073",
      "logs": [
        {
          "address": "0xa373482b473e33b96412a6c0ca8b847e6bbb4d0d",
          "topics": [
            "0xddf252ad1be2c89b69c2b068fc378daa952ba7f163c4a11628f55a4df523b3ef",
            "0x00000000000000000000000067bfd0b42f5f39710b4e90301289f81eab6315da",
            "0x0000000000000000000000002e180501d3d68241dd0318c68fd9be0af1d519a1"
          ],
          "data": "0x00000000000000000000000000000000000000000000000000000000b2d05dff",
          "blockHash": "0xd2543938d0bcf55e94fb741ad1c9e52b4d450802f4ac5e38c0939c30d643bf2f",
          "blockNumber": "0x16534ec",
          "transactionHash": "0x956eb81158623b45bffaf4627ffc971814afc7b19f1c9727081c25bbc62ca7c5",
          "transactionIndex": "0x38",
          "logIndex": "0x2c0",
          "removed": false
        },
        {
          "address": "0x2e180501d3d68241dd0318c68fd9be0af1d519a1",
          "topics": [
            "0xe523847b7270abe685bcbcb11a424b9030e5627e3d5770781dd5bbeb1ddee143",
            "0x0000000000000000000000000000000000000000000000000000000000000008",
            "0x0000000000000000000000000000000000000000000000000000000000000005",
            "0x00000000000000000000000067bfd0b42f5f39710b4e90301289f81eab6315da"
          ],
          "data": "0x000000000000000000000000000000000000000000000000000000000000000100000000000000000000000000000000000000000000000000000000b2d05dff0000000000000000000000000000000000000000000000000000000000000001",
          "blockHash": "0xd2543938d0bcf55e94fb741ad1c9e52b4d450802f4ac5e38c0939c30d643bf2f",
          "blockNumber": "0x16534ec",
          "transactionHash": "0x956eb81158623b45bffaf4627ffc971814afc7b19f1c9727081c25bbc62ca7c5",
          "transactionIndex": "0x38",
          "logIndex": "0x2c1",
          "removed": false
        }
      ],
      "logsBloom": "0x00002000000000000080000000000000000010000000000000000000000000000000000000000000000001000000000000000000000080000000000000000000000010000000000000000008000000000000000000200000000000000000000000000000000000000000000000000000000000000000000000000010000000000080000000081000800000000000001000000800000000000400000000000000000000000000280000000000000000000000000000000000000000000000000040000002000000000000000000000000000000010000000000100000000000000000020000000000000000000000000000000000000010000000000000000000",
      "type": "0x2",
      "transactionHash": "0x956eb81158623b45bffaf4627ffc971814afc7b19f1c9727081c25bbc62ca7c5",
      "transactionIndex": "0x38",
      "blockHash": "0xd2543938d0bcf55e94fb741ad1c9e52b4d450802f4ac5e38c0939c30d643bf2f",
      "blockNumber": "0x16534ec",
      "gasUsed": "0x77f3a",
      "effectiveGasPrice": "0xf0981",
      "from": "0x67bfd0b42f5f39710b4e90301289f81eab6315da",
      "to": "0x2e180501d3d68241dd0318c68fd9be0af1d519a1",
      "contractAddress": null,
      "l1BaseFeeScalar": "0x44d",
      "l1BlobBaseFee": "0x1",
      "l1BlobBaseFeeScalar": "0xa118b",
      "l1Fee": "0xbd01845",
      "l1GasPrice": "0x66893f2",
      "l1GasUsed": "0x68a"
    },
    {
      "status": "0x1",
      "cumulativeGasUsed": "0x131459",
      "logs": [
        {
          "address": "0xa373482b473e33b96412a6c0ca8b847e6bbb4d0d",
          "topics": [
            "0xddf252ad1be2c89b69c2b068fc378daa952ba7f163c4a11628f55a4df523b3ef",
            "0x00000000000000000000000067bfd0b42f5f39710b4e90301289f81eab6315da",
            "0x0000000000000000000000002e180501d3d68241dd0318c68fd9be0af1d519a1"
          ],
          "data": "0x00000000000000000000000000000000000000000000000000000000b2d05dff",
          "blockHash": "0x7b437f7f49a1f7eb0e8c125233c0e477fcc487448270cab735808d1b91b96e76",
          "blockNumber": "0x16534ee",
          "transactionHash": "0xdd49162f70fc70db5b2c6c27d43b9530697ad3e5571b556b9b08c886c3f70b04",
          "transactionIndex": "0x3",
          "logIndex": "0x16",
          "removed": false
        },
        {
          "address": "0x2e180501d3d68241dd0318c68fd9be0af1d519a1",
          "topics": [
            "0xe523847b7270abe685bcbcb11a424b9030e5627e3d5770781dd5bbeb1ddee143",
            "0x0000000000000000000000000000000000000000000000000000000000000009",
            "0x0000000000000000000000000000000000000000000000000000000000000006",
            "0x00000000000000000000000067bfd0b42f5f39710b4e90301289f81eab6315da"
          ],
          "data": "0x000000000000000000000000000000000000000000000000000000000000000100000000000000000000000000000000000000000000000000000000b2d05dff0000000000000000000000000000000000000000000000000000000000000001",
          "blockHash": "0x7b437f7f49a1f7eb0e8c125233c0e477fcc487448270cab735808d1b91b96e76",
          "blockNumber": "0x16534ee",
          "transactionHash": "0xdd49162f70fc70db5b2c6c27d43b9530697ad3e5571b556b9b08c886c3f70b04",
          "transactionIndex": "0x3",
          "logIndex": "0x17",
          "removed": false
        }
      ],
      "logsBloom": "0x00002000000000000080000000000000000010000000000000000000000000000000000000000000000001000000000000000000000400000000000000200000000000000000000000000008000000000000000000200000000000000000000000000000000000000000000000000000000000000000000000000010000000000000000400081000800000000000000000001000000000000400000000000000000000000000280000000000000000000000000000000000000000080000000000000002000000000000000000000000000000010000000000100000000000000000020000000000000000000000000000000000000010000000000000800000",
      "type": "0x2",
      "transactionHash": "0xdd49162f70fc70db5b2c6c27d43b9530697ad3e5571b556b9b08c886c3f70b04",
      "transactionIndex": "0x3",
      "blockHash": "0x7b437f7f49a1f7eb0e8c125233c0e477fcc487448270cab735808d1b91b96e76",
      "blockNumber": "0x16534ee",
      "gasUsed": "0x73c6e",
      "effectiveGasPrice": "0xf09a0",
      "from": "0x67bfd0b42f5f39710b4e90301289f81eab6315da",
      "to": "0x2e180501d3d68241dd0318c68fd9be0af1d519a1",
      "contractAddress": null,
      "l1BaseFeeScalar": "0x44d",
      "l1BlobBaseFee": "0x1",
      "l1BlobBaseFeeScalar": "0xa118b",
      "l1Fee": "0xbd01845",
      "l1GasPrice": "0x66893f2",
      "l1GasUsed": "0x68a"
    },
    {
      "status": "0x1",
      "cumulativeGasUsed": "0x42991a",
      "logs": [
        {
          "address": "0x036cbd53842c5426634e7929541ec2318f3dcf7e",
          "topics": [
            "0xddf252ad1be2c89b69c2b068fc378daa952ba7f163c4a11628f55a4df523b3ef",
            "0x00000000000000000000000067bfd0b42f5f39710b4e90301289f81eab6315da",
            "0x0000000000000000000000002e180501d3d68241dd0318c68fd9be0af1d519a1"
          ],
          "data": "0x00000000000000000000000000000000000000000000000000000000000f4240",
          "blockHash": "0x1d0c013e1c3b93b0d3ff85b3ea847fcbc24bde352c5a964e3d36a13df9242402",
          "blockNumber": "0x16534f0",
          "transactionHash": "0x70ecfea3005200db4f944111217938e8f43de312176a2e539953ba85e22bc3e3",
          "transactionIndex": "0x4",
          "logIndex": "0x5",
          "removed": false
        },
        {
          "address": "0x2e180501d3d68241dd0318c68fd9be0af1d519a1",
          "topics": [
            "0xe523847b7270abe685bcbcb11a424b9030e5627e3d5770781dd5bbeb1ddee143",
            "0x000000000000000000000000000000000000000000000000000000000000000a",
            "0x0000000000000000000000000000000000000000000000000000000000000004",
            "0x00000000000000000000000067bfd0b42f5f39710b4e90301289f81eab6315da"
          ],
          "data": "0x000000000000000000000000000000000000000000000000000000000000000100000000000000000000000000000000000000000000000000000000000f42400000000000000000000000000000000000000000000000000000000000000000",
          "blockHash": "0x1d0c013e1c3b93b0d3ff85b3ea847fcbc24bde352c5a964e3d36a13df9242402",
          "blockNumber": "0x16534f0",
          "transactionHash": "0x70ecfea3005200db4f944111217938e8f43de312176a2e539953ba85e22bc3e3",
          "transactionIndex": "0x4",
          "logIndex": "0x6",
          "removed": false
        }
      ],
      "logsBloom": "0x00002000040000000080000000000000000010000000000000000000000000000000000000000000000001000000000000000000040000000020000000000000000000000000000000000008000000000000000000000000000000000000000808000000000000000000000000000000000000000000000000000010000000000000000000080000810000000000000000000000000000000400000000000000000000000000280000000000000000000000000000000000002000000000000000000002000000000000000000000000000000018000000000000000000000000000020000000000000000000020000000000000000010000000000000000000",
      "type": "0x2",
      "transactionHash": "0x70ecfea3005200db4f944111217938e8f43de312176a2e539953ba85e22bc3e3",
      "transactionIndex": "0x4",
      "blockHash": "0x1d0c013e1c3b93b0d3ff85b3ea847fcbc24bde352c5a964e3d36a13df9242402",
      "blockNumber": "0x16534f0",
      "gasUsed": "0x6cff3",
      "effectiveGasPrice": "0xf0993",
      "from": "0x67bfd0b42f5f39710b4e90301289f81eab6315da",
      "to": "0x2e180501d3d68241dd0318c68fd9be0af1d519a1",
      "contractAddress": null,
      "l1BaseFeeScalar": "0x44d",
      "l1BlobBaseFee": "0x1",
      "l1BlobBaseFeeScalar": "0xa118b",
      "l1Fee": "0xb9fbe90",
      "l1GasPrice": "0x66893f2",
      "l1GasUsed": "0x66f"
    },
    {
      "status": "0x1",
      "cumulativeGasUsed": "0x36aaa2",
      "logs": [
        {
          "address": "0x036cbd53842c5426634e7929541ec2318f3dcf7e",
          "topics": [
            "0xddf252ad1be2c89b69c2b068fc378daa952ba7f163c4a11628f55a4df523b3ef",
            "0x00000000000000000000000067bfd0b42f5f39710b4e90301289f81eab6315da",
            "0x0000000000000000000000002e180501d3d68241dd0318c68fd9be0af1d519a1"
          ],
          "data": "0x00000000000000000000000000000000000000000000000000000000001e8480",
          "blockHash": "0x81b6f24edff337934dd177026fb95a804c625720e9b8b76a92b530fa5a3688a7",
          "blockNumber": "0x16534f2",
          "transactionHash": "0x1ae4b2cd23b8e3d7f66109383ead2b10ca6b04700c075a7352ecb848fff535be",
          "transactionIndex": "0x7",
          "logIndex": "0x56",
          "removed": false
        },
        {
          "address": "0x2e180501d3d68241dd0318c68fd9be0af1d519a1",
          "topics": [
            "0xe523847b7270abe685bcbcb11a424b9030e5627e3d5770781dd5bbeb1ddee143",
            "0x000000000000000000000000000000000000000000000000000000000000000b",
            "0x0000000000000000000000000000000000000000000000000000000000000005",
            "0x00000000000000000000000067bfd0b42f5f39710b4e90301289f81eab6315da"
          ],
          "data": "0x000000000000000000000000000000000000000000000000000000000000000100000000000000000000000000000000000000000000000000000000001e84800000000000000000000000000000000000000000000000000000000000000000",
          "blockHash": "0x81b6f24edff337934dd177026fb95a804c625720e9b8b76a92b530fa5a3688a7",
          "blockNumber": "0x16534f2",
          "transactionHash": "0x1ae4b2cd23b8e3d7f66109383ead2b10ca6b04700c075a7352ecb848fff535be",
          "transactionIndex": "0x7",
          "logIndex": "0x57",
          "removed": false
        }
      ],
      "logsBloom": "0x00002000040000000080004000000000000010000000000000000000000000000000000000000000000001000000000000000000000000000000000000000000000010000000000000000008000000000000000000000000000000000000000800000000000000000000000000000000000000000000000000000010000000000000000000080000800000000000001000000800000000000400000000000000000000000000280000000000000000000000000000000000000000000000000000000002000000000000000000000000002000010000000000000000000000000000020000000000000000000020000000000000000010040000000000000000",
      "type": "0x2",
      "transactionHash": "0x1ae4b2cd23b8e3d7f66109383ead2b10ca6b04700c075a7352ecb848fff535be",
      "transactionIndex": "0x7",
      "blockHash": "0x81b6f24edff337934dd177026fb95a804c625720e9b8b76a92b530fa5a3688a7",
      "blockNumber": "0x16534f2",
      "gasUsed": "0x712bf",
      "effectiveGasPrice": "0xf0987",
      "from": "0x67bfd0b42f5f39710b4e90301289f81eab6315da",
      "to": "0x2e180501d3d68241dd0318c68fd9be0af1d519a1",
      "contractAddress": null,
      "l1BaseFeeScalar": "0x44d",
      "l1BlobBaseFee": "0x1",
      "l1BlobBaseFeeScalar": "0xa118b",
      "l1Fee": "0xbdefde6",
      "l1GasPrice": "0x68b7281",
      "l1GasUsed": "0x66f"
    },
    {
      "status": "0x1",
      "cumulativeGasUsed": "0x96cf0",
      "logs": [
        {
          "address": "0x036cbd53842c5426634e7929541ec2318f3dcf7e",
          "topics": [
            "0xddf252ad1be2c89b69c2b068fc378daa952ba7f163c4a11628f55a4df523b3ef",
            "0x00000000000000000000000067bfd0b42f5f39710b4e90301289f81eab6315da",
            "0x0000000000000000000000002e180501d3d68241dd0318c68fd9be0af1d519a1"
          ],
          "data": "0x00000000000000000000000000000000000000000000000000000000003d0900",
          "blockHash": "0x84237fbd38199da730ed3c8d284d869aec710c88825d463ebea964485eb14b7d",
          "blockNumber": "0x16534f4",
          "transactionHash": "0xb43f69c2d89bcb8d85ec9d6a41d326826c13b353acc3b3e31b9ea7d85c53748c",
          "transactionIndex": "0x3",
          "logIndex": "0x3",
          "removed": false
        },
        {
          "address": "0x2e180501d3d68241dd0318c68fd9be0af1d519a1",
          "topics": [
            "0xe523847b7270abe685bcbcb11a424b9030e5627e3d5770781dd5bbeb1ddee143",
            "0x000000000000000000000000000000000000000000000000000000000000000c",
            "0x0000000000000000000000000000000000000000000000000000000000000006",
            "0x00000000000000000000000067bfd0b42f5f39710b4e90301289f81eab6315da"
          ],
          "data": "0x000000000000000000000000000000000000000000000000000000000000000000000000000000000000000000000000000000000000000000000000003d09000000000000000000000000000000000000000000000000000000000000000000",
          "blockHash": "0x84237fbd38199da730ed3c8d284d869aec710c88825d463ebea964485eb14b7d",
          "blockNumber": "0x16534f4",
          "transactionHash": "0xb43f69c2d89bcb8d85ec9d6a41d326826c13b353acc3b3e31b9ea7d85c53748c",
          "transactionIndex": "0x3",
          "logIndex": "0x4",
          "removed": false
        }
      ],
      "logsBloom": "0x00002000040000000080000000000000000012000000000000000000000000000000000000000200000001000000000000000000000400000000000000000000000000000000000000000008000000000000000000000000000000000000000800000000000000000000000000000000000000000000000000000010000000000000000400080000800000000000000000000000000000000400000000000000000000000000280000000000000000000000000000000000000000080000000000000002000000000000000000000000000000010000000000000000000000200000020000000000000000000020000000000000000010000000000000000000",
      "type": "0x2",
      "transactionHash": "0xb43f69c2d89bcb8d85ec9d6a41d326826c13b353acc3b3e31b9ea7d85c53748c",
      "transactionIndex": "0x3",
      "blockHash": "0x84237fbd38199da730ed3c8d284d869aec710c88825d463ebea964485eb14b7d",
      "blockNumber": "0x16534f4",
      "gasUsed": "0x6772f",
      "effectiveGasPrice": "0xf0990",
      "from": "0x67bfd0b42f5f39710b4e90301289f81eab6315da",
      "to": "0x2e180501d3d68241dd0318c68fd9be0af1d519a1",
      "contractAddress": null,
      "l1BaseFeeScalar": "0x44d",
      "l1BlobBaseFee": "0x1",
      "l1BlobBaseFeeScalar": "0xa118b",
      "l1Fee": "0xb87780c",
      "l1GasPrice": "0x68b7281",
      "l1GasUsed": "0x640"
    },
    {
      "status": "0x1",
      "cumulativeGasUsed": "0x1432ef",
      "logs": [
        {
          "address": "0xa373482b473e33b96412a6c0ca8b847e6bbb4d0d",
          "topics": [
            "0x8c5be1e5ebec7d5bd14f71427d1e84f3dd0314c0f7b2291e5b200ac8c7c3b925",
            "0x00000000000000000000000012be474d127757d0a6a36631294f8ffbcdef44f8",
            "0x0000000000000000000000002e180501d3d68241dd0318c68fd9be0af1d519a1"
          ],
          "data": "0x00000000000000000000000000000000000000000000000000000002540be400",
          "blockHash": "0x7dc57ac1de79cdcde2f85eb95a67379db41f176fdee9b31f7165c3ec9b65c15e",
          "blockNumber": "0x16534f6",
          "transactionHash": "0x32c1252d898abb11c46b33a950d7be7fb10622c816f0e6768c51f8eb771c52c9",
          "transactionIndex": "0x5",
          "logIndex": "0x20",
          "removed": false
        }
      ],
      "logsBloom": "0x00000000000000000000000000000000000000000000000000000000000000000000000000000000000000000000000000000000000000000000000000200000000000000000000000000000000000000000000000200000000000000000000000000000000000000000000000000000000000000000000000800000000000000000000000081000800000000000000000000000000000000000000000000000028000000000000000000000000000000000000000000000000000000000000000000000000000000000000100000000000000010000000000100000000000000010000000000000000000000000000000000000000000000000000000000000",
      "type": "0x2",
      "transactionHash": "0x32c1252d898abb11c46b33a950d7be7fb10622c816f0e6768c51f8eb771c52c9",
      "transactionIndex": "0x5",
      "blockHash": "0x7dc57ac1de79cdcde2f85eb95a67379db41f176fdee9b31f7165c3ec9b65c15e",
      "blockNumber": "0x16534f6",
      "gasUsed": "0xb380",
      "effectiveGasPrice": "0xf097e",
      "from": "0x12be474d127757d0a6a36631294f8ffbcdef44f8",
      "to": "0xa373482b473e33b96412a6c0ca8b847e6bbb4d0d",
      "contractAddress": null,
      "l1BaseFeeScalar": "0x44d",
      "l1BlobBaseFee": "0x1",
      "l1BlobBaseFeeScalar": "0xa118b",
      "l1Fee": "0xb87780c",
      "l1GasPrice": "0x68b7281",
      "l1GasUsed": "0x640"
    },
    {
      "status": "0x1",
      "cumulativeGasUsed": "0xddcaf",
      "logs": [
        {
          "address": "0x036cbd53842c5426634e7929541ec2318f3dcf7e",
          "topics": [
            "0x8c5be1e5ebec7d5bd14f71427d1e84f3dd0314c0f7b2291e5b200ac8c7c3b925",
            "0x00000000000000000000000012be474d127757d0a6a36631294f8ffbcdef44f8",
            "0x0000000000000000000000002e180501d3d68241dd0318c68fd9be0af1d519a1"
          ],
          "data": "0x000000000000000000000000000000000000000000000000000000001dcd6500",
          "blockHash": "0x7209d917aa1fec4a34037c3a40df7c91e2e3c6dfaa4f408fe15e267b7a4c0ee0",
          "blockNumber": "0x16534f8",
          "transactionHash": "0xa3e4b1d7b98b8cb543cafe2a463593cfca52a87f99ac131a890a2f9efb2dec8b",
          "transactionIndex": "0x5",
          "logIndex": "0x16",
          "removed": false
        }
      ],
      "logsBloom": "0x00000000040000000000000000000000000000000000000000000000000000000000000000000000000000000000000000000000000000000000000000200000000000000000000000000000000000000000000000000000000000000000000800000000000000000000000000000000000000000000000000800000000000000000000000080000800000000000000000000000000000000000000000000000028000000000000000000000000000000000000000000000000000000000000000000000000000000000000100000000000000010000000000000000000000000010000000000000000000000020000000000000000000000000000000000000",
      "type": "0x2",
      "transactionHash": "0xa3e4b1d7b98b8cb543cafe2a463593cfca52a87f99ac131a890a2f9efb2dec8b",
      "transactionIndex": "0x5",
      "blockHash": "0x7209d917aa1fec4a34037c3a40df7c91e2e3c6dfaa4f408fe15e267b7a4c0ee0",
      "blockNumber": "0x16534f8",
      "gasUsed": "0xd88d",
      "effectiveGasPrice": "0xf09c7",
      "from": "0x12be474d127757d0a6a36631294f8ffbcdef44f8",
      "to": "0x036cbd53842c5426634e7929541ec2318f3dcf7e",
      "contractAddress": null,
      "l1BaseFeeScalar": "0x44d",
      "l1BlobBaseFee": "0x1",
      "l1BlobBaseFeeScalar": "0xa118b",
      "l1Fee": "0xb8b7000",
      "l1GasPrice": "0x68db33a",
      "l1GasUsed": "0x640"
    },
    {
      "status": "0x1",
      "cumulativeGasUsed": "0x97c004",
      "logs": [
        {
          "address": "0xa373482b473e33b96412a6c0ca8b847e6bbb4d0d",
          "topics": [
            "0xddf252ad1be2c89b69c2b068fc378daa952ba7f163c4a11628f55a4df523b3ef",
            "0x00000000000000000000000012be474d127757d0a6a36631294f8ffbcdef44f8",
            "0x0000000000000000000000002e180501d3d68241dd0318c68fd9be0af1d519a1"
          ],
          "data": "0x00000000000000000000000000000000000000000000000000000000b2d05dff",
          "blockHash": "0xbdf13a86b15066919c4b2605969d52705d8dac8f5103862f14b530d952b628cf",
          "blockNumber": "0x16534f9",
          "transactionHash": "0xf467679f5096d34623671a4518110dec6c89d0d7c38c96b8cc5f6ff8b4c346be",
          "transactionIndex": "0x2b",
          "logIndex": "0xfa",
          "removed": false
        },
        {
          "address": "0x2e180501d3d68241dd0318c68fd9be0af1d519a1",
          "topics": [
            "0xe523847b7270abe685bcbcb11a424b9030e5627e3d5770781dd5bbeb1ddee143",
            "0x000000000000000000000000000000000000000000000000000000000000000d",
            "0x0000000000000000000000000000000000000000000000000000000000000004",
            "0x00000000000000000000000012be474d127757d0a6a36631294f8ffbcdef44f8"
          ],
          "data": "0x000000000000000000000000000000000000000000000000000000000000000100000000000000000000000000000000000000000000000000000000b2d05dff0000000000000000000000000000000000000000000000000000000000000001",
          "blockHash": "0xbdf13a86b15066919c4b2605969d52705d8dac8f5103862f14b530d952b628cf",
          "blockNumber": "0x16534f9",
          "transactionHash": "0xf467679f5096d34623671a4518110dec6c89d0d7c38c96b8cc5f6ff8b4c346be",
          "transactionIndex": "0x2b",
          "logIndex": "0xfb",
          "removed": false
        }
      ],
      "logsBloom": "0x00002000000000000040000000000000000010000000000000000000000000000000000000000000000001000000000000000000000000000000000000000000000000000000000000000008000000000002000000200000000000000000000008000000000000000000000000000000000000000000000000800010000000000000000000081000800000000000000000000000000000000400000000000000008000000000000000000000000000000000000000000000002000000000000000000002000000000000000100000000000000018000000000100000000000020000020000000000000000000000000000000000000010000000000000000000",
      "type": "0x2",
      "transactionHash": "0xf467679f5096d34623671a4518110dec6c89d0d7c38c96b8cc5f6ff8b4c346be",
      "transactionIndex": "0x2b",
      "blockHash": "0xbdf13a86b15066919c4b2605969d52705d8dac8f5103862f14b530d952b628cf",
      "blockNumber": "0x16534f9",
      "gasUsed": "0x7c206",
      "effectiveGasPrice": "0xf09c7",
      "from": "0x12be474d127757d0a6a36631294f8ffbcdef44f8",
      "to": "0x2e180501d3d68241dd0318c68fd9be0af1d519a1",
      "contractAddress": null,
      "l1BaseFeeScalar": "0x44d",
      "l1BlobBaseFee": "0x1",
      "l1BlobBaseFeeScalar": "0xa118b",
      "l1Fee": "0xc1485c4",
      "l1GasPrice": "0x68db33a",
      "l1GasUsed": "0x68a"
    },
    {
      "status": "0x1",
      "cumulativeGasUsed": "0x7cf88",
      "logs": [
        {
          "address": "0xa373482b473e33b96412a6c0ca8b847e6bbb4d0d",
          "topics": [
            "0xddf252ad1be2c89b69c2b068fc378daa952ba7f163c4a11628f55a4df523b3ef",
            "0x00000000000000000000000012be474d127757d0a6a36631294f8ffbcdef44f8",
            "0x0000000000000000000000002e180501d3d68241dd0318c68fd9be0af1d519a1"
          ],
          "data": "0x00000000000000000000000000000000000000000000000000000000b2d05dff",
          "blockHash": "0xf6d87ac913b3e50112c84ec595f1845826080bd7c23a493d2525ffebd267b1a8",
          "blockNumber": "0x16534fb",
          "transactionHash": "0x3056bcd1995cad6409c8325fe57d1030df25218b61de55881d8b64b198426a8f",
          "transactionIndex": "0x2",
          "logIndex": "0x0",
          "removed": false
        },
        {
          "address": "0x2e180501d3d68241dd0318c68fd9be0af1d519a1",
          "topics": [
            "0xe523847b7270abe685bcbcb11a424b9030e5627e3d5770781dd5bbeb1ddee143",
            "0x000000000000000000000000000000000000000000000000000000000000000e",
            "0x0000000000000000000000000000000000000000000000000000000000000005",
            "0x00000000000000000000000012be474d127757d0a6a36631294f8ffbcdef44f8"
          ],
          "data": "0x000000000000000000000000000000000000000000000000000000000000000000000000000000000000000000000000000000000000000000000000b2d05dff0000000000000000000000000000000000000000000000000000000000000001",
          "blockHash": "0xf6d87ac913b3e50112c84ec595f1845826080bd7c23a493d2525ffebd267b1a8",
          "blockNumber": "0x16534fb",
          "transactionHash": "0x3056bcd1995cad6409c8325fe57d1030df25218b61de55881d8b64b198426a8f",
          "transactionIndex": "0x2",
          "logIndex": "0x1",
          "removed": false
        }
      ],
      "logsBloom": "0x00002000000000000000000000000000000010000000000000000000000000000000000000000000000001000000000000000000000000000000000000000000000010000000000800000008000000000000000000200000000000000000000000000000000000000000000000000000000000000000000000800010000000000000000000081000800000000000001008000800000000000400000000000000008000000000000000000000000000000000000000000020000000000000000000000002000000000000000100000000000000010000000000100000000000000000020000000000000000000000000000000000000010000000000000000000",
      "type": "0x2",
      "transactionHash": "0x3056bcd1995cad6409c8325fe57d1030df25218b61de55881d8b64b198426a8f",
      "transactionIndex": "0x2",
      "blockHash": "0xf6d87ac913b3e50112c84ec595f1845826080bd7c23a493d2525ffebd267b1a8",
      "blockNumber": "0x16534fb",
      "gasUsed": "0x6a0ea",
      "effectiveGasPrice": "0xf09c2",
      "from": "0x12be474d127757d0a6a36631294f8ffbcdef44f8",
      "to": "0x2e180501d3d68241dd0318c68fd9be0af1d519a1",
      "contractAddress": null,
      "l1BaseFeeScalar": "0x44d",
      "l1BlobBaseFee": "0x1",
      "l1BlobBaseFeeScalar": "0xa118b",
      "l1Fee": "0xb98e94e",
      "l1GasPrice": "0x68db33a",
      "l1GasUsed": "0x647"
    },
    {
      "status": "0x1",
      "cumulativeGasUsed": "0x13f0cf",
      "logs": [
        {
          "address": "0xa373482b473e33b96412a6c0ca8b847e6bbb4d0d",
          "topics": [
            "0xddf252ad1be2c89b69c2b068fc378daa952ba7f163c4a11628f55a4df523b3ef",
            "0x00000000000000000000000012be474d127757d0a6a36631294f8ffbcdef44f8",
            "0x0000000000000000000000002e180501d3d68241dd0318c68fd9be0af1d519a1"
          ],
          "data": "0x00000000000000000000000000000000000000000000000000000000b2d05dff",
          "blockHash": "0x23c46ab7fede25462e95295ddf5263b8e8662dd90153301f616417d2f78cf282",
          "blockNumber": "0x16534fd",
          "transactionHash": "0x706860d915c875f45ecec109e57839759bcb5290bad68f727f3e85212b162c21",
          "transactionIndex": "0x6",
          "logIndex": "0x16",
          "removed": false
        },
        {
          "address": "0x2e180501d3d68241dd0318c68fd9be0af1d519a1",
          "topics": [
            "0xe523847b7270abe685bcbcb11a424b9030e5627e3d5770781dd5bbeb1ddee143",
            "0x000000000000000000000000000000000000000000000000000000000000000f",
            "0x0000000000000000000000000000000000000000000000000000000000000006",
            "0x00000000000000000000000012be474d127757d0a6a36631294f8ffbcdef44f8"
          ],
          "data": "0x000000000000000000000000000000000000000000000000000000000000000100000000000000000000000000000000000000000000000000000000b2d05dff0000000000000000000000000000000000000000000000000000000000000001",
          "blockHash": "0x23c46ab7fede25462e95295ddf5263b8e8662dd90153301f616417d2f78cf282",
          "blockNumber": "0x16534fd",
          "transactionHash": "0x706860d915c875f45ecec109e57839759bcb5290bad68f727f3e85212b162c21",
          "transactionIndex": "0x6",
          "logIndex": "0x17",
          "removed": false
        }
      ],
      "logsBloom": "0x00002000000000000000000000000000000010000000000000000000000000000000000000000000000001000000000000000000000400000000000000000000000000000000000000000008000000000000000000200000000000000002000000000000000000000000000000000000000000000000000000800010000000000000000400081800800000000000000000000000000000000400000000000000008000000000000000000000000000000000000000000000000000080000000000000002000000000000000100000000000000010000000000100000000000000000020200000000000000000000000000000000000010000000000000000000",
      "type": "0x2",
      "transactionHash": "0x706860d915c875f45ecec109e57839759bcb5290bad68f727f3e85212b162c21",
      "transactionIndex": "0x6",
      "blockHash": "0x23c46ab7fede25462e95295ddf5263b8e8662dd90153301f616417d2f78cf282",
      "blockNumber": "0x16534fd",
      "gasUsed": "0x73c6e",
      "effectiveGasPrice": "0xf09a9",
      "from": "0x12be474d127757d0a6a36631294f8ffbcdef44f8",
      "to": "0x2e180501d3d68241dd0318c68fd9be0af1d519a1",
      "contractAddress": null,
      "l1BaseFeeScalar": "0x44d",
      "l1BlobBaseFee": "0x1",
      "l1BlobBaseFeeScalar": "0xa118b",
      "l1Fee": "0xbb26d75",
      "l1GasPrice": "0x6587bbe",
      "l1GasUsed": "0x68a"
    },
    {
      "status": "0x1",
      "cumulativeGasUsed": "0x11ae5a",
      "logs": [
        {
          "address": "0x036cbd53842c5426634e7929541ec2318f3dcf7e",
          "topics": [
            "0xddf252ad1be2c89b69c2b068fc378daa952ba7f163c4a11628f55a4df523b3ef",
            "0x00000000000000000000000012be474d127757d0a6a36631294f8ffbcdef44f8",
            "0x0000000000000000000000002e180501d3d68241dd0318c68fd9be0af1d519a1"
          ],
          "data": "0x00000000000000000000000000000000000000000000000000000000003d0900",
          "blockHash": "0x3a72536c7d4539114acc41918f0acad584aa791d16dc48dc814f987305ff8071",
          "blockNumber": "0x16534ff",
          "transactionHash": "0x0aa49fa916e2f762c520e3eb08127fe3bd483fd06e7ff1f88b7fcd23269bb15e",
          "transactionIndex": "0x4",
          "logIndex": "0x2",
          "removed": false
        },
        {
          "address": "0x2e180501d3d68241dd0318c68fd9be0af1d519a1",
          "topics": [
            "0xe523847b7270abe685bcbcb11a424b9030e5627e3d5770781dd5bbeb1ddee143",
            "0x0000000000000000000000000000000000000000000000000000000000000010",
            "0x0000000000000000000000000000000000000000000000000000000000000004",
            "0x00000000000000000000000012be474d127757d0a6a36631294f8ffbcdef44f8"
          ],
          "data": "0x000000000000000000000000000000000000000000000000000000000000000000000000000000000000000000000000000000000000000000000000003d09000000000000000000000000000000000000000000000000000000000000000000",
          "blockHash": "0x3a72536c7d4539114acc41918f0acad584aa791d16dc48dc814f987305ff8071",
          "blockNumber": "0x16534ff",
          "transactionHash": "0x0aa49fa916e2f762c520e3eb08127fe3bd483fd06e7ff1f88b7fcd23269bb15e",
          "transactionIndex": "0x4",
          "logIndex": "0x3",
          "removed": false
        }
      ],
      "logsBloom": "0x00002000140000000000000000000000000010000000000000000000000000000000000000000000000001000000000000000000000000000000000000000000000000000000000000000008000000000000000000000000000000000000000808000000000000000000000000000000000000000000000000800010040000000000000000080000800000000000000000000100000000000400000000000000008000000000000000000000000000000000000000000000002000000000000000000002000000000000000100000000000000018000000000000000000000000000020000000000000000000020000000000000000010000000000000000000",
      "type": "0x2",
      "transactionHash": "0x0aa49fa916e2f762c520e3eb08127fe3bd483fd06e7ff1f88b7fcd23269bb15e",
      "transactionIndex": "0x4",
      "blockHash": "0x3a72536c7d4539114acc41918f0acad584aa791d16dc48dc814f987305ff8071",
      "blockNumber": "0x16534ff",
      "gasUsed": "0x6772f",
      "effectiveGasPrice": "0xf09a7",
      "from": "0x12be474d127757d0a6a36631294f8ffbcdef44f8",
      "to": "0x2e180501d3d68241dd0318c68fd9be0af1d519a1",
      "contractAddress": null,
      "l1BaseFeeScalar": "0x44d",
      "l1BlobBaseFee": "0x1",
      "l1BlobBaseFeeScalar": "0xa118b",
      "l1Fee": "0xb2db0df",
      "l1GasPrice": "0x6587bbe",
      "l1GasUsed": "0x640"
    },
    {
      "status": "0x1",
      "cumulativeGasUsed": "0x133478",
      "logs": [
        {
          "address": "0x036cbd53842c5426634e7929541ec2318f3dcf7e",
          "topics": [
            "0xddf252ad1be2c89b69c2b068fc378daa952ba7f163c4a11628f55a4df523b3ef",
            "0x00000000000000000000000012be474d127757d0a6a36631294f8ffbcdef44f8",
            "0x0000000000000000000000002e180501d3d68241dd0318c68fd9be0af1d519a1"
          ],
          "data": "0x00000000000000000000000000000000000000000000000000000000004c4b40",
          "blockHash": "0x8bc4a43044e152626f5ee8ec9fa55d427b1373308a7c329a68526706523da6c4",
          "blockNumber": "0x1653501",
          "transactionHash": "0x0a84efd9ef5518e34c01f680850bd41f5b00dc74f90a214d86211075315a11d5",
          "transactionIndex": "0x6",
          "logIndex": "0x4",
          "removed": false
        },
        {
          "address": "0x2e180501d3d68241dd0318c68fd9be0af1d519a1",
          "topics": [
            "0xe523847b7270abe685bcbcb11a424b9030e5627e3d5770781dd5bbeb1ddee143",
            "0x0000000000000000000000000000000000000000000000000000000000000011",
            "0x0000000000000000000000000000000000000000000000000000000000000005",
            "0x00000000000000000000000012be474d127757d0a6a36631294f8ffbcdef44f8"
          ],
          "data": "0x000000000000000000000000000000000000000000000000000000000000000000000000000000000000000000000000000000000000000000000000004c4b400000000000000000000000000000000000000000000000000000000000000000",
          "blockHash": "0x8bc4a43044e152626f5ee8ec9fa55d427b1373308a7c329a68526706523da6c4",
          "blockNumber": "0x1653501",
          "transactionHash": "0x0a84efd9ef5518e34c01f680850bd41f5b00dc74f90a214d86211075315a11d5",
          "transactionIndex": "0x6",
          "logIndex": "0x5",
          "removed": false
        }
      ],
      "logsBloom": "0x00002000040000000000000000000000000010000000000000000000000000000000000000000000000001000000000000000000000000000000000000000000000010000000000000000008000000000000000000000000000000000000000800000000000000000000000000000000000000004000000000800010000000000000000000080000800000000000001000000800000000000400000000000000008000000000000000000000000000000000000000000000000000000400000000001002000000000000000100000000000000010000000000000000000000000000020000000000000000000020000000000000000010000000000000000000",
      "type": "0x2",
      "transactionHash": "0x0a84efd9ef5518e34c01f680850bd41f5b00dc74f90a214d86211075315a11d5",
      "transactionIndex": "0x6",
      "blockHash": "0x8bc4a43044e152626f5ee8ec9fa55d427b1373308a7c329a68526706523da6c4",
      "blockNumber": "0x1653501",
      "gasUsed": "0x6346f",
      "effectiveGasPrice": "0xf098e",
      "from": "0x12be474d127757d0a6a36631294f8ffbcdef44f8",
      "to": "0x2e180501d3d68241dd0318c68fd9be0af1d519a1",
      "contractAddress": null,
      "l1BaseFeeScalar": "0x44d",
      "l1BlobBaseFee": "0x1",
      "l1BlobBaseFeeScalar": "0xa118b",
      "l1Fee": "0xb2db0df",
      "l1GasPrice": "0x6587bbe",
      "l1GasUsed": "0x640"
    },
    {
      "status": "0x1",
      "cumulativeGasUsed": "0x6425d2",
      "logs": [
        {
          "address": "0x036cbd53842c5426634e7929541ec2318f3dcf7e",
          "topics": [
            "0xddf252ad1be2c89b69c2b068fc378daa952ba7f163c4a11628f55a4df523b3ef",
            "0x00000000000000000000000012be474d127757d0a6a36631294f8ffbcdef44f8",
            "0x0000000000000000000000002e180501d3d68241dd0318c68fd9be0af1d519a1"
          ],
          "data": "0x00000000000000000000000000000000000000000000000000000000000f4240",
          "blockHash": "0x63eec268d31b242b376f36b2223dc5b8e15602805a88f55896855288b5e0fe33",
          "blockNumber": "0x1653502",
          "transactionHash": "0xd7bc4be8692fe780060a95aaba5808ec522e851284254fd08ac86da4564fb90e",
          "transactionIndex": "0x24",
          "logIndex": "0x8a",
          "removed": false
        },
        {
          "address": "0x2e180501d3d68241dd0318c68fd9be0af1d519a1",
          "topics": [
            "0xe523847b7270abe685bcbcb11a424b9030e5627e3d5770781dd5bbeb1ddee143",
            "0x0000000000000000000000000000000000000000000000000000000000000012",
            "0x0000000000000000000000000000000000000000000000000000000000000006",
            "0x00000000000000000000000012be474d127757d0a6a36631294f8ffbcdef44f8"
          ],
          "data": "0x000000000000000000000000000000000000000000000000000000000000000100000000000000000000000000000000000000000000000000000000000f42400000000000000000000000000000000000000000000000000000000000000000",
          "blockHash": "0x63eec268d31b242b376f36b2223dc5b8e15602805a88f55896855288b5e0fe33",
          "blockNumber": "0x1653502",
          "transactionHash": "0xd7bc4be8692fe780060a95aaba5808ec522e851284254fd08ac86da4564fb90e",
          "transactionIndex": "0x24",
          "logIndex": "0x8b",
          "removed": false
        }
      ],
      "logsBloom": "0x00002000040000000000000000000000000010000000000000000000000000000000000000000000000001000000000000000000000400000000000000000000000000000000000000000008000000000000000000000000000000000000000800000000000000000000000000000000000000000000000000800010000000000000000400080000800000000000040000000000000000000400000000000000008000000000000000000000000000000000000000000040000000080000000000000002000000000400000100000000000000010000000000000000000000000000020000000000000000000020000000000000000010000000000000000000",
      "type": "0x2",
      "transactionHash": "0xd7bc4be8692fe780060a95aaba5808ec522e851284254fd08ac86da4564fb90e",
      "transactionIndex": "0x24",
      "blockHash": "0x63eec268d31b242b376f36b2223dc5b8e15602805a88f55896855288b5e0fe33",
      "blockNumber": "0x1653502",
      "gasUsed": "0x6cff3",
      "effectiveGasPrice": "0xf098f",
      "from": "0x12be474d127757d0a6a36631294f8ffbcdef44f8",
      "to": "0x2e180501d3d68241dd0318c68fd9be0af1d519a1",
      "contractAddress": null,
      "l1BaseFeeScalar": "0x44d",
      "l1BlobBaseFee": "0x1",
      "l1BlobBaseFeeScalar": "0xa118b",
      "l1Fee": "0xb828d2e",
      "l1GasPrice": "0x6587bbe",
      "l1GasUsed": "0x66f"
    },
    {
      "status": "0x1",
      "cumulativeGasUsed": "0x123eb",
      "logs": [
        {
          "address": "0x2e180501d3d68241dd0318c68fd9be0af1d519a1",
          "topics": [
            "0xaf7faf29a251efa1bcf2b47dab1a72baa0906a2e4ff957e6cb6d4f7c642161ab",
            "0x0000000000000000000000000000000000000000000000000000000000000004"
          ],
          "data": "0x0000000000000000000000000000000000000000000000000000000000000002",
          "blockHash": "0xa8b83d458cc5ca79cdfb39708cb0d0a96c21ef3651d4e118900e2298c0155280",
          "blockNumber": "0x1653504",
          "transactionHash": "0x39e47894bc58a685e88d4f5f5dd0f67e35a583a50f4bd84347f94da266311946",
          "transactionIndex": "0x1",
          "logIndex": "0x0",
          "removed": false
        }
      ],
      "logsBloom": "0x00000000000000000000000000000000000010000000000000000000000000000000000000000000000001000000000000000000000000200000000000000000000000000000000000000000000000000000000000000000000000000000000008000000000000000000000000000000000000000000000000000000000000000000000000000000000000000000000000000000000000000000000004000000000000000000000000000000000000000000000000000000002040000000000000000000000000000000000000000000000000008000000000000000000000000000020000000000000000000000000000000000000000000000000000000000",
      "type": "0x2",
      "transactionHash": "0x39e47894bc58a685e88d4f5f5dd0f67e35a583a50f4bd84347f94da266311946",
      "transactionIndex": "0x1",
      "blockHash": "0xa8b83d458cc5ca79cdfb39708cb0d0a96c21ef3651d4e118900e2298c0155280",
      "blockNumber": "0x1653504",
      "gasUsed": "0x78b8",
      "effectiveGasPrice": "0xf098b",
      "from": "0x7956c2c1b85f5ac14c2c537f669b65991428e268",
      "to": "0x2e180501d3d68241dd0318c68fd9be0af1d519a1",
      "contractAddress": null,
      "l1BaseFeeScalar": "0x44d",
      "l1BlobBaseFee": "0x1",
      "l1BlobBaseFeeScalar": "0xa118b",
      "l1Fee": "0xa9ec3cc",
      "l1GasPrice": "0x6075961",
      "l1GasUsed": "0x640"
    },
    {
      "status": "0x1",
      "cumulativeGasUsed": "0x124df6",
      "logs": [
        {
          "address": "0x2e180501d3d68241dd0318c68fd9be0af1d519a1",
          "topics": [
            "0xaf7faf29a251efa1bcf2b47dab1a72baa0906a2e4ff957e6cb6d4f7c642161ab",
            "0x0000000000000000000000000000000000000000000000000000000000000005"
          ],
          "data": "0x0000000000000000000000000000000000000000000000000000000000000000",
          "blockHash": "0x691c45802161fa0ac41907bc8f2ccf60149a07f53c6d4d1157f35b862e846a16",
          "blockNumber": "0x1653506",
          "transactionHash": "0x023064d4539a1c019038118bd3ddd3185d7edee456dc9222136967b542a9a9b5",
          "transactionIndex": "0x6",
          "logIndex": "0x17",
          "removed": false
        },
        {
          "address": "0x2e180501d3d68241dd0318c68fd9be0af1d519a1",
          "topics": [
            "0x71bf4dbc735bb7b341dcea9720315ff68bb3c8f5548eed9966947402c6187601",
            "0x0000000000000000000000000000000000000000000000000000000000000002",
            "0x0000000000000000000000000000000000000000000000000000000000000005",
            "0x0000000000000000000000004e5dc9df946500b07e9c66e4dd29bf9cd062002b"
          ],
          "data": "0x0000000000000000000000000000000000000000000000000000000109ce91df0000000000000000000000000000000000000000000000000000000000000001",
          "blockHash": "0x691c45802161fa0ac41907bc8f2ccf60149a07f53c6d4d1157f35b862e846a16",
          "blockNumber": "0x1653506",
          "transactionHash": "0x023064d4539a1c019038118bd3ddd3185d7edee456dc9222136967b542a9a9b5",
          "transactionIndex": "0x6",
          "logIndex": "0x18",
          "removed": false
        },
        {
          "address": "0x2e180501d3d68241dd0318c68fd9be0af1d519a1",
          "topics": [
            "0x71bf4dbc735bb7b341dcea9720315ff68bb3c8f5548eed9966947402c6187601",
            "0x0000000000000000000000000000000000000000000000000000000000000005",
            "0x0000000000000000000000000000000000000000000000000000000000000005",
            "0x0000000000000000000000004e5dc9df946500b07e9c66e4dd29bf9cd062002b"
          ],
          "data": "0x00000000000000000000000000000000000000000000000000000000001429760000000000000000000000000000000000000000000000000000000000000000",
          "blockHash": "0x691c45802161fa0ac41907bc8f2ccf60149a07f53c6d4d1157f35b862e846a16",
          "blockNumber": "0x1653506",
          "transactionHash": "0x023064d4539a1c019038118bd3ddd3185d7edee456dc9222136967b542a9a9b5",
          "transactionIndex": "0x6",
          "logIndex": "0x19",
          "removed": false
        },
        {
          "address": "0x2e180501d3d68241dd0318c68fd9be0af1d519a1",
          "topics": [
            "0x71bf4dbc735bb7b341dcea9720315ff68bb3c8f5548eed9966947402c6187601",
            "0x000000000000000000000000000000000000000000000000000000000000000e",
            "0x0000000000000000000000000000000000000000000000000000000000000005",
            "0x00000000000000000000000012be474d127757d0a6a36631294f8ffbcdef44f8"
          ],
          "data": "0x0000000000000000000000000000000000000000000000000000000109ce91df0000000000000000000000000000000000000000000000000000000000000001",
          "blockHash": "0x691c45802161fa0ac41907bc8f2ccf60149a07f53c6d4d1157f35b862e846a16",
          "blockNumber": "0x1653506",
          "transactionHash": "0x023064d4539a1c019038118bd3ddd3185d7edee456dc9222136967b542a9a9b5",
          "transactionIndex": "0x6",
          "logIndex": "0x1a",
          "removed": false
        },
        {
          "address": "0x2e180501d3d68241dd0318c68fd9be0af1d519a1",
          "topics": [
            "0x71bf4dbc735bb7b341dcea9720315ff68bb3c8f5548eed9966947402c6187601",
            "0x0000000000000000000000000000000000000000000000000000000000000011",
            "0x0000000000000000000000000000000000000000000000000000000000000005",
            "0x00000000000000000000000012be474d127757d0a6a36631294f8ffbcdef44f8"
          ],
          "data": "0x000000000000000000000000000000000000000000000000000000000064cf4b0000000000000000000000000000000000000000000000000000000000000000",
          "blockHash": "0x691c45802161fa0ac41907bc8f2ccf60149a07f53c6d4d1157f35b862e846a16",
          "blockNumber": "0x1653506",
          "transactionHash": "0x023064d4539a1c019038118bd3ddd3185d7edee456dc9222136967b542a9a9b5",
          "transactionIndex": "0x6",
          "logIndex": "0x1b",
          "removed": false
        }
      ],
      "logsBloom": "0x04000000000000000000000000000000000410000000000000000000000000000000000000000000000001000000000000000000000000200000000000000000200010000000000800000000000000000000000000000000000000000000000000000000000000000000000000000000000000004000000000800000000000000000000000000000004000000000001008000800000000000000000004000000008000000000000000000100000000000000000000000020000040000400000000011000020000000000000100000000000000000000800000000000000000000000020000000000000000000000000000000000008000000000000000000000",
      "type": "0x2",
      "transactionHash": "0x023064d4539a1c019038118bd3ddd3185d7edee456dc9222136967b542a9a9b5",
      "transactionIndex": "0x6",
      "blockHash": "0x691c45802161fa0ac41907bc8f2ccf60149a07f53c6d4d1157f35b862e846a16",
      "blockNumber": "0x1653506",
      "gasUsed": "0x53c15",
      "effectiveGasPrice": "0xf097f",
      "from": "0x7956c2c1b85f5ac14c2c537f669b65991428e268",
      "to": "0x2e180501d3d68241dd0318c68fd9be0af1d519a1",
      "contractAddress": null,
      "l1BaseFeeScalar": "0x44d",
      "l1BlobBaseFee": "0x1",
      "l1BlobBaseFeeScalar": "0xa118b",
      "l1Fee": "0xa9ec3cc",
      "l1GasPrice": "0x6075961",
      "l1GasUsed": "0x640"
    },
    {
      "status": "0x1",
      "cumulativeGasUsed": "0xa8e98f",
      "logs": [
        {
          "address": "0x2e180501d3d68241dd0318c68fd9be0af1d519a1",
          "topics": [
            "0xaf7faf29a251efa1bcf2b47dab1a72baa0906a2e4ff957e6cb6d4f7c642161ab",
            "0x0000000000000000000000000000000000000000000000000000000000000006"
          ],
          "data": "0x0000000000000000000000000000000000000000000000000000000000000001",
          "blockHash": "0x0bc4b24a72a0bfba6b526558a22fcb835f0e467d4620593a9942dabd02b53bbf",
          "blockNumber": "0x1653508",
          "transactionHash": "0xb402a0255ef97a1ea63ea4a0ff98710ab5c31c5d2eefd32ea3759aa7dd5310c0",
          "transactionIndex": "0x26",
          "logIndex": "0xb2",
          "removed": false
        },
        {
          "address": "0x2e180501d3d68241dd0318c68fd9be0af1d519a1",
          "topics": [
            "0x71bf4dbc735bb7b341dcea9720315ff68bb3c8f5548eed9966947402c6187601",
            "0x0000000000000000000000000000000000000000000000000000000000000006",
            "0x0000000000000000000000000000000000000000000000000000000000000006",
            "0x0000000000000000000000004e5dc9df946500b07e9c66e4dd29bf9cd062002b"
          ],
          "data": "0x000000000000000000000000000000000000000000000000000000000046911b0000000000000000000000000000000000000000000000000000000000000000",
          "blockHash": "0x0bc4b24a72a0bfba6b526558a22fcb835f0e467d4620593a9942dabd02b53bbf",
          "blockNumber": "0x1653508",
          "transactionHash": "0xb402a0255ef97a1ea63ea4a0ff98710ab5c31c5d2eefd32ea3759aa7dd5310c0",
          "transactionIndex": "0x26",
          "logIndex": "0xb3",
          "removed": false
        },
        {
          "address": "0x2e180501d3d68241dd0318c68fd9be0af1d519a1",
          "topics": [
            "0x71bf4dbc735bb7b341dcea9720315ff68bb3c8f5548eed9966947402c6187601",
            "0x0000000000000000000000000000000000000000000000000000000000000012",
            "0x0000000000000000000000000000000000000000000000000000000000000006",
            "0x00000000000000000000000012be474d127757d0a6a36631294f8ffbcdef44f8"
          ],
          "data": "0x000000000000000000000000000000000000000000000000000000000023488e0000000000000000000000000000000000000000000000000000000000000000",
          "blockHash": "0x0bc4b24a72a0bfba6b526558a22fcb835f0e467d4620593a9942dabd02b53bbf",
          "blockNumber": "0x1653508",
          "transactionHash": "0xb402a0255ef97a1ea63ea4a0ff98710ab5c31c5d2eefd32ea3759aa7dd5310c0",
          "transactionIndex": "0x26",
          "logIndex": "0xb4",
          "removed": false
        }
      ],
      "logsBloom": "0x00000000000000000000000000000000000410000000000000000000000000000000000000000000000001000000000000000000000400200000000000000000200000000000000000000000000000000000000000000000000000000000000000000000000000000000000000000000000000000000000000800000000000000000000400000000004000000000040000000000000000000000000004000000008000000000000000000000000000000000000000000040000040080000000000010000020000000400000100000000000000000000800000000000000000000000020000000000000000000000000000000000000000000000000000000000",
      "type": "0x2",
      "transactionHash": "0xb402a0255ef97a1ea63ea4a0ff98710ab5c31c5d2eefd32ea3759aa7dd5310c0",
      "transactionIndex": "0x26",
      "blockHash": "0x0bc4b24a72a0bfba6b526558a22fcb835f0e467d4620593a9942dabd02b53bbf",
      "blockNumber": "0x1653508",
      "gasUsed": "0x405e5",
      "effectiveGasPrice": "0xf0978",
      "from": "0x7956c2c1b85f5ac14c2c537f669b65991428e268",
      "to": "0x2e180501d3d68241dd0318c68fd9be0af1d519a1",
      "contractAddress": null,
      "l1BaseFeeScalar": "0x44d",
      "l1BlobBaseFee": "0x1",
      "l1BlobBaseFeeScalar": "0xa118b",
      "l1Fee": "0xa9ec3cc",
      "l1GasPrice": "0x6075961",
      "l1GasUsed": "0x640"
    }
  ],
  "libraries": [],
  "pending": [],
  "returns": {},
  "timestamp": 1742588145,
  "chain": 84532,
  "commit": "634eede"
}