{
  "transactions": [
    {
      "hash": "0x31019bd80f9bb30b452c05f446a47e8400d98d91590280dd56feb96776b9ba4c",
      "transactionType": "CALL",
      "contractName": null,
      "contractAddress": "0xa373482b473e33b96412a6c0ca8b847e6bbb4d0d",
      "function": "mint(address,uint256)",
      "arguments": [
        "0x4E5dC9dF946500b07E9c66e4DD29bf9CD062002B",
        "10000000000"
      ],
      "transaction": {
        "from": "0x7956c2c1b85f5ac14c2c537f669b65991428e268",
        "to": "0xa373482b473e33b96412a6c0ca8b847e6bbb4d0d",
        "gas": "0xc273",
        "value": "0x0",
        "input": "0x40c10f190000000000000000000000004e5dc9df946500b07e9c66e4dd29bf9cd062002b00000000000000000000000000000000000000000000000000000002540be400",
        "nonce": "0xaf",
        "chainId": "0x14a34"
      },
      "additionalContracts": [],
      "isFixedGasLimit": false
    },
    {
      "hash": "0x0c26085ef55e3d429e1cc482704a0ba401c115064f38793097dd55498a82edd7",
      "transactionType": "CALL",
      "contractName": null,
      "contractAddress": "0xa373482b473e33b96412a6c0ca8b847e6bbb4d0d",
      "function": "mint(address,uint256)",
      "arguments": [
        "0x67bFd0B42F5f39710B4E90301289F81Eab6315dA",
        "10000000000"
      ],
      "transaction": {
        "from": "0x7956c2c1b85f5ac14c2c537f669b65991428e268",
        "to": "0xa373482b473e33b96412a6c0ca8b847e6bbb4d0d",
        "gas": "0xc295",
        "value": "0x0",
        "input": "0x40c10f1900000000000000000000000067bfd0b42f5f39710b4e90301289f81eab6315da00000000000000000000000000000000000000000000000000000002540be400",
        "nonce": "0xb0",
        "chainId": "0x14a34"
      },
      "additionalContracts": [],
      "isFixedGasLimit": false
    },
    {
      "hash": "0x6ff6a3ba99b8bc27b9da88a1a0a3058c51f2ba60998598065078f3db4eafcfe9",
      "transactionType": "CALL",
      "contractName": null,
      "contractAddress": "0xa373482b473e33b96412a6c0ca8b847e6bbb4d0d",
      "function": "mint(address,uint256)",
      "arguments": [
        "0x12BE474D127757d0a6a36631294F8FfBCdeF44F8",
        "10000000000"
      ],
      "transaction": {
        "from": "0x7956c2c1b85f5ac14c2c537f669b65991428e268",
        "to": "0xa373482b473e33b96412a6c0ca8b847e6bbb4d0d",
        "gas": "0xc295",
        "value": "0x0",
        "input": "0x40c10f1900000000000000000000000012be474d127757d0a6a36631294f8ffbcdef44f800000000000000000000000000000000000000000000000000000002540be400",
        "nonce": "0xb1",
        "chainId": "0x14a34"
      },
      "additionalContracts": [],
      "isFixedGasLimit": false
    },
    {
      "hash": "0x894c56fa6845ad11e947a6de267566a606e33bde88b5ad9e64497725645aee2f",
      "transactionType": "CALL",
      "contractName": null,
      "contractAddress": "0x2e180501d3d68241dd0318c68fd9be0af1d519a1",
      "function": "createPool((string,string[2],uint40,string,string,string))",
      "arguments": [
        "(Will I PARDON MYSELF? The RADICAL LEFT is TERRIFIED of this!, [YES, NO], 1742592714, This pool will close if Trump posts that he will pardon himself, Grade YES if Trump posts about pardoning himself, NO otherwise, 114197092205719557)"
      ],
      "transaction": {
        "from": "0x7956c2c1b85f5ac14c2c537f669b65991428e268",
        "to": "0x2e180501d3d68241dd0318c68fd9be0af1d519a1",
        "gas": "0x94c45",
        "value": "0x0",
        "input": "0x1a5c3706000000000000000000000000000000000000000000000000000000000000002000000000000000000000000000000000000000000000000000000000000000c000000000000000000000000000000000000000000000000000000000000001200000000000000000000000000000000000000000000000000000000067dddaca00000000000000000000000000000000000000000000000000000000000001e0000000000000000000000000000000000000000000000000000000000000024000000000000000000000000000000000000000000000000000000000000002a0000000000000000000000000000000000000000000000000000000000000003c57696c6c204920504152444f4e204d5953454c463f20546865205241444943414c204c45465420697320544552524946494544206f6620746869732100000000000000000000000000000000000000000000000000000000000000000000004000000000000000000000000000000000000000000000000000000000000000800000000000000000000000000000000000000000000000000000000000000003594553000000000000000000000000000000000000000000000000000000000000000000000000000000000000000000000000000000000000000000000000024e4f000000000000000000000000000000000000000000000000000000000000000000000000000000000000000000000000000000000000000000000000003f5468697320706f6f6c2077696c6c20636c6f7365206966205472756d7020706f73747320746861742068652077696c6c20706172646f6e2068696d73656c6600000000000000000000000000000000000000000000000000000000000000003e477261646520594553206966205472756d7020706f7374732061626f757420706172646f6e696e672068696d73656c662c204e4f206f7468657277697365000000000000000000000000000000000000000000000000000000000000000000123131343139373039323230353731393535370000000000000000000000000000",
        "nonce": "0xb2",
        "chainId": "0x14a34"
      },
      "additionalContracts": [],
      "isFixedGasLimit": false
    },
    {
      "hash": "0xed60554119e692e455669cb4e605bec382bf9091e688a8af1934d8e78164f50f",
      "transactionType": "CALL",
      "contractName": null,
      "contractAddress": "0x2e180501d3d68241dd0318c68fd9be0af1d519a1",
      "function": "createPool((string,string[2],uint40,string,string,string))",
      "arguments": [
        "(Will I FIRE THE FBI DIRECTOR on day one? The FBI has been WEAPONIZED against us!, [YES, NO], 1742592714, This pool will close if Trump makes a statement about the FBI Director, Grade YES if Trump says he will fire the FBI Director, NO otherwise, 114200175082806882)"
      ],
      "transaction": {
        "from": "0x7956c2c1b85f5ac14c2c537f669b65991428e268",
        "to": "0x2e180501d3d68241dd0318c68fd9be0af1d519a1",
        "gas": "0xad159",
        "value": "0x0",
        "input": "0x1a5c3706000000000000000000000000000000000000000000000000000000000000002000000000000000000000000000000000000000000000000000000000000000c000000000000000000000000000000000000000000000000000000000000001400000000000000000000000000000000000000000000000000000000067dddaca000000000000000000000000000000000000000000000000000000000000020000000000000000000000000000000000000000000000000000000000000002800000000000000000000000000000000000000000000000000000000000000300000000000000000000000000000000000000000000000000000000000000005057696c6c204920464952452054484520464249204449524543544f52206f6e20646179206f6e653f205468652046424920686173206265656e20574541504f4e495a454420616761696e73742075732100000000000000000000000000000000000000000000000000000000000000000000000000000000000000000000004000000000000000000000000000000000000000000000000000000000000000800000000000000000000000000000000000000000000000000000000000000003594553000000000000000000000000000000000000000000000000000000000000000000000000000000000000000000000000000000000000000000000000024e4f00000000000000000000000000000000000000000000000000000000000000000000000000000000000000000000000000000000000000000000000000465468697320706f6f6c2077696c6c20636c6f7365206966205472756d70206d616b657320612073746174656d656e742061626f75742074686520464249204469726563746f7200000000000000000000000000000000000000000000000000000000000000000000000000000000000000000000000000000000000000000043477261646520594553206966205472756d7020736179732068652077696c6c20666972652074686520464249204469726563746f722c204e4f206f7468657277697365000000000000000000000000000000000000000000000000000000000000000000000000000000000000000000000000000000000000000000000000123131343230303137353038323830363838320000000000000000000000000000",
        "nonce": "0xb3",
        "chainId": "0x14a34"
      },
      "additionalContracts": [],
      "isFixedGasLimit": false
    },
    {
      "hash": "0xaac7c6627500e9a81a576bf87fbab663bd58fb906f5a483306203c89c780b443",
      "transactionType": "CALL",
      "contractName": null,
      "contractAddress": "0x2e180501d3d68241dd0318c68fd9be0af1d519a1",
      "function": "createPool((string,string[2],uint40,string,string,string))",
      "arguments": [
        "(Will I WIN the debate against SLEEPY JOE? Everyone knows I won the last one BIGLY!, [YES, NO], 1742592714, This pool will close after the presidential debate, Grade YES if Trump wins the debate, NO otherwise, 114200313009802638)"
      ],
      "transaction": {
        "from": "0x7956c2c1b85f5ac14c2c537f669b65991428e268",
        "to": "0x2e180501d3d68241dd0318c68fd9be0af1d519a1",
        "gas": "0x9417b",
        "value": "0x0",
        "input": "0x1a5c3706000000000000000000000000000000000000000000000000000000000000002000000000000000000000000000000000000000000000000000000000000000c000000000000000000000000000000000000000000000000000000000000001400000000000000000000000000000000000000000000000000000000067dddaca0000000000000000000000000000000000000000000000000000000000000200000000000000000000000000000000000000000000000000000000000000026000000000000000000000000000000000000000000000000000000000000002c0000000000000000000000000000000000000000000000000000000000000005257696c6c20492057494e207468652064656261746520616761696e737420534c45455059204a4f453f2045766572796f6e65206b6e6f7773204920776f6e20746865206c617374206f6e65204249474c59210000000000000000000000000000000000000000000000000000000000000000000000000000000000000000004000000000000000000000000000000000000000000000000000000000000000800000000000000000000000000000000000000000000000000000000000000003594553000000000000000000000000000000000000000000000000000000000000000000000000000000000000000000000000000000000000000000000000024e4f00000000000000000000000000000000000000000000000000000000000000000000000000000000000000000000000000000000000000000000000000325468697320706f6f6c2077696c6c20636c6f73652061667465722074686520707265736964656e7469616c2064656261746500000000000000000000000000000000000000000000000000000000000000000000000000000000000000000030477261646520594553206966205472756d702077696e7320746865206465626174652c204e4f206f74686572776973650000000000000000000000000000000000000000000000000000000000000000000000000000000000000000000000123131343230303331333030393830323633380000000000000000000000000000",
        "nonce": "0xb4",
        "chainId": "0x14a34"
      },
      "additionalContracts": [],
      "isFixedGasLimit": false
    },
    {
      "hash": "0x2f6514954675e2022cb94df0d29e0ab513a56680fbacc1dac26e0db65cff1bdb",
      "transactionType": "CALL",
      "contractName": null,
      "contractAddress": "0xa373482b473e33b96412a6c0ca8b847e6bbb4d0d",
      "function": "approve(address,uint256)",
      "arguments": [
        "0x2E180501D3D68241dd0318c68fD9BE0AF1D519a1",
        "11000000003"
      ],
      "transaction": {
        "from": "0x4e5dc9df946500b07e9c66e4dd29bf9cd062002b",
        "to": "0xa373482b473e33b96412a6c0ca8b847e6bbb4d0d",
        "gas": "0x9bbc",
        "value": "0x0",
        "input": "0x095ea7b30000000000000000000000002e180501d3d68241dd0318c68fd9be0af1d519a1000000000000000000000000000000000000000000000000000000028fa6ae03",
        "nonce": "0x127",
        "chainId": "0x14a34"
      },
      "additionalContracts": [],
      "isFixedGasLimit": false
    },
    {
      "hash": "0x46d39508e43f279cbad3d93adcbad0bf98da029a8abf76dbafd46be0e9f7c858",
      "transactionType": "CALL",
      "contractName": null,
      "contractAddress": "0x036cbd53842c5426634e7929541ec2318f3dcf7e",
      "function": "approve(address,uint256)",
      "arguments": [
        "0x2E180501D3D68241dd0318c68fD9BE0AF1D519a1",
        "493000000"
      ],
      "transaction": {
        "from": "0x4e5dc9df946500b07e9c66e4dd29bf9cd062002b",
        "to": "0x036cbd53842c5426634e7929541ec2318f3dcf7e",
        "gas": "0xbfcd",
        "value": "0x0",
        "input": "0x095ea7b30000000000000000000000002e180501d3d68241dd0318c68fd9be0af1d519a1000000000000000000000000000000000000000000000000000000001d629540",
        "nonce": "0x128",
        "chainId": "0x14a34"
      },
      "additionalContracts": [],
      "isFixedGasLimit": false
    },
    {
      "hash": "0x92842751739eccfcc48e5411d700b8c9516f94c5dc0059f3c9c38d9ab4a37f88",
      "transactionType": "CALL",
      "contractName": null,
      "contractAddress": "0x2e180501d3d68241dd0318c68fd9be0af1d519a1",
      "function": "placeBet(uint256,uint256,uint256,address,uint8)",
      "arguments": [
        "7",
        "0",
        "3300000000",
        "0x4E5dC9dF946500b07E9c66e4DD29bf9CD062002B",
        "1"
      ],
      "transaction": {
        "from": "0x4e5dc9df946500b07e9c66e4dd29bf9cd062002b",
        "to": "0x2e180501d3d68241dd0318c68fd9be0af1d519a1",
        "gas": "0x9e030",
        "value": "0x0",
        "input": "0x011c4dd90000000000000000000000000000000000000000000000000000000000000007000000000000000000000000000000000000000000000000000000000000000000000000000000000000000000000000000000000000000000000000c4b201000000000000000000000000004e5dc9df946500b07e9c66e4dd29bf9cd062002b0000000000000000000000000000000000000000000000000000000000000001",
        "nonce": "0x129",
        "chainId": "0x14a34"
      },
      "additionalContracts": [],
      "isFixedGasLimit": false
    },
    {
      "hash": "0xefef948e6d14011f739ed47e4d7f7ec9e2b3a6e572f3520e85aa5908891fb9a0",
      "transactionType": "CALL",
      "contractName": null,
      "contractAddress": "0x2e180501d3d68241dd0318c68fd9be0af1d519a1",
      "function": "placeBet(uint256,uint256,uint256,address,uint8)",
      "arguments": [
        "8",
        "1",
        "3300000000",
        "0x4E5dC9dF946500b07E9c66e4DD29bf9CD062002B",
        "1"
      ],
      "transaction": {
        "from": "0x4e5dc9df946500b07e9c66e4dd29bf9cd062002b",
        "to": "0x2e180501d3d68241dd0318c68fd9be0af1d519a1",
        "gas": "0xb585a",
        "value": "0x0",
        "input": "0x011c4dd90000000000000000000000000000000000000000000000000000000000000008000000000000000000000000000000000000000000000000000000000000000100000000000000000000000000000000000000000000000000000000c4b201000000000000000000000000004e5dc9df946500b07e9c66e4dd29bf9cd062002b0000000000000000000000000000000000000000000000000000000000000001",
        "nonce": "0x12a",
        "chainId": "0x14a34"
      },
      "additionalContracts": [],
      "isFixedGasLimit": false
    },
    {
      "hash": "0xbb879fea1677fb13a522137bf2b527bd6a946b56e49914be9fe3fecd923aa884",
      "transactionType": "CALL",
      "contractName": null,
      "contractAddress": "0x2e180501d3d68241dd0318c68fd9be0af1d519a1",
      "function": "placeBet(uint256,uint256,uint256,address,uint8)",
      "arguments": [
        "9",
        "0",
        "3300000000",
        "0x4E5dC9dF946500b07E9c66e4DD29bf9CD062002B",
        "1"
      ],
      "transaction": {
        "from": "0x4e5dc9df946500b07e9c66e4dd29bf9cd062002b",
        "to": "0x2e180501d3d68241dd0318c68fd9be0af1d519a1",
        "gas": "0x9e030",
        "value": "0x0",
        "input": "0x011c4dd90000000000000000000000000000000000000000000000000000000000000009000000000000000000000000000000000000000000000000000000000000000000000000000000000000000000000000000000000000000000000000c4b201000000000000000000000000004e5dc9df946500b07e9c66e4dd29bf9cd062002b0000000000000000000000000000000000000000000000000000000000000001",
        "nonce": "0x12b",
        "chainId": "0x14a34"
      },
      "additionalContracts": [],
      "isFixedGasLimit": false
    },
    {
      "hash": "0x1707d14fd39b0f00f636e408481232a1b80a2c35fa78299b641f595604e24b9c",
      "transactionType": "CALL",
      "contractName": null,
      "contractAddress": "0x2e180501d3d68241dd0318c68fd9be0af1d519a1",
      "function": "placeBet(uint256,uint256,uint256,address,uint8)",
      "arguments": [
        "7",
        "0",
        "3000000",
        "0x4E5dC9dF946500b07E9c66e4DD29bf9CD062002B",
        "0"
      ],
      "transaction": {
        "from": "0x4e5dc9df946500b07e9c66e4dd29bf9cd062002b",
        "to": "0x2e180501d3d68241dd0318c68fd9be0af1d519a1",
        "gas": "0x974a2",
        "value": "0x0",
        "input": "0x011c4dd90000000000000000000000000000000000000000000000000000000000000007000000000000000000000000000000000000000000000000000000000000000000000000000000000000000000000000000000000000000000000000002dc6c00000000000000000000000004e5dc9df946500b07e9c66e4dd29bf9cd062002b0000000000000000000000000000000000000000000000000000000000000000",
        "nonce": "0x12c",
        "chainId": "0x14a34"
      },
      "additionalContracts": [],
      "isFixedGasLimit": false
    },
    {
      "hash": "0xec0023dc4d059ed7128fa7d847ee4be91110fac70ed3afb2b0b119f0d2d40e7b",
      "transactionType": "CALL",
      "contractName": null,
      "contractAddress": "0x2e180501d3d68241dd0318c68fd9be0af1d519a1",
      "function": "placeBet(uint256,uint256,uint256,address,uint8)",
      "arguments": [
        "8",
        "1",
        "5000000",
        "0x4E5dC9dF946500b07E9c66e4DD29bf9CD062002B",
        "0"
      ],
      "transaction": {
        "from": "0x4e5dc9df946500b07e9c66e4dd29bf9cd062002b",
        "to": "0x2e180501d3d68241dd0318c68fd9be0af1d519a1",
        "gas": "0x9c4f6",
        "value": "0x0",
        "input": "0x011c4dd90000000000000000000000000000000000000000000000000000000000000008000000000000000000000000000000000000000000000000000000000000000100000000000000000000000000000000000000000000000000000000004c4b400000000000000000000000004e5dc9df946500b07e9c66e4dd29bf9cd062002b0000000000000000000000000000000000000000000000000000000000000000",
        "nonce": "0x12d",
        "chainId": "0x14a34"
      },
      "additionalContracts": [],
      "isFixedGasLimit": false
    },
    {
      "hash": "0x8e392d318503c4faf50f1a2db5389686774d8b13e4768b4d1f0949ab75e4fb70",
      "transactionType": "CALL",
      "contractName": null,
      "contractAddress": "0x2e180501d3d68241dd0318c68fd9be0af1d519a1",
      "function": "placeBet(uint256,uint256,uint256,address,uint8)",
      "arguments": [
        "9",
        "0",
        "1000000",
        "0x4E5dC9dF946500b07E9c66e4DD29bf9CD062002B",
        "0"
      ],
      "transaction": {
        "from": "0x4e5dc9df946500b07e9c66e4dd29bf9cd062002b",
        "to": "0x2e180501d3d68241dd0318c68fd9be0af1d519a1",
        "gas": "0x974a2",
        "value": "0x0",
        "input": "0x011c4dd90000000000000000000000000000000000000000000000000000000000000009000000000000000000000000000000000000000000000000000000000000000000000000000000000000000000000000000000000000000000000000000f42400000000000000000000000004e5dc9df946500b07e9c66e4dd29bf9cd062002b0000000000000000000000000000000000000000000000000000000000000000",
        "nonce": "0x12e",
        "chainId": "0x14a34"
      },
      "additionalContracts": [],
      "isFixedGasLimit": false
    },
    {
      "hash": "0x928e41c55885f3660d77fdaf477aa789e43f174d777f4a2c9a90fbce027b8af9",
      "transactionType": "CALL",
      "contractName": null,
      "contractAddress": "0xa373482b473e33b96412a6c0ca8b847e6bbb4d0d",
      "function": "approve(address,uint256)",
      "arguments": [
        "0x2E180501D3D68241dd0318c68fD9BE0AF1D519a1",
        "11000000003"
      ],
      "transaction": {
        "from": "0x67bfd0b42f5f39710b4e90301289f81eab6315da",
        "to": "0xa373482b473e33b96412a6c0ca8b847e6bbb4d0d",
        "gas": "0x9bbc",
        "value": "0x0",
        "input": "0x095ea7b30000000000000000000000002e180501d3d68241dd0318c68fd9be0af1d519a1000000000000000000000000000000000000000000000000000000028fa6ae03",
        "nonce": "0xae",
        "chainId": "0x14a34"
      },
      "additionalContracts": [],
      "isFixedGasLimit": false
    },
    {
      "hash": "0x65872f3b12f60ee4afe0c7c8b26b934e4492a2fb0babc49aa7a36d647470cef1",
      "transactionType": "CALL",
      "contractName": null,
      "contractAddress": "0x036cbd53842c5426634e7929541ec2318f3dcf7e",
      "function": "approve(address,uint256)",
      "arguments": [
        "0x2E180501D3D68241dd0318c68fD9BE0AF1D519a1",
        "493000000"
      ],
      "transaction": {
        "from": "0x67bfd0b42f5f39710b4e90301289f81eab6315da",
        "to": "0x036cbd53842c5426634e7929541ec2318f3dcf7e",
        "gas": "0xbfcd",
        "value": "0x0",
        "input": "0x095ea7b30000000000000000000000002e180501d3d68241dd0318c68fd9be0af1d519a1000000000000000000000000000000000000000000000000000000001d629540",
        "nonce": "0xaf",
        "chainId": "0x14a34"
      },
      "additionalContracts": [],
      "isFixedGasLimit": false
    },
    {
      "hash": "0xfe64168b29e4b81cb2c34d98750fa5e742fbf2e6fd63d7a0f8d347e783e7d89b",
      "transactionType": "CALL",
      "contractName": null,
      "contractAddress": "0x2e180501d3d68241dd0318c68fd9be0af1d519a1",
      "function": "placeBet(uint256,uint256,uint256,address,uint8)",
      "arguments": [
        "7",
        "0",
        "3300000000",
        "0x67bFd0B42F5f39710B4E90301289F81Eab6315dA",
        "1"
      ],
      "transaction": {
        "from": "0x67bfd0b42f5f39710b4e90301289f81eab6315da",
        "to": "0x2e180501d3d68241dd0318c68fd9be0af1d519a1",
        "gas": "0x927cb",
        "value": "0x0",
        "input": "0x011c4dd90000000000000000000000000000000000000000000000000000000000000007000000000000000000000000000000000000000000000000000000000000000000000000000000000000000000000000000000000000000000000000c4b2010000000000000000000000000067bfd0b42f5f39710b4e90301289f81eab6315da0000000000000000000000000000000000000000000000000000000000000001",
        "nonce": "0xb0",
        "chainId": "0x14a34"
      },
      "additionalContracts": [],
      "isFixedGasLimit": false
    },
    {
      "hash": "0x52b7c4364511d194117c4a25aba930d28a2ba95f0ee1220b14c31728fdccb661",
      "transactionType": "CALL",
      "contractName": null,
      "contractAddress": "0x2e180501d3d68241dd0318c68fd9be0af1d519a1",
      "function": "placeBet(uint256,uint256,uint256,address,uint8)",
      "arguments": [
        "8",
        "0",
        "3300000000",
        "0x67bFd0B42F5f39710B4E90301289F81Eab6315dA",
        "1"
      ],
      "transaction": {
        "from": "0x67bfd0b42f5f39710b4e90301289f81eab6315da",
        "to": "0x2e180501d3d68241dd0318c68fd9be0af1d519a1",
        "gas": "0xa135b",
        "value": "0x0",
        "input": "0x011c4dd90000000000000000000000000000000000000000000000000000000000000008000000000000000000000000000000000000000000000000000000000000000000000000000000000000000000000000000000000000000000000000c4b2010000000000000000000000000067bfd0b42f5f39710b4e90301289f81eab6315da0000000000000000000000000000000000000000000000000000000000000001",
        "nonce": "0xb1",
        "chainId": "0x14a34"
      },
      "additionalContracts": [],
      "isFixedGasLimit": false
    },
    {
      "hash": "0xb9494d6641c3d40e2f88b51580a637fb2c97679c4e54683b6fc6c22c04858863",
      "transactionType": "CALL",
      "contractName": null,
      "contractAddress": "0x2e180501d3d68241dd0318c68fd9be0af1d519a1",
      "function": "placeBet(uint256,uint256,uint256,address,uint8)",
      "arguments": [
        "9",
        "1",
        "3300000000",
        "0x67bFd0B42F5f39710B4E90301289F81Eab6315dA",
        "1"
      ],
      "transaction": {
        "from": "0x67bfd0b42f5f39710b4e90301289f81eab6315da",
        "to": "0x2e180501d3d68241dd0318c68fd9be0af1d519a1",
        "gas": "0xa5adc",
        "value": "0x0",
        "input": "0x011c4dd90000000000000000000000000000000000000000000000000000000000000009000000000000000000000000000000000000000000000000000000000000000100000000000000000000000000000000000000000000000000000000c4b2010000000000000000000000000067bfd0b42f5f39710b4e90301289f81eab6315da0000000000000000000000000000000000000000000000000000000000000001",
        "nonce": "0xb2",
        "chainId": "0x14a34"
      },
      "additionalContracts": [],
      "isFixedGasLimit": false
    },
    {
      "hash": "0x05f40712c5c3532c40aa18871cdc80e351ab134e0101c2e2fd5875559fd55ed7",
      "transactionType": "CALL",
      "contractName": null,
      "contractAddress": "0x2e180501d3d68241dd0318c68fd9be0af1d519a1",
      "function": "placeBet(uint256,uint256,uint256,address,uint8)",
      "arguments": [
        "7",
        "1",
        "2000000",
        "0x67bFd0B42F5f39710B4E90301289F81Eab6315dA",
        "0"
      ],
      "transaction": {
        "from": "0x67bfd0b42f5f39710b4e90301289f81eab6315da",
        "to": "0x2e180501d3d68241dd0318c68fd9be0af1d519a1",
        "gas": "0x9c516",
        "value": "0x0",
        "input": "0x011c4dd90000000000000000000000000000000000000000000000000000000000000007000000000000000000000000000000000000000000000000000000000000000100000000000000000000000000000000000000000000000000000000001e848000000000000000000000000067bfd0b42f5f39710b4e90301289f81eab6315da0000000000000000000000000000000000000000000000000000000000000000",
        "nonce": "0xb3",
        "chainId": "0x14a34"
      },
      "additionalContracts": [],
      "isFixedGasLimit": false
    },
    {
      "hash": "0xf5785cc05369f95aa09c642d21507b1c54cbbbd9867ff19cbc510cecca721c8a",
      "transactionType": "CALL",
      "contractName": null,
      "contractAddress": "0x2e180501d3d68241dd0318c68fd9be0af1d519a1",
      "function": "placeBet(uint256,uint256,uint256,address,uint8)",
      "arguments": [
        "8",
        "1",
        "1000000",
        "0x67bFd0B42F5f39710B4E90301289F81Eab6315dA",
        "0"
      ],
      "transaction": {
        "from": "0x67bfd0b42f5f39710b4e90301289f81eab6315da",
        "to": "0x2e180501d3d68241dd0318c68fd9be0af1d519a1",
        "gas": "0x9f686",
        "value": "0x0",
        "input": "0x011c4dd90000000000000000000000000000000000000000000000000000000000000008000000000000000000000000000000000000000000000000000000000000000100000000000000000000000000000000000000000000000000000000000f424000000000000000000000000067bfd0b42f5f39710b4e90301289f81eab6315da0000000000000000000000000000000000000000000000000000000000000000",
        "nonce": "0xb4",
        "chainId": "0x14a34"
      },
      "additionalContracts": [],
      "isFixedGasLimit": false
    },
    {
      "hash": "0x492cbcac22b0d757e7f080c9da7bd07af5766ceca55ec3fb6a090e1748e6b1b3",
      "transactionType": "CALL",
      "contractName": null,
      "contractAddress": "0x2e180501d3d68241dd0318c68fd9be0af1d519a1",
      "function": "placeBet(uint256,uint256,uint256,address,uint8)",
      "arguments": [
        "9",
        "0",
        "5000000",
        "0x67bFd0B42F5f39710B4E90301289F81Eab6315dA",
        "0"
      ],
      "transaction": {
        "from": "0x67bfd0b42f5f39710b4e90301289f81eab6315da",
        "to": "0x2e180501d3d68241dd0318c68fd9be0af1d519a1",
        "gas": "0x89204",
        "value": "0x0",
        "input": "0x011c4dd90000000000000000000000000000000000000000000000000000000000000009000000000000000000000000000000000000000000000000000000000000000000000000000000000000000000000000000000000000000000000000004c4b4000000000000000000000000067bfd0b42f5f39710b4e90301289f81eab6315da0000000000000000000000000000000000000000000000000000000000000000",
        "nonce": "0xb5",
        "chainId": "0x14a34"
      },
      "additionalContracts": [],
      "isFixedGasLimit": false
    },
    {
      "hash": "0x4aed8f851c2a6c63f0e21a118562e25b4a3ebf8608bacb7647d197effb638325",
      "transactionType": "CALL",
      "contractName": null,
      "contractAddress": "0xa373482b473e33b96412a6c0ca8b847e6bbb4d0d",
      "function": "approve(address,uint256)",
      "arguments": [
        "0x2E180501D3D68241dd0318c68fD9BE0AF1D519a1",
        "11000000003"
      ],
      "transaction": {
        "from": "0x12be474d127757d0a6a36631294f8ffbcdef44f8",
        "to": "0xa373482b473e33b96412a6c0ca8b847e6bbb4d0d",
        "gas": "0x9bbc",
        "value": "0x0",
        "input": "0x095ea7b30000000000000000000000002e180501d3d68241dd0318c68fd9be0af1d519a1000000000000000000000000000000000000000000000000000000028fa6ae03",
        "nonce": "0x93",
        "chainId": "0x14a34"
      },
      "additionalContracts": [],
      "isFixedGasLimit": false
    },
    {
      "hash": "0xea73531c6baa8366ba2762a82d375e2ae2d34743a4430e76baef50ad25dd05aa",
      "transactionType": "CALL",
      "contractName": null,
      "contractAddress": "0x036cbd53842c5426634e7929541ec2318f3dcf7e",
      "function": "approve(address,uint256)",
      "arguments": [
        "0x2E180501D3D68241dd0318c68fD9BE0AF1D519a1",
        "490000000"
      ],
      "transaction": {
        "from": "0x12be474d127757d0a6a36631294f8ffbcdef44f8",
        "to": "0x036cbd53842c5426634e7929541ec2318f3dcf7e",
        "gas": "0xbfcd",
        "value": "0x0",
        "input": "0x095ea7b30000000000000000000000002e180501d3d68241dd0318c68fd9be0af1d519a1000000000000000000000000000000000000000000000000000000001d34ce80",
        "nonce": "0x94",
        "chainId": "0x14a34"
      },
      "additionalContracts": [],
      "isFixedGasLimit": false
    },
    {
      "hash": "0x87d255dc37708dca819aaa6843472b5938db01af7217c13af11c927753321135",
      "transactionType": "CALL",
      "contractName": null,
      "contractAddress": "0x2e180501d3d68241dd0318c68fd9be0af1d519a1",
      "function": "placeBet(uint256,uint256,uint256,address,uint8)",
      "arguments": [
        "7",
        "0",
        "3300000000",
        "0x12BE474D127757d0a6a36631294F8FfBCdeF44F8",
        "1"
      ],
      "transaction": {
        "from": "0x12be474d127757d0a6a36631294f8ffbcdef44f8",
        "to": "0x2e180501d3d68241dd0318c68fd9be0af1d519a1",
        "gas": "0x927cb",
        "value": "0x0",
        "input": "0x011c4dd90000000000000000000000000000000000000000000000000000000000000007000000000000000000000000000000000000000000000000000000000000000000000000000000000000000000000000000000000000000000000000c4b2010000000000000000000000000012be474d127757d0a6a36631294f8ffbcdef44f80000000000000000000000000000000000000000000000000000000000000001",
        "nonce": "0x95",
        "chainId": "0x14a34"
      },
      "additionalContracts": [],
      "isFixedGasLimit": false
    },
    {
      "hash": "0x1ef177d34e89095bbd20cba1bd6bc26b70d0059d97ea18afdfab544ae0a12c1c",
      "transactionType": "CALL",
      "contractName": null,
      "contractAddress": "0x2e180501d3d68241dd0318c68fd9be0af1d519a1",
      "function": "placeBet(uint256,uint256,uint256,address,uint8)",
      "arguments": [
        "8",
        "1",
        "3300000000",
        "0x12BE474D127757d0a6a36631294F8FfBCdeF44F8",
        "1"
      ],
      "transaction": {
        "from": "0x12be474d127757d0a6a36631294f8ffbcdef44f8",
        "to": "0x2e180501d3d68241dd0318c68fd9be0af1d519a1",
        "gas": "0xa951b",
        "value": "0x0",
        "input": "0x011c4dd90000000000000000000000000000000000000000000000000000000000000008000000000000000000000000000000000000000000000000000000000000000100000000000000000000000000000000000000000000000000000000c4b2010000000000000000000000000012be474d127757d0a6a36631294f8ffbcdef44f80000000000000000000000000000000000000000000000000000000000000001",
        "nonce": "0x96",
        "chainId": "0x14a34"
      },
      "additionalContracts": [],
      "isFixedGasLimit": false
    },
    {
      "hash": "0x8d74888b89e3b200368f0744bbce8a64077964030d3c7bc9d5902e0fe498c14e",
      "transactionType": "CALL",
      "contractName": null,
      "contractAddress": "0x2e180501d3d68241dd0318c68fd9be0af1d519a1",
      "function": "placeBet(uint256,uint256,uint256,address,uint8)",
      "arguments": [
        "9",
        "1",
        "3300000000",
        "0x12BE474D127757d0a6a36631294F8FfBCdeF44F8",
        "1"
      ],
      "transaction": {
        "from": "0x12be474d127757d0a6a36631294f8ffbcdef44f8",
        "to": "0x2e180501d3d68241dd0318c68fd9be0af1d519a1",
        "gas": "0xa951b",
        "value": "0x0",
        "input": "0x011c4dd90000000000000000000000000000000000000000000000000000000000000009000000000000000000000000000000000000000000000000000000000000000100000000000000000000000000000000000000000000000000000000c4b2010000000000000000000000000012be474d127757d0a6a36631294f8ffbcdef44f80000000000000000000000000000000000000000000000000000000000000001",
        "nonce": "0x97",
        "chainId": "0x14a34"
      },
      "additionalContracts": [],
      "isFixedGasLimit": false
    },
    {
      "hash": "0x36de28bb6ea06dc66af63ca4c6594e0970cdbe165e859380e7ae0c37eec2aca1",
      "transactionType": "CALL",
      "contractName": null,
      "contractAddress": "0x2e180501d3d68241dd0318c68fd9be0af1d519a1",
      "function": "placeBet(uint256,uint256,uint256,address,uint8)",
      "arguments": [
        "7",
        "0",
        "5000000",
        "0x12BE474D127757d0a6a36631294F8FfBCdeF44F8",
        "0"
      ],
      "transaction": {
        "from": "0x12be474d127757d0a6a36631294f8ffbcdef44f8",
        "to": "0x2e180501d3d68241dd0318c68fd9be0af1d519a1",
        "gas": "0x89204",
        "value": "0x0",
        "input": "0x011c4dd90000000000000000000000000000000000000000000000000000000000000007000000000000000000000000000000000000000000000000000000000000000000000000000000000000000000000000000000000000000000000000004c4b4000000000000000000000000012be474d127757d0a6a36631294f8ffbcdef44f80000000000000000000000000000000000000000000000000000000000000000",
        "nonce": "0x98",
        "chainId": "0x14a34"
      },
      "additionalContracts": [],
      "isFixedGasLimit": false
    },
    {
      "hash": "0x1f8748d35451baa74d8e97fabccb256395bab7a434013e24d807e9ed76bce450",
      "transactionType": "CALL",
      "contractName": null,
      "contractAddress": "0x2e180501d3d68241dd0318c68fd9be0af1d519a1",
      "function": "placeBet(uint256,uint256,uint256,address,uint8)",
      "arguments": [
        "8",
        "0",
        "1000000",
        "0x12BE474D127757d0a6a36631294F8FfBCdeF44F8",
        "0"
      ],
      "transaction": {
        "from": "0x12be474d127757d0a6a36631294f8ffbcdef44f8",
        "to": "0x2e180501d3d68241dd0318c68fd9be0af1d519a1",
        "gas": "0x974c5",
        "value": "0x0",
        "input": "0x011c4dd90000000000000000000000000000000000000000000000000000000000000008000000000000000000000000000000000000000000000000000000000000000000000000000000000000000000000000000000000000000000000000000f424000000000000000000000000012be474d127757d0a6a36631294f8ffbcdef44f80000000000000000000000000000000000000000000000000000000000000000",
        "nonce": "0x99",
        "chainId": "0x14a34"
      },
      "additionalContracts": [],
      "isFixedGasLimit": false
    },
    {
      "hash": "0x38754b6dfb141c5d7b798cf2a6f19edd8fd385a4c52660bd073c05fe4adebc5c",
      "transactionType": "CALL",
      "contractName": null,
      "contractAddress": "0x2e180501d3d68241dd0318c68fd9be0af1d519a1",
      "function": "placeBet(uint256,uint256,uint256,address,uint8)",
      "arguments": [
        "9",
        "0",
        "1000000",
        "0x12BE474D127757d0a6a36631294F8FfBCdeF44F8",
        "0"
      ],
      "transaction": {
        "from": "0x12be474d127757d0a6a36631294f8ffbcdef44f8",
        "to": "0x2e180501d3d68241dd0318c68fd9be0af1d519a1",
        "gas": "0x89204",
        "value": "0x0",
        "input": "0x011c4dd90000000000000000000000000000000000000000000000000000000000000009000000000000000000000000000000000000000000000000000000000000000000000000000000000000000000000000000000000000000000000000000f424000000000000000000000000012be474d127757d0a6a36631294f8ffbcdef44f80000000000000000000000000000000000000000000000000000000000000000",
        "nonce": "0x9a",
        "chainId": "0x14a34"
      },
      "additionalContracts": [],
      "isFixedGasLimit": false
    },
    {
      "hash": "0x671824ee0f12b9449e23fb2ab7110a75a4f4aae6e040582652179bc32a6b8ece",
      "transactionType": "CALL",
      "contractName": null,
      "contractAddress": "0x2e180501d3d68241dd0318c68fd9be0af1d519a1",
      "function": "gradeBet(uint256,uint256)",
      "arguments": [
        "7",
        "0"
      ],
      "transaction": {
        "from": "0x7956c2c1b85f5ac14c2c537f669b65991428e268",
        "to": "0x2e180501d3d68241dd0318c68fd9be0af1d519a1",
        "gas": "0x4d34e",
        "value": "0x0",
        "input": "0xff0beb6200000000000000000000000000000000000000000000000000000000000000070000000000000000000000000000000000000000000000000000000000000000",
        "nonce": "0xb5",
        "chainId": "0x14a34"
      },
      "additionalContracts": [],
      "isFixedGasLimit": false
    },
    {
      "hash": "0x6c21ecd4931448f1c5dfedd457c99a8a95dcc9ad9d2f25748098d920bef40029",
      "transactionType": "CALL",
      "contractName": null,
      "contractAddress": "0x2e180501d3d68241dd0318c68fd9be0af1d519a1",
      "function": "gradeBet(uint256,uint256)",
      "arguments": [
        "8",
        "0"
      ],
      "transaction": {
        "from": "0x7956c2c1b85f5ac14c2c537f669b65991428e268",
        "to": "0x2e180501d3d68241dd0318c68fd9be0af1d519a1",
        "gas": "0x47ba2",
        "value": "0x0",
        "input": "0xff0beb6200000000000000000000000000000000000000000000000000000000000000080000000000000000000000000000000000000000000000000000000000000000",
        "nonce": "0xb6",
        "chainId": "0x14a34"
      },
      "additionalContracts": [],
      "isFixedGasLimit": false
    },
    {
      "hash": "0xe4cae147daa5cff9d9986710f40eb2e829fdea3972dba10c180f2ff23c90ac64",
      "transactionType": "CALL",
      "contractName": null,
      "contractAddress": "0x2e180501d3d68241dd0318c68fd9be0af1d519a1",
      "function": "gradeBet(uint256,uint256)",
      "arguments": [
        "9",
        "0"
      ],
      "transaction": {
        "from": "0x7956c2c1b85f5ac14c2c537f669b65991428e268",
        "to": "0x2e180501d3d68241dd0318c68fd9be0af1d519a1",
        "gas": "0x4e4ae",
        "value": "0x0",
        "input": "0xff0beb6200000000000000000000000000000000000000000000000000000000000000090000000000000000000000000000000000000000000000000000000000000000",
        "nonce": "0xb7",
        "chainId": "0x14a34"
      },
      "additionalContracts": [],
      "isFixedGasLimit": false
    },
    {
      "hash": "0x7b293b46ee1101ec6def914f920bf32a96ffa44ecd25969e294f5fa736d439ee",
      "transactionType": "CALL",
      "contractName": null,
      "contractAddress": "0x2e180501d3d68241dd0318c68fd9be0af1d519a1",
      "function": "claimPayouts(uint256[])",
      "arguments": [
        "[19, 20, 21, 22, 23, 24]"
      ],
      "transaction": {
        "from": "0x4e5dc9df946500b07e9c66e4dd29bf9cd062002b",
        "to": "0x2e180501d3d68241dd0318c68fd9be0af1d519a1",
        "gas": "0x13844",
        "value": "0x0",
        "input": "0x3d695c5200000000000000000000000000000000000000000000000000000000000000200000000000000000000000000000000000000000000000000000000000000006000000000000000000000000000000000000000000000000000000000000001300000000000000000000000000000000000000000000000000000000000000140000000000000000000000000000000000000000000000000000000000000015000000000000000000000000000000000000000000000000000000000000001600000000000000000000000000000000000000000000000000000000000000170000000000000000000000000000000000000000000000000000000000000018",
        "nonce": "0x12f",
        "chainId": "0x14a34"
      },
      "additionalContracts": [],
      "isFixedGasLimit": false
    },
    {
      "hash": "0xaf5444f687adf5e1c5626e70ae28c9a2934173f6fbac55d677ff485af4b0571a",
      "transactionType": "CALL",
      "contractName": null,
      "contractAddress": "0x2e180501d3d68241dd0318c68fd9be0af1d519a1",
      "function": "withdraw(uint8,uint256)",
      "arguments": [
        "0",
        "10662251"
      ],
      "transaction": {
        "from": "0x4e5dc9df946500b07e9c66e4dd29bf9cd062002b",
        "to": "0x2e180501d3d68241dd0318c68fd9be0af1d519a1",
        "gas": "0x125cc",
        "value": "0x0",
        "input": "0x3f48991400000000000000000000000000000000000000000000000000000000000000000000000000000000000000000000000000000000000000000000000000a2b16b",
        "nonce": "0x130",
        "chainId": "0x14a34"
      },
      "additionalContracts": [],
      "isFixedGasLimit": false
    },
    {
      "hash": "0xfbf7625880b75a2e006a504d6c4a6d985999e91d6791fdb118a2895555016d11",
      "transactionType": "CALL",
      "contractName": null,
      "contractAddress": "0x2e180501d3d68241dd0318c68fd9be0af1d519a1",
      "function": "withdraw(uint8,uint256)",
      "arguments": [
        "1",
        "20570399998"
      ],
      "transaction": {
        "from": "0x4e5dc9df946500b07e9c66e4dd29bf9cd062002b",
        "to": "0x2e180501d3d68241dd0318c68fd9be0af1d519a1",
        "gas": "0xf536",
        "value": "0x0",
        "input": "0x3f489914000000000000000000000000000000000000000000000000000000000000000100000000000000000000000000000000000000000000000000000004ca1764fe",
        "nonce": "0x131",
        "chainId": "0x14a34"
      },
      "additionalContracts": [],
      "isFixedGasLimit": false
    },
    {
      "hash": "0x2b6f976608929c92cb621cc94086e4ca570128747ba76477242c367b00866e66",
      "transactionType": "CALL",
      "contractName": null,
      "contractAddress": "0x2e180501d3d68241dd0318c68fd9be0af1d519a1",
      "function": "claimPayouts(uint256[])",
      "arguments": [
        "[25, 26, 27, 28, 29, 30]"
      ],
      "transaction": {
        "from": "0x67bfd0b42f5f39710b4e90301289f81eab6315da",
        "to": "0x2e180501d3d68241dd0318c68fd9be0af1d519a1",
        "gas": "0x13844",
        "value": "0x0",
        "input": "0x3d695c52000000000000000000000000000000000000000000000000000000000000002000000000000000000000000000000000000000000000000000000000000000060000000000000000000000000000000000000000000000000000000000000019000000000000000000000000000000000000000000000000000000000000001a000000000000000000000000000000000000000000000000000000000000001b000000000000000000000000000000000000000000000000000000000000001c000000000000000000000000000000000000000000000000000000000000001d000000000000000000000000000000000000000000000000000000000000001e",
        "nonce": "0xb6",
        "chainId": "0x14a34"
      },
      "additionalContracts": [],
      "isFixedGasLimit": false
    },
    {
      "hash": "0x0cf0130abb6864187057e6fd7e1fb057bcc7652de815f3ffac6e0891acfd7b22",
      "transactionType": "CALL",
      "contractName": null,
      "contractAddress": "0x2e180501d3d68241dd0318c68fd9be0af1d519a1",
      "function": "withdraw(uint8,uint256)",
      "arguments": [
        "0",
        "5000000"
      ],
      "transaction": {
        "from": "0x67bfd0b42f5f39710b4e90301289f81eab6315da",
        "to": "0x2e180501d3d68241dd0318c68fd9be0af1d519a1",
        "gas": "0x125cc",
        "value": "0x0",
        "input": "0x3f489914000000000000000000000000000000000000000000000000000000000000000000000000000000000000000000000000000000000000000000000000004c4b40",
        "nonce": "0xb7",
        "chainId": "0x14a34"
      },
      "additionalContracts": [],
      "isFixedGasLimit": false
    },
    {
      "hash": "0x98a01933fe39e020a37193d48e957d3df3e9e70d86a020130af0d6597f75fc89",
      "transactionType": "CALL",
      "contractName": null,
      "contractAddress": "0x2e180501d3d68241dd0318c68fd9be0af1d519a1",
      "function": "withdraw(uint8,uint256)",
      "arguments": [
        "1",
        "16110899999"
      ],
      "transaction": {
        "from": "0x67bfd0b42f5f39710b4e90301289f81eab6315da",
        "to": "0x2e180501d3d68241dd0318c68fd9be0af1d519a1",
        "gas": "0xf536",
        "value": "0x0",
        "input": "0x3f489914000000000000000000000000000000000000000000000000000000000000000100000000000000000000000000000000000000000000000000000003c048d31f",
        "nonce": "0xb8",
        "chainId": "0x14a34"
      },
      "additionalContracts": [],
      "isFixedGasLimit": false
    },
    {
      "hash": "0x206c7a6b9911525651b527ea9fd8c44e0adf0d2f4e07eaf39692adf5269f3025",
      "transactionType": "CALL",
      "contractName": null,
      "contractAddress": "0x2e180501d3d68241dd0318c68fd9be0af1d519a1",
      "function": "claimPayouts(uint256[])",
      "arguments": [
        "[31, 32, 33, 34, 35, 36]"
      ],
      "transaction": {
        "from": "0x12be474d127757d0a6a36631294f8ffbcdef44f8",
        "to": "0x2e180501d3d68241dd0318c68fd9be0af1d519a1",
        "gas": "0x13844",
        "value": "0x0",
        "input": "0x3d695c5200000000000000000000000000000000000000000000000000000000000000200000000000000000000000000000000000000000000000000000000000000006000000000000000000000000000000000000000000000000000000000000001f00000000000000000000000000000000000000000000000000000000000000200000000000000000000000000000000000000000000000000000000000000021000000000000000000000000000000000000000000000000000000000000002200000000000000000000000000000000000000000000000000000000000000230000000000000000000000000000000000000000000000000000000000000024",
        "nonce": "0x9b",
        "chainId": "0x14a34"
      },
      "additionalContracts": [],
      "isFixedGasLimit": false
    },
    {
      "hash": "0x283babec1b2eb94acd12c481065b0548b051f5aea2fe4e1c80ba30a7a6ce554c",
      "transactionType": "CALL",
      "contractName": null,
      "contractAddress": "0x2e180501d3d68241dd0318c68fd9be0af1d519a1",
      "function": "withdraw(uint8,uint256)",
      "arguments": [
        "0",
        "23049751"
      ],
      "transaction": {
        "from": "0x12be474d127757d0a6a36631294f8ffbcdef44f8",
        "to": "0x2e180501d3d68241dd0318c68fd9be0af1d519a1",
        "gas": "0x13726",
        "value": "0x0",
        "input": "0x3f489914000000000000000000000000000000000000000000000000000000000000000000000000000000000000000000000000000000000000000000000000015fb617",
        "nonce": "0x9c",
        "chainId": "0x14a34"
      },
      "additionalContracts": [],
      "isFixedGasLimit": false
    },
    {
      "hash": "0x6f916c7e4ea862b45e9e6701fa593847dbcbde2c67697babd19a909b50db52ae",
      "transactionType": "CALL",
      "contractName": null,
      "contractAddress": "0x2e180501d3d68241dd0318c68fd9be0af1d519a1",
      "function": "withdraw(uint8,uint256)",
      "arguments": [
        "1",
        "10759499998"
      ],
      "transaction": {
        "from": "0x12be474d127757d0a6a36631294f8ffbcdef44f8",
        "to": "0x2e180501d3d68241dd0318c68fd9be0af1d519a1",
        "gas": "0xf536",
        "value": "0x0",
        "input": "0x3f4899140000000000000000000000000000000000000000000000000000000000000001000000000000000000000000000000000000000000000000000000028150f0de",
        "nonce": "0x9d",
        "chainId": "0x14a34"
      },
      "additionalContracts": [],
      "isFixedGasLimit": false
    }
  ],
  "receipts": [
    {
      "status": "0x1",
      "cumulativeGasUsed": "0xcbcb15",
      "logs": [
        {
          "address": "0xa373482b473e33b96412a6c0ca8b847e6bbb4d0d",
          "topics": [
            "0xddf252ad1be2c89b69c2b068fc378daa952ba7f163c4a11628f55a4df523b3ef",
            "0x0000000000000000000000000000000000000000000000000000000000000000",
            "0x0000000000000000000000004e5dc9df946500b07e9c66e4dd29bf9cd062002b"
          ],
          "data": "0x00000000000000000000000000000000000000000000000000000002540be400",
          "blockHash": "0xcb168515c83313d931a058f080068981ee0ef0e4d45345a47ea23d5a926dc564",
          "blockNumber": "0x1653705",
          "transactionHash": "0x31019bd80f9bb30b452c05f446a47e8400d98d91590280dd56feb96776b9ba4c",
          "transactionIndex": "0x30",
          "logIndex": "0x168",
          "removed": false
        }
      ],
      "logsBloom": "0x00000000000000000000000000000000000000000000000000000000000000000000000000000000000000000000000000000000000000000000000000000000000000000000000000000008000000000000000000200000000000000000000000000000020000000000000000000800000000000000000000000010000000000000000000001000004000000000000000000000000000000000000000000000000000000000000000000000000000000000000000000000000000000000000000010002000000000000000000000000000000000000800000100000000020000000000000000000000000000000000000000000000000000000000000000000",
      "type": "0x2",
      "transactionHash": "0x31019bd80f9bb30b452c05f446a47e8400d98d91590280dd56feb96776b9ba4c",
      "transactionIndex": "0x30",
      "blockHash": "0xcb168515c83313d931a058f080068981ee0ef0e4d45345a47ea23d5a926dc564",
      "blockNumber": "0x1653705",
      "gasUsed": "0x8cc8",
      "effectiveGasPrice": "0xf5e14",
      "from": "0x7956c2c1b85f5ac14c2c537f669b65991428e268",
      "to": "0xa373482b473e33b96412a6c0ca8b847e6bbb4d0d",
      "contractAddress": null,
      "l1BaseFeeScalar": "0x44d",
      "l1BlobBaseFee": "0x1",
      "l1BlobBaseFeeScalar": "0xa118b",
      "l1Fee": "0x35c28b8",
      "l1GasPrice": "0x1e84843",
      "l1GasUsed": "0x640"
    },
    {
      "status": "0x1",
      "cumulativeGasUsed": "0xdd8e5",
      "logs": [
        {
          "address": "0xa373482b473e33b96412a6c0ca8b847e6bbb4d0d",
          "topics": [
            "0xddf252ad1be2c89b69c2b068fc378daa952ba7f163c4a11628f55a4df523b3ef",
            "0x0000000000000000000000000000000000000000000000000000000000000000",
            "0x00000000000000000000000067bfd0b42f5f39710b4e90301289f81eab6315da"
          ],
          "data": "0x00000000000000000000000000000000000000000000000000000002540be400",
          "blockHash": "0x7ae30eaa7fbca1ca60c706a9347faea641354f989184aa2b360e17ed75b1c50c",
          "blockNumber": "0x1653707",
          "transactionHash": "0x0c26085ef55e3d429e1cc482704a0ba401c115064f38793097dd55498a82edd7",
          "transactionIndex": "0x5",
          "logIndex": "0x15",
          "removed": false
        }
      ],
      "logsBloom": "0x00000000000000000080000000000000000000000000000000000000000000000000000000000000000000000000000000000000000000000000000000000000000000000000000000000008000000000000000000200000000000000000000000000000020000000000000000000800000000000000000000000010000000000000000000001000000000000000000000000000000000000000000000000000000000000000280000000000000000000000000000000000000000000000000000000002000000000000000000000000000000000000000000100000000020000000000000000000000000000000000000000000000000000000000000000000",
      "type": "0x2",
      "transactionHash": "0x0c26085ef55e3d429e1cc482704a0ba401c115064f38793097dd55498a82edd7",
      "transactionIndex": "0x5",
      "blockHash": "0x7ae30eaa7fbca1ca60c706a9347faea641354f989184aa2b360e17ed75b1c50c",
      "blockNumber": "0x1653707",
      "gasUsed": "0x8ce0",
      "effectiveGasPrice": "0xf5e07",
      "from": "0x7956c2c1b85f5ac14c2c537f669b65991428e268",
      "to": "0xa373482b473e33b96412a6c0ca8b847e6bbb4d0d",
      "contractAddress": null,
      "l1BaseFeeScalar": "0x44d",
      "l1BlobBaseFee": "0x1",
      "l1BlobBaseFeeScalar": "0xa118b",
      "l1Fee": "0x35c28b8",
      "l1GasPrice": "0x1e84843",
      "l1GasUsed": "0x640"
    },
    {
      "status": "0x1",
      "cumulativeGasUsed": "0x233508",
      "logs": [
        {
          "address": "0xa373482b473e33b96412a6c0ca8b847e6bbb4d0d",
          "topics": [
            "0xddf252ad1be2c89b69c2b068fc378daa952ba7f163c4a11628f55a4df523b3ef",
            "0x0000000000000000000000000000000000000000000000000000000000000000",
            "0x00000000000000000000000012be474d127757d0a6a36631294f8ffbcdef44f8"
          ],
          "data": "0x00000000000000000000000000000000000000000000000000000002540be400",
          "blockHash": "0x2ba45809f1500427257362b018abb982cea9722068c3f2d918e58f8789d0ab93",
          "blockNumber": "0x1653709",
          "transactionHash": "0x6ff6a3ba99b8bc27b9da88a1a0a3058c51f2ba60998598065078f3db4eafcfe9",
          "transactionIndex": "0x8",
          "logIndex": "0x41",
          "removed": false
        }
      ],
      "logsBloom": "0x00000000000000000000000000000000000000000000000000000000000000000000000000000000000000000000000000000000000000000000000000000000000000000000000000000008000000000000000000200000000000000000000000000000020000000000000000000800000000000000000000800010000000000000000000001000000000000000000000000000000000000000000000000000008000000000000000000000000000000000000000000000000000000000000000000002000000000000000100000000000000000000000000100000000020000000000000000000000000000000000000000000000000000000000000000000",
      "type": "0x2",
      "transactionHash": "0x6ff6a3ba99b8bc27b9da88a1a0a3058c51f2ba60998598065078f3db4eafcfe9",
      "transactionIndex": "0x8",
      "blockHash": "0x2ba45809f1500427257362b018abb982cea9722068c3f2d918e58f8789d0ab93",
      "blockNumber": "0x1653709",
      "gasUsed": "0x8ce0",
      "effectiveGasPrice": "0xf5e0b",
      "from": "0x7956c2c1b85f5ac14c2c537f669b65991428e268",
      "to": "0xa373482b473e33b96412a6c0ca8b847e6bbb4d0d",
      "contractAddress": null,
      "l1BaseFeeScalar": "0x44d",
      "l1BlobBaseFee": "0x1",
      "l1BlobBaseFeeScalar": "0xa118b",
      "l1Fee": "0x35c28b8",
      "l1GasPrice": "0x1e84843",
      "l1GasUsed": "0x640"
    },
    {
      "status": "0x1",
      "cumulativeGasUsed": "0x9c42e",
      "logs": [
        {
          "address": "0x2e180501d3d68241dd0318c68fd9be0af1d519a1",
          "topics": [
            "0xa6911b1100a84108be7e4458ca4926ac7aac190db354ff63847b820b02beb88b"
          ],
          "data": "0x0000000000000000000000000000000000000000000000000000000000000007000000000000000000000000000000000000000000000000000000000000004000000000000000000000000000000000000000000000000000000000000000c000000000000000000000000000000000000000000000000000000000000001200000000000000000000000000000000000000000000000000000000067dddaca00000000000000000000000000000000000000000000000000000000000001e0000000000000000000000000000000000000000000000000000000000000024000000000000000000000000000000000000000000000000000000000000002a0000000000000000000000000000000000000000000000000000000000000003c57696c6c204920504152444f4e204d5953454c463f20546865205241444943414c204c45465420697320544552524946494544206f6620746869732100000000000000000000000000000000000000000000000000000000000000000000004000000000000000000000000000000000000000000000000000000000000000800000000000000000000000000000000000000000000000000000000000000003594553000000000000000000000000000000000000000000000000000000000000000000000000000000000000000000000000000000000000000000000000024e4f000000000000000000000000000000000000000000000000000000000000000000000000000000000000000000000000000000000000000000000000003f5468697320706f6f6c2077696c6c20636c6f7365206966205472756d7020706f73747320746861742068652077696c6c20706172646f6e2068696d73656c6600000000000000000000000000000000000000000000000000000000000000003e477261646520594553206966205472756d7020706f7374732061626f757420706172646f6e696e672068696d73656c662c204e4f206f7468657277697365000000000000000000000000000000000000000000000000000000000000000000123131343139373039323230353731393535370000000000000000000000000000",
          "blockHash": "0x1ef55c2ae35c81c2d006b26836aa1556fa410ba77ab5165fab2faed9b2cced7a",
          "blockNumber": "0x165370b",
          "transactionHash": "0x894c56fa6845ad11e947a6de267566a606e33bde88b5ad9e64497725645aee2f",
          "transactionIndex": "0x4",
          "logIndex": "0x3",
          "removed": false
        }
      ],
      "logsBloom": "0x00000000000000000000000000000000000010000000000000000000000000000000000000000000000001000000000000000000000000000000000000000000000000000000000000000000000000000000000000000000000000000000000000000000000000000000000000000000000000000000000000000000000000000000000000000000000000000000004000000000000000000000000000000000000000000000000000000000000000000000000000000000000000000000000000000000000000000000000000000000000000000000000000000000000000000000028002000000000000000000000000000000000000000000000000000000",
      "type": "0x2",
      "transactionHash": "0x894c56fa6845ad11e947a6de267566a606e33bde88b5ad9e64497725645aee2f",
      "transactionIndex": "0x4",
      "blockHash": "0x1ef55c2ae35c81c2d006b26836aa1556fa410ba77ab5165fab2faed9b2cced7a",
      "blockNumber": "0x165370b",
      "gasUsed": "0x65b89",
      "effectiveGasPrice": "0xf5dfe",
      "from": "0x7956c2c1b85f5ac14c2c537f669b65991428e268",
      "to": "0x2e180501d3d68241dd0318c68fd9be0af1d519a1",
      "contractAddress": null,
      "l1BaseFeeScalar": "0x44d",
      "l1BlobBaseFee": "0x1",
      "l1BlobBaseFeeScalar": "0xa118b",
      "l1Fee": "0x9d06489",
      "l1GasPrice": "0x1d2feea",
      "l1GasUsed": "0x1316"
    },
    {
      "status": "0x1",
      "cumulativeGasUsed": "0x9a2a54",
      "logs": [
        {
          "address": "0x2e180501d3d68241dd0318c68fd9be0af1d519a1",
          "topics": [
            "0xa6911b1100a84108be7e4458ca4926ac7aac190db354ff63847b820b02beb88b"
          ],
          "data": "0x0000000000000000000000000000000000000000000000000000000000000008000000000000000000000000000000000000000000000000000000000000004000000000000000000000000000000000000000000000000000000000000000c000000000000000000000000000000000000000000000000000000000000001400000000000000000000000000000000000000000000000000000000067dddaca000000000000000000000000000000000000000000000000000000000000020000000000000000000000000000000000000000000000000000000000000002800000000000000000000000000000000000000000000000000000000000000300000000000000000000000000000000000000000000000000000000000000005057696c6c204920464952452054484520464249204449524543544f52206f6e20646179206f6e653f205468652046424920686173206265656e20574541504f4e495a454420616761696e73742075732100000000000000000000000000000000000000000000000000000000000000000000000000000000000000000000004000000000000000000000000000000000000000000000000000000000000000800000000000000000000000000000000000000000000000000000000000000003594553000000000000000000000000000000000000000000000000000000000000000000000000000000000000000000000000000000000000000000000000024e4f00000000000000000000000000000000000000000000000000000000000000000000000000000000000000000000000000000000000000000000000000465468697320706f6f6c2077696c6c20636c6f7365206966205472756d70206d616b657320612073746174656d656e742061626f75742074686520464249204469726563746f7200000000000000000000000000000000000000000000000000000000000000000000000000000000000000000000000000000000000000000043477261646520594553206966205472756d7020736179732068652077696c6c20666972652074686520464249204469726563746f722c204e4f206f7468657277697365000000000000000000000000000000000000000000000000000000000000000000000000000000000000000000000000000000000000000000000000123131343230303137353038323830363838320000000000000000000000000000",
          "blockHash": "0x00138faa9255a9cfb2aee34487fdbf1aba09a51473e3807d0fbacb2e9eb30cd7",
          "blockNumber": "0x165370c",
          "transactionHash": "0xed60554119e692e455669cb4e605bec382bf9091e688a8af1934d8e78164f50f",
          "transactionIndex": "0x27",
          "logIndex": "0x109",
          "removed": false
        }
      ],
      "logsBloom": "0x00000000000000000000000000000000000010000000000000000000000000000000000000000000000001000000000000000000000000000000000000000000000000000000000000000000000000000000000000000000000000000000000000000000000000000000000000000000000000000000000000000000000000000000000000000000000000000000004000000000000000000000000000000000000000000000000000000000000000000000000000000000000000000000000000000000000000000000000000000000000000000000000000000000000000000000028002000000000000000000000000000000000000000000000000000000",
      "type": "0x2",
      "transactionHash": "0xed60554119e692e455669cb4e605bec382bf9091e688a8af1934d8e78164f50f",
      "transactionIndex": "0x27",
      "blockHash": "0x00138faa9255a9cfb2aee34487fdbf1aba09a51473e3807d0fbacb2e9eb30cd7",
      "blockNumber": "0x165370c",
      "gasUsed": "0x76593",
      "effectiveGasPrice": "0xf5df8",
      "from": "0x7956c2c1b85f5ac14c2c537f669b65991428e268",
      "to": "0x2e180501d3d68241dd0318c68fd9be0af1d519a1",
      "contractAddress": null,
      "l1BaseFeeScalar": "0x44d",
      "l1BlobBaseFee": "0x1",
      "l1BlobBaseFeeScalar": "0xa118b",
      "l1Fee": "0xa758cd2",
      "l1GasPrice": "0x1d2feea",
      "l1GasUsed": "0x1457"
    },
    {
      "status": "0x1",
      "cumulativeGasUsed": "0xd1f8b2",
      "logs": [
        {
          "address": "0x2e180501d3d68241dd0318c68fd9be0af1d519a1",
          "topics": [
            "0xa6911b1100a84108be7e4458ca4926ac7aac190db354ff63847b820b02beb88b"
          ],
          "data": "0x0000000000000000000000000000000000000000000000000000000000000009000000000000000000000000000000000000000000000000000000000000004000000000000000000000000000000000000000000000000000000000000000c000000000000000000000000000000000000000000000000000000000000001400000000000000000000000000000000000000000000000000000000067dddaca0000000000000000000000000000000000000000000000000000000000000200000000000000000000000000000000000000000000000000000000000000026000000000000000000000000000000000000000000000000000000000000002c0000000000000000000000000000000000000000000000000000000000000005257696c6c20492057494e207468652064656261746520616761696e737420534c45455059204a4f453f2045766572796f6e65206b6e6f7773204920776f6e20746865206c617374206f6e65204249474c59210000000000000000000000000000000000000000000000000000000000000000000000000000000000000000004000000000000000000000000000000000000000000000000000000000000000800000000000000000000000000000000000000000000000000000000000000003594553000000000000000000000000000000000000000000000000000000000000000000000000000000000000000000000000000000000000000000000000024e4f00000000000000000000000000000000000000000000000000000000000000000000000000000000000000000000000000000000000000000000000000325468697320706f6f6c2077696c6c20636c6f73652061667465722074686520707265736964656e7469616c2064656261746500000000000000000000000000000000000000000000000000000000000000000000000000000000000000000030477261646520594553206966205472756d702077696e7320746865206465626174652c204e4f206f74686572776973650000000000000000000000000000000000000000000000000000000000000000000000000000000000000000000000123131343230303331333030393830323633380000000000000000000000000000",
          "blockHash": "0x8c705b44bee4f65dfd6f3c0c02c091dae0e57723334578ede88bc982c2903215",
          "blockNumber": "0x165370d",
          "transactionHash": "0xaac7c6627500e9a81a576bf87fbab663bd58fb906f5a483306203c89c780b443",
          "transactionIndex": "0x2c",
          "logIndex": "0x134",
          "removed": false
        }
      ],
      "logsBloom": "0x00000000000000000000000000000000000010000000000000000000000000000000000000000000000001000000000000000000000000000000000000000000000000000000000000000000000000000000000000000000000000000000000000000000000000000000000000000000000000000000000000000000000000000000000000000000000000000000004000000000000000000000000000000000000000000000000000000000000000000000000000000000000000000000000000000000000000000000000000000000000000000000000000000000000000000000028002000000000000000000000000000000000000000000000000000000",
      "type": "0x2",
      "transactionHash": "0xaac7c6627500e9a81a576bf87fbab663bd58fb906f5a483306203c89c780b443",
      "transactionIndex": "0x2c",
      "blockHash": "0x8c705b44bee4f65dfd6f3c0c02c091dae0e57723334578ede88bc982c2903215",
      "blockNumber": "0x165370d",
      "gasUsed": "0x6b377",
      "effectiveGasPrice": "0xf5def",
      "from": "0x7956c2c1b85f5ac14c2c537f669b65991428e268",
      "to": "0x2e180501d3d68241dd0318c68fd9be0af1d519a1",
      "contractAddress": null,
      "l1BaseFeeScalar": "0x44d",
      "l1BlobBaseFee": "0x1",
      "l1BlobBaseFeeScalar": "0xa118b",
      "l1Fee": "0x9f2cced",
      "l1GasPrice": "0x1d2feea",
      "l1GasUsed": "0x1359"
    },
    {
      "status": "0x1",
      "cumulativeGasUsed": "0xa01d21",
      "logs": [
        {
          "address": "0xa373482b473e33b96412a6c0ca8b847e6bbb4d0d",
          "topics": [
            "0x8c5be1e5ebec7d5bd14f71427d1e84f3dd0314c0f7b2291e5b200ac8c7c3b925",
            "0x0000000000000000000000004e5dc9df946500b07e9c66e4dd29bf9cd062002b",
            "0x0000000000000000000000002e180501d3d68241dd0318c68fd9be0af1d519a1"
          ],
          "data": "0x000000000000000000000000000000000000000000000000000000028fa6ae03",
          "blockHash": "0x0c7ec172c54cf7b61867f35bcdb88806e474ff0f37fc889a850148d72a95fe94",
          "blockNumber": "0x165370e",
          "transactionHash": "0x2f6514954675e2022cb94df0d29e0ab513a56680fbacc1dac26e0db65cff1bdb",
          "transactionIndex": "0x26",
          "logIndex": "0x113",
          "removed": false
        }
      ],
      "logsBloom": "0x00000000000000000000000000000000000000000000000000000000000000000000000000000000000000000000000000000000000000000000000000200000000000000000000000000000000000000000000000200000000000000000000000000000000000000000000000000000000000000000000000000000000000000000000000081000804000000000000000000000000000000000000000000000020000000000000000000000000000000000000000000000000000000000000000010000000000000000000000000000000000010000800000100000000000000010000000000000000000000000000000000000000000000000000000000000",
      "type": "0x2",
      "transactionHash": "0x2f6514954675e2022cb94df0d29e0ab513a56680fbacc1dac26e0db65cff1bdb",
      "transactionIndex": "0x26",
      "blockHash": "0x0c7ec172c54cf7b61867f35bcdb88806e474ff0f37fc889a850148d72a95fe94",
      "blockNumber": "0x165370e",
      "gasUsed": "0x70c0",
      "effectiveGasPrice": "0xf5dee",
      "from": "0x4e5dc9df946500b07e9c66e4dd29bf9cd062002b",
      "to": "0xa373482b473e33b96412a6c0ca8b847e6bbb4d0d",
      "contractAddress": null,
      "l1BaseFeeScalar": "0x44d",
      "l1BlobBaseFee": "0x1",
      "l1BlobBaseFeeScalar": "0xa118b",
      "l1Fee": "0x336a925",
      "l1GasPrice": "0x1d2feea",
      "l1GasUsed": "0x640"
    },
    {
      "status": "0x1",
      "cumulativeGasUsed": "0xac51f2",
      "logs": [
        {
          "address": "0x036cbd53842c5426634e7929541ec2318f3dcf7e",
          "topics": [
            "0x8c5be1e5ebec7d5bd14f71427d1e84f3dd0314c0f7b2291e5b200ac8c7c3b925",
            "0x0000000000000000000000004e5dc9df946500b07e9c66e4dd29bf9cd062002b",
            "0x0000000000000000000000002e180501d3d68241dd0318c68fd9be0af1d519a1"
          ],
          "data": "0x000000000000000000000000000000000000000000000000000000001d629540",
          "blockHash": "0xdca0109ccdafb355b26b1cadf06403a53797addbd4402b4dcfed473b611b0193",
          "blockNumber": "0x165370f",
          "transactionHash": "0x46d39508e43f279cbad3d93adcbad0bf98da029a8abf76dbafd46be0e9f7c858",
          "transactionIndex": "0x33",
          "logIndex": "0x101",
          "removed": false
        }
      ],
      "logsBloom": "0x00000000040000000000000000000000000000000000000000000000000000000000000000000000000000000000000000000000000000000000000000200000000000000000000000000000000000000000000000000000000000000000000800000000000000000000000000000000000000000000000000000000000000000000000000080000804000000000000000000000000000000000000000000000020000000000000000000000000000000000000000000000000000000000000000010000000000000000000000000000000000010000800000000000000000000010000000000000000000000020000000000000000000000000000000000000",
      "type": "0x2",
      "transactionHash": "0x46d39508e43f279cbad3d93adcbad0bf98da029a8abf76dbafd46be0e9f7c858",
      "transactionIndex": "0x33",
      "blockHash": "0xdca0109ccdafb355b26b1cadf06403a53797addbd4402b4dcfed473b611b0193",
      "blockNumber": "0x165370f",
      "gasUsed": "0x8add",
      "effectiveGasPrice": "0xf5de9",
      "from": "0x4e5dc9df946500b07e9c66e4dd29bf9cd062002b",
      "to": "0x036cbd53842c5426634e7929541ec2318f3dcf7e",
      "contractAddress": null,
      "l1BaseFeeScalar": "0x44d",
      "l1BlobBaseFee": "0x1",
      "l1BlobBaseFeeScalar": "0xa118b",
      "l1Fee": "0x336a925",
      "l1GasPrice": "0x1d2feea",
      "l1GasUsed": "0x640"
    },
    {
      "status": "0x1",
      "cumulativeGasUsed": "0x1014317",
      "logs": [
        {
          "address": "0xa373482b473e33b96412a6c0ca8b847e6bbb4d0d",
          "topics": [
            "0xddf252ad1be2c89b69c2b068fc378daa952ba7f163c4a11628f55a4df523b3ef",
            "0x0000000000000000000000004e5dc9df946500b07e9c66e4dd29bf9cd062002b",
            "0x0000000000000000000000002e180501d3d68241dd0318c68fd9be0af1d519a1"
          ],
          "data": "0x00000000000000000000000000000000000000000000000000000000c4b20100",
          "blockHash": "0xd89dba62c339c81677928b9e29b1ddd55c99b3c88ceccfff7abd7d44b8f83f2b",
          "blockNumber": "0x1653710",
          "transactionHash": "0x92842751739eccfcc48e5411d700b8c9516f94c5dc0059f3c9c38d9ab4a37f88",
          "transactionIndex": "0x2d",
          "logIndex": "0x19a",
          "removed": false
        },
        {
          "address": "0x2e180501d3d68241dd0318c68fd9be0af1d519a1",
          "topics": [
            "0xe523847b7270abe685bcbcb11a424b9030e5627e3d5770781dd5bbeb1ddee143",
            "0x0000000000000000000000000000000000000000000000000000000000000013",
            "0x0000000000000000000000000000000000000000000000000000000000000007",
            "0x0000000000000000000000004e5dc9df946500b07e9c66e4dd29bf9cd062002b"
          ],
          "data": "0x000000000000000000000000000000000000000000000000000000000000000000000000000000000000000000000000000000000000000000000000c4b201000000000000000000000000000000000000000000000000000000000000000001",
          "blockHash": "0xd89dba62c339c81677928b9e29b1ddd55c99b3c88ceccfff7abd7d44b8f83f2b",
          "blockNumber": "0x1653710",
          "transactionHash": "0x92842751739eccfcc48e5411d700b8c9516f94c5dc0059f3c9c38d9ab4a37f88",
          "transactionIndex": "0x2d",
          "logIndex": "0x19b",
          "removed": false
        }
      ],
      "logsBloom": "0x20002000000000000000000000800000000010000000000000000000000000000000000040000000000001000000000000001000000000000000000000000000000020000000000000000008000000000000000000200000000000000000000000000000000000000000000000000000000000000000000000000010000000000000000000081000804000000000000000000000000000000400000000000000000000000000000000000000000000000000000000000000000000000000000000010002000000000000000000000000000000010000800000100100000000000000020000000000000000000000000000000000000010000000000000000000",
      "type": "0x2",
      "transactionHash": "0x92842751739eccfcc48e5411d700b8c9516f94c5dc0059f3c9c38d9ab4a37f88",
      "transactionIndex": "0x2d",
      "blockHash": "0xd89dba62c339c81677928b9e29b1ddd55c99b3c88ceccfff7abd7d44b8f83f2b",
      "blockNumber": "0x1653710",
      "gasUsed": "0x7265e",
      "effectiveGasPrice": "0xf5de6",
      "from": "0x4e5dc9df946500b07e9c66e4dd29bf9cd062002b",
      "to": "0x2e180501d3d68241dd0318c68fd9be0af1d519a1",
      "contractAddress": null,
      "l1BaseFeeScalar": "0x44d",
      "l1BlobBaseFee": "0x1",
      "l1BlobBaseFeeScalar": "0xa118b",
      "l1Fee": "0x33a6947",
      "l1GasPrice": "0x1d2feea",
      "l1GasUsed": "0x647"
    },
    {
      "status": "0x1",
      "cumulativeGasUsed": "0x86d15",
      "logs": [
        {
          "address": "0xa373482b473e33b96412a6c0ca8b847e6bbb4d0d",
          "topics": [
            "0xddf252ad1be2c89b69c2b068fc378daa952ba7f163c4a11628f55a4df523b3ef",
            "0x0000000000000000000000004e5dc9df946500b07e9c66e4dd29bf9cd062002b",
            "0x0000000000000000000000002e180501d3d68241dd0318c68fd9be0af1d519a1"
          ],
          "data": "0x00000000000000000000000000000000000000000000000000000000c4b20100",
          "blockHash": "0xec009c42228e62dde616ee0973593ebbee16edb2f098638ea99f7226c9508df6",
          "blockNumber": "0x1653712",
          "transactionHash": "0xefef948e6d14011f739ed47e4d7f7ec9e2b3a6e572f3520e85aa5908891fb9a0",
          "transactionIndex": "0x1",
          "logIndex": "0x0",
          "removed": false
        },
        {
          "address": "0x2e180501d3d68241dd0318c68fd9be0af1d519a1",
          "topics": [
            "0xe523847b7270abe685bcbcb11a424b9030e5627e3d5770781dd5bbeb1ddee143",
            "0x0000000000000000000000000000000000000000000000000000000000000014",
            "0x0000000000000000000000000000000000000000000000000000000000000008",
            "0x0000000000000000000000004e5dc9df946500b07e9c66e4dd29bf9cd062002b"
          ],
          "data": "0x000000000000000000000000000000000000000000000000000000000000000100000000000000000000000000000000000000000000000000000000c4b201000000000000000000000000000000000000000000000000000000000000000001",
          "blockHash": "0xec009c42228e62dde616ee0973593ebbee16edb2f098638ea99f7226c9508df6",
          "blockNumber": "0x1653712",
          "transactionHash": "0xefef948e6d14011f739ed47e4d7f7ec9e2b3a6e572f3520e85aa5908891fb9a0",
          "transactionIndex": "0x1",
          "logIndex": "0x1",
          "removed": false
        }
      ],
      "logsBloom": "0x00002000000000000000000000000000000010000000000000000000000000000000000000000000000001000000000000002000000080000000000000000000000000000000000000000008000000000000000000200000000000000000000000000000000000000000000000000000000000000000000000000010000000000080000000081000804000000000000000000000000400000400000000000000000000000000000020000000000000000000000000000000000000000000000040010002000000000000000000000000000000010000800000100000000000000000020000000000000000000000000000000000000010000000000000000000",
      "type": "0x2",
      "transactionHash": "0xefef948e6d14011f739ed47e4d7f7ec9e2b3a6e572f3520e85aa5908891fb9a0",
      "transactionIndex": "0x1",
      "blockHash": "0xec009c42228e62dde616ee0973593ebbee16edb2f098638ea99f7226c9508df6",
      "blockNumber": "0x1653712",
      "gasUsed": "0x7c1e2",
      "effectiveGasPrice": "0xf5df0",
      "from": "0x4e5dc9df946500b07e9c66e4dd29bf9cd062002b",
      "to": "0x2e180501d3d68241dd0318c68fd9be0af1d519a1",
      "contractAddress": null,
      "l1BaseFeeScalar": "0x44d",
      "l1BlobBaseFee": "0x1",
      "l1BlobBaseFeeScalar": "0xa118b",
      "l1Fee": "0x34dbff1",
      "l1GasPrice": "0x1d24692",
      "l1GasUsed": "0x66f"
    },
    {
      "status": "0x1",
      "cumulativeGasUsed": "0x114d92",
      "logs": [
        {
          "address": "0xa373482b473e33b96412a6c0ca8b847e6bbb4d0d",
          "topics": [
            "0xddf252ad1be2c89b69c2b068fc378daa952ba7f163c4a11628f55a4df523b3ef",
            "0x0000000000000000000000004e5dc9df946500b07e9c66e4dd29bf9cd062002b",
            "0x0000000000000000000000002e180501d3d68241dd0318c68fd9be0af1d519a1"
          ],
          "data": "0x00000000000000000000000000000000000000000000000000000000c4b20100",
          "blockHash": "0xc93630c7f7aba646143ed3f1f3cb28706ef762f12b531297bc7cc172f2586024",
          "blockNumber": "0x1653714",
          "transactionHash": "0xbb879fea1677fb13a522137bf2b527bd6a946b56e49914be9fe3fecd923aa884",
          "transactionIndex": "0x3",
          "logIndex": "0x2",
          "removed": false
        },
        {
          "address": "0x2e180501d3d68241dd0318c68fd9be0af1d519a1",
          "topics": [
            "0xe523847b7270abe685bcbcb11a424b9030e5627e3d5770781dd5bbeb1ddee143",
            "0x0000000000000000000000000000000000000000000000000000000000000015",
            "0x0000000000000000000000000000000000000000000000000000000000000009",
            "0x0000000000000000000000004e5dc9df946500b07e9c66e4dd29bf9cd062002b"
          ],
          "data": "0x000000000000000000000000000000000000000000000000000000000000000000000000000000000000000000000000000000000000000000000000c4b201000000000000000000000000000000000000000000000000000000000000000001",
          "blockHash": "0xc93630c7f7aba646143ed3f1f3cb28706ef762f12b531297bc7cc172f2586024",
          "blockNumber": "0x1653714",
          "transactionHash": "0xbb879fea1677fb13a522137bf2b527bd6a946b56e49914be9fe3fecd923aa884",
          "transactionIndex": "0x3",
          "logIndex": "0x3",
          "removed": false
        }
      ],
      "logsBloom": "0x00002000000000000000000000000000000010000000000000000000000000000000000000000000000001000000000000000000000000000000000000200000001000000000000000000008000000000000000000200000000000000000000000000000000000000000000000000000000000000000000000000010000000000000000000081000804000000000000000001000000000000400000000000000000000000000000000000000010000000000000000000000000000000000000000010002000000000000000000000000000000010000800000100000000000002000020000000000000000000000000000000000000010000000000000800000",
      "type": "0x2",
      "transactionHash": "0xbb879fea1677fb13a522137bf2b527bd6a946b56e49914be9fe3fecd923aa884",
      "transactionIndex": "0x3",
      "blockHash": "0xc93630c7f7aba646143ed3f1f3cb28706ef762f12b531297bc7cc172f2586024",
      "blockNumber": "0x1653714",
      "gasUsed": "0x7265e",
      "effectiveGasPrice": "0xf5e01",
      "from": "0x4e5dc9df946500b07e9c66e4dd29bf9cd062002b",
      "to": "0x2e180501d3d68241dd0318c68fd9be0af1d519a1",
      "contractAddress": null,
      "l1BaseFeeScalar": "0x44d",
      "l1BlobBaseFee": "0x1",
      "l1BlobBaseFeeScalar": "0xa118b",
      "l1Fee": "0x339230e",
      "l1GasPrice": "0x1d24692",
      "l1GasUsed": "0x647"
    },
    {
      "status": "0x1",
      "cumulativeGasUsed": "0x3a13dc",
      "logs": [
        {
          "address": "0x036cbd53842c5426634e7929541ec2318f3dcf7e",
          "topics": [
            "0xddf252ad1be2c89b69c2b068fc378daa952ba7f163c4a11628f55a4df523b3ef",
            "0x0000000000000000000000004e5dc9df946500b07e9c66e4dd29bf9cd062002b",
            "0x0000000000000000000000002e180501d3d68241dd0318c68fd9be0af1d519a1"
          ],
          "data": "0x00000000000000000000000000000000000000000000000000000000002dc6c0",
          "blockHash": "0x12938375577d47d3c94156cfedb9b7ea1af2a87893dd703b50cac0dcf43dff81",
          "blockNumber": "0x1653716",
          "transactionHash": "0x1707d14fd39b0f00f636e408481232a1b80a2c35fa78299b641f595604e24b9c",
          "transactionIndex": "0xc",
          "logIndex": "0x6",
          "removed": false
        },
        {
          "address": "0x2e180501d3d68241dd0318c68fd9be0af1d519a1",
          "topics": [
            "0xe523847b7270abe685bcbcb11a424b9030e5627e3d5770781dd5bbeb1ddee143",
            "0x0000000000000000000000000000000000000000000000000000000000000016",
            "0x0000000000000000000000000000000000000000000000000000000000000007",
            "0x0000000000000000000000004e5dc9df946500b07e9c66e4dd29bf9cd062002b"
          ],
          "data": "0x000000000000000000000000000000000000000000000000000000000000000000000000000000000000000000000000000000000000000000000000002dc6c00000000000000000000000000000000000000000000000000000000000000000",
          "blockHash": "0x12938375577d47d3c94156cfedb9b7ea1af2a87893dd703b50cac0dcf43dff81",
          "blockNumber": "0x1653716",
          "transactionHash": "0x1707d14fd39b0f00f636e408481232a1b80a2c35fa78299b641f595604e24b9c",
          "transactionIndex": "0xc",
          "logIndex": "0x7",
          "removed": false
        }
      ],
      "logsBloom": "0x00002000040000000000000000000000000010000000000000000000000000000000000000000000000001000000000000001000000000000000000000000000000020000000000800000008000000000000000000000000000000000000000800000000000000000000000000000000200000000000000000000010000000000000000000080000804000000000000000000000000000000400000000000000000000000000000000000000000000000000000000000000000000000000000000010002000000000000000000000000000000010000800000000100000000000000020000000000000000000020000000000000000010000008000000000000",
      "type": "0x2",
      "transactionHash": "0x1707d14fd39b0f00f636e408481232a1b80a2c35fa78299b641f595604e24b9c",
      "transactionIndex": "0xc",
      "blockHash": "0x12938375577d47d3c94156cfedb9b7ea1af2a87893dd703b50cac0dcf43dff81",
      "blockNumber": "0x1653716",
      "gasUsed": "0x67723",
      "effectiveGasPrice": "0xf5dee",
      "from": "0x4e5dc9df946500b07e9c66e4dd29bf9cd062002b",
      "to": "0x2e180501d3d68241dd0318c68fd9be0af1d519a1",
      "contractAddress": null,
      "l1BaseFeeScalar": "0x44d",
      "l1BlobBaseFee": "0x1",
      "l1BlobBaseFeeScalar": "0xa118b",
      "l1Fee": "0x3356468",
      "l1GasPrice": "0x1d24692",
      "l1GasUsed": "0x640"
    },
    {
      "status": "0x1",
      "cumulativeGasUsed": "0x1348e2",
      "logs": [
        {
          "address": "0x036cbd53842c5426634e7929541ec2318f3dcf7e",
          "topics": [
            "0xddf252ad1be2c89b69c2b068fc378daa952ba7f163c4a11628f55a4df523b3ef",
            "0x0000000000000000000000004e5dc9df946500b07e9c66e4dd29bf9cd062002b",
            "0x0000000000000000000000002e180501d3d68241dd0318c68fd9be0af1d519a1"
          ],
          "data": "0x00000000000000000000000000000000000000000000000000000000004c4b40",
          "blockHash": "0x955ef7192aaf4117ddd2bbaf09f3327e1b659f20980e4030282c06e3f0ca3f3a",
          "blockNumber": "0x1653718",
          "transactionHash": "0xec0023dc4d059ed7128fa7d847ee4be91110fac70ed3afb2b0b119f0d2d40e7b",
          "transactionIndex": "0x6",
          "logIndex": "0x10",
          "removed": false
        },
        {
          "address": "0x2e180501d3d68241dd0318c68fd9be0af1d519a1",
          "topics": [
            "0xe523847b7270abe685bcbcb11a424b9030e5627e3d5770781dd5bbeb1ddee143",
            "0x0000000000000000000000000000000000000000000000000000000000000017",
            "0x0000000000000000000000000000000000000000000000000000000000000008",
            "0x0000000000000000000000004e5dc9df946500b07e9c66e4dd29bf9cd062002b"
          ],
          "data": "0x000000000000000000000000000000000000000000000000000000000000000100000000000000000000000000000000000000000000000000000000004c4b400000000000000000000000000000000000000000000000000000000000000000",
          "blockHash": "0x955ef7192aaf4117ddd2bbaf09f3327e1b659f20980e4030282c06e3f0ca3f3a",
          "blockNumber": "0x1653718",
          "transactionHash": "0xec0023dc4d059ed7128fa7d847ee4be91110fac70ed3afb2b0b119f0d2d40e7b",
          "transactionIndex": "0x6",
          "logIndex": "0x11",
          "removed": false
        }
      ],
      "logsBloom": "0x00002000040000000000000000000000000010000000000000000000000000000000000000000000000001000000000000001000000080000000001000000000000000000000000000000008000000000000000000000000000000000000000800000000000000000000000000000000000000000000000000000010000000000080000000080000804000000000000000000000000000000400000000000000000000000000000000000000000000000000000000000000000000000000000040010002000000000000000000000000000000010000800000000000000000000000020000000000000000000020000000000000000010000000000000080000",
      "type": "0x2",
      "transactionHash": "0xec0023dc4d059ed7128fa7d847ee4be91110fac70ed3afb2b0b119f0d2d40e7b",
      "transactionIndex": "0x6",
      "blockHash": "0x955ef7192aaf4117ddd2bbaf09f3327e1b659f20980e4030282c06e3f0ca3f3a",
      "blockNumber": "0x1653718",
      "gasUsed": "0x712a7",
      "effectiveGasPrice": "0xf5de5",
      "from": "0x4e5dc9df946500b07e9c66e4dd29bf9cd062002b",
      "to": "0x2e180501d3d68241dd0318c68fd9be0af1d519a1",
      "contractAddress": null,
      "l1BaseFeeScalar": "0x44d",
      "l1BlobBaseFee": "0x1",
      "l1BlobBaseFeeScalar": "0xa118b",
      "l1Fee": "0x3549a68",
      "l1GasPrice": "0x1d2441c",
      "l1GasUsed": "0x67c"
    },
    {
      "status": "0x1",
      "cumulativeGasUsed": "0x1b6cba",
      "logs": [
        {
          "address": "0x036cbd53842c5426634e7929541ec2318f3dcf7e",
          "topics": [
            "0xddf252ad1be2c89b69c2b068fc378daa952ba7f163c4a11628f55a4df523b3ef",
            "0x0000000000000000000000004e5dc9df946500b07e9c66e4dd29bf9cd062002b",
            "0x0000000000000000000000002e180501d3d68241dd0318c68fd9be0af1d519a1"
          ],
          "data": "0x00000000000000000000000000000000000000000000000000000000000f4240",
          "blockHash": "0x1dc2bf4f87d8f5fb16c44d12e086f3baddda6c5628bf90d1b2cd7c8ffbc62429",
          "blockNumber": "0x165371a",
          "transactionHash": "0x8e392d318503c4faf50f1a2db5389686774d8b13e4768b4d1f0949ab75e4fb70",
          "transactionIndex": "0xa",
          "logIndex": "0x21",
          "removed": false
        },
        {
          "address": "0x2e180501d3d68241dd0318c68fd9be0af1d519a1",
          "topics": [
            "0xe523847b7270abe685bcbcb11a424b9030e5627e3d5770781dd5bbeb1ddee143",
            "0x0000000000000000000000000000000000000000000000000000000000000018",
            "0x0000000000000000000000000000000000000000000000000000000000000009",
            "0x0000000000000000000000004e5dc9df946500b07e9c66e4dd29bf9cd062002b"
          ],
          "data": "0x000000000000000000000000000000000000000000000000000000000000000000000000000000000000000000000000000000000000000000000000000f42400000000000000000000000000000000000000000000000000000000000000000",
          "blockHash": "0x1dc2bf4f87d8f5fb16c44d12e086f3baddda6c5628bf90d1b2cd7c8ffbc62429",
          "blockNumber": "0x165371a",
          "transactionHash": "0x8e392d318503c4faf50f1a2db5389686774d8b13e4768b4d1f0949ab75e4fb70",
          "transactionIndex": "0xa",
          "logIndex": "0x22",
          "removed": false
        }
      ],
      "logsBloom": "0x00002000040000000000000000000000000010000000000000000000000000000000000000000000000001000000000000000000000000000000000000200000000000000000000000000008000000000040000000000000000000000000000800000000000000000000000000000000000000000000000000000010000000000000000000080000804000000000000000001000000000000400000000000000000000000000000000000000000000000000000000000000000000000000000000110002000000000000000000000000000000010000800020000000000000000000020000000000000000000020000000000000000010000000000000800000",
      "type": "0x2",
      "transactionHash": "0x8e392d318503c4faf50f1a2db5389686774d8b13e4768b4d1f0949ab75e4fb70",
      "transactionIndex": "0xa",
      "blockHash": "0x1dc2bf4f87d8f5fb16c44d12e086f3baddda6c5628bf90d1b2cd7c8ffbc62429",
      "blockNumber": "0x165371a",
      "gasUsed": "0x67723",
      "effectiveGasPrice": "0xf5dd5",
      "from": "0x4e5dc9df946500b07e9c66e4dd29bf9cd062002b",
      "to": "0x2e180501d3d68241dd0318c68fd9be0af1d519a1",
      "contractAddress": null,
      "l1BaseFeeScalar": "0x44d",
      "l1BlobBaseFee": "0x1",
      "l1BlobBaseFeeScalar": "0xa118b",
      "l1Fee": "0x3356012",
      "l1GasPrice": "0x1d2441c",
      "l1GasUsed": "0x640"
    },
    {
      "status": "0x1",
      "cumulativeGasUsed": "0x5d3f8",
      "logs": [
        {
          "address": "0xa373482b473e33b96412a6c0ca8b847e6bbb4d0d",
          "topics": [
            "0x8c5be1e5ebec7d5bd14f71427d1e84f3dd0314c0f7b2291e5b200ac8c7c3b925",
            "0x00000000000000000000000067bfd0b42f5f39710b4e90301289f81eab6315da",
            "0x0000000000000000000000002e180501d3d68241dd0318c68fd9be0af1d519a1"
          ],
          "data": "0x000000000000000000000000000000000000000000000000000000028fa6ae03",
          "blockHash": "0x302a89adc09fa5582b10f23cc7ae4da93c1bf83fb8a3fa5d11275ae78b3cbe44",
          "blockNumber": "0x165371c",
          "transactionHash": "0x928e41c55885f3660d77fdaf477aa789e43f174d777f4a2c9a90fbce027b8af9",
          "transactionIndex": "0x5",
          "logIndex": "0x5",
          "removed": false
        }
      ],
      "logsBloom": "0x00000000000000000080000000000000000000000000000000000000000000000000000000000000000000000000000000000000000000000000000000200000000000000000000000000000000000000000000000200000000000000000000000000000000000000000000000000000000000000000000000000000000000000000000000081000800000000000000000000000000000000000000000000000020000000000280000000000000000000000000000000000000000000000000000000000000000000000000000000000000000010000000000100000000000000010000000000000000000000000000000000000000000000000000000000000",
      "type": "0x2",
      "transactionHash": "0x928e41c55885f3660d77fdaf477aa789e43f174d777f4a2c9a90fbce027b8af9",
      "transactionIndex": "0x5",
      "blockHash": "0x302a89adc09fa5582b10f23cc7ae4da93c1bf83fb8a3fa5d11275ae78b3cbe44",
      "blockNumber": "0x165371c",
      "gasUsed": "0x70c0",
      "effectiveGasPrice": "0xf5dc1",
      "from": "0x67bfd0b42f5f39710b4e90301289f81eab6315da",
      "to": "0xa373482b473e33b96412a6c0ca8b847e6bbb4d0d",
      "contractAddress": null,
      "l1BaseFeeScalar": "0x44d",
      "l1BlobBaseFee": "0x1",
      "l1BlobBaseFeeScalar": "0xa118b",
      "l1Fee": "0x3356012",
      "l1GasPrice": "0x1d2441c",
      "l1GasUsed": "0x640"
    },
    {
      "status": "0x1",
      "cumulativeGasUsed": "0xc578ba",
      "logs": [
        {
          "address": "0x036cbd53842c5426634e7929541ec2318f3dcf7e",
          "topics": [
            "0x8c5be1e5ebec7d5bd14f71427d1e84f3dd0314c0f7b2291e5b200ac8c7c3b925",
            "0x00000000000000000000000067bfd0b42f5f39710b4e90301289f81eab6315da",
            "0x0000000000000000000000002e180501d3d68241dd0318c68fd9be0af1d519a1"
          ],
          "data": "0x000000000000000000000000000000000000000000000000000000001d629540",
          "blockHash": "0xecd00b744e23720716c4b4a37095097c6f57c607acc5b81be4c6a1730b4240bc",
          "blockNumber": "0x165371d",
          "transactionHash": "0x65872f3b12f60ee4afe0c7c8b26b934e4492a2fb0babc49aa7a36d647470cef1",
          "transactionIndex": "0x34",
          "logIndex": "0x13a",
          "removed": false
        }
      ],
      "logsBloom": "0x00000000040000000080000000000000000000000000000000000000000000000000000000000000000000000000000000000000000000000000000000200000000000000000000000000000000000000000000000000000000000000000000800000000000000000000000000000000000000000000000000000000000000000000000000080000800000000000000000000000000000000000000000000000020000000000280000000000000000000000000000000000000000000000000000000000000000000000000000000000000000010000000000000000000000000010000000000000000000000020000000000000000000000000000000000000",
      "type": "0x2",
      "transactionHash": "0x65872f3b12f60ee4afe0c7c8b26b934e4492a2fb0babc49aa7a36d647470cef1",
      "transactionIndex": "0x34",
      "blockHash": "0xecd00b744e23720716c4b4a37095097c6f57c607acc5b81be4c6a1730b4240bc",
      "blockNumber": "0x165371d",
      "gasUsed": "0x8add",
      "effectiveGasPrice": "0xf5dcf",
      "from": "0x67bfd0b42f5f39710b4e90301289f81eab6315da",
      "to": "0x036cbd53842c5426634e7929541ec2318f3dcf7e",
      "contractAddress": null,
      "l1BaseFeeScalar": "0x44d",
      "l1BlobBaseFee": "0x1",
      "l1BlobBaseFeeScalar": "0xa118b",
      "l1Fee": "0x336a2ac",
      "l1GasPrice": "0x1d2fb3d",
      "l1GasUsed": "0x640"
    },
    {
      "status": "0x1",
      "cumulativeGasUsed": "0x10af423",
      "logs": [
        {
          "address": "0xa373482b473e33b96412a6c0ca8b847e6bbb4d0d",
          "topics": [
            "0xddf252ad1be2c89b69c2b068fc378daa952ba7f163c4a11628f55a4df523b3ef",
            "0x00000000000000000000000067bfd0b42f5f39710b4e90301289f81eab6315da",
            "0x0000000000000000000000002e180501d3d68241dd0318c68fd9be0af1d519a1"
          ],
          "data": "0x00000000000000000000000000000000000000000000000000000000c4b20100",
          "blockHash": "0xaa6f4defd27b9d7053ad598200b44657365c3730ae7ecb458fb81a4d564a51d6",
          "blockNumber": "0x165371e",
          "transactionHash": "0xfe64168b29e4b81cb2c34d98750fa5e742fbf2e6fd63d7a0f8d347e783e7d89b",
          "transactionIndex": "0x2f",
          "logIndex": "0x23b",
          "removed": false
        },
        {
          "address": "0x2e180501d3d68241dd0318c68fd9be0af1d519a1",
          "topics": [
            "0xe523847b7270abe685bcbcb11a424b9030e5627e3d5770781dd5bbeb1ddee143",
            "0x0000000000000000000000000000000000000000000000000000000000000019",
            "0x0000000000000000000000000000000000000000000000000000000000000007",
            "0x00000000000000000000000067bfd0b42f5f39710b4e90301289f81eab6315da"
          ],
          "data": "0x000000000000000000000000000000000000000000000000000000000000000000000000000000000000000000000000000000000000000000000000c4b201000000000000000000000000000000000000000000000000000000000000000001",
          "blockHash": "0xaa6f4defd27b9d7053ad598200b44657365c3730ae7ecb458fb81a4d564a51d6",
          "blockNumber": "0x165371e",
          "transactionHash": "0xfe64168b29e4b81cb2c34d98750fa5e742fbf2e6fd63d7a0f8d347e783e7d89b",
          "transactionIndex": "0x2f",
          "logIndex": "0x23c",
          "removed": false
        }
      ],
      "logsBloom": "0x00002000000000000080000000000000000010000000000000000000000000000000000000000000000001000000000000001000000000800000000000000000000020000000000000000008000000000000000000200000000000000000000000000000000000000000000000000000000000000000020000000010000000000000000000081000800000000000000000000000000000000400000000000000000000000000280000000000000000000000000000000000000000000000000000000002000000000000000000000000000000010000000000100100000000000000020000000000000000000000000000000000000010000000008000000000",
      "type": "0x2",
      "transactionHash": "0xfe64168b29e4b81cb2c34d98750fa5e742fbf2e6fd63d7a0f8d347e783e7d89b",
      "transactionIndex": "0x2f",
      "blockHash": "0xaa6f4defd27b9d7053ad598200b44657365c3730ae7ecb458fb81a4d564a51d6",
      "blockNumber": "0x165371e",
      "gasUsed": "0x6a0de",
      "effectiveGasPrice": "0xf5dcc",
      "from": "0x67bfd0b42f5f39710b4e90301289f81eab6315da",
      "to": "0x2e180501d3d68241dd0318c68fd9be0af1d519a1",
      "contractAddress": null,
      "l1BaseFeeScalar": "0x44d",
      "l1BlobBaseFee": "0x1",
      "l1BlobBaseFeeScalar": "0xa118b",
      "l1Fee": "0x336a2ac",
      "l1GasPrice": "0x1d2fb3d",
      "l1GasUsed": "0x640"
    },
    {
      "status": "0x1",
      "cumulativeGasUsed": "0x12299c5",
      "logs": [
        {
          "address": "0xa373482b473e33b96412a6c0ca8b847e6bbb4d0d",
          "topics": [
            "0xddf252ad1be2c89b69c2b068fc378daa952ba7f163c4a11628f55a4df523b3ef",
            "0x00000000000000000000000067bfd0b42f5f39710b4e90301289f81eab6315da",
            "0x0000000000000000000000002e180501d3d68241dd0318c68fd9be0af1d519a1"
          ],
          "data": "0x00000000000000000000000000000000000000000000000000000000c4b20100",
          "blockHash": "0x01b60ce30f35b8b6e0435739f78e5bf0a2492377b46919e59a25dacc6cd36fbd",
          "blockNumber": "0x165371f",
          "transactionHash": "0x52b7c4364511d194117c4a25aba930d28a2ba95f0ee1220b14c31728fdccb661",
          "transactionIndex": "0x3f",
          "logIndex": "0x1be",
          "removed": false
        },
        {
          "address": "0x2e180501d3d68241dd0318c68fd9be0af1d519a1",
          "topics": [
            "0xe523847b7270abe685bcbcb11a424b9030e5627e3d5770781dd5bbeb1ddee143",
            "0x000000000000000000000000000000000000000000000000000000000000001a",
            "0x0000000000000000000000000000000000000000000000000000000000000008",
            "0x00000000000000000000000067bfd0b42f5f39710b4e90301289f81eab6315da"
          ],
          "data": "0x000000000000000000000000000000000000000000000000000000000000000000000000000000000000000000000000000000000000000000000000c4b201000000000000000000000000000000000000000000000000000000000000000001",
          "blockHash": "0x01b60ce30f35b8b6e0435739f78e5bf0a2492377b46919e59a25dacc6cd36fbd",
          "blockNumber": "0x165371f",
          "transactionHash": "0x52b7c4364511d194117c4a25aba930d28a2ba95f0ee1220b14c31728fdccb661",
          "transactionIndex": "0x3f",
          "logIndex": "0x1bf",
          "removed": false
        }
      ],
      "logsBloom": "0x00002000000000000080000000000000000010000000000000000000000000000000000000000000000001000000000000000000000080000000000000000000000000000000000000000008000000001000000000200000000000001000000000000000000000000000000000000000000000000000000000000010000000000080000000081000800000000000000000000000000000000400000000000000000000000000280000000000000000000000000000000000000000000000000040000002000000000000000000000000000000010000000000100000000000000000020000000000000000000000000000000000000014000000000000000000",
      "type": "0x2",
      "transactionHash": "0x52b7c4364511d194117c4a25aba930d28a2ba95f0ee1220b14c31728fdccb661",
      "transactionIndex": "0x3f",
      "blockHash": "0x01b60ce30f35b8b6e0435739f78e5bf0a2492377b46919e59a25dacc6cd36fbd",
      "blockNumber": "0x165371f",
      "gasUsed": "0x6e3aa",
      "effectiveGasPrice": "0xf5dd5",
      "from": "0x67bfd0b42f5f39710b4e90301289f81eab6315da",
      "to": "0x2e180501d3d68241dd0318c68fd9be0af1d519a1",
      "contractAddress": null,
      "l1BaseFeeScalar": "0x44d",
      "l1BlobBaseFee": "0x1",
      "l1BlobBaseFeeScalar": "0xa118b",
      "l1Fee": "0x336a2ac",
      "l1GasPrice": "0x1d2fb3d",
      "l1GasUsed": "0x640"
    },
    {
      "status": "0x1",
      "cumulativeGasUsed": "0x1169b4a",
      "logs": [
        {
          "address": "0xa373482b473e33b96412a6c0ca8b847e6bbb4d0d",
          "topics": [
            "0xddf252ad1be2c89b69c2b068fc378daa952ba7f163c4a11628f55a4df523b3ef",
            "0x00000000000000000000000067bfd0b42f5f39710b4e90301289f81eab6315da",
            "0x0000000000000000000000002e180501d3d68241dd0318c68fd9be0af1d519a1"
          ],
          "data": "0x00000000000000000000000000000000000000000000000000000000c4b20100",
          "blockHash": "0xb955f6dafb0f2b7e70f4b1d621c05326e6b549ab2ce3d3453b96223983f17a16",
          "blockNumber": "0x1653720",
          "transactionHash": "0xb9494d6641c3d40e2f88b51580a637fb2c97679c4e54683b6fc6c22c04858863",
          "transactionIndex": "0x36",
          "logIndex": "0x1b4",
          "removed": false
        },
        {
          "address": "0x2e180501d3d68241dd0318c68fd9be0af1d519a1",
          "topics": [
            "0xe523847b7270abe685bcbcb11a424b9030e5627e3d5770781dd5bbeb1ddee143",
            "0x000000000000000000000000000000000000000000000000000000000000001b",
            "0x0000000000000000000000000000000000000000000000000000000000000009",
            "0x00000000000000000000000067bfd0b42f5f39710b4e90301289f81eab6315da"
          ],
          "data": "0x000000000000000000000000000000000000000000000000000000000000000100000000000000000000000000000000000000000000000000000000c4b201000000000000000000000000000000000000000000000000000000000000000001",
          "blockHash": "0xb955f6dafb0f2b7e70f4b1d621c05326e6b549ab2ce3d3453b96223983f17a16",
          "blockNumber": "0x1653720",
          "transactionHash": "0xb9494d6641c3d40e2f88b51580a637fb2c97679c4e54683b6fc6c22c04858863",
          "transactionIndex": "0x36",
          "logIndex": "0x1b5",
          "removed": false
        }
      ],
      "logsBloom": "0x00002000000000000080000000000000000010000010000000000000000000000000000000000000000001000000000000000000000000000000000000200000000000000000000000000008000000000000000000200000000000000000000000000000000000000000000000000000000000000000000000000010000000000000000000081000800000000000000000001000000000000400000000000000000000000100280000000000000000000000000000008000000000000000000000000002000000000000000000000000000000010000000000100000000000000000020000000000000000000000000000000000000010000000000000800000",
      "type": "0x2",
      "transactionHash": "0xb9494d6641c3d40e2f88b51580a637fb2c97679c4e54683b6fc6c22c04858863",
      "transactionIndex": "0x36",
      "blockHash": "0xb955f6dafb0f2b7e70f4b1d621c05326e6b549ab2ce3d3453b96223983f17a16",
      "blockNumber": "0x1653720",
      "gasUsed": "0x77f2e",
      "effectiveGasPrice": "0xf5de3",
      "from": "0x67bfd0b42f5f39710b4e90301289f81eab6315da",
      "to": "0x2e180501d3d68241dd0318c68fd9be0af1d519a1",
      "contractAddress": null,
      "l1BaseFeeScalar": "0x44d",
      "l1BlobBaseFee": "0x1",
      "l1BlobBaseFeeScalar": "0xa118b",
      "l1Fee": "0x3482605",
      "l1GasPrice": "0x1d2fb3d",
      "l1GasUsed": "0x662"
    },
    {
      "status": "0x1",
      "cumulativeGasUsed": "0xe15a34",
      "logs": [
        {
          "address": "0x036cbd53842c5426634e7929541ec2318f3dcf7e",
          "topics": [
            "0xddf252ad1be2c89b69c2b068fc378daa952ba7f163c4a11628f55a4df523b3ef",
            "0x00000000000000000000000067bfd0b42f5f39710b4e90301289f81eab6315da",
            "0x0000000000000000000000002e180501d3d68241dd0318c68fd9be0af1d519a1"
          ],
          "data": "0x00000000000000000000000000000000000000000000000000000000001e8480",
          "blockHash": "0xe4a8f005ca8f1d493645849f6b702c29d77948c218608e0c403099b7277f8913",
          "blockNumber": "0x1653721",
          "transactionHash": "0x05f40712c5c3532c40aa18871cdc80e351ab134e0101c2e2fd5875559fd55ed7",
          "transactionIndex": "0x2e",
          "logIndex": "0x169",
          "removed": false
        },
        {
          "address": "0x2e180501d3d68241dd0318c68fd9be0af1d519a1",
          "topics": [
            "0xe523847b7270abe685bcbcb11a424b9030e5627e3d5770781dd5bbeb1ddee143",
            "0x000000000000000000000000000000000000000000000000000000000000001c",
            "0x0000000000000000000000000000000000000000000000000000000000000007",
            "0x00000000000000000000000067bfd0b42f5f39710b4e90301289f81eab6315da"
          ],
          "data": "0x000000000000000000000000000000000000000000000000000000000000000100000000000000000000000000000000000000000000000000000000001e84800000000000000000000000000000000000000000000000000000000000000000",
          "blockHash": "0xe4a8f005ca8f1d493645849f6b702c29d77948c218608e0c403099b7277f8913",
          "blockNumber": "0x1653721",
          "transactionHash": "0x05f40712c5c3532c40aa18871cdc80e351ab134e0101c2e2fd5875559fd55ed7",
          "transactionIndex": "0x2e",
          "logIndex": "0x16a",
          "removed": false
        }
      ],
      "logsBloom": "0x00002000040000000080000000000000000010000000000000000000000000000000000000000000000001000000000000001000000000200000000000000000000020000000000000000008000000000000000000000000000000000000000800000000000000000000000000000000000000000000000000000010000000000000000000080000800000000000000200000000000000000400000000000000000000000000280000000002000000000000000000000000000000000000000000000002000000000000000000000000000000010000000000000100000000000000020000000000000000000020000000000000000010000000000000000000",
      "type": "0x2",
      "transactionHash": "0x05f40712c5c3532c40aa18871cdc80e351ab134e0101c2e2fd5875559fd55ed7",
      "transactionIndex": "0x2e",
      "blockHash": "0xe4a8f005ca8f1d493645849f6b702c29d77948c218608e0c403099b7277f8913",
      "blockNumber": "0x1653721",
      "gasUsed": "0x712bf",
      "effectiveGasPrice": "0xf5dea",
      "from": "0x67bfd0b42f5f39710b4e90301289f81eab6315da",
      "to": "0x2e180501d3d68241dd0318c68fd9be0af1d519a1",
      "contractAddress": null,
      "l1BaseFeeScalar": "0x44d",
      "l1BlobBaseFee": "0x1",
      "l1BlobBaseFeeScalar": "0xa118b",
      "l1Fee": "0x34f07a5",
      "l1GasPrice": "0x1d2fb3d",
      "l1GasUsed": "0x66f"
    },
    {
      "status": "0x1",
      "cumulativeGasUsed": "0x79bea",
      "logs": [
        {
          "address": "0x036cbd53842c5426634e7929541ec2318f3dcf7e",
          "topics": [
            "0xddf252ad1be2c89b69c2b068fc378daa952ba7f163c4a11628f55a4df523b3ef",
            "0x00000000000000000000000067bfd0b42f5f39710b4e90301289f81eab6315da",
            "0x0000000000000000000000002e180501d3d68241dd0318c68fd9be0af1d519a1"
          ],
          "data": "0x00000000000000000000000000000000000000000000000000000000000f4240",
          "blockHash": "0xc233f01ae1656356d4dfe8fec8a6719b542970f81bdb3e00478a44303a10a823",
          "blockNumber": "0x1653723",
          "transactionHash": "0xf5785cc05369f95aa09c642d21507b1c54cbbbd9867ff19cbc510cecca721c8a",
          "transactionIndex": "0x1",
          "logIndex": "0x0",
          "removed": false
        },
        {
          "address": "0x2e180501d3d68241dd0318c68fd9be0af1d519a1",
          "topics": [
            "0xe523847b7270abe685bcbcb11a424b9030e5627e3d5770781dd5bbeb1ddee143",
            "0x000000000000000000000000000000000000000000000000000000000000001d",
            "0x0000000000000000000000000000000000000000000000000000000000000008",
            "0x00000000000000000000000067bfd0b42f5f39710b4e90301289f81eab6315da"
          ],
          "data": "0x000000000000000000000000000000000000000000000000000000000000000100000000000000000000000000000000000000000000000000000000000f42400000000000000000000000000000000000000000000000000000000000000000",
          "blockHash": "0xc233f01ae1656356d4dfe8fec8a6719b542970f81bdb3e00478a44303a10a823",
          "blockNumber": "0x1653723",
          "transactionHash": "0xf5785cc05369f95aa09c642d21507b1c54cbbbd9867ff19cbc510cecca721c8a",
          "transactionIndex": "0x1",
          "logIndex": "0x1",
          "removed": false
        }
      ],
      "logsBloom": "0x00002080040000000080000000000000000010000000000000000000000000000000000000000000000001000000000000000000000080000000000200000000000000000000000000000008000000000000000000000010000000000000000800000000000000000000000000000000000000000000000000000010000000000080000000080000800000000000000000000000000000000400000000000000000000000000280000000000000000000000000000000000000000000000000040000002000000000000000000000000000000010000000000000000000000000000020000000000000000000020000000000000000010000000000000000000",
      "type": "0x2",
      "transactionHash": "0xf5785cc05369f95aa09c642d21507b1c54cbbbd9867ff19cbc510cecca721c8a",
      "transactionIndex": "0x1",
      "blockHash": "0xc233f01ae1656356d4dfe8fec8a6719b542970f81bdb3e00478a44303a10a823",
      "blockNumber": "0x1653723",
      "gasUsed": "0x6cff3",
      "effectiveGasPrice": "0xf5df0",
      "from": "0x67bfd0b42f5f39710b4e90301289f81eab6315da",
      "to": "0x2e180501d3d68241dd0318c68fd9be0af1d519a1",
      "contractAddress": null,
      "l1BaseFeeScalar": "0x44d",
      "l1BlobBaseFee": "0x1",
      "l1BlobBaseFeeScalar": "0xa118b",
      "l1Fee": "0x32ccddb",
      "l1GasPrice": "0x1c01cb7",
      "l1GasUsed": "0x66f"
    },
    {
      "status": "0x1",
      "cumulativeGasUsed": "0x11ece4",
      "logs": [
        {
          "address": "0x036cbd53842c5426634e7929541ec2318f3dcf7e",
          "topics": [
            "0xddf252ad1be2c89b69c2b068fc378daa952ba7f163c4a11628f55a4df523b3ef",
            "0x00000000000000000000000067bfd0b42f5f39710b4e90301289f81eab6315da",
            "0x0000000000000000000000002e180501d3d68241dd0318c68fd9be0af1d519a1"
          ],
          "data": "0x00000000000000000000000000000000000000000000000000000000004c4b40",
          "blockHash": "0x8d00ca6f3d09321fb4bf84c4cec9722b82b1dc0e7626c18670db89f7f35bf10f",
          "blockNumber": "0x1653725",
          "transactionHash": "0x492cbcac22b0d757e7f080c9da7bd07af5766ceca55ec3fb6a090e1748e6b1b3",
          "transactionIndex": "0x4",
          "logIndex": "0x14",
          "removed": false
        },
        {
          "address": "0x2e180501d3d68241dd0318c68fd9be0af1d519a1",
          "topics": [
            "0xe523847b7270abe685bcbcb11a424b9030e5627e3d5770781dd5bbeb1ddee143",
            "0x000000000000000000000000000000000000000000000000000000000000001e",
            "0x0000000000000000000000000000000000000000000000000000000000000009",
            "0x00000000000000000000000067bfd0b42f5f39710b4e90301289f81eab6315da"
          ],
          "data": "0x000000000000000000000000000000000000000000000000000000000000000000000000000000000000000000000000000000000000000000000000004c4b400000000000000000000000000000000000000000000000000000000000000000",
          "blockHash": "0x8d00ca6f3d09321fb4bf84c4cec9722b82b1dc0e7626c18670db89f7f35bf10f",
          "blockNumber": "0x1653725",
          "transactionHash": "0x492cbcac22b0d757e7f080c9da7bd07af5766ceca55ec3fb6a090e1748e6b1b3",
          "transactionIndex": "0x4",
          "logIndex": "0x15",
          "removed": false
        }
      ],
      "logsBloom": "0x00002000040000000080000000000000000010000000000000000000000000000000000000000000000001000400000000000000000000000000000000200000000000000000008000000008000000000000000000000000000000000000000800000000000000000000000000000000000000000000000000000010000000000000000000080000800000000000000000001000000000000400000000000000000000000000280000000000000000000000000000000000000000000000000000000002000000000000000000000000000000010000000000000000000000000000020000000000080000000020000000000000000010000000000000800000",
      "type": "0x2",
      "transactionHash": "0x492cbcac22b0d757e7f080c9da7bd07af5766ceca55ec3fb6a090e1748e6b1b3",
      "transactionIndex": "0x4",
      "blockHash": "0x8d00ca6f3d09321fb4bf84c4cec9722b82b1dc0e7626c18670db89f7f35bf10f",
      "blockNumber": "0x1653725",
      "gasUsed": "0x6346f",
      "effectiveGasPrice": "0xf5dee",
      "from": "0x67bfd0b42f5f39710b4e90301289f81eab6315da",
      "to": "0x2e180501d3d68241dd0318c68fd9be0af1d519a1",
      "contractAddress": null,
      "l1BaseFeeScalar": "0x44d",
      "l1BlobBaseFee": "0x1",
      "l1BlobBaseFeeScalar": "0xa118b",
      "l1Fee": "0x3156538",
      "l1GasPrice": "0x1c01cb7",
      "l1GasUsed": "0x640"
    },
    {
      "status": "0x1",
      "cumulativeGasUsed": "0x42e80a",
      "logs": [
        {
          "address": "0xa373482b473e33b96412a6c0ca8b847e6bbb4d0d",
          "topics": [
            "0x8c5be1e5ebec7d5bd14f71427d1e84f3dd0314c0f7b2291e5b200ac8c7c3b925",
            "0x00000000000000000000000012be474d127757d0a6a36631294f8ffbcdef44f8",
            "0x0000000000000000000000002e180501d3d68241dd0318c68fd9be0af1d519a1"
          ],
          "data": "0x000000000000000000000000000000000000000000000000000000028fa6ae03",
          "blockHash": "0x66e98a9aeb1537a5505cc93824ba62822e058240e6a0ee11a1c766e2d5036c58",
          "blockNumber": "0x1653727",
          "transactionHash": "0x4aed8f851c2a6c63f0e21a118562e25b4a3ebf8608bacb7647d197effb638325",
          "transactionIndex": "0xa",
          "logIndex": "0x5f",
          "removed": false
        }
      ],
      "logsBloom": "0x00000000000000000000000000000000000000000000000000000000000000000000000000000000000000000000000000000000000000000000000000200000000000000000000000000000000000000000000000200000000000000000000000000000000000000000000000000000000000000000000000800000000000000000000000081000800000000000000000000000000000000000000000000000028000000000000000000000000000000000000000000000000000000000000000000000000000000000000100000000000000010000000000100000000000000010000000000000000000000000000000000000000000000000000000000000",
      "type": "0x2",
      "transactionHash": "0x4aed8f851c2a6c63f0e21a118562e25b4a3ebf8608bacb7647d197effb638325",
      "transactionIndex": "0xa",
      "blockHash": "0x66e98a9aeb1537a5505cc93824ba62822e058240e6a0ee11a1c766e2d5036c58",
      "blockNumber": "0x1653727",
      "gasUsed": "0x70c0",
      "effectiveGasPrice": "0xf5df8",
      "from": "0x12be474d127757d0a6a36631294f8ffbcdef44f8",
      "to": "0xa373482b473e33b96412a6c0ca8b847e6bbb4d0d",
      "contractAddress": null,
      "l1BaseFeeScalar": "0x44d",
      "l1BlobBaseFee": "0x1",
      "l1BlobBaseFeeScalar": "0xa118b",
      "l1Fee": "0x3156538",
      "l1GasPrice": "0x1c01cb7",
      "l1GasUsed": "0x640"
    },
    {
      "status": "0x1",
      "cumulativeGasUsed": "0x2fcb4",
      "logs": [
        {
          "address": "0x036cbd53842c5426634e7929541ec2318f3dcf7e",
          "topics": [
            "0x8c5be1e5ebec7d5bd14f71427d1e84f3dd0314c0f7b2291e5b200ac8c7c3b925",
            "0x00000000000000000000000012be474d127757d0a6a36631294f8ffbcdef44f8",
            "0x0000000000000000000000002e180501d3d68241dd0318c68fd9be0af1d519a1"
          ],
          "data": "0x000000000000000000000000000000000000000000000000000000001d34ce80",
          "blockHash": "0xe933cf0eca5f70676eb6b300cecfad32b208ded1a02866e3d4476dbd2e4f8800",
          "blockNumber": "0x1653729",
          "transactionHash": "0xea73531c6baa8366ba2762a82d375e2ae2d34743a4430e76baef50ad25dd05aa",
          "transactionIndex": "0x3",
          "logIndex": "0x2",
          "removed": false
        }
      ],
      "logsBloom": "0x00000000040000000000000000000000000000000000000000000000000000000000000000000000000000000000000000000000000000000000000000200000000000000000000000000000000000000000000000000000000000000000000800000000000000000000000000000000000000000000000000800000000000000000000000080000800000000000000000000000000000000000000000000000028000000000000000000000000000000000000000000000000000000000000000000000000000000000000100000000000000010000000000000000000000000010000000000000000000000020000000000000000000000000000000000000",
      "type": "0x2",
      "transactionHash": "0xea73531c6baa8366ba2762a82d375e2ae2d34743a4430e76baef50ad25dd05aa",
      "transactionIndex": "0x3",
      "blockHash": "0xe933cf0eca5f70676eb6b300cecfad32b208ded1a02866e3d4476dbd2e4f8800",
      "blockNumber": "0x1653729",
      "gasUsed": "0x8add",
      "effectiveGasPrice": "0xf5dff",
      "from": "0x12be474d127757d0a6a36631294f8ffbcdef44f8",
      "to": "0x036cbd53842c5426634e7929541ec2318f3dcf7e",
      "contractAddress": null,
      "l1BaseFeeScalar": "0x44d",
      "l1BlobBaseFee": "0x1",
      "l1BlobBaseFeeScalar": "0xa118b",
      "l1Fee": "0x2f093bf",
      "l1GasPrice": "0x1ab3632",
      "l1GasUsed": "0x640"
    },
    {
      "status": "0x1",
      "cumulativeGasUsed": "0x10519b",
      "logs": [
        {
          "address": "0xa373482b473e33b96412a6c0ca8b847e6bbb4d0d",
          "topics": [
            "0xddf252ad1be2c89b69c2b068fc378daa952ba7f163c4a11628f55a4df523b3ef",
            "0x00000000000000000000000012be474d127757d0a6a36631294f8ffbcdef44f8",
            "0x0000000000000000000000002e180501d3d68241dd0318c68fd9be0af1d519a1"
          ],
          "data": "0x00000000000000000000000000000000000000000000000000000000c4b20100",
          "blockHash": "0xdd78775c8d647cefec22a43081cc3dde17b70dd9379c868d7c1bb2938a17fc44",
          "blockNumber": "0x165372b",
          "transactionHash": "0x87d255dc37708dca819aaa6843472b5938db01af7217c13af11c927753321135",
          "transactionIndex": "0x2",
          "logIndex": "0x0",
          "removed": false
        },
        {
          "address": "0x2e180501d3d68241dd0318c68fd9be0af1d519a1",
          "topics": [
            "0xe523847b7270abe685bcbcb11a424b9030e5627e3d5770781dd5bbeb1ddee143",
            "0x000000000000000000000000000000000000000000000000000000000000001f",
            "0x0000000000000000000000000000000000000000000000000000000000000007",
            "0x00000000000000000000000012be474d127757d0a6a36631294f8ffbcdef44f8"
          ],
          "data": "0x000000000000000000000000000000000000000000000000000000000000000000000000000000000000000000000000000000000000000000000000c4b201000000000000000000000000000000000000000000000000000000000000000001",
          "blockHash": "0xdd78775c8d647cefec22a43081cc3dde17b70dd9379c868d7c1bb2938a17fc44",
          "blockNumber": "0x165372b",
          "transactionHash": "0x87d255dc37708dca819aaa6843472b5938db01af7217c13af11c927753321135",
          "transactionIndex": "0x2",
          "logIndex": "0x1",
          "removed": false
        }
      ],
      "logsBloom": "0x00002000000000000000000400000000000010000000000000000000000000000000000000000000000001000000000000001000000000000000000000000000000020000000000000000008000000000000000000200000000000000000000000000000000000000000000000000000000000000000000000800010000000000000000000081000800000000000000000000000000000000400000000000000008000000000000000000000000000000000000000000000000000000001000000000002000000000000000100000000000000010000000000100100000000000000020000000000000000000000000000000000000010000100000000000000",
      "type": "0x2",
      "transactionHash": "0x87d255dc37708dca819aaa6843472b5938db01af7217c13af11c927753321135",
      "transactionIndex": "0x2",
      "blockHash": "0xdd78775c8d647cefec22a43081cc3dde17b70dd9379c868d7c1bb2938a17fc44",
      "blockNumber": "0x165372b",
      "gasUsed": "0x6a0de",
      "effectiveGasPrice": "0xf5e06",
      "from": "0x12be474d127757d0a6a36631294f8ffbcdef44f8",
      "to": "0x2e180501d3d68241dd0318c68fd9be0af1d519a1",
      "contractAddress": null,
      "l1BaseFeeScalar": "0x44d",
      "l1BlobBaseFee": "0x1",
      "l1BlobBaseFeeScalar": "0xa118b",
      "l1Fee": "0x2f093bf",
      "l1GasPrice": "0x1ab3632",
      "l1GasUsed": "0x640"
    },
    {
      "status": "0x1",
      "cumulativeGasUsed": "0x13285b",
      "logs": [
        {
          "address": "0xa373482b473e33b96412a6c0ca8b847e6bbb4d0d",
          "topics": [
            "0xddf252ad1be2c89b69c2b068fc378daa952ba7f163c4a11628f55a4df523b3ef",
            "0x00000000000000000000000012be474d127757d0a6a36631294f8ffbcdef44f8",
            "0x0000000000000000000000002e180501d3d68241dd0318c68fd9be0af1d519a1"
          ],
          "data": "0x00000000000000000000000000000000000000000000000000000000c4b20100",
          "blockHash": "0x13ff5ab1854d01e09948ddee59ea761400daa88bd3a1321f68b9909771e8fdf6",
          "blockNumber": "0x165372d",
          "transactionHash": "0x1ef177d34e89095bbd20cba1bd6bc26b70d0059d97ea18afdfab544ae0a12c1c",
          "transactionIndex": "0x5",
          "logIndex": "0x3",
          "removed": false
        },
        {
          "address": "0x2e180501d3d68241dd0318c68fd9be0af1d519a1",
          "topics": [
            "0xe523847b7270abe685bcbcb11a424b9030e5627e3d5770781dd5bbeb1ddee143",
            "0x0000000000000000000000000000000000000000000000000000000000000020",
            "0x0000000000000000000000000000000000000000000000000000000000000008",
            "0x00000000000000000000000012be474d127757d0a6a36631294f8ffbcdef44f8"
          ],
          "data": "0x000000000000000000000000000000000000000000000000000000000000000100000000000000000000000000000000000000000000000000000000c4b201000000000000000000000000000000000000000000000000000000000000000001",
          "blockHash": "0x13ff5ab1854d01e09948ddee59ea761400daa88bd3a1321f68b9909771e8fdf6",
          "blockNumber": "0x165372d",
          "transactionHash": "0x1ef177d34e89095bbd20cba1bd6bc26b70d0059d97ea18afdfab544ae0a12c1c",
          "transactionIndex": "0x5",
          "logIndex": "0x4",
          "removed": false
        }
      ],
      "logsBloom": "0x00002000000000000000000000000000000010000000000000000000000000000000000000000000000001000000000000000000000080000000000000000000000000000000000000000008000000000000000000200000000000000000000000000000000000000000000000000000000000000000000000800010000000000080000000081000800000000000000000000000000000000400000000000000008400000000000000000000000000000000000000000000000000000000000040000002000000000000000100000000080000010000000000100000000000000000420000000000000000000000000000000000000010000000000000000000",
      "type": "0x2",
      "transactionHash": "0x1ef177d34e89095bbd20cba1bd6bc26b70d0059d97ea18afdfab544ae0a12c1c",
      "transactionIndex": "0x5",
      "blockHash": "0x13ff5ab1854d01e09948ddee59ea761400daa88bd3a1321f68b9909771e8fdf6",
      "blockNumber": "0x165372d",
      "gasUsed": "0x73c62",
      "effectiveGasPrice": "0xf5ded",
      "from": "0x12be474d127757d0a6a36631294f8ffbcdef44f8",
      "to": "0x2e180501d3d68241dd0318c68fd9be0af1d519a1",
      "contractAddress": null,
      "l1BaseFeeScalar": "0x44d",
      "l1BlobBaseFee": "0x1",
      "l1BlobBaseFeeScalar": "0xa118b",
      "l1Fee": "0x3009947",
      "l1GasPrice": "0x1ab3632",
      "l1GasUsed": "0x662"
    },
    {
      "status": "0x1",
      "cumulativeGasUsed": "0xa0873b",
      "logs": [
        {
          "address": "0xa373482b473e33b96412a6c0ca8b847e6bbb4d0d",
          "topics": [
            "0xddf252ad1be2c89b69c2b068fc378daa952ba7f163c4a11628f55a4df523b3ef",
            "0x00000000000000000000000012be474d127757d0a6a36631294f8ffbcdef44f8",
            "0x0000000000000000000000002e180501d3d68241dd0318c68fd9be0af1d519a1"
          ],
          "data": "0x00000000000000000000000000000000000000000000000000000000c4b20100",
          "blockHash": "0xa2be844cef3fa01634d34a43fd94b8c2a15f6cc3dd5cf14dc938dade44bfe852",
          "blockNumber": "0x165372e",
          "transactionHash": "0x8d74888b89e3b200368f0744bbce8a64077964030d3c7bc9d5902e0fe498c14e",
          "transactionIndex": "0x1e",
          "logIndex": "0xfc",
          "removed": false
        },
        {
          "address": "0x2e180501d3d68241dd0318c68fd9be0af1d519a1",
          "topics": [
            "0xe523847b7270abe685bcbcb11a424b9030e5627e3d5770781dd5bbeb1ddee143",
            "0x0000000000000000000000000000000000000000000000000000000000000021",
            "0x0000000000000000000000000000000000000000000000000000000000000009",
            "0x00000000000000000000000012be474d127757d0a6a36631294f8ffbcdef44f8"
          ],
          "data": "0x000000000000000000000000000000000000000000000000000000000000000100000000000000000000000000000000000000000000000000000000c4b201000000000000000000000000000000000000000000000000000000000000000001",
          "blockHash": "0xa2be844cef3fa01634d34a43fd94b8c2a15f6cc3dd5cf14dc938dade44bfe852",
          "blockNumber": "0x165372e",
          "transactionHash": "0x8d74888b89e3b200368f0744bbce8a64077964030d3c7bc9d5902e0fe498c14e",
          "transactionIndex": "0x1e",
          "logIndex": "0xfd",
          "removed": false
        }
      ],
      "logsBloom": "0x00002000000000000000000000000000000010000000000000000000000000020000000000000000000001000000000000000000000000000000000000200000000000000000000000000008000000000000000000200000000000000000000000000000000000000000000000000000000000000000000000800010040000000000000000081000800000000000000000001000000000000400000000000000008000000000000000000000000000000000000800000000000000000000000000000002000000000000000100000000000000010000000000100000000000000000020000000000000000000000000000000000000010000000000000800000",
      "type": "0x2",
      "transactionHash": "0x8d74888b89e3b200368f0744bbce8a64077964030d3c7bc9d5902e0fe498c14e",
      "transactionIndex": "0x1e",
      "blockHash": "0xa2be844cef3fa01634d34a43fd94b8c2a15f6cc3dd5cf14dc938dade44bfe852",
      "blockNumber": "0x165372e",
      "gasUsed": "0x73c62",
      "effectiveGasPrice": "0xf5de5",
      "from": "0x12be474d127757d0a6a36631294f8ffbcdef44f8",
      "to": "0x2e180501d3d68241dd0318c68fd9be0af1d519a1",
      "contractAddress": null,
      "l1BaseFeeScalar": "0x44d",
      "l1BlobBaseFee": "0x1",
      "l1BlobBaseFeeScalar": "0xa118b",
      "l1Fee": "0x3009947",
      "l1GasPrice": "0x1ab3632",
      "l1GasUsed": "0x662"
    },
    {
      "status": "0x1",
      "cumulativeGasUsed": "0x7346c2",
      "logs": [
        {
          "address": "0x036cbd53842c5426634e7929541ec2318f3dcf7e",
          "topics": [
            "0xddf252ad1be2c89b69c2b068fc378daa952ba7f163c4a11628f55a4df523b3ef",
            "0x00000000000000000000000012be474d127757d0a6a36631294f8ffbcdef44f8",
            "0x0000000000000000000000002e180501d3d68241dd0318c68fd9be0af1d519a1"
          ],
          "data": "0x00000000000000000000000000000000000000000000000000000000004c4b40",
          "blockHash": "0xda399c6216b4e1edb4e81856775de797fd4df5dd386811bab85c15cf328506c7",
          "blockNumber": "0x165372f",
          "transactionHash": "0x36de28bb6ea06dc66af63ca4c6594e0970cdbe165e859380e7ae0c37eec2aca1",
          "transactionIndex": "0x1a",
          "logIndex": "0xa1",
          "removed": false
        },
        {
          "address": "0x2e180501d3d68241dd0318c68fd9be0af1d519a1",
          "topics": [
            "0xe523847b7270abe685bcbcb11a424b9030e5627e3d5770781dd5bbeb1ddee143",
            "0x0000000000000000000000000000000000000000000000000000000000000022",
            "0x0000000000000000000000000000000000000000000000000000000000000007",
            "0x00000000000000000000000012be474d127757d0a6a36631294f8ffbcdef44f8"
          ],
          "data": "0x000000000000000000000000000000000000000000000000000000000000000000000000000000000000000000000000000000000000000000000000004c4b400000000000000000000000000000000000000000000000000000000000000000",
          "blockHash": "0xda399c6216b4e1edb4e81856775de797fd4df5dd386811bab85c15cf328506c7",
          "blockNumber": "0x165372f",
          "transactionHash": "0x36de28bb6ea06dc66af63ca4c6594e0970cdbe165e859380e7ae0c37eec2aca1",
          "transactionIndex": "0x1a",
          "logIndex": "0xa2",
          "removed": false
        }
      ],
      "logsBloom": "0x00002000040000000000000000000000000010000000000000000000000000000000000000000000000001000000000000001000000000000000000000000000000020000000000000000008000000000000000000000000000000000000000800000000000000000000000000000000000000000000000000800010000000000000020000080000800000000000000000000000000000000400004000000000008000000000000000000000000000000000000000000000000000000000000000000002000000000000000100000000000000010000000000000100000000080000020000000000000000000020000000000000000010000000000000000000",
      "type": "0x2",
      "transactionHash": "0x36de28bb6ea06dc66af63ca4c6594e0970cdbe165e859380e7ae0c37eec2aca1",
      "transactionIndex": "0x1a",
      "blockHash": "0xda399c6216b4e1edb4e81856775de797fd4df5dd386811bab85c15cf328506c7",
      "blockNumber": "0x165372f",
      "gasUsed": "0x6346f",
      "effectiveGasPrice": "0xf5de1",
      "from": "0x12be474d127757d0a6a36631294f8ffbcdef44f8",
      "to": "0x2e180501d3d68241dd0318c68fd9be0af1d519a1",
      "contractAddress": null,
      "l1BaseFeeScalar": "0x44d",
      "l1BlobBaseFee": "0x1",
      "l1BlobBaseFeeScalar": "0xa118b",
      "l1Fee": "0x2d698b2",
      "l1GasPrice": "0x19c769f",
      "l1GasUsed": "0x640"
    },
    {
      "status": "0x1",
      "cumulativeGasUsed": "0x1247b9b",
      "logs": [
        {
          "address": "0x036cbd53842c5426634e7929541ec2318f3dcf7e",
          "topics": [
            "0xddf252ad1be2c89b69c2b068fc378daa952ba7f163c4a11628f55a4df523b3ef",
            "0x00000000000000000000000012be474d127757d0a6a36631294f8ffbcdef44f8",
            "0x0000000000000000000000002e180501d3d68241dd0318c68fd9be0af1d519a1"
          ],
          "data": "0x00000000000000000000000000000000000000000000000000000000000f4240",
          "blockHash": "0x24193cdfa63c60a5d9eccc537df13c5e94b7f32e6b3d5934e63b91e011dbb730",
          "blockNumber": "0x1653730",
          "transactionHash": "0x1f8748d35451baa74d8e97fabccb256395bab7a434013e24d807e9ed76bce450",
          "transactionIndex": "0x38",
          "logIndex": "0x1f0",
          "removed": false
        },
        {
          "address": "0x2e180501d3d68241dd0318c68fd9be0af1d519a1",
          "topics": [
            "0xe523847b7270abe685bcbcb11a424b9030e5627e3d5770781dd5bbeb1ddee143",
            "0x0000000000000000000000000000000000000000000000000000000000000023",
            "0x0000000000000000000000000000000000000000000000000000000000000008",
            "0x00000000000000000000000012be474d127757d0a6a36631294f8ffbcdef44f8"
          ],
          "data": "0x000000000000000000000000000000000000000000000000000000000000000000000000000000000000000000000000000000000000000000000000000f42400000000000000000000000000000000000000000000000000000000000000000",
          "blockHash": "0x24193cdfa63c60a5d9eccc537df13c5e94b7f32e6b3d5934e63b91e011dbb730",
          "blockNumber": "0x1653730",
          "transactionHash": "0x1f8748d35451baa74d8e97fabccb256395bab7a434013e24d807e9ed76bce450",
          "transactionIndex": "0x38",
          "logIndex": "0x1f1",
          "removed": false
        }
      ],
      "logsBloom": "0x00002000040000000000000000000000000010000000000000000000000000000000000000000000000001000000000000000000000080800000000000000000000000000000000000000008000000000800000000000000000000000000000800000000000000000000000000000000000000000000000000800010000000000080000000080000800000000000000000000000000200000400000000000000008000000000000000000000000000000000000000000000000000000000000040000002000000000000000100000000000000010000000000000000000000000000020000000000000000000020000000000000000010000000000000000000",
      "type": "0x2",
      "transactionHash": "0x1f8748d35451baa74d8e97fabccb256395bab7a434013e24d807e9ed76bce450",
      "transactionIndex": "0x38",
      "blockHash": "0x24193cdfa63c60a5d9eccc537df13c5e94b7f32e6b3d5934e63b91e011dbb730",
      "blockNumber": "0x1653730",
      "gasUsed": "0x6773b",
      "effectiveGasPrice": "0xf5dd4",
      "from": "0x12be474d127757d0a6a36631294f8ffbcdef44f8",
      "to": "0x2e180501d3d68241dd0318c68fd9be0af1d519a1",
      "contractAddress": null,
      "l1BaseFeeScalar": "0x44d",
      "l1BlobBaseFee": "0x1",
      "l1BlobBaseFeeScalar": "0xa118b",
      "l1Fee": "0x2d698b2",
      "l1GasPrice": "0x19c769f",
      "l1GasUsed": "0x640"
    },
    {
      "status": "0x1",
      "cumulativeGasUsed": "0x43be84",
      "logs": [
        {
          "address": "0x036cbd53842c5426634e7929541ec2318f3dcf7e",
          "topics": [
            "0xddf252ad1be2c89b69c2b068fc378daa952ba7f163c4a11628f55a4df523b3ef",
            "0x00000000000000000000000012be474d127757d0a6a36631294f8ffbcdef44f8",
            "0x0000000000000000000000002e180501d3d68241dd0318c68fd9be0af1d519a1"
          ],
          "data": "0x00000000000000000000000000000000000000000000000000000000000f4240",
          "blockHash": "0xd2ad1cc63060da5337d362bf07800e20899013aca6c00ac59a933450dd7d119b",
          "blockNumber": "0x1653732",
          "transactionHash": "0x38754b6dfb141c5d7b798cf2a6f19edd8fd385a4c52660bd073c05fe4adebc5c",
          "transactionIndex": "0x9",
          "logIndex": "0x5f",
          "removed": false
        },
        {
          "address": "0x2e180501d3d68241dd0318c68fd9be0af1d519a1",
          "topics": [
            "0xe523847b7270abe685bcbcb11a424b9030e5627e3d5770781dd5bbeb1ddee143",
            "0x0000000000000000000000000000000000000000000000000000000000000024",
            "0x0000000000000000000000000000000000000000000000000000000000000009",
            "0x00000000000000000000000012be474d127757d0a6a36631294f8ffbcdef44f8"
          ],
          "data": "0x000000000000000000000000000000000000000000000000000000000000000000000000000000000000000000000000000000000000000000000000000f42400000000000000000000000000000000000000000000000000000000000000000",
          "blockHash": "0xd2ad1cc63060da5337d362bf07800e20899013aca6c00ac59a933450dd7d119b",
          "blockNumber": "0x1653732",
          "transactionHash": "0x38754b6dfb141c5d7b798cf2a6f19edd8fd385a4c52660bd073c05fe4adebc5c",
          "transactionIndex": "0x9",
          "logIndex": "0x60",
          "removed": false
        }
      ],
      "logsBloom": "0x00002000040000000000000000000000000010000000000000000000000000000000000000000000000001000000000000000000000000000000000000200000000000000000000000000008000000000000000000000000000000000000000800000000000800000000000000000000000000000000000000800010000000000000000000080000800000000008000000001000000000000400000000000000008000000002000000000000000000000000000000000000000000000000000000000002000000000000000100000000000000010000000000000000000000000000020000000000000000000020000000000000000010000000000000800000",
      "type": "0x2",
      "transactionHash": "0x38754b6dfb141c5d7b798cf2a6f19edd8fd385a4c52660bd073c05fe4adebc5c",
      "transactionIndex": "0x9",
      "blockHash": "0xd2ad1cc63060da5337d362bf07800e20899013aca6c00ac59a933450dd7d119b",
      "blockNumber": "0x1653732",
      "gasUsed": "0x6346f",
      "effectiveGasPrice": "0xf5deb",
      "from": "0x12be474d127757d0a6a36631294f8ffbcdef44f8",
      "to": "0x2e180501d3d68241dd0318c68fd9be0af1d519a1",
      "contractAddress": null,
      "l1BaseFeeScalar": "0x44d",
      "l1BlobBaseFee": "0x1",
      "l1BlobBaseFeeScalar": "0xa118b",
      "l1Fee": "0x2d698b2",
      "l1GasPrice": "0x19c769f",
      "l1GasUsed": "0x640"
    },
    {
      "status": "0x1",
      "cumulativeGasUsed": "0x141e607",
      "logs": [
        {
          "address": "0x2e180501d3d68241dd0318c68fd9be0af1d519a1",
          "topics": [
            "0xaf7faf29a251efa1bcf2b47dab1a72baa0906a2e4ff957e6cb6d4f7c642161ab",
            "0x0000000000000000000000000000000000000000000000000000000000000007"
          ],
          "data": "0x0000000000000000000000000000000000000000000000000000000000000000",
          "blockHash": "0x20125797dcf1c425c89cb82973ee4bad4c8026daa5a1261b27cf48eb835f509b",
          "blockNumber": "0x1653733",
          "transactionHash": "0x671824ee0f12b9449e23fb2ab7110a75a4f4aae6e040582652179bc32a6b8ece",
          "transactionIndex": "0x42",
          "logIndex": "0x20a",
          "removed": false
        },
        {
          "address": "0x2e180501d3d68241dd0318c68fd9be0af1d519a1",
          "topics": [
            "0x71bf4dbc735bb7b341dcea9720315ff68bb3c8f5548eed9966947402c6187601",
            "0x0000000000000000000000000000000000000000000000000000000000000016",
            "0x0000000000000000000000000000000000000000000000000000000000000007",
            "0x0000000000000000000000004e5dc9df946500b07e9c66e4dd29bf9cd062002b"
          ],
          "data": "0x000000000000000000000000000000000000000000000000000000000038b49a0000000000000000000000000000000000000000000000000000000000000000",
          "blockHash": "0x20125797dcf1c425c89cb82973ee4bad4c8026daa5a1261b27cf48eb835f509b",
          "blockNumber": "0x1653733",
          "transactionHash": "0x671824ee0f12b9449e23fb2ab7110a75a4f4aae6e040582652179bc32a6b8ece",
          "transactionIndex": "0x42",
          "logIndex": "0x20b",
          "removed": false
        },
        {
          "address": "0x2e180501d3d68241dd0318c68fd9be0af1d519a1",
          "topics": [
            "0x71bf4dbc735bb7b341dcea9720315ff68bb3c8f5548eed9966947402c6187601",
            "0x0000000000000000000000000000000000000000000000000000000000000022",
            "0x0000000000000000000000000000000000000000000000000000000000000007",
            "0x00000000000000000000000012be474d127757d0a6a36631294f8ffbcdef44f8"
          ],
          "data": "0x00000000000000000000000000000000000000000000000000000000005e82560000000000000000000000000000000000000000000000000000000000000000",
          "blockHash": "0x20125797dcf1c425c89cb82973ee4bad4c8026daa5a1261b27cf48eb835f509b",
          "blockNumber": "0x1653733",
          "transactionHash": "0x671824ee0f12b9449e23fb2ab7110a75a4f4aae6e040582652179bc32a6b8ece",
          "transactionIndex": "0x42",
          "logIndex": "0x20c",
          "removed": false
        }
      ],
      "logsBloom": "0x00000000000000000000000000000000000410000000000000000000000000000000000000000000000001000000000000001000000000200000000000000000200020000000000800000000000000000000000000000000000000000000000000000000000000000000000000000000200000000000000000800000000000000000020000000000004000000000000000000000000000000000004004000000008000000000000000000000000000000000000000000000000040000000000000010000020000000000000100000000000000000000800000000100000000080000020000000000000000000000000000000000000000000008000000000000",
      "type": "0x2",
      "transactionHash": "0x671824ee0f12b9449e23fb2ab7110a75a4f4aae6e040582652179bc32a6b8ece",
      "transactionIndex": "0x42",
      "blockHash": "0x20125797dcf1c425c89cb82973ee4bad4c8026daa5a1261b27cf48eb835f509b",
      "blockNumber": "0x1653733",
      "gasUsed": "0x37e57",
      "effectiveGasPrice": "0xf5dee",
      "from": "0x7956c2c1b85f5ac14c2c537f669b65991428e268",
      "to": "0x2e180501d3d68241dd0318c68fd9be0af1d519a1",
      "contractAddress": null,
      "l1BaseFeeScalar": "0x44d",
      "l1BlobBaseFee": "0x1",
      "l1BlobBaseFeeScalar": "0xa118b",
      "l1Fee": "0x2d698b2",
      "l1GasPrice": "0x19c769f",
      "l1GasUsed": "0x640"
    },
    {
      "status": "0x1",
      "cumulativeGasUsed": "0x40ad6",
      "logs": [
        {
          "address": "0x2e180501d3d68241dd0318c68fd9be0af1d519a1",
          "topics": [
            "0xaf7faf29a251efa1bcf2b47dab1a72baa0906a2e4ff957e6cb6d4f7c642161ab",
            "0x0000000000000000000000000000000000000000000000000000000000000008"
          ],
          "data": "0x0000000000000000000000000000000000000000000000000000000000000000",
          "blockHash": "0x9847b71907a613bfd1916940a1ed57f434be8fad363ad2e5786b2d741cb07e5e",
          "blockNumber": "0x1653735",
          "transactionHash": "0x6c21ecd4931448f1c5dfedd457c99a8a95dcc9ad9d2f25748098d920bef40029",
          "transactionIndex": "0x1",
          "logIndex": "0x0",
          "removed": false
        },
        {
          "address": "0x2e180501d3d68241dd0318c68fd9be0af1d519a1",
          "topics": [
            "0x71bf4dbc735bb7b341dcea9720315ff68bb3c8f5548eed9966947402c6187601",
            "0x000000000000000000000000000000000000000000000000000000000000001a",
            "0x0000000000000000000000000000000000000000000000000000000000000008",
            "0x00000000000000000000000067bfd0b42f5f39710b4e90301289f81eab6315da"
          ],
          "data": "0x0000000000000000000000000000000000000000000000000000000248c674200000000000000000000000000000000000000000000000000000000000000001",
          "blockHash": "0x9847b71907a613bfd1916940a1ed57f434be8fad363ad2e5786b2d741cb07e5e",
          "blockNumber": "0x1653735",
          "transactionHash": "0x6c21ecd4931448f1c5dfedd457c99a8a95dcc9ad9d2f25748098d920bef40029",
          "transactionIndex": "0x1",
          "logIndex": "0x1",
          "removed": false
        },
        {
          "address": "0x2e180501d3d68241dd0318c68fd9be0af1d519a1",
          "topics": [
            "0x71bf4dbc735bb7b341dcea9720315ff68bb3c8f5548eed9966947402c6187601",
            "0x0000000000000000000000000000000000000000000000000000000000000023",
            "0x0000000000000000000000000000000000000000000000000000000000000008",
            "0x00000000000000000000000012be474d127757d0a6a36631294f8ffbcdef44f8"
          ],
          "data": "0x000000000000000000000000000000000000000000000000000000000069d9a80000000000000000000000000000000000000000000000000000000000000000",
          "blockHash": "0x9847b71907a613bfd1916940a1ed57f434be8fad363ad2e5786b2d741cb07e5e",
          "blockNumber": "0x1653735",
          "transactionHash": "0x6c21ecd4931448f1c5dfedd457c99a8a95dcc9ad9d2f25748098d920bef40029",
          "transactionIndex": "0x1",
          "logIndex": "0x2",
          "removed": false
        }
      ],
      "logsBloom": "0x00000000000000000080000000000000000410000000000000000000000000000000000000000000000001000000000000000000000080a00000000000000000200000000000000000000000000000001800000000000000000000001000000000000000000000000000000000000000000000000000000000800000000000000080000000000000000000000000000000000000000200000000000004000000008000000000280000000000000000000000000000000000000040000000000040000000020000000000000100000000000000000000000000000000000000000000020000000000000000000000000000000000000004000000000000000000",
      "type": "0x2",
      "transactionHash": "0x6c21ecd4931448f1c5dfedd457c99a8a95dcc9ad9d2f25748098d920bef40029",
      "transactionIndex": "0x1",
      "blockHash": "0x9847b71907a613bfd1916940a1ed57f434be8fad363ad2e5786b2d741cb07e5e",
      "blockNumber": "0x1653735",
      "gasUsed": "0x33edf",
      "effectiveGasPrice": "0xf5e01",
      "from": "0x7956c2c1b85f5ac14c2c537f669b65991428e268",
      "to": "0x2e180501d3d68241dd0318c68fd9be0af1d519a1",
      "contractAddress": null,
      "l1BaseFeeScalar": "0x44d",
      "l1BlobBaseFee": "0x1",
      "l1BlobBaseFeeScalar": "0xa118b",
      "l1Fee": "0x2a9518d",
      "l1GasPrice": "0x182c2ba",
      "l1GasUsed": "0x640"
    },
    {
      "status": "0x1",
      "cumulativeGasUsed": "0xe4e42",
      "logs": [
        {
          "address": "0x2e180501d3d68241dd0318c68fd9be0af1d519a1",
          "topics": [
            "0xaf7faf29a251efa1bcf2b47dab1a72baa0906a2e4ff957e6cb6d4f7c642161ab",
            "0x0000000000000000000000000000000000000000000000000000000000000009"
          ],
          "data": "0x0000000000000000000000000000000000000000000000000000000000000000",
          "blockHash": "0xa1321a9d6bf812e3405499293492cde8c92b2e1240b451ba45d58164a00f0c56",
          "blockNumber": "0x1653737",
          "transactionHash": "0xe4cae147daa5cff9d9986710f40eb2e829fdea3972dba10c180f2ff23c90ac64",
          "transactionIndex": "0x4",
          "logIndex": "0x12",
          "removed": false
        },
        {
          "address": "0x2e180501d3d68241dd0318c68fd9be0af1d519a1",
          "topics": [
            "0x71bf4dbc735bb7b341dcea9720315ff68bb3c8f5548eed9966947402c6187601",
            "0x0000000000000000000000000000000000000000000000000000000000000015",
            "0x0000000000000000000000000000000000000000000000000000000000000009",
            "0x0000000000000000000000004e5dc9df946500b07e9c66e4dd29bf9cd062002b"
          ],
          "data": "0x0000000000000000000000000000000000000000000000000000000248c674200000000000000000000000000000000000000000000000000000000000000001",
          "blockHash": "0xa1321a9d6bf812e3405499293492cde8c92b2e1240b451ba45d58164a00f0c56",
          "blockNumber": "0x1653737",
          "transactionHash": "0xe4cae147daa5cff9d9986710f40eb2e829fdea3972dba10c180f2ff23c90ac64",
          "transactionIndex": "0x4",
          "logIndex": "0x13",
          "removed": false
        }
      ],
      "logsBloom": "0x00000000000000000000000000000000000410000000000000000000000000000000000000000000000001000000000000000000000000200000000000200000201000000000000000000000000000000000000000000000000000000000000000000000000000000000000000000000000000000000000000000000000000000000000000000000004000000000000000001000000000000000000004000000000000000000000000000000010000000000000000000000000040000000000000010000020000000000000000000000000000000000800000000000000000002000020000000000000000000000000000000000000000000000000000800000",
      "type": "0x2",
      "transactionHash": "0xe4cae147daa5cff9d9986710f40eb2e829fdea3972dba10c180f2ff23c90ac64",
      "transactionIndex": "0x4",
      "blockHash": "0xa1321a9d6bf812e3405499293492cde8c92b2e1240b451ba45d58164a00f0c56",
      "blockNumber": "0x1653737",
      "gasUsed": "0x38aec",
      "effectiveGasPrice": "0xf5df4",
      "from": "0x7956c2c1b85f5ac14c2c537f669b65991428e268",
      "to": "0x2e180501d3d68241dd0318c68fd9be0af1d519a1",
      "contractAddress": null,
      "l1BaseFeeScalar": "0x44d",
      "l1BlobBaseFee": "0x1",
      "l1BlobBaseFeeScalar": "0xa118b",
      "l1Fee": "0x2a9518d",
      "l1GasPrice": "0x182c2ba",
      "l1GasUsed": "0x640"
    },
    {
      "status": "0x1",
      "cumulativeGasUsed": "0x118e31",
      "logs": [],
      "logsBloom": "0x00000000000000000000000000000000000000000000000000000000000000000000000000000000000000000000000000000000000000000000000000000000000000000000000000000000000000000000000000000000000000000000000000000000000000000000000000000000000000000000000000000000000000000000000000000000000000000000000000000000000000000000000000000000000000000000000000000000000000000000000000000000000000000000000000000000000000000000000000000000000000000000000000000000000000000000000000000000000000000000000000000000000000000000000000000000",
      "type": "0x2",
      "transactionHash": "0x7b293b46ee1101ec6def914f920bf32a96ffa44ecd25969e294f5fa736d439ee",
      "transactionIndex": "0x6",
      "blockHash": "0xa697910c69defb0c369ac365628f91d2108565ff0fee052b048f6cde16da6053",
      "blockNumber": "0x1653739",
      "gasUsed": "0xe214",
      "effectiveGasPrice": "0xf5deb",
      "from": "0x4e5dc9df946500b07e9c66e4dd29bf9cd062002b",
      "to": "0x2e180501d3d68241dd0318c68fd9be0af1d519a1",
      "contractAddress": null,
      "l1BaseFeeScalar": "0x44d",
      "l1BlobBaseFee": "0x1",
      "l1BlobBaseFeeScalar": "0xa118b",
      "l1Fee": "0x2d451be",
      "l1GasPrice": "0x182c2ba",
      "l1GasUsed": "0x6a4"
    },
    {
      "status": "0x1",
      "cumulativeGasUsed": "0xf1bec",
      "logs": [
        {
          "address": "0x036cbd53842c5426634e7929541ec2318f3dcf7e",
          "topics": [
            "0xddf252ad1be2c89b69c2b068fc378daa952ba7f163c4a11628f55a4df523b3ef",
            "0x0000000000000000000000002e180501d3d68241dd0318c68fd9be0af1d519a1",
            "0x0000000000000000000000004e5dc9df946500b07e9c66e4dd29bf9cd062002b"
          ],
          "data": "0x0000000000000000000000000000000000000000000000000000000000a2b16b",
          "blockHash": "0xdb9a68b10ee2fbdb2ea8dd22b09b574dfce02eedf29fca05791fbb5a41a7098a",
          "blockNumber": "0x165373b",
          "transactionHash": "0xaf5444f687adf5e1c5626e70ae28c9a2934173f6fbac55d677ff485af4b0571a",
          "transactionIndex": "0x6",
          "logIndex": "0x17",
          "removed": false
        },
        {
          "address": "0x2e180501d3d68241dd0318c68fd9be0af1d519a1",
          "topics": [
            "0x160fe0cc604b665554dd642ca246d28d4e9158d16008da789ab5b6462f594777",
            "0x0000000000000000000000004e5dc9df946500b07e9c66e4dd29bf9cd062002b"
          ],
          "data": "0x0000000000000000000000000000000000000000000000000000000000a2b16b0000000000000000000000000000000000000000000000000000000000000000",
          "blockHash": "0xdb9a68b10ee2fbdb2ea8dd22b09b574dfce02eedf29fca05791fbb5a41a7098a",
          "blockNumber": "0x165373b",
          "transactionHash": "0xaf5444f687adf5e1c5626e70ae28c9a2934173f6fbac55d677ff485af4b0571a",
          "transactionIndex": "0x6",
          "logIndex": "0x18",
          "removed": false
        }
      ],
      "logsBloom": "0x00000000040000000000000000000000800010000000000000000000000000000000000000000000000001000000000000000000000000010000000000000000000000000000000000000008000000000000000000000000000000000000000800000000010000000000000000000000000000000000000000000010000000000000000000080000804000000000000000000000000000000000000000000000000000000000000000000000000000000000000000000000000000000000000000010002000000000000000000000000000000010000800000000000000000000000020000000000000000000020000000000000000000000000000000000000",
      "type": "0x2",
      "transactionHash": "0xaf5444f687adf5e1c5626e70ae28c9a2934173f6fbac55d677ff485af4b0571a",
      "transactionIndex": "0x6",
      "blockHash": "0xdb9a68b10ee2fbdb2ea8dd22b09b574dfce02eedf29fca05791fbb5a41a7098a",
      "blockNumber": "0x165373b",
      "gasUsed": "0xd4b5",
      "effectiveGasPrice": "0xf5def",
      "from": "0x4e5dc9df946500b07e9c66e4dd29bf9cd062002b",
      "to": "0x2e180501d3d68241dd0318c68fd9be0af1d519a1",
      "contractAddress": null,
      "l1BaseFeeScalar": "0x44d",
      "l1BlobBaseFee": "0x1",
      "l1BlobBaseFeeScalar": "0xa118b",
      "l1Fee": "0x2a2633c",
      "l1GasPrice": "0x17ed382",
      "l1GasUsed": "0x640"
    },
    {
      "status": "0x1",
      "cumulativeGasUsed": "0x155c82",
      "logs": [
        {
          "address": "0xa373482b473e33b96412a6c0ca8b847e6bbb4d0d",
          "topics": [
            "0xddf252ad1be2c89b69c2b068fc378daa952ba7f163c4a11628f55a4df523b3ef",
            "0x0000000000000000000000002e180501d3d68241dd0318c68fd9be0af1d519a1",
            "0x0000000000000000000000004e5dc9df946500b07e9c66e4dd29bf9cd062002b"
          ],
          "data": "0x00000000000000000000000000000000000000000000000000000004ca1764fe",
          "blockHash": "0xaaa0ae5e2053e8cb8e81b74920bf7556641bb8b79d013decc6603e2d55bcbe57",
          "blockNumber": "0x165373d",
          "transactionHash": "0xfbf7625880b75a2e006a504d6c4a6d985999e91d6791fdb118a2895555016d11",
          "transactionIndex": "0x7",
          "logIndex": "0x12",
          "removed": false
        },
        {
          "address": "0x2e180501d3d68241dd0318c68fd9be0af1d519a1",
          "topics": [
            "0x160fe0cc604b665554dd642ca246d28d4e9158d16008da789ab5b6462f594777",
            "0x0000000000000000000000004e5dc9df946500b07e9c66e4dd29bf9cd062002b"
          ],
          "data": "0x00000000000000000000000000000000000000000000000000000004ca1764fe0000000000000000000000000000000000000000000000000000000000000001",
          "blockHash": "0xaaa0ae5e2053e8cb8e81b74920bf7556641bb8b79d013decc6603e2d55bcbe57",
          "blockNumber": "0x165373d",
          "transactionHash": "0xfbf7625880b75a2e006a504d6c4a6d985999e91d6791fdb118a2895555016d11",
          "transactionIndex": "0x7",
          "logIndex": "0x13",
          "removed": false
        }
      ],
      "logsBloom": "0x00000000000000000000000000000000800010000000000000000000000000000000000000000000000001000000000000000000000000010000000000000000000000000000000000000008000000000000000000200000000000000000000000000000010000000000000000000000000000000000000000000010000000000000000000081000804000000000000000000000000000000000000000000000000000000000000000000000000000000000000000000000000000000000000000010002000000000000000000000000000000010000800000100000000000000000020000000000000000000000000000000000000000000000000000000000",
      "type": "0x2",
      "transactionHash": "0xfbf7625880b75a2e006a504d6c4a6d985999e91d6791fdb118a2895555016d11",
      "transactionIndex": "0x7",
      "blockHash": "0xaaa0ae5e2053e8cb8e81b74920bf7556641bb8b79d013decc6603e2d55bcbe57",
      "blockNumber": "0x165373d",
      "gasUsed": "0xa7ab",
      "effectiveGasPrice": "0xf5e10",
      "from": "0x4e5dc9df946500b07e9c66e4dd29bf9cd062002b",
      "to": "0x2e180501d3d68241dd0318c68fd9be0af1d519a1",
      "contractAddress": null,
      "l1BaseFeeScalar": "0x44d",
      "l1BlobBaseFee": "0x1",
      "l1BlobBaseFeeScalar": "0xa118b",
      "l1Fee": "0x2a2633c",
      "l1GasPrice": "0x17ed382",
      "l1GasUsed": "0x640"
    },
    {
      "status": "0x1",
      "cumulativeGasUsed": "0x76d7cd",
      "logs": [],
      "logsBloom": "0x00000000000000000000000000000000000000000000000000000000000000000000000000000000000000000000000000000000000000000000000000000000000000000000000000000000000000000000000000000000000000000000000000000000000000000000000000000000000000000000000000000000000000000000000000000000000000000000000000000000000000000000000000000000000000000000000000000000000000000000000000000000000000000000000000000000000000000000000000000000000000000000000000000000000000000000000000000000000000000000000000000000000000000000000000000000",
      "type": "0x2",
      "transactionHash": "0x2b6f976608929c92cb621cc94086e4ca570128747ba76477242c367b00866e66",
      "transactionIndex": "0x28",
      "blockHash": "0x5d33620797783633271f5a2359c5e500ec8dc67998b797f7d072d5a4e70daefc",
      "blockNumber": "0x165373e",
      "gasUsed": "0xe214",
      "effectiveGasPrice": "0xf5e11",
      "from": "0x67bfd0b42f5f39710b4e90301289f81eab6315da",
      "to": "0x2e180501d3d68241dd0318c68fd9be0af1d519a1",
      "contractAddress": null,
      "l1BaseFeeScalar": "0x44d",
      "l1BlobBaseFee": "0x1",
      "l1BlobBaseFeeScalar": "0xa118b",
      "l1Fee": "0x2c74f48",
      "l1GasPrice": "0x17ed382",
      "l1GasUsed": "0x697"
    },
    {
      "status": "0x1",
      "cumulativeGasUsed": "0x7eb978",
      "logs": [
        {
          "address": "0x036cbd53842c5426634e7929541ec2318f3dcf7e",
          "topics": [
            "0xddf252ad1be2c89b69c2b068fc378daa952ba7f163c4a11628f55a4df523b3ef",
            "0x0000000000000000000000002e180501d3d68241dd0318c68fd9be0af1d519a1",
            "0x00000000000000000000000067bfd0b42f5f39710b4e90301289f81eab6315da"
          ],
          "data": "0x00000000000000000000000000000000000000000000000000000000004c4b40",
          "blockHash": "0x03f2f124fdb01e0496114cd3cc2471d26553d428ae26903397b7e03bdd34b610",
          "blockNumber": "0x165373f",
          "transactionHash": "0x0cf0130abb6864187057e6fd7e1fb057bcc7652de815f3ffac6e0891acfd7b22",
          "transactionIndex": "0x21",
          "logIndex": "0xe3",
          "removed": false
        },
        {
          "address": "0x2e180501d3d68241dd0318c68fd9be0af1d519a1",
          "topics": [
            "0x160fe0cc604b665554dd642ca246d28d4e9158d16008da789ab5b6462f594777",
            "0x00000000000000000000000067bfd0b42f5f39710b4e90301289f81eab6315da"
          ],
          "data": "0x00000000000000000000000000000000000000000000000000000000004c4b400000000000000000000000000000000000000000000000000000000000000000",
          "blockHash": "0x03f2f124fdb01e0496114cd3cc2471d26553d428ae26903397b7e03bdd34b610",
          "blockNumber": "0x165373f",
          "transactionHash": "0x0cf0130abb6864187057e6fd7e1fb057bcc7652de815f3ffac6e0891acfd7b22",
          "transactionIndex": "0x21",
          "logIndex": "0xe4",
          "removed": false
        }
      ],
      "logsBloom": "0x00000000040000000080000000000000800010000000000000000000000000000000000000000000000001000000000000000000000000010000000000000000000000000000000000000008000000000000000000000000000000000000000800000000010000000000000000000000000000000000000000000010000000000000000000080000800000000000000000000000000000000000000000000000000000000000280000000000000000000000000000000000000000000000000000000002000000000000000000000000000000010000000000000000000000000000020000000000000000000020000000000000000000000000000000000000",
      "type": "0x2",
      "transactionHash": "0x0cf0130abb6864187057e6fd7e1fb057bcc7652de815f3ffac6e0891acfd7b22",
      "transactionIndex": "0x21",
      "blockHash": "0x03f2f124fdb01e0496114cd3cc2471d26553d428ae26903397b7e03bdd34b610",
      "blockNumber": "0x165373f",
      "gasUsed": "0xd4b5",
      "effectiveGasPrice": "0xf5e04",
      "from": "0x67bfd0b42f5f39710b4e90301289f81eab6315da",
      "to": "0x2e180501d3d68241dd0318c68fd9be0af1d519a1",
      "contractAddress": null,
      "l1BaseFeeScalar": "0x44d",
      "l1BlobBaseFee": "0x1",
      "l1BlobBaseFeeScalar": "0xa118b",
      "l1Fee": "0x2a2633c",
      "l1GasPrice": "0x17ed382",
      "l1GasUsed": "0x640"
    },
    {
      "status": "0x1",
      "cumulativeGasUsed": "0x9bb38b",
      "logs": [
        {
          "address": "0xa373482b473e33b96412a6c0ca8b847e6bbb4d0d",
          "topics": [
            "0xddf252ad1be2c89b69c2b068fc378daa952ba7f163c4a11628f55a4df523b3ef",
            "0x0000000000000000000000002e180501d3d68241dd0318c68fd9be0af1d519a1",
            "0x00000000000000000000000067bfd0b42f5f39710b4e90301289f81eab6315da"
          ],
          "data": "0x00000000000000000000000000000000000000000000000000000003c048d31f",
          "blockHash": "0xf83c5c133dd94c7ced702c75d99a9c54befe76e9f724f505162d3b8a6888ef50",
          "blockNumber": "0x1653740",
          "transactionHash": "0x98a01933fe39e020a37193d48e957d3df3e9e70d86a020130af0d6597f75fc89",
          "transactionIndex": "0x26",
          "logIndex": "0x10d",
          "removed": false
        },
        {
          "address": "0x2e180501d3d68241dd0318c68fd9be0af1d519a1",
          "topics": [
            "0x160fe0cc604b665554dd642ca246d28d4e9158d16008da789ab5b6462f594777",
            "0x00000000000000000000000067bfd0b42f5f39710b4e90301289f81eab6315da"
          ],
          "data": "0x00000000000000000000000000000000000000000000000000000003c048d31f0000000000000000000000000000000000000000000000000000000000000001",
          "blockHash": "0xf83c5c133dd94c7ced702c75d99a9c54befe76e9f724f505162d3b8a6888ef50",
          "blockNumber": "0x1653740",
          "transactionHash": "0x98a01933fe39e020a37193d48e957d3df3e9e70d86a020130af0d6597f75fc89",
          "transactionIndex": "0x26",
          "logIndex": "0x10e",
          "removed": false
        }
      ],
      "logsBloom": "0x00000000000000000080000000000000800010000000000000000000000000000000000000000000000001000000000000000000000000010000000000000000000000000000000000000008000000000000000000200000000000000000000000000000010000000000000000000000000000000000000000000010000000000000000000081000800000000000000000000000000000000000000000000000000000000000280000000000000000000000000000000000000000000000000000000002000000000000000000000000000000010000000000100000000000000000020000000000000000000000000000000000000000000000000000000000",
      "type": "0x2",
      "transactionHash": "0x98a01933fe39e020a37193d48e957d3df3e9e70d86a020130af0d6597f75fc89",
      "transactionIndex": "0x26",
      "blockHash": "0xf83c5c133dd94c7ced702c75d99a9c54befe76e9f724f505162d3b8a6888ef50",
      "blockNumber": "0x1653740",
      "gasUsed": "0xa7ab",
      "effectiveGasPrice": "0xf5dfb",
      "from": "0x67bfd0b42f5f39710b4e90301289f81eab6315da",
      "to": "0x2e180501d3d68241dd0318c68fd9be0af1d519a1",
      "contractAddress": null,
      "l1BaseFeeScalar": "0x44d",
      "l1BlobBaseFee": "0x1",
      "l1BlobBaseFeeScalar": "0xa118b",
      "l1Fee": "0x2a2633c",
      "l1GasPrice": "0x17ed382",
      "l1GasUsed": "0x640"
    },
    {
      "status": "0x1",
      "cumulativeGasUsed": "0xaa6a9a",
      "logs": [],
      "logsBloom": "0x00000000000000000000000000000000000000000000000000000000000000000000000000000000000000000000000000000000000000000000000000000000000000000000000000000000000000000000000000000000000000000000000000000000000000000000000000000000000000000000000000000000000000000000000000000000000000000000000000000000000000000000000000000000000000000000000000000000000000000000000000000000000000000000000000000000000000000000000000000000000000000000000000000000000000000000000000000000000000000000000000000000000000000000000000000000",
      "type": "0x2",
      "transactionHash": "0x206c7a6b9911525651b527ea9fd8c44e0adf0d2f4e07eaf39692adf5269f3025",
      "transactionIndex": "0x27",
      "blockHash": "0x337faab0b3114544b4f0841ea5c3faf8af20818ce09bfb89836f43d8421c5791",
      "blockNumber": "0x1653741",
      "gasUsed": "0xe214",
      "effectiveGasPrice": "0xf5df8",
      "from": "0x12be474d127757d0a6a36631294f8ffbcdef44f8",
      "to": "0x2e180501d3d68241dd0318c68fd9be0af1d519a1",
      "contractAddress": null,
      "l1BaseFeeScalar": "0x44d",
      "l1BlobBaseFee": "0x1",
      "l1BlobBaseFeeScalar": "0xa118b",
      "l1Fee": "0x2c2159f",
      "l1GasPrice": "0x18876d7",
      "l1GasUsed": "0x662"
    },
    {
      "status": "0x1",
      "cumulativeGasUsed": "0x7e173",
      "logs": [
        {
          "address": "0x036cbd53842c5426634e7929541ec2318f3dcf7e",
          "topics": [
            "0xddf252ad1be2c89b69c2b068fc378daa952ba7f163c4a11628f55a4df523b3ef",
            "0x0000000000000000000000002e180501d3d68241dd0318c68fd9be0af1d519a1",
            "0x00000000000000000000000012be474d127757d0a6a36631294f8ffbcdef44f8"
          ],
          "data": "0x00000000000000000000000000000000000000000000000000000000015fb617",
          "blockHash": "0x14d9a90593bdaf2ceb655b4d9d227e251fe14fee962abb2dd1db3f678c089ab0",
          "blockNumber": "0x1653743",
          "transactionHash": "0x283babec1b2eb94acd12c481065b0548b051f5aea2fe4e1c80ba30a7a6ce554c",
          "transactionIndex": "0x3",
          "logIndex": "0x1",
          "removed": false
        },
        {
          "address": "0x2e180501d3d68241dd0318c68fd9be0af1d519a1",
          "topics": [
            "0x160fe0cc604b665554dd642ca246d28d4e9158d16008da789ab5b6462f594777",
            "0x00000000000000000000000012be474d127757d0a6a36631294f8ffbcdef44f8"
          ],
          "data": "0x00000000000000000000000000000000000000000000000000000000015fb6170000000000000000000000000000000000000000000000000000000000000000",
          "blockHash": "0x14d9a90593bdaf2ceb655b4d9d227e251fe14fee962abb2dd1db3f678c089ab0",
          "blockNumber": "0x1653743",
          "transactionHash": "0x283babec1b2eb94acd12c481065b0548b051f5aea2fe4e1c80ba30a7a6ce554c",
          "transactionIndex": "0x3",
          "logIndex": "0x2",
          "removed": false
        }
      ],
      "logsBloom": "0x00000000040000000000000000000000800010000000000000000000000000000000000000000000000001000000000000000000000000010000000000000000000000000000000000000008000000000000000000000000000000000000000800000000010000000000000000000000000000000000000000800010000000000000000000080000800000000000000000000000000000000000000000000000008000000000000000000000000000000000000000000000000000000000000000000002000000000000000100000000000000010000000000000000000000000000020000000000000000000020000000000000000000000000000000000000",
      "type": "0x2",
      "transactionHash": "0x283babec1b2eb94acd12c481065b0548b051f5aea2fe4e1c80ba30a7a6ce554c",
      "transactionIndex": "0x3",
      "blockHash": "0x14d9a90593bdaf2ceb655b4d9d227e251fe14fee962abb2dd1db3f678c089ab0",
      "blockNumber": "0x1653743",
      "gasUsed": "0xd4c1",
      "effectiveGasPrice": "0xf5df6",
      "from": "0x12be474d127757d0a6a36631294f8ffbcdef44f8",
      "to": "0x2e180501d3d68241dd0318c68fd9be0af1d519a1",
      "contractAddress": null,
      "l1BaseFeeScalar": "0x44d",
      "l1BlobBaseFee": "0x1",
      "l1BlobBaseFeeScalar": "0xa118b",
      "l1Fee": "0x2b35db0",
      "l1GasPrice": "0x18876d7",
      "l1GasUsed": "0x640"
    },
    {
      "status": "0x1",
      "cumulativeGasUsed": "0xc6f60",
      "logs": [
        {
          "address": "0xa373482b473e33b96412a6c0ca8b847e6bbb4d0d",
          "topics": [
            "0xddf252ad1be2c89b69c2b068fc378daa952ba7f163c4a11628f55a4df523b3ef",
            "0x0000000000000000000000002e180501d3d68241dd0318c68fd9be0af1d519a1",
            "0x00000000000000000000000012be474d127757d0a6a36631294f8ffbcdef44f8"
          ],
          "data": "0x000000000000000000000000000000000000000000000000000000028150f0de",
          "blockHash": "0x5913aa6dff67aa51c2be08d6f072b67d9e03817467da85705c07b7001e6fa5a2",
          "blockNumber": "0x1653745",
          "transactionHash": "0x6f916c7e4ea862b45e9e6701fa593847dbcbde2c67697babd19a909b50db52ae",
          "transactionIndex": "0x4",
          "logIndex": "0x3",
          "removed": false
        },
        {
          "address": "0x2e180501d3d68241dd0318c68fd9be0af1d519a1",
          "topics": [
            "0x160fe0cc604b665554dd642ca246d28d4e9158d16008da789ab5b6462f594777",
            "0x00000000000000000000000012be474d127757d0a6a36631294f8ffbcdef44f8"
          ],
          "data": "0x000000000000000000000000000000000000000000000000000000028150f0de0000000000000000000000000000000000000000000000000000000000000001",
          "blockHash": "0x5913aa6dff67aa51c2be08d6f072b67d9e03817467da85705c07b7001e6fa5a2",
          "blockNumber": "0x1653745",
          "transactionHash": "0x6f916c7e4ea862b45e9e6701fa593847dbcbde2c67697babd19a909b50db52ae",
          "transactionIndex": "0x4",
          "logIndex": "0x4",
          "removed": false
        }
      ],
      "logsBloom": "0x00000000000000000000000000000000800010000000000000000000000000000000000000000000000001000000000000000000000000010000000000000000000000000000000000000008000000000000000000200000000000000000000000000000010000000000000000000000000000000000000000800010000000000000000000081000800000000000000000000000000000000000000000000000008000000000000000000000000000000000000000000000000000000000000000000002000000000000000100000000000000010000000000100000000000000000020000000000000000000000000000000000000000000000000000000000",
      "type": "0x2",
      "transactionHash": "0x6f916c7e4ea862b45e9e6701fa593847dbcbde2c67697babd19a909b50db52ae",
      "transactionIndex": "0x4",
      "blockHash": "0x5913aa6dff67aa51c2be08d6f072b67d9e03817467da85705c07b7001e6fa5a2",
      "blockNumber": "0x1653745",
      "gasUsed": "0xa7ab",
      "effectiveGasPrice": "0xf5de6",
      "from": "0x12be474d127757d0a6a36631294f8ffbcdef44f8",
      "to": "0x2e180501d3d68241dd0318c68fd9be0af1d519a1",
      "contractAddress": null,
      "l1BaseFeeScalar": "0x44d",
      "l1BlobBaseFee": "0x1",
      "l1BlobBaseFeeScalar": "0xa118b",
      "l1Fee": "0x2b35db0",
      "l1GasPrice": "0x18876d7",
      "l1GasUsed": "0x640"
    }
  ],
  "libraries": [],
  "pending": [],
  "returns": {},
  "timestamp": 1742589289,
  "chain": 84532,
  "commit": "634eede"
}