{
  "transactions": [
    {
      "hash": "0xe70f49991a36b8fb31a3f2e8ebaf88f9c29d3cd169b1014ff37a57056083c0e9",
      "transactionType": "CALL",
      "contractName": null,
      "contractAddress": "0x634afea4d8cbe4c1deb5b5fde992f92e92ad4214",
      "function": "mint(address,uint256)",
      "arguments": ["0x4E5dC9dF946500b07E9c66e4DD29bf9CD062002B", "10000000000"],
      "transaction": {
        "from": "0x7956c2c1b85f5ac14c2c537f669b65991428e268",
        "to": "0x634afea4d8cbe4c1deb5b5fde992f92e92ad4214",
        "gas": "0xc273",
        "value": "0x0",
        "input": "0x40c10f190000000000000000000000004e5dc9df946500b07e9c66e4dd29bf9cd062002b00000000000000000000000000000000000000000000000000000002540be400",
        "nonce": "0xa35",
        "chainId": "0x14a34"
      },
      "additionalContracts": [],
      "isFixedGasLimit": false
    },
    {
      "hash": "0x37f5f4e5eb13eca75bb3948d00c7c4fad8cecfb25d09ff0e94e0813e39e92dc6",
      "transactionType": "CALL",
      "contractName": null,
      "contractAddress": "0x634afea4d8cbe4c1deb5b5fde992f92e92ad4214",
      "function": "mint(address,uint256)",
      "arguments": ["0x67bFd0B42F5f39710B4E90301289F81Eab6315dA", "10000000000"],
      "transaction": {
        "from": "0x7956c2c1b85f5ac14c2c537f669b65991428e268",
        "to": "0x634afea4d8cbe4c1deb5b5fde992f92e92ad4214",
        "gas": "0xc295",
        "value": "0x0",
        "input": "0x40c10f1900000000000000000000000067bfd0b42f5f39710b4e90301289f81eab6315da00000000000000000000000000000000000000000000000000000002540be400",
        "nonce": "0xa36",
        "chainId": "0x14a34"
      },
      "additionalContracts": [],
      "isFixedGasLimit": false
    },
    {
      "hash": "0x4e819dc959f69847290c478d139549157185bc8f8b80370972eda7e1e372df72",
      "transactionType": "CALL",
      "contractName": null,
      "contractAddress": "0x634afea4d8cbe4c1deb5b5fde992f92e92ad4214",
      "function": "mint(address,uint256)",
      "arguments": ["0x12BE474D127757d0a6a36631294F8FfBCdeF44F8", "10000000000"],
      "transaction": {
        "from": "0x7956c2c1b85f5ac14c2c537f669b65991428e268",
        "to": "0x634afea4d8cbe4c1deb5b5fde992f92e92ad4214",
        "gas": "0xc295",
        "value": "0x0",
        "input": "0x40c10f1900000000000000000000000012be474d127757d0a6a36631294f8ffbcdef44f800000000000000000000000000000000000000000000000000000002540be400",
        "nonce": "0xa37",
        "chainId": "0x14a34"
      },
      "additionalContracts": [],
      "isFixedGasLimit": false
    },
    {
      "hash": "0x2d13a0afcfb2d3f02386a3f2432d81afdf4b9dbd061b749941d702ea613833b6",
      "transactionType": "CALL",
      "contractName": null,
      "contractAddress": "0x9202a8ee7c3e3926352a3f713e6e86952c2232fb",
      "function": "createPool((string,string[2],uint40,string,string,string,string))",
      "arguments": [
        "(Will I PARDON MYSELF? The RADICAL LEFT is TERRIFIED of this!, [YES, NO], 1743974910, This pool will close if Trump posts that he will pardon himself, Grade YES if Trump posts about pardoning himself, NO otherwise, 114197092205719557, https://external-content.duckduckgo.com/iu/?u=https%3A%2F%2Fa57.foxnews.com%2Fstatic.foxnews.com%2Ffoxnews.com%2Fcontent%2Fuploads%2F2024%2F03%2F1200%2F675%2FGettyImages-2046568057.jpg%3Fve%3D1%26tl%3D1&f=1&nofb=1&ipt=024458203d063e012384059b488227e0952a1ab564494040c9d0d182b6466965&ipo=images)"
      ],
      "transaction": {
        "from": "0x7956c2c1b85f5ac14c2c537f669b65991428e268",
        "to": "0x9202a8ee7c3e3926352a3f713e6e86952c2232fb",
        "gas": "0xeefce",
        "value": "0x0",
        "input": "0x496670a7000000000000000000000000000000000000000000000000000000000000002000000000000000000000000000000000000000000000000000000000000000e000000000000000000000000000000000000000000000000000000000000001400000000000000000000000000000000000000000000000000000000067f2f1fe0000000000000000000000000000000000000000000000000000000000000200000000000000000000000000000000000000000000000000000000000000026000000000000000000000000000000000000000000000000000000000000002c00000000000000000000000000000000000000000000000000000000000000300000000000000000000000000000000000000000000000000000000000000003c57696c6c204920504152444f4e204d5953454c463f20546865205241444943414c204c45465420697320544552524946494544206f6620746869732100000000000000000000000000000000000000000000000000000000000000000000004000000000000000000000000000000000000000000000000000000000000000800000000000000000000000000000000000000000000000000000000000000003594553000000000000000000000000000000000000000000000000000000000000000000000000000000000000000000000000000000000000000000000000024e4f000000000000000000000000000000000000000000000000000000000000000000000000000000000000000000000000000000000000000000000000003f5468697320706f6f6c2077696c6c20636c6f7365206966205472756d7020706f73747320746861742068652077696c6c20706172646f6e2068696d73656c6600000000000000000000000000000000000000000000000000000000000000003e477261646520594553206966205472756d7020706f7374732061626f757420706172646f6e696e672068696d73656c662c204e4f206f7468657277697365000000000000000000000000000000000000000000000000000000000000000000123131343139373039323230353731393535370000000000000000000000000000000000000000000000000000000000000000000000000000000000000000012568747470733a2f2f65787465726e616c2d636f6e74656e742e6475636b6475636b676f2e636f6d2f69752f3f753d68747470732533412532462532466135372e666f786e6577732e636f6d2532467374617469632e666f786e6577732e636f6d253246666f786e6577732e636f6d253246636f6e74656e7425324675706c6f616473253246323032342532463033253246313230302532463637352532464765747479496d616765732d323034363536383035372e6a7067253346766525334431253236746c2533443126663d31266e6f66623d31266970743d303234343538323033643036336530313233383430353962343838323237653039353261316162353634343934303430633964306431383262363436363936352669706f3d696d61676573000000000000000000000000000000000000000000000000000000",
        "nonce": "0xa38",
        "chainId": "0x14a34"
      },
      "additionalContracts": [],
      "isFixedGasLimit": false
    },
    {
      "hash": "0x3fb2ca7facb4e8d2f809a7fd3006f310f20310cf643b69fb2872574632b19750",
      "transactionType": "CALL",
      "contractName": null,
      "contractAddress": "0x9202a8ee7c3e3926352a3f713e6e86952c2232fb",
      "function": "createPool((string,string[2],uint40,string,string,string,string))",
      "arguments": [
        "(Will I FIRE THE FBI DIRECTOR on day one? The FBI has been WEAPONIZED against us!, [YES, NO], 1743974910, This pool will close if Trump makes a statement about the FBI Director, Grade YES if Trump says he will fire the FBI Director, NO otherwise, 114200175082806882, https://external-content.duckduckgo.com/iu/?u=https%3A%2F%2Fa57.foxnews.com%2Fstatic.foxnews.com%2Ffoxnews.com%2Fcontent%2Fuploads%2F2024%2F03%2F1200%2F675%2FGettyImages-2046568057.jpg%3Fve%3D1%26tl%3D1&f=1&nofb=1&ipt=024458203d063e012384059b488227e0952a1ab564494040c9d0d182b6466965&ipo=images)"
      ],
      "transaction": {
        "from": "0x7956c2c1b85f5ac14c2c537f669b65991428e268",
        "to": "0x9202a8ee7c3e3926352a3f713e6e86952c2232fb",
        "gas": "0x107504",
        "value": "0x0",
        "input": "0x496670a7000000000000000000000000000000000000000000000000000000000000002000000000000000000000000000000000000000000000000000000000000000e000000000000000000000000000000000000000000000000000000000000001600000000000000000000000000000000000000000000000000000000067f2f1fe000000000000000000000000000000000000000000000000000000000000022000000000000000000000000000000000000000000000000000000000000002a000000000000000000000000000000000000000000000000000000000000003200000000000000000000000000000000000000000000000000000000000000360000000000000000000000000000000000000000000000000000000000000005057696c6c204920464952452054484520464249204449524543544f52206f6e20646179206f6e653f205468652046424920686173206265656e20574541504f4e495a454420616761696e73742075732100000000000000000000000000000000000000000000000000000000000000000000000000000000000000000000004000000000000000000000000000000000000000000000000000000000000000800000000000000000000000000000000000000000000000000000000000000003594553000000000000000000000000000000000000000000000000000000000000000000000000000000000000000000000000000000000000000000000000024e4f00000000000000000000000000000000000000000000000000000000000000000000000000000000000000000000000000000000000000000000000000465468697320706f6f6c2077696c6c20636c6f7365206966205472756d70206d616b657320612073746174656d656e742061626f75742074686520464249204469726563746f7200000000000000000000000000000000000000000000000000000000000000000000000000000000000000000000000000000000000000000043477261646520594553206966205472756d7020736179732068652077696c6c20666972652074686520464249204469726563746f722c204e4f206f7468657277697365000000000000000000000000000000000000000000000000000000000000000000000000000000000000000000000000000000000000000000000000123131343230303137353038323830363838320000000000000000000000000000000000000000000000000000000000000000000000000000000000000000012568747470733a2f2f65787465726e616c2d636f6e74656e742e6475636b6475636b676f2e636f6d2f69752f3f753d68747470732533412532462532466135372e666f786e6577732e636f6d2532467374617469632e666f786e6577732e636f6d253246666f786e6577732e636f6d253246636f6e74656e7425324675706c6f616473253246323032342532463033253246313230302532463637352532464765747479496d616765732d323034363536383035372e6a7067253346766525334431253236746c2533443126663d31266e6f66623d31266970743d303234343538323033643036336530313233383430353962343838323237653039353261316162353634343934303430633964306431383262363436363936352669706f3d696d61676573000000000000000000000000000000000000000000000000000000",
        "nonce": "0xa39",
        "chainId": "0x14a34"
      },
      "additionalContracts": [],
      "isFixedGasLimit": false
    },
    {
      "hash": "0x3d5048969f4feff3500d4962aee665f7d2ce537cfe5dd219bb2e85d23850be6a",
      "transactionType": "CALL",
      "contractName": null,
      "contractAddress": "0x9202a8ee7c3e3926352a3f713e6e86952c2232fb",
      "function": "createPool((string,string[2],uint40,string,string,string,string))",
      "arguments": [
        "(Will I WIN the debate against SLEEPY JOE? Everyone knows I won the last one BIGLY!, [YES, NO], 1743974910, This pool will close after the presidential debate, Grade YES if Trump wins the debate, NO otherwise, 114200313009802638, https://external-content.duckduckgo.com/iu/?u=https%3A%2F%2Fa57.foxnews.com%2Fstatic.foxnews.com%2Ffoxnews.com%2Fcontent%2Fuploads%2F2024%2F03%2F1200%2F675%2FGettyImages-2046568057.jpg%3Fve%3D1%26tl%3D1&f=1&nofb=1&ipt=024458203d063e012384059b488227e0952a1ab564494040c9d0d182b6466965&ipo=images)"
      ],
      "transaction": {
        "from": "0x7956c2c1b85f5ac14c2c537f669b65991428e268",
        "to": "0x9202a8ee7c3e3926352a3f713e6e86952c2232fb",
        "gas": "0xf708f",
        "value": "0x0",
        "input": "0x496670a7000000000000000000000000000000000000000000000000000000000000002000000000000000000000000000000000000000000000000000000000000000e000000000000000000000000000000000000000000000000000000000000001600000000000000000000000000000000000000000000000000000000067f2f1fe0000000000000000000000000000000000000000000000000000000000000220000000000000000000000000000000000000000000000000000000000000028000000000000000000000000000000000000000000000000000000000000002e00000000000000000000000000000000000000000000000000000000000000320000000000000000000000000000000000000000000000000000000000000005257696c6c20492057494e207468652064656261746520616761696e737420534c45455059204a4f453f2045766572796f6e65206b6e6f7773204920776f6e20746865206c617374206f6e65204249474c59210000000000000000000000000000000000000000000000000000000000000000000000000000000000000000004000000000000000000000000000000000000000000000000000000000000000800000000000000000000000000000000000000000000000000000000000000003594553000000000000000000000000000000000000000000000000000000000000000000000000000000000000000000000000000000000000000000000000024e4f00000000000000000000000000000000000000000000000000000000000000000000000000000000000000000000000000000000000000000000000000325468697320706f6f6c2077696c6c20636c6f73652061667465722074686520707265736964656e7469616c2064656261746500000000000000000000000000000000000000000000000000000000000000000000000000000000000000000030477261646520594553206966205472756d702077696e7320746865206465626174652c204e4f206f74686572776973650000000000000000000000000000000000000000000000000000000000000000000000000000000000000000000000123131343230303331333030393830323633380000000000000000000000000000000000000000000000000000000000000000000000000000000000000000012568747470733a2f2f65787465726e616c2d636f6e74656e742e6475636b6475636b676f2e636f6d2f69752f3f753d68747470732533412532462532466135372e666f786e6577732e636f6d2532467374617469632e666f786e6577732e636f6d253246666f786e6577732e636f6d253246636f6e74656e7425324675706c6f616473253246323032342532463033253246313230302532463637352532464765747479496d616765732d323034363536383035372e6a7067253346766525334431253236746c2533443126663d31266e6f66623d31266970743d303234343538323033643036336530313233383430353962343838323237653039353261316162353634343934303430633964306431383262363436363936352669706f3d696d61676573000000000000000000000000000000000000000000000000000000",
        "nonce": "0xa3a",
        "chainId": "0x14a34"
      },
      "additionalContracts": [],
      "isFixedGasLimit": false
    },
    {
      "hash": null,
      "transactionType": "CALL",
      "contractName": null,
      "contractAddress": "0x634afea4d8cbe4c1deb5b5fde992f92e92ad4214",
      "function": "approve(address,uint256)",
      "arguments": ["0x9202A8Ee7C3E3926352A3f713e6E86952c2232FB", "101020000000000"],
      "transaction": {
        "from": "0x4e5dc9df946500b07e9c66e4dd29bf9cd062002b",
        "to": "0x634afea4d8cbe4c1deb5b5fde992f92e92ad4214",
        "gas": "0xf7fe",
        "value": "0x0",
        "input": "0x095ea7b30000000000000000000000009202a8ee7c3e3926352a3f713e6e86952c2232fb00000000000000000000000000000000000000000000000000005be08d371800",
        "nonce": "0xb659",
        "chainId": "0x14a34"
      },
      "additionalContracts": [],
      "isFixedGasLimit": false
    },
    {
      "hash": null,
      "transactionType": "CALL",
      "contractName": null,
      "contractAddress": "0x036cbd53842c5426634e7929541ec2318f3dcf7e",
      "function": "approve(address,uint256)",
      "arguments": ["0x9202A8Ee7C3E3926352A3f713e6E86952c2232FB", "484608251"],
      "transaction": {
        "from": "0x4e5dc9df946500b07e9c66e4dd29bf9cd062002b",
        "to": "0x036cbd53842c5426634e7929541ec2318f3dcf7e",
        "gas": "0x13cc6",
        "value": "0x0",
        "input": "0x095ea7b30000000000000000000000009202a8ee7c3e3926352a3f713e6e86952c2232fb000000000000000000000000000000000000000000000000000000001ce288fb",
        "nonce": "0xb65a",
        "chainId": "0x14a34"
      },
      "additionalContracts": [],
      "isFixedGasLimit": false
    },
    {
      "hash": null,
      "transactionType": "CALL",
      "contractName": null,
      "contractAddress": "0x9202a8ee7c3e3926352a3f713e6e86952c2232fb",
      "function": "placeBet(uint256,uint256,uint256,address,uint8)",
      "arguments": ["1", "1", "30305999999999", "0x4E5dC9dF946500b07E9c66e4DD29bf9CD062002B", "1"],
      "transaction": {
        "from": "0x4e5dc9df946500b07e9c66e4dd29bf9cd062002b",
        "to": "0x9202a8ee7c3e3926352a3f713e6e86952c2232fb",
        "gas": "0x826dc",
        "value": "0x0",
        "input": "0x011c4dd90000000000000000000000000000000000000000000000000000000000000001000000000000000000000000000000000000000000000000000000000000000100000000000000000000000000000000000000000000000000001b902a5d53ff0000000000000000000000004e5dc9df946500b07e9c66e4dd29bf9cd062002b0000000000000000000000000000000000000000000000000000000000000001",
        "nonce": "0xb65b",
        "chainId": "0x14a34"
      },
      "additionalContracts": [],
      "isFixedGasLimit": false
    },
    {
      "hash": null,
      "transactionType": "CALL",
      "contractName": null,
      "contractAddress": "0x9202a8ee7c3e3926352a3f713e6e86952c2232fb",
      "function": "placeBet(uint256,uint256,uint256,address,uint8)",
      "arguments": ["2", "0", "30305999999999", "0x4E5dC9dF946500b07E9c66e4DD29bf9CD062002B", "1"],
      "transaction": {
        "from": "0x4e5dc9df946500b07e9c66e4dd29bf9cd062002b",
        "to": "0x9202a8ee7c3e3926352a3f713e6e86952c2232fb",
        "gas": "0x6a7c1",
        "value": "0x0",
        "input": "0x011c4dd90000000000000000000000000000000000000000000000000000000000000002000000000000000000000000000000000000000000000000000000000000000000000000000000000000000000000000000000000000000000001b902a5d53ff0000000000000000000000004e5dc9df946500b07e9c66e4dd29bf9cd062002b0000000000000000000000000000000000000000000000000000000000000001",
        "nonce": "0xb65c",
        "chainId": "0x14a34"
      },
      "additionalContracts": [],
      "isFixedGasLimit": false
    },
    {
      "hash": null,
      "transactionType": "CALL",
      "contractName": null,
      "contractAddress": "0x9202a8ee7c3e3926352a3f713e6e86952c2232fb",
      "function": "placeBet(uint256,uint256,uint256,address,uint8)",
      "arguments": ["3", "1", "30305999999999", "0x4E5dC9dF946500b07E9c66e4DD29bf9CD062002B", "1"],
      "transaction": {
        "from": "0x4e5dc9df946500b07e9c66e4dd29bf9cd062002b",
        "to": "0x9202a8ee7c3e3926352a3f713e6e86952c2232fb",
        "gas": "0x797fe",
        "value": "0x0",
        "input": "0x011c4dd90000000000000000000000000000000000000000000000000000000000000003000000000000000000000000000000000000000000000000000000000000000100000000000000000000000000000000000000000000000000001b902a5d53ff0000000000000000000000004e5dc9df946500b07e9c66e4dd29bf9cd062002b0000000000000000000000000000000000000000000000000000000000000001",
        "nonce": "0xb65d",
        "chainId": "0x14a34"
      },
      "additionalContracts": [],
      "isFixedGasLimit": false
    },
    {
      "hash": null,
      "transactionType": "CALL",
      "contractName": null,
      "contractAddress": "0x9202a8ee7c3e3926352a3f713e6e86952c2232fb",
      "function": "placeBet(uint256,uint256,uint256,address,uint8)",
      "arguments": ["1", "0", "1000000", "0x4E5dC9dF946500b07E9c66e4DD29bf9CD062002B", "0"],
      "transaction": {
        "from": "0x4e5dc9df946500b07e9c66e4dd29bf9cd062002b",
        "to": "0x9202a8ee7c3e3926352a3f713e6e86952c2232fb",
        "gas": "0x6ba64",
        "value": "0x0",
        "input": "0x011c4dd90000000000000000000000000000000000000000000000000000000000000001000000000000000000000000000000000000000000000000000000000000000000000000000000000000000000000000000000000000000000000000000f42400000000000000000000000004e5dc9df946500b07e9c66e4dd29bf9cd062002b0000000000000000000000000000000000000000000000000000000000000000",
        "nonce": "0xb65e",
        "chainId": "0x14a34"
      },
      "additionalContracts": [],
      "isFixedGasLimit": false
    },
    {
      "hash": null,
      "transactionType": "CALL",
      "contractName": null,
      "contractAddress": "0x9202a8ee7c3e3926352a3f713e6e86952c2232fb",
      "function": "placeBet(uint256,uint256,uint256,address,uint8)",
      "arguments": ["2", "1", "4000000", "0x4E5dC9dF946500b07E9c66e4DD29bf9CD062002B", "0"],
      "transaction": {
        "from": "0x4e5dc9df946500b07e9c66e4dd29bf9cd062002b",
        "to": "0x9202a8ee7c3e3926352a3f713e6e86952c2232fb",
        "gas": "0x6e24d",
        "value": "0x0",
        "input": "0x011c4dd90000000000000000000000000000000000000000000000000000000000000002000000000000000000000000000000000000000000000000000000000000000100000000000000000000000000000000000000000000000000000000003d09000000000000000000000000004e5dc9df946500b07e9c66e4dd29bf9cd062002b0000000000000000000000000000000000000000000000000000000000000000",
        "nonce": "0xb65f",
        "chainId": "0x14a34"
      },
      "additionalContracts": [],
      "isFixedGasLimit": false
    },
    {
      "hash": null,
      "transactionType": "CALL",
      "contractName": null,
      "contractAddress": "0x9202a8ee7c3e3926352a3f713e6e86952c2232fb",
      "function": "placeBet(uint256,uint256,uint256,address,uint8)",
      "arguments": ["3", "0", "3000000", "0x4E5dC9dF946500b07E9c66e4DD29bf9CD062002B", "0"],
      "transaction": {
        "from": "0x4e5dc9df946500b07e9c66e4dd29bf9cd062002b",
        "to": "0x9202a8ee7c3e3926352a3f713e6e86952c2232fb",
        "gas": "0x68fba",
        "value": "0x0",
        "input": "0x011c4dd90000000000000000000000000000000000000000000000000000000000000003000000000000000000000000000000000000000000000000000000000000000000000000000000000000000000000000000000000000000000000000002dc6c00000000000000000000000004e5dc9df946500b07e9c66e4dd29bf9cd062002b0000000000000000000000000000000000000000000000000000000000000000",
        "nonce": "0xb660",
        "chainId": "0x14a34"
      },
      "additionalContracts": [],
      "isFixedGasLimit": false
    },
    {
      "hash": null,
      "transactionType": "CALL",
      "contractName": null,
      "contractAddress": "0x634afea4d8cbe4c1deb5b5fde992f92e92ad4214",
      "function": "approve(address,uint256)",
      "arguments": ["0x9202A8Ee7C3E3926352A3f713e6E86952c2232FB", "101020000000000"],
      "transaction": {
        "from": "0x67bfd0b42f5f39710b4e90301289f81eab6315da",
        "to": "0x634afea4d8cbe4c1deb5b5fde992f92e92ad4214",
        "gas": "0xf7fe",
        "value": "0x0",
        "input": "0x095ea7b30000000000000000000000009202a8ee7c3e3926352a3f713e6e86952c2232fb00000000000000000000000000000000000000000000000000005be08d371800",
        "nonce": "0x1cd98",
        "chainId": "0x14a34"
      },
      "additionalContracts": [],
      "isFixedGasLimit": false
    },
    {
      "hash": null,
      "transactionType": "CALL",
      "contractName": null,
      "contractAddress": "0x036cbd53842c5426634e7929541ec2318f3dcf7e",
      "function": "approve(address,uint256)",
      "arguments": ["0x9202A8Ee7C3E3926352A3f713e6E86952c2232FB", "475000000"],
      "transaction": {
        "from": "0x67bfd0b42f5f39710b4e90301289f81eab6315da",
        "to": "0x036cbd53842c5426634e7929541ec2318f3dcf7e",
        "gas": "0x13cc6",
        "value": "0x0",
        "input": "0x095ea7b30000000000000000000000009202a8ee7c3e3926352a3f713e6e86952c2232fb000000000000000000000000000000000000000000000000000000001c4fecc0",
        "nonce": "0x1cd99",
        "chainId": "0x14a34"
      },
      "additionalContracts": [],
      "isFixedGasLimit": false
    },
    {
      "hash": null,
      "transactionType": "CALL",
      "contractName": null,
      "contractAddress": "0x9202a8ee7c3e3926352a3f713e6e86952c2232fb",
      "function": "placeBet(uint256,uint256,uint256,address,uint8)",
      "arguments": ["1", "0", "30305999999999", "0x67bFd0B42F5f39710B4E90301289F81Eab6315dA", "1"],
      "transaction": {
        "from": "0x67bfd0b42f5f39710b4e90301289f81eab6315da",
        "to": "0x9202a8ee7c3e3926352a3f713e6e86952c2232fb",
        "gas": "0x6f1dc",
        "value": "0x0",
        "input": "0x011c4dd90000000000000000000000000000000000000000000000000000000000000001000000000000000000000000000000000000000000000000000000000000000000000000000000000000000000000000000000000000000000001b902a5d53ff00000000000000000000000067bfd0b42f5f39710b4e90301289f81eab6315da0000000000000000000000000000000000000000000000000000000000000001",
        "nonce": "0x1cd9a",
        "chainId": "0x14a34"
      },
      "additionalContracts": [],
      "isFixedGasLimit": false
    },
    {
      "hash": null,
      "transactionType": "CALL",
      "contractName": null,
      "contractAddress": "0x9202a8ee7c3e3926352a3f713e6e86952c2232fb",
      "function": "placeBet(uint256,uint256,uint256,address,uint8)",
      "arguments": ["2", "0", "30305999999999", "0x67bFd0B42F5f39710B4E90301289F81Eab6315dA", "1"],
      "transaction": {
        "from": "0x67bfd0b42f5f39710b4e90301289f81eab6315da",
        "to": "0x9202a8ee7c3e3926352a3f713e6e86952c2232fb",
        "gas": "0x5ef5c",
        "value": "0x0",
        "input": "0x011c4dd90000000000000000000000000000000000000000000000000000000000000002000000000000000000000000000000000000000000000000000000000000000000000000000000000000000000000000000000000000000000001b902a5d53ff00000000000000000000000067bfd0b42f5f39710b4e90301289f81eab6315da0000000000000000000000000000000000000000000000000000000000000001",
        "nonce": "0x1cd9b",
        "chainId": "0x14a34"
      },
      "additionalContracts": [],
      "isFixedGasLimit": false
    },
    {
      "hash": null,
      "transactionType": "CALL",
      "contractName": null,
      "contractAddress": "0x9202a8ee7c3e3926352a3f713e6e86952c2232fb",
      "function": "placeBet(uint256,uint256,uint256,address,uint8)",
      "arguments": ["3", "1", "30305999999999", "0x67bFd0B42F5f39710B4E90301289F81Eab6315dA", "1"],
      "transaction": {
        "from": "0x67bfd0b42f5f39710b4e90301289f81eab6315da",
        "to": "0x9202a8ee7c3e3926352a3f713e6e86952c2232fb",
        "gas": "0x6d4bf",
        "value": "0x0",
        "input": "0x011c4dd90000000000000000000000000000000000000000000000000000000000000003000000000000000000000000000000000000000000000000000000000000000100000000000000000000000000000000000000000000000000001b902a5d53ff00000000000000000000000067bfd0b42f5f39710b4e90301289f81eab6315da0000000000000000000000000000000000000000000000000000000000000001",
        "nonce": "0x1cd9c",
        "chainId": "0x14a34"
      },
      "additionalContracts": [],
      "isFixedGasLimit": false
    },
    {
      "hash": null,
      "transactionType": "CALL",
      "contractName": null,
      "contractAddress": "0x9202a8ee7c3e3926352a3f713e6e86952c2232fb",
      "function": "placeBet(uint256,uint256,uint256,address,uint8)",
      "arguments": ["1", "0", "3000000", "0x67bFd0B42F5f39710B4E90301289F81Eab6315dA", "0"],
      "transaction": {
        "from": "0x67bfd0b42f5f39710b4e90301289f81eab6315da",
        "to": "0x9202a8ee7c3e3926352a3f713e6e86952c2232fb",
        "gas": "0x60db3",
        "value": "0x0",
        "input": "0x011c4dd90000000000000000000000000000000000000000000000000000000000000001000000000000000000000000000000000000000000000000000000000000000000000000000000000000000000000000000000000000000000000000002dc6c000000000000000000000000067bfd0b42f5f39710b4e90301289f81eab6315da0000000000000000000000000000000000000000000000000000000000000000",
        "nonce": "0x1cd9d",
        "chainId": "0x14a34"
      },
      "additionalContracts": [],
      "isFixedGasLimit": false
    },
    {
      "hash": null,
      "transactionType": "CALL",
      "contractName": null,
      "contractAddress": "0x9202a8ee7c3e3926352a3f713e6e86952c2232fb",
      "function": "placeBet(uint256,uint256,uint256,address,uint8)",
      "arguments": ["2", "0", "1000000", "0x67bFd0B42F5f39710B4E90301289F81Eab6315dA", "0"],
      "transaction": {
        "from": "0x67bfd0b42f5f39710b4e90301289f81eab6315da",
        "to": "0x9202a8ee7c3e3926352a3f713e6e86952c2232fb",
        "gas": "0x682c3",
        "value": "0x0",
        "input": "0x011c4dd90000000000000000000000000000000000000000000000000000000000000002000000000000000000000000000000000000000000000000000000000000000000000000000000000000000000000000000000000000000000000000000f424000000000000000000000000067bfd0b42f5f39710b4e90301289f81eab6315da0000000000000000000000000000000000000000000000000000000000000000",
        "nonce": "0x1cd9e",
        "chainId": "0x14a34"
      },
      "additionalContracts": [],
      "isFixedGasLimit": false
    },
    {
      "hash": null,
      "transactionType": "CALL",
      "contractName": null,
      "contractAddress": "0x9202a8ee7c3e3926352a3f713e6e86952c2232fb",
      "function": "placeBet(uint256,uint256,uint256,address,uint8)",
      "arguments": ["3", "0", "3000000", "0x67bFd0B42F5f39710B4E90301289F81Eab6315dA", "0"],
      "transaction": {
        "from": "0x67bfd0b42f5f39710b4e90301289f81eab6315da",
        "to": "0x9202a8ee7c3e3926352a3f713e6e86952c2232fb",
        "gas": "0x63398",
        "value": "0x0",
        "input": "0x011c4dd90000000000000000000000000000000000000000000000000000000000000003000000000000000000000000000000000000000000000000000000000000000000000000000000000000000000000000000000000000000000000000002dc6c000000000000000000000000067bfd0b42f5f39710b4e90301289f81eab6315da0000000000000000000000000000000000000000000000000000000000000000",
        "nonce": "0x1cd9f",
        "chainId": "0x14a34"
      },
      "additionalContracts": [],
      "isFixedGasLimit": false
    },
    {
      "hash": null,
      "transactionType": "CALL",
      "contractName": null,
      "contractAddress": "0x634afea4d8cbe4c1deb5b5fde992f92e92ad4214",
      "function": "approve(address,uint256)",
      "arguments": ["0x9202A8Ee7C3E3926352A3f713e6E86952c2232FB", "101020000000000"],
      "transaction": {
        "from": "0x12be474d127757d0a6a36631294f8ffbcdef44f8",
        "to": "0x634afea4d8cbe4c1deb5b5fde992f92e92ad4214",
        "gas": "0xf7fe",
        "value": "0x0",
        "input": "0x095ea7b30000000000000000000000009202a8ee7c3e3926352a3f713e6e86952c2232fb00000000000000000000000000000000000000000000000000005be08d371800",
        "nonce": "0x24c21",
        "chainId": "0x14a34"
      },
      "additionalContracts": [],
      "isFixedGasLimit": false
    },
    {
      "hash": null,
      "transactionType": "CALL",
      "contractName": null,
      "contractAddress": "0x036cbd53842c5426634e7929541ec2318f3dcf7e",
      "function": "approve(address,uint256)",
      "arguments": ["0x9202A8Ee7C3E3926352A3f713e6E86952c2232FB", "495022751"],
      "transaction": {
        "from": "0x12be474d127757d0a6a36631294f8ffbcdef44f8",
        "to": "0x036cbd53842c5426634e7929541ec2318f3dcf7e",
        "gas": "0x13cc6",
        "value": "0x0",
        "input": "0x095ea7b30000000000000000000000009202a8ee7c3e3926352a3f713e6e86952c2232fb000000000000000000000000000000000000000000000000000000001d81729f",
        "nonce": "0x24c22",
        "chainId": "0x14a34"
      },
      "additionalContracts": [],
      "isFixedGasLimit": false
    },
    {
      "hash": null,
      "transactionType": "CALL",
      "contractName": null,
      "contractAddress": "0x9202a8ee7c3e3926352a3f713e6e86952c2232fb",
      "function": "placeBet(uint256,uint256,uint256,address,uint8)",
      "arguments": ["1", "0", "30305999999999", "0x12BE474D127757d0a6a36631294F8FfBCdeF44F8", "1"],
      "transaction": {
        "from": "0x12be474d127757d0a6a36631294f8ffbcdef44f8",
        "to": "0x9202a8ee7c3e3926352a3f713e6e86952c2232fb",
        "gas": "0x632d3",
        "value": "0x0",
        "input": "0x011c4dd90000000000000000000000000000000000000000000000000000000000000001000000000000000000000000000000000000000000000000000000000000000000000000000000000000000000000000000000000000000000001b902a5d53ff00000000000000000000000012be474d127757d0a6a36631294f8ffbcdef44f80000000000000000000000000000000000000000000000000000000000000001",
        "nonce": "0x24c23",
        "chainId": "0x14a34"
      },
      "additionalContracts": [],
      "isFixedGasLimit": false
    },
    {
      "hash": null,
      "transactionType": "CALL",
      "contractName": null,
      "contractAddress": "0x9202a8ee7c3e3926352a3f713e6e86952c2232fb",
      "function": "placeBet(uint256,uint256,uint256,address,uint8)",
      "arguments": ["2", "1", "30305999999999", "0x12BE474D127757d0a6a36631294F8FfBCdeF44F8", "1"],
      "transaction": {
        "from": "0x12be474d127757d0a6a36631294f8ffbcdef44f8",
        "to": "0x9202a8ee7c3e3926352a3f713e6e86952c2232fb",
        "gas": "0x71c2e",
        "value": "0x0",
        "input": "0x011c4dd90000000000000000000000000000000000000000000000000000000000000002000000000000000000000000000000000000000000000000000000000000000100000000000000000000000000000000000000000000000000001b902a5d53ff00000000000000000000000012be474d127757d0a6a36631294f8ffbcdef44f80000000000000000000000000000000000000000000000000000000000000001",
        "nonce": "0x24c24",
        "chainId": "0x14a34"
      },
      "additionalContracts": [],
      "isFixedGasLimit": false
    },
    {
      "hash": null,
      "transactionType": "CALL",
      "contractName": null,
      "contractAddress": "0x9202a8ee7c3e3926352a3f713e6e86952c2232fb",
      "function": "placeBet(uint256,uint256,uint256,address,uint8)",
      "arguments": ["3", "0", "30305999999999", "0x12BE474D127757d0a6a36631294F8FfBCdeF44F8", "1"],
      "transaction": {
        "from": "0x12be474d127757d0a6a36631294f8ffbcdef44f8",
        "to": "0x9202a8ee7c3e3926352a3f713e6e86952c2232fb",
        "gas": "0x6646b",
        "value": "0x0",
        "input": "0x011c4dd90000000000000000000000000000000000000000000000000000000000000003000000000000000000000000000000000000000000000000000000000000000000000000000000000000000000000000000000000000000000001b902a5d53ff00000000000000000000000012be474d127757d0a6a36631294f8ffbcdef44f80000000000000000000000000000000000000000000000000000000000000001",
        "nonce": "0x24c25",
        "chainId": "0x14a34"
      },
      "additionalContracts": [],
      "isFixedGasLimit": false
    },
    {
      "hash": null,
      "transactionType": "CALL",
      "contractName": null,
      "contractAddress": "0x9202a8ee7c3e3926352a3f713e6e86952c2232fb",
      "function": "placeBet(uint256,uint256,uint256,address,uint8)",
      "arguments": ["1", "1", "5000000", "0x12BE474D127757d0a6a36631294F8FfBCdeF44F8", "0"],
      "transaction": {
        "from": "0x12be474d127757d0a6a36631294f8ffbcdef44f8",
        "to": "0x9202a8ee7c3e3926352a3f713e6e86952c2232fb",
        "gas": "0x6c9b2",
        "value": "0x0",
        "input": "0x011c4dd90000000000000000000000000000000000000000000000000000000000000001000000000000000000000000000000000000000000000000000000000000000100000000000000000000000000000000000000000000000000000000004c4b4000000000000000000000000012be474d127757d0a6a36631294f8ffbcdef44f80000000000000000000000000000000000000000000000000000000000000000",
        "nonce": "0x24c26",
        "chainId": "0x14a34"
      },
      "additionalContracts": [],
      "isFixedGasLimit": false
    },
    {
      "hash": null,
      "transactionType": "CALL",
      "contractName": null,
      "contractAddress": "0x9202a8ee7c3e3926352a3f713e6e86952c2232fb",
      "function": "placeBet(uint256,uint256,uint256,address,uint8)",
      "arguments": ["2", "0", "3000000", "0x12BE474D127757d0a6a36631294F8FfBCdeF44F8", "0"],
      "transaction": {
        "from": "0x12be474d127757d0a6a36631294f8ffbcdef44f8",
        "to": "0x9202a8ee7c3e3926352a3f713e6e86952c2232fb",
        "gas": "0x61acc",
        "value": "0x0",
        "input": "0x011c4dd90000000000000000000000000000000000000000000000000000000000000002000000000000000000000000000000000000000000000000000000000000000000000000000000000000000000000000000000000000000000000000002dc6c000000000000000000000000012be474d127757d0a6a36631294f8ffbcdef44f80000000000000000000000000000000000000000000000000000000000000000",
        "nonce": "0x24c27",
        "chainId": "0x14a34"
      },
      "additionalContracts": [],
      "isFixedGasLimit": false
    },
    {
      "hash": null,
      "transactionType": "CALL",
      "contractName": null,
      "contractAddress": "0x9202a8ee7c3e3926352a3f713e6e86952c2232fb",
      "function": "placeBet(uint256,uint256,uint256,address,uint8)",
      "arguments": ["3", "0", "5000000", "0x12BE474D127757d0a6a36631294F8FfBCdeF44F8", "0"],
      "transaction": {
        "from": "0x12be474d127757d0a6a36631294f8ffbcdef44f8",
        "to": "0x9202a8ee7c3e3926352a3f713e6e86952c2232fb",
        "gas": "0x63f4b",
        "value": "0x0",
        "input": "0x011c4dd90000000000000000000000000000000000000000000000000000000000000003000000000000000000000000000000000000000000000000000000000000000000000000000000000000000000000000000000000000000000000000004c4b4000000000000000000000000012be474d127757d0a6a36631294f8ffbcdef44f80000000000000000000000000000000000000000000000000000000000000000",
        "nonce": "0x24c28",
        "chainId": "0x14a34"
      },
      "additionalContracts": [],
      "isFixedGasLimit": false
    },
    {
      "hash": null,
      "transactionType": "CALL",
      "contractName": null,
      "contractAddress": "0x9202a8ee7c3e3926352a3f713e6e86952c2232fb",
      "function": "gradeBet(uint256,uint256)",
      "arguments": ["1", "0"],
      "transaction": {
        "from": "0x7956c2c1b85f5ac14c2c537f669b65991428e268",
        "to": "0x9202a8ee7c3e3926352a3f713e6e86952c2232fb",
        "gas": "0x73eac",
        "value": "0x0",
        "input": "0xff0beb6200000000000000000000000000000000000000000000000000000000000000010000000000000000000000000000000000000000000000000000000000000000",
        "nonce": "0xa3b",
        "chainId": "0x14a34"
      },
      "additionalContracts": [],
      "isFixedGasLimit": false
    },
    {
      "hash": null,
      "transactionType": "CALL",
      "contractName": null,
      "contractAddress": "0x9202a8ee7c3e3926352a3f713e6e86952c2232fb",
      "function": "gradeBet(uint256,uint256)",
      "arguments": ["2", "1"],
      "transaction": {
        "from": "0x7956c2c1b85f5ac14c2c537f669b65991428e268",
        "to": "0x9202a8ee7c3e3926352a3f713e6e86952c2232fb",
        "gas": "0x535b6",
        "value": "0x0",
        "input": "0xff0beb6200000000000000000000000000000000000000000000000000000000000000020000000000000000000000000000000000000000000000000000000000000001",
        "nonce": "0xa3c",
        "chainId": "0x14a34"
      },
      "additionalContracts": [],
      "isFixedGasLimit": false
    },
    {
      "hash": null,
      "transactionType": "CALL",
      "contractName": null,
      "contractAddress": "0x9202a8ee7c3e3926352a3f713e6e86952c2232fb",
      "function": "gradeBet(uint256,uint256)",
      "arguments": ["3", "0"],
      "transaction": {
        "from": "0x7956c2c1b85f5ac14c2c537f669b65991428e268",
        "to": "0x9202a8ee7c3e3926352a3f713e6e86952c2232fb",
        "gas": "0x4e8e3",
        "value": "0x0",
        "input": "0xff0beb6200000000000000000000000000000000000000000000000000000000000000030000000000000000000000000000000000000000000000000000000000000000",
        "nonce": "0xa3d",
        "chainId": "0x14a34"
      },
      "additionalContracts": [],
      "isFixedGasLimit": false
    },
    {
      "hash": null,
      "transactionType": "CALL",
      "contractName": null,
      "contractAddress": "0x9202a8ee7c3e3926352a3f713e6e86952c2232fb",
      "function": "claimPayouts(uint256[])",
      "arguments": ["[1, 2, 3, 4, 5, 6]"],
      "transaction": {
        "from": "0x4e5dc9df946500b07e9c66e4dd29bf9cd062002b",
        "to": "0x9202a8ee7c3e3926352a3f713e6e86952c2232fb",
        "gas": "0x136a2",
        "value": "0x0",
        "input": "0x3d695c5200000000000000000000000000000000000000000000000000000000000000200000000000000000000000000000000000000000000000000000000000000006000000000000000000000000000000000000000000000000000000000000000100000000000000000000000000000000000000000000000000000000000000020000000000000000000000000000000000000000000000000000000000000003000000000000000000000000000000000000000000000000000000000000000400000000000000000000000000000000000000000000000000000000000000050000000000000000000000000000000000000000000000000000000000000006",
        "nonce": "0xb661",
        "chainId": "0x14a34"
      },
      "additionalContracts": [],
      "isFixedGasLimit": false
    },
    {
      "hash": null,
      "transactionType": "CALL",
      "contractName": null,
      "contractAddress": "0x9202a8ee7c3e3926352a3f713e6e86952c2232fb",
      "function": "withdraw(uint8,uint256)",
      "arguments": ["0", "13157750"],
      "transaction": {
        "from": "0x4e5dc9df946500b07e9c66e4dd29bf9cd062002b",
        "to": "0x9202a8ee7c3e3926352a3f713e6e86952c2232fb",
        "gas": "0x125e2",
        "value": "0x0",
        "input": "0x3f48991400000000000000000000000000000000000000000000000000000000000000000000000000000000000000000000000000000000000000000000000000c8c576",
        "nonce": "0xb662",
        "chainId": "0x14a34"
      },
      "additionalContracts": [],
      "isFixedGasLimit": false
    },
    {
      "hash": null,
      "transactionType": "CALL",
      "contractName": null,
      "contractAddress": "0x9202a8ee7c3e3926352a3f713e6e86952c2232fb",
      "function": "claimPayouts(uint256[])",
      "arguments": ["[7, 8, 9, 10, 11, 12]"],
      "transaction": {
        "from": "0x67bfd0b42f5f39710b4e90301289f81eab6315da",
        "to": "0x9202a8ee7c3e3926352a3f713e6e86952c2232fb",
        "gas": "0x136a2",
        "value": "0x0",
        "input": "0x3d695c5200000000000000000000000000000000000000000000000000000000000000200000000000000000000000000000000000000000000000000000000000000006000000000000000000000000000000000000000000000000000000000000000700000000000000000000000000000000000000000000000000000000000000080000000000000000000000000000000000000000000000000000000000000009000000000000000000000000000000000000000000000000000000000000000a000000000000000000000000000000000000000000000000000000000000000b000000000000000000000000000000000000000000000000000000000000000c",
        "nonce": "0x1cda0",
        "chainId": "0x14a34"
      },
      "additionalContracts": [],
      "isFixedGasLimit": false
    },
    {
      "hash": null,
      "transactionType": "CALL",
      "contractName": null,
      "contractAddress": "0x9202a8ee7c3e3926352a3f713e6e86952c2232fb",
      "function": "withdraw(uint8,uint256)",
      "arguments": ["0", "9689250"],
      "transaction": {
        "from": "0x67bfd0b42f5f39710b4e90301289f81eab6315da",
        "to": "0x9202a8ee7c3e3926352a3f713e6e86952c2232fb",
        "gas": "0x125e2",
        "value": "0x0",
        "input": "0x3f4899140000000000000000000000000000000000000000000000000000000000000000000000000000000000000000000000000000000000000000000000000093d8a2",
        "nonce": "0x1cda1",
        "chainId": "0x14a34"
      },
      "additionalContracts": [],
      "isFixedGasLimit": false
    },
    {
      "hash": null,
      "transactionType": "CALL",
      "contractName": null,
      "contractAddress": "0x9202a8ee7c3e3926352a3f713e6e86952c2232fb",
      "function": "withdraw(uint8,uint256)",
      "arguments": ["1", "45049868999999"],
      "transaction": {
        "from": "0x67bfd0b42f5f39710b4e90301289f81eab6315da",
        "to": "0x9202a8ee7c3e3926352a3f713e6e86952c2232fb",
        "gas": "0xe7bd",
        "value": "0x0",
        "input": "0x3f4899140000000000000000000000000000000000000000000000000000000000000001000000000000000000000000000000000000000000000000000028f8fd705d3f",
        "nonce": "0x1cda2",
        "chainId": "0x14a34"
      },
      "additionalContracts": [],
      "isFixedGasLimit": false
    },
    {
      "hash": null,
      "transactionType": "CALL",
      "contractName": null,
      "contractAddress": "0x9202a8ee7c3e3926352a3f713e6e86952c2232fb",
      "function": "claimPayouts(uint256[])",
      "arguments": ["[13, 14, 15, 16, 17, 18]"],
      "transaction": {
        "from": "0x12be474d127757d0a6a36631294f8ffbcdef44f8",
        "to": "0x9202a8ee7c3e3926352a3f713e6e86952c2232fb",
        "gas": "0x136a2",
        "value": "0x0",
        "input": "0x3d695c5200000000000000000000000000000000000000000000000000000000000000200000000000000000000000000000000000000000000000000000000000000006000000000000000000000000000000000000000000000000000000000000000d000000000000000000000000000000000000000000000000000000000000000e000000000000000000000000000000000000000000000000000000000000000f000000000000000000000000000000000000000000000000000000000000001000000000000000000000000000000000000000000000000000000000000000110000000000000000000000000000000000000000000000000000000000000012",
        "nonce": "0x24c29",
        "chainId": "0x14a34"
      },
      "additionalContracts": [],
      "isFixedGasLimit": false
    },
    {
      "hash": null,
      "transactionType": "CALL",
      "contractName": null,
      "contractAddress": "0x9202a8ee7c3e3926352a3f713e6e86952c2232fb",
      "function": "withdraw(uint8,uint256)",
      "arguments": ["0", "5000000"],
      "transaction": {
        "from": "0x12be474d127757d0a6a36631294f8ffbcdef44f8",
        "to": "0x9202a8ee7c3e3926352a3f713e6e86952c2232fb",
        "gas": "0x125e2",
        "value": "0x0",
        "input": "0x3f489914000000000000000000000000000000000000000000000000000000000000000000000000000000000000000000000000000000000000000000000000004c4b40",
        "nonce": "0x24c2a",
        "chainId": "0x14a34"
      },
      "additionalContracts": [],
      "isFixedGasLimit": false
    },
    {
      "hash": null,
      "transactionType": "CALL",
      "contractName": null,
      "contractAddress": "0x9202a8ee7c3e3926352a3f713e6e86952c2232fb",
      "function": "withdraw(uint8,uint256)",
      "arguments": ["1", "225249344999995"],
      "transaction": {
        "from": "0x12be474d127757d0a6a36631294f8ffbcdef44f8",
        "to": "0x9202a8ee7c3e3926352a3f713e6e86952c2232fb",
        "gas": "0xe7bd",
        "value": "0x0",
        "input": "0x3f48991400000000000000000000000000000000000000000000000000000000000000010000000000000000000000000000000000000000000000000000ccdcf331d23b",
        "nonce": "0x24c2b",
        "chainId": "0x14a34"
      },
      "additionalContracts": [],
      "isFixedGasLimit": false
    }
  ],
  "receipts": [
    {
      "status": "0x1",
      "cumulativeGasUsed": "0x52dd98",
      "logs": [
        {
          "address": "0x634afea4d8cbe4c1deb5b5fde992f92e92ad4214",
          "topics": [
            "0xddf252ad1be2c89b69c2b068fc378daa952ba7f163c4a11628f55a4df523b3ef",
            "0x0000000000000000000000000000000000000000000000000000000000000000",
            "0x0000000000000000000000004e5dc9df946500b07e9c66e4dd29bf9cd062002b"
          ],
          "data": "0x00000000000000000000000000000000000000000000000000000002540be400",
          "blockHash": "0x2905647fe8fb50a76248e2373097b463d4a92fd5b674d1e645da1efe323aa5d4",
          "blockNumber": "0x16fc29a",
          "transactionHash": "0xe70f49991a36b8fb31a3f2e8ebaf88f9c29d3cd169b1014ff37a57056083c0e9",
          "transactionIndex": "0x1d",
          "logIndex": "0x6b",
          "removed": false
        }
      ],
      "logsBloom": "0x00000000000000000000000000000000000000000000000000000000000000000000000000000004000800000000000000000000000000000000000000000000000000000000000000000008000000000000000000000000000000000000000000000000020000000000000000000800000000000000000000000010000000000000000000000000004000000000000000000000000000000000000000000000000000000000000000000000000000000000000000000000000000000000000000010002000000000000000000000000000000000000800000000000000020000000000000000000000000000000000000000000000000000000000400000000",
      "type": "0x2",
      "transactionHash": "0xe70f49991a36b8fb31a3f2e8ebaf88f9c29d3cd169b1014ff37a57056083c0e9",
      "transactionIndex": "0x1d",
      "blockHash": "0x2905647fe8fb50a76248e2373097b463d4a92fd5b674d1e645da1efe323aa5d4",
      "blockNumber": "0x16fc29a",
      "gasUsed": "0x8cc8",
      "effectiveGasPrice": "0xe5cde",
      "from": "0x7956c2c1b85f5ac14c2c537f669b65991428e268",
      "to": "0x634afea4d8cbe4c1deb5b5fde992f92e92ad4214",
      "contractAddress": null,
      "l1BaseFeeScalar": "0x44d",
      "l1BlobBaseFee": "0x1",
      "l1BlobBaseFeeScalar": "0xa118b",
      "l1Fee": "0x3c40b",
      "l1GasPrice": "0x2231c",
      "l1GasUsed": "0x640"
    },
    {
      "status": "0x1",
      "cumulativeGasUsed": "0x54f507",
      "logs": [
        {
          "address": "0x634afea4d8cbe4c1deb5b5fde992f92e92ad4214",
          "topics": [
            "0xddf252ad1be2c89b69c2b068fc378daa952ba7f163c4a11628f55a4df523b3ef",
            "0x0000000000000000000000000000000000000000000000000000000000000000",
            "0x00000000000000000000000067bfd0b42f5f39710b4e90301289f81eab6315da"
          ],
          "data": "0x00000000000000000000000000000000000000000000000000000002540be400",
          "blockHash": "0xf8fbac9e7049c3e4add2547a10bc9f1106f8079d93c58fea6cb33df74f0a6c35",
          "blockNumber": "0x16fc29b",
          "transactionHash": "0x37f5f4e5eb13eca75bb3948d00c7c4fad8cecfb25d09ff0e94e0813e39e92dc6",
          "transactionIndex": "0x29",
          "logIndex": "0x5e",
          "removed": false
        }
      ],
      "logsBloom": "0x00000000000000000080000000000000000000000000000000000000000000000000000000000004000800000000000000000000000000000000000000000000000000000000000000000008000000000000000000000000000000000000000000000000020000000000000000000800000000000000000000000010000000000000000000000000000000000000000000000000000000000000000000000000000000000000280000000000000000000000000000000000000000000000000000000002000000000000000000000000000000000000000000000000000020000000000000000000000000000000000000000000000000000000000400000000",
      "type": "0x2",
      "transactionHash": "0x37f5f4e5eb13eca75bb3948d00c7c4fad8cecfb25d09ff0e94e0813e39e92dc6",
      "transactionIndex": "0x29",
      "blockHash": "0xf8fbac9e7049c3e4add2547a10bc9f1106f8079d93c58fea6cb33df74f0a6c35",
      "blockNumber": "0x16fc29b",
      "gasUsed": "0x8ce0",
      "effectiveGasPrice": "0xe5cde",
      "from": "0x7956c2c1b85f5ac14c2c537f669b65991428e268",
      "to": "0x634afea4d8cbe4c1deb5b5fde992f92e92ad4214",
      "contractAddress": null,
      "l1BaseFeeScalar": "0x44d",
      "l1BlobBaseFee": "0x1",
      "l1BlobBaseFeeScalar": "0xa118b",
      "l1Fee": "0x3c40b",
      "l1GasPrice": "0x2231c",
      "l1GasUsed": "0x640"
    },
    {
      "status": "0x1",
      "cumulativeGasUsed": "0x1ef86",
      "logs": [
        {
          "address": "0x634afea4d8cbe4c1deb5b5fde992f92e92ad4214",
          "topics": [
            "0xddf252ad1be2c89b69c2b068fc378daa952ba7f163c4a11628f55a4df523b3ef",
            "0x0000000000000000000000000000000000000000000000000000000000000000",
            "0x00000000000000000000000012be474d127757d0a6a36631294f8ffbcdef44f8"
          ],
          "data": "0x00000000000000000000000000000000000000000000000000000002540be400",
          "blockHash": "0xd77f2141e555f5bc4b5f2795ad58d598d6c5b5d0c29815f2a04961097d49274b",
          "blockNumber": "0x16fc29d",
          "transactionHash": "0x4e819dc959f69847290c478d139549157185bc8f8b80370972eda7e1e372df72",
          "transactionIndex": "0x2",
          "logIndex": "0x1",
          "removed": false
        }
      ],
      "logsBloom": "0x00000000000000000000000000000000000000000000000000000000000000000000000000000004000800000000000000000000000000000000000000000000000000000000000000000008000000000000000000000000000000000000000000000000020000000000000000000800000000000000000000800010000000000000000000000000000000000000000000000000000000000000000000000000008000000000000000000000000000000000000000000000000000000000000000000002000000000000000100000000000000000000000000000000000020000000000000000000000000000000000000000000000000000000000400000000",
      "type": "0x2",
      "transactionHash": "0x4e819dc959f69847290c478d139549157185bc8f8b80370972eda7e1e372df72",
      "transactionIndex": "0x2",
      "blockHash": "0xd77f2141e555f5bc4b5f2795ad58d598d6c5b5d0c29815f2a04961097d49274b",
      "blockNumber": "0x16fc29d",
      "gasUsed": "0x8ce0",
      "effectiveGasPrice": "0xe5cde",
      "from": "0x7956c2c1b85f5ac14c2c537f669b65991428e268",
      "to": "0x634afea4d8cbe4c1deb5b5fde992f92e92ad4214",
      "contractAddress": null,
      "l1BaseFeeScalar": "0x44d",
      "l1BlobBaseFee": "0x1",
      "l1BlobBaseFeeScalar": "0xa118b",
      "l1Fee": "0x43331",
      "l1GasPrice": "0x26234",
      "l1GasUsed": "0x640"
    },
    {
      "status": "0x1",
      "cumulativeGasUsed": "0x2f9561",
      "logs": [
        {
          "address": "0x9202a8ee7c3e3926352a3f713e6e86952c2232fb",
          "topics": ["0x8002ff15e38c75183bc079451615f7149b25142d14bf1b7f418ea2c6fd489bf0"],
          "data": "0x0000000000000000000000000000000000000000000000000000000000000001000000000000000000000000000000000000000000000000000000000000004000000000000000000000000000000000000000000000000000000000000000e000000000000000000000000000000000000000000000000000000000000001400000000000000000000000000000000000000000000000000000000067f2f1fe0000000000000000000000000000000000000000000000000000000000000200000000000000000000000000000000000000000000000000000000000000026000000000000000000000000000000000000000000000000000000000000002c00000000000000000000000000000000000000000000000000000000000000300000000000000000000000000000000000000000000000000000000000000003c57696c6c204920504152444f4e204d5953454c463f20546865205241444943414c204c45465420697320544552524946494544206f6620746869732100000000000000000000000000000000000000000000000000000000000000000000004000000000000000000000000000000000000000000000000000000000000000800000000000000000000000000000000000000000000000000000000000000003594553000000000000000000000000000000000000000000000000000000000000000000000000000000000000000000000000000000000000000000000000024e4f000000000000000000000000000000000000000000000000000000000000000000000000000000000000000000000000000000000000000000000000003f5468697320706f6f6c2077696c6c20636c6f7365206966205472756d7020706f73747320746861742068652077696c6c20706172646f6e2068696d73656c6600000000000000000000000000000000000000000000000000000000000000003e477261646520594553206966205472756d7020706f7374732061626f757420706172646f6e696e672068696d73656c662c204e4f206f7468657277697365000000000000000000000000000000000000000000000000000000000000000000123131343139373039323230353731393535370000000000000000000000000000000000000000000000000000000000000000000000000000000000000000012568747470733a2f2f65787465726e616c2d636f6e74656e742e6475636b6475636b676f2e636f6d2f69752f3f753d68747470732533412532462532466135372e666f786e6577732e636f6d2532467374617469632e666f786e6577732e636f6d253246666f786e6577732e636f6d253246636f6e74656e7425324675706c6f616473253246323032342532463033253246313230302532463637352532464765747479496d616765732d323034363536383035372e6a7067253346766525334431253236746c2533443126663d31266e6f66623d31266970743d303234343538323033643036336530313233383430353962343838323237653039353261316162353634343934303430633964306431383262363436363936352669706f3d696d61676573000000000000000000000000000000000000000000000000000000",
          "blockHash": "0xa074ab2cdfe1bbfee162f7a9ea7c565c90be8478b2c07a5c5e94d3b717ca479d",
          "blockNumber": "0x16fc29f",
          "transactionHash": "0x2d13a0afcfb2d3f02386a3f2432d81afdf4b9dbd061b749941d702ea613833b6",
          "transactionIndex": "0x9",
          "logIndex": "0x5",
          "removed": false
        }
      ],
      "logsBloom": "0x00000000000000000000000000000000000000000000000000000000000000000000000000000000000000000000000000000000000000000000000000000000000000000000000000000000000000000000000001000000000000000000000000000000000000000000000010000000000000000000000000000000000000400000000000000000000000000000000000400000000000000000000000000000000000000000000000000000000000000000000000000000000000000000000000000000000000000000000000000000000000000000000000000000000020000000000000000000000000000000400000000000000000000000000000000000",
      "type": "0x2",
      "transactionHash": "0x2d13a0afcfb2d3f02386a3f2432d81afdf4b9dbd061b749941d702ea613833b6",
      "transactionIndex": "0x9",
      "blockHash": "0xa074ab2cdfe1bbfee162f7a9ea7c565c90be8478b2c07a5c5e94d3b717ca479d",
      "blockNumber": "0x16fc29f",
      "gasUsed": "0xa3692",
      "effectiveGasPrice": "0xe5cde",
      "from": "0x7956c2c1b85f5ac14c2c537f669b65991428e268",
      "to": "0x9202a8ee7c3e3926352a3f713e6e86952c2232fb",
      "contractAddress": null,
      "l1BaseFeeScalar": "0x44d",
      "l1BlobBaseFee": "0x1",
      "l1BlobBaseFeeScalar": "0xa118b",
      "l1Fee": "0x16a0f0",
      "l1GasPrice": "0x26234",
      "l1GasUsed": "0x21ac"
    },
    {
      "status": "0x1",
      "cumulativeGasUsed": "0x255d16",
      "logs": [
        {
          "address": "0x9202a8ee7c3e3926352a3f713e6e86952c2232fb",
          "topics": ["0x8002ff15e38c75183bc079451615f7149b25142d14bf1b7f418ea2c6fd489bf0"],
          "data": "0x0000000000000000000000000000000000000000000000000000000000000002000000000000000000000000000000000000000000000000000000000000004000000000000000000000000000000000000000000000000000000000000000e000000000000000000000000000000000000000000000000000000000000001600000000000000000000000000000000000000000000000000000000067f2f1fe000000000000000000000000000000000000000000000000000000000000022000000000000000000000000000000000000000000000000000000000000002a000000000000000000000000000000000000000000000000000000000000003200000000000000000000000000000000000000000000000000000000000000360000000000000000000000000000000000000000000000000000000000000005057696c6c204920464952452054484520464249204449524543544f52206f6e20646179206f6e653f205468652046424920686173206265656e20574541504f4e495a454420616761696e73742075732100000000000000000000000000000000000000000000000000000000000000000000000000000000000000000000004000000000000000000000000000000000000000000000000000000000000000800000000000000000000000000000000000000000000000000000000000000003594553000000000000000000000000000000000000000000000000000000000000000000000000000000000000000000000000000000000000000000000000024e4f00000000000000000000000000000000000000000000000000000000000000000000000000000000000000000000000000000000000000000000000000465468697320706f6f6c2077696c6c20636c6f7365206966205472756d70206d616b657320612073746174656d656e742061626f75742074686520464249204469726563746f7200000000000000000000000000000000000000000000000000000000000000000000000000000000000000000000000000000000000000000043477261646520594553206966205472756d7020736179732068652077696c6c20666972652074686520464249204469726563746f722c204e4f206f7468657277697365000000000000000000000000000000000000000000000000000000000000000000000000000000000000000000000000000000000000000000000000123131343230303137353038323830363838320000000000000000000000000000000000000000000000000000000000000000000000000000000000000000012568747470733a2f2f65787465726e616c2d636f6e74656e742e6475636b6475636b676f2e636f6d2f69752f3f753d68747470732533412532462532466135372e666f786e6577732e636f6d2532467374617469632e666f786e6577732e636f6d253246666f786e6577732e636f6d253246636f6e74656e7425324675706c6f616473253246323032342532463033253246313230302532463637352532464765747479496d616765732d323034363536383035372e6a7067253346766525334431253236746c2533443126663d31266e6f66623d31266970743d303234343538323033643036336530313233383430353962343838323237653039353261316162353634343934303430633964306431383262363436363936352669706f3d696d61676573000000000000000000000000000000000000000000000000000000",
          "blockHash": "0x656b352c3c3eba61447da9bcc9320390a0e05211a94d34296aa2cf5561ae84a1",
          "blockNumber": "0x16fc2a1",
          "transactionHash": "0x3fb2ca7facb4e8d2f809a7fd3006f310f20310cf643b69fb2872574632b19750",
          "transactionIndex": "0xe",
          "logIndex": "0xd",
          "removed": false
        }
      ],
      "logsBloom": "0x00000000000000000000000000000000000000000000000000000000000000000000000000000000000000000000000000000000000000000000000000000000000000000000000000000000000000000000000001000000000000000000000000000000000000000000000010000000000000000000000000000000000000400000000000000000000000000000000000400000000000000000000000000000000000000000000000000000000000000000000000000000000000000000000000000000000000000000000000000000000000000000000000000000000020000000000000000000000000000000400000000000000000000000000000000000",
      "type": "0x2",
      "transactionHash": "0x3fb2ca7facb4e8d2f809a7fd3006f310f20310cf643b69fb2872574632b19750",
      "transactionIndex": "0xe",
      "blockHash": "0x656b352c3c3eba61447da9bcc9320390a0e05211a94d34296aa2cf5561ae84a1",
      "blockNumber": "0x16fc2a1",
      "gasUsed": "0xb40b2",
      "effectiveGasPrice": "0xe5cde",
      "from": "0x7956c2c1b85f5ac14c2c537f669b65991428e268",
      "to": "0x9202a8ee7c3e3926352a3f713e6e86952c2232fb",
      "contractAddress": null,
      "l1BaseFeeScalar": "0x44d",
      "l1BlobBaseFee": "0x1",
      "l1BlobBaseFeeScalar": "0xa118b",
      "l1Fee": "0x174bd2",
      "l1GasPrice": "0x26234",
      "l1GasUsed": "0x22aa"
    },
    {
      "status": "0x1",
      "cumulativeGasUsed": "0x22bbc0",
      "logs": [
        {
          "address": "0x9202a8ee7c3e3926352a3f713e6e86952c2232fb",
          "topics": ["0x8002ff15e38c75183bc079451615f7149b25142d14bf1b7f418ea2c6fd489bf0"],
          "data": "0x0000000000000000000000000000000000000000000000000000000000000003000000000000000000000000000000000000000000000000000000000000004000000000000000000000000000000000000000000000000000000000000000e000000000000000000000000000000000000000000000000000000000000001600000000000000000000000000000000000000000000000000000000067f2f1fe0000000000000000000000000000000000000000000000000000000000000220000000000000000000000000000000000000000000000000000000000000028000000000000000000000000000000000000000000000000000000000000002e00000000000000000000000000000000000000000000000000000000000000320000000000000000000000000000000000000000000000000000000000000005257696c6c20492057494e207468652064656261746520616761696e737420534c45455059204a4f453f2045766572796f6e65206b6e6f7773204920776f6e20746865206c617374206f6e65204249474c59210000000000000000000000000000000000000000000000000000000000000000000000000000000000000000004000000000000000000000000000000000000000000000000000000000000000800000000000000000000000000000000000000000000000000000000000000003594553000000000000000000000000000000000000000000000000000000000000000000000000000000000000000000000000000000000000000000000000024e4f00000000000000000000000000000000000000000000000000000000000000000000000000000000000000000000000000000000000000000000000000325468697320706f6f6c2077696c6c20636c6f73652061667465722074686520707265736964656e7469616c2064656261746500000000000000000000000000000000000000000000000000000000000000000000000000000000000000000030477261646520594553206966205472756d702077696e7320746865206465626174652c204e4f206f74686572776973650000000000000000000000000000000000000000000000000000000000000000000000000000000000000000000000123131343230303331333030393830323633380000000000000000000000000000000000000000000000000000000000000000000000000000000000000000012568747470733a2f2f65787465726e616c2d636f6e74656e742e6475636b6475636b676f2e636f6d2f69752f3f753d68747470732533412532462532466135372e666f786e6577732e636f6d2532467374617469632e666f786e6577732e636f6d253246666f786e6577732e636f6d253246636f6e74656e7425324675706c6f616473253246323032342532463033253246313230302532463637352532464765747479496d616765732d323034363536383035372e6a7067253346766525334431253236746c2533443126663d31266e6f66623d31266970743d303234343538323033643036336530313233383430353962343838323237653039353261316162353634343934303430633964306431383262363436363936352669706f3d696d61676573000000000000000000000000000000000000000000000000000000",
          "blockHash": "0xa5273e6db99da453035a20e17ed13c3605ebbc068378ce3b4bd49b4cbc1f0615",
          "blockNumber": "0x16fc2a3",
          "transactionHash": "0x3d5048969f4feff3500d4962aee665f7d2ce537cfe5dd219bb2e85d23850be6a",
          "transactionIndex": "0x8",
          "logIndex": "0x4b",
          "removed": false
        }
      ],
      "logsBloom": "0x00000000000000000000000000000000000000000000000000000000000000000000000000000000000000000000000000000000000000000000000000000000000000000000000000000000000000000000000001000000000000000000000000000000000000000000000010000000000000000000000000000000000000400000000000000000000000000000000000400000000000000000000000000000000000000000000000000000000000000000000000000000000000000000000000000000000000000000000000000000000000000000000000000000000020000000000000000000000000000000400000000000000000000000000000000000",
      "type": "0x2",
      "transactionHash": "0x3d5048969f4feff3500d4962aee665f7d2ce537cfe5dd219bb2e85d23850be6a",
      "transactionIndex": "0x8",
      "blockHash": "0xa5273e6db99da453035a20e17ed13c3605ebbc068378ce3b4bd49b4cbc1f0615",
      "blockNumber": "0x16fc2a3",
      "gasUsed": "0xa8e9b",
      "effectiveGasPrice": "0xe5cde",
      "from": "0x7956c2c1b85f5ac14c2c537f669b65991428e268",
      "to": "0x9202a8ee7c3e3926352a3f713e6e86952c2232fb",
      "contractAddress": null,
      "l1BaseFeeScalar": "0x44d",
      "l1BlobBaseFee": "0x1",
      "l1BlobBaseFeeScalar": "0xa118b",
      "l1Fee": "0x14b091",
      "l1GasPrice": "0x23a4e",
      "l1GasUsed": "0x20f1"
    }
  ],
  "libraries": [],
  "pending": [],
  "returns": {},
  "timestamp": 1743971367,
  "chain": 84532,
  "commit": "3b97135"
}
