{
  "transactions": [
    {
      "hash": "0xaa5ca05724b6165fd811b13786def25612dbe2d1dbe660e7d220d469d5e890ca",
      "transactionType": "CALL",
      "contractName": null,
      "contractAddress": "0x634afea4d8cbe4c1deb5b5fde992f92e92ad4214",
      "function": "mint(address,uint256)",
      "arguments": ["0x4E5dC9dF946500b07E9c66e4DD29bf9CD062002B", "10000000000"],
      "transaction": {
        "from": "0x7956c2c1b85f5ac14c2c537f669b65991428e268",
        "to": "0x634afea4d8cbe4c1deb5b5fde992f92e92ad4214",
        "gas": "0xc273",
        "value": "0x0",
        "input": "0x40c10f190000000000000000000000004e5dc9df946500b07e9c66e4dd29bf9cd062002b00000000000000000000000000000000000000000000000000000002540be400",
        "nonce": "0xa3b",
        "chainId": "0x14a34"
      },
      "additionalContracts": [],
      "isFixedGasLimit": false
    },
    {
      "hash": "0x7ddd5543ef307bf8ab4662b45929352a2cf22a33b47bbf9d49be28ca5d5e213c",
      "transactionType": "CALL",
      "contractName": null,
      "contractAddress": "0x634afea4d8cbe4c1deb5b5fde992f92e92ad4214",
      "function": "mint(address,uint256)",
      "arguments": ["0x67bFd0B42F5f39710B4E90301289F81Eab6315dA", "10000000000"],
      "transaction": {
        "from": "0x7956c2c1b85f5ac14c2c537f669b65991428e268",
        "to": "0x634afea4d8cbe4c1deb5b5fde992f92e92ad4214",
        "gas": "0xc295",
        "value": "0x0",
        "input": "0x40c10f1900000000000000000000000067bfd0b42f5f39710b4e90301289f81eab6315da00000000000000000000000000000000000000000000000000000002540be400",
        "nonce": "0xa3c",
        "chainId": "0x14a34"
      },
      "additionalContracts": [],
      "isFixedGasLimit": false
    },
    {
      "hash": "0x53477f65a08ebdbd79a59561cde2a1eb5bed2bd5b658be8310c7eaa651f0bada",
      "transactionType": "CALL",
      "contractName": null,
      "contractAddress": "0x634afea4d8cbe4c1deb5b5fde992f92e92ad4214",
      "function": "mint(address,uint256)",
      "arguments": ["0x12BE474D127757d0a6a36631294F8FfBCdeF44F8", "10000000000"],
      "transaction": {
        "from": "0x7956c2c1b85f5ac14c2c537f669b65991428e268",
        "to": "0x634afea4d8cbe4c1deb5b5fde992f92e92ad4214",
        "gas": "0xc295",
        "value": "0x0",
        "input": "0x40c10f1900000000000000000000000012be474d127757d0a6a36631294f8ffbcdef44f800000000000000000000000000000000000000000000000000000002540be400",
        "nonce": "0xa3d",
        "chainId": "0x14a34"
      },
      "additionalContracts": [],
      "isFixedGasLimit": false
    },
    {
      "hash": "0xa1cc9d1a1e630a85eff5c90dbc03749db8c68fb400e6f2217278349dc0089a18",
      "transactionType": "CALL",
      "contractName": null,
      "contractAddress": "0x9202a8ee7c3e3926352a3f713e6e86952c2232fb",
      "function": "createPool((string,string[2],uint40,string,string,string,string))",
      "arguments": [
        "(Will I PARDON MYSELF? The RADICAL LEFT is TERRIFIED of this!, [YES, NO], 1743975290, This pool will close if Trump posts that he will pardon himself, Grade YES if Trump posts about pardoning himself, NO otherwise, 114197092205719557, https://external-content.duckduckgo.com/iu/?u=https%3A%2F%2Fa57.foxnews.com%2Fstatic.foxnews.com%2Ffoxnews.com%2Fcontent%2Fuploads%2F2024%2F03%2F1200%2F675%2FGettyImages-2046568057.jpg%3Fve%3D1%26tl%3D1&f=1&nofb=1&ipt=024458203d063e012384059b488227e0952a1ab564494040c9d0d182b6466965&ipo=images)"
      ],
      "transaction": {
        "from": "0x7956c2c1b85f5ac14c2c537f669b65991428e268",
        "to": "0x9202a8ee7c3e3926352a3f713e6e86952c2232fb",
        "gas": "0xeefce",
        "value": "0x0",
        "input": "0x496670a7000000000000000000000000000000000000000000000000000000000000002000000000000000000000000000000000000000000000000000000000000000e000000000000000000000000000000000000000000000000000000000000001400000000000000000000000000000000000000000000000000000000067f2f37a0000000000000000000000000000000000000000000000000000000000000200000000000000000000000000000000000000000000000000000000000000026000000000000000000000000000000000000000000000000000000000000002c00000000000000000000000000000000000000000000000000000000000000300000000000000000000000000000000000000000000000000000000000000003c57696c6c204920504152444f4e204d5953454c463f20546865205241444943414c204c45465420697320544552524946494544206f6620746869732100000000000000000000000000000000000000000000000000000000000000000000004000000000000000000000000000000000000000000000000000000000000000800000000000000000000000000000000000000000000000000000000000000003594553000000000000000000000000000000000000000000000000000000000000000000000000000000000000000000000000000000000000000000000000024e4f000000000000000000000000000000000000000000000000000000000000000000000000000000000000000000000000000000000000000000000000003f5468697320706f6f6c2077696c6c20636c6f7365206966205472756d7020706f73747320746861742068652077696c6c20706172646f6e2068696d73656c6600000000000000000000000000000000000000000000000000000000000000003e477261646520594553206966205472756d7020706f7374732061626f757420706172646f6e696e672068696d73656c662c204e4f206f7468657277697365000000000000000000000000000000000000000000000000000000000000000000123131343139373039323230353731393535370000000000000000000000000000000000000000000000000000000000000000000000000000000000000000012568747470733a2f2f65787465726e616c2d636f6e74656e742e6475636b6475636b676f2e636f6d2f69752f3f753d68747470732533412532462532466135372e666f786e6577732e636f6d2532467374617469632e666f786e6577732e636f6d253246666f786e6577732e636f6d253246636f6e74656e7425324675706c6f616473253246323032342532463033253246313230302532463637352532464765747479496d616765732d323034363536383035372e6a7067253346766525334431253236746c2533443126663d31266e6f66623d31266970743d303234343538323033643036336530313233383430353962343838323237653039353261316162353634343934303430633964306431383262363436363936352669706f3d696d61676573000000000000000000000000000000000000000000000000000000",
        "nonce": "0xa3e",
        "chainId": "0x14a34"
      },
      "additionalContracts": [],
      "isFixedGasLimit": false
    },
    {
      "hash": "0xa6a0b44432b2220686828f809d9b402cced7247f941018ed9c5d9cd3e56d2d38",
      "transactionType": "CALL",
      "contractName": null,
      "contractAddress": "0x9202a8ee7c3e3926352a3f713e6e86952c2232fb",
      "function": "createPool((string,string[2],uint40,string,string,string,string))",
      "arguments": [
        "(Will I FIRE THE FBI DIRECTOR on day one? The FBI has been WEAPONIZED against us!, [YES, NO], 1743975290, This pool will close if Trump makes a statement about the FBI Director, Grade YES if Trump says he will fire the FBI Director, NO otherwise, 114200175082806882, https://external-content.duckduckgo.com/iu/?u=https%3A%2F%2Fa57.foxnews.com%2Fstatic.foxnews.com%2Ffoxnews.com%2Fcontent%2Fuploads%2F2024%2F03%2F1200%2F675%2FGettyImages-2046568057.jpg%3Fve%3D1%26tl%3D1&f=1&nofb=1&ipt=024458203d063e012384059b488227e0952a1ab564494040c9d0d182b6466965&ipo=images)"
      ],
      "transaction": {
        "from": "0x7956c2c1b85f5ac14c2c537f669b65991428e268",
        "to": "0x9202a8ee7c3e3926352a3f713e6e86952c2232fb",
        "gas": "0x107504",
        "value": "0x0",
        "input": "0x496670a7000000000000000000000000000000000000000000000000000000000000002000000000000000000000000000000000000000000000000000000000000000e000000000000000000000000000000000000000000000000000000000000001600000000000000000000000000000000000000000000000000000000067f2f37a000000000000000000000000000000000000000000000000000000000000022000000000000000000000000000000000000000000000000000000000000002a000000000000000000000000000000000000000000000000000000000000003200000000000000000000000000000000000000000000000000000000000000360000000000000000000000000000000000000000000000000000000000000005057696c6c204920464952452054484520464249204449524543544f52206f6e20646179206f6e653f205468652046424920686173206265656e20574541504f4e495a454420616761696e73742075732100000000000000000000000000000000000000000000000000000000000000000000000000000000000000000000004000000000000000000000000000000000000000000000000000000000000000800000000000000000000000000000000000000000000000000000000000000003594553000000000000000000000000000000000000000000000000000000000000000000000000000000000000000000000000000000000000000000000000024e4f00000000000000000000000000000000000000000000000000000000000000000000000000000000000000000000000000000000000000000000000000465468697320706f6f6c2077696c6c20636c6f7365206966205472756d70206d616b657320612073746174656d656e742061626f75742074686520464249204469726563746f7200000000000000000000000000000000000000000000000000000000000000000000000000000000000000000000000000000000000000000043477261646520594553206966205472756d7020736179732068652077696c6c20666972652074686520464249204469726563746f722c204e4f206f7468657277697365000000000000000000000000000000000000000000000000000000000000000000000000000000000000000000000000000000000000000000000000123131343230303137353038323830363838320000000000000000000000000000000000000000000000000000000000000000000000000000000000000000012568747470733a2f2f65787465726e616c2d636f6e74656e742e6475636b6475636b676f2e636f6d2f69752f3f753d68747470732533412532462532466135372e666f786e6577732e636f6d2532467374617469632e666f786e6577732e636f6d253246666f786e6577732e636f6d253246636f6e74656e7425324675706c6f616473253246323032342532463033253246313230302532463637352532464765747479496d616765732d323034363536383035372e6a7067253346766525334431253236746c2533443126663d31266e6f66623d31266970743d303234343538323033643036336530313233383430353962343838323237653039353261316162353634343934303430633964306431383262363436363936352669706f3d696d61676573000000000000000000000000000000000000000000000000000000",
        "nonce": "0xa3f",
        "chainId": "0x14a34"
      },
      "additionalContracts": [],
      "isFixedGasLimit": false
    },
    {
      "hash": "0x92f7b209bad868462bcc9a0e9b1f38d8f59a9e006f82adb13f7fe32ecc9f199d",
      "transactionType": "CALL",
      "contractName": null,
      "contractAddress": "0x9202a8ee7c3e3926352a3f713e6e86952c2232fb",
      "function": "createPool((string,string[2],uint40,string,string,string,string))",
      "arguments": [
        "(Will I WIN the debate against SLEEPY JOE? Everyone knows I won the last one BIGLY!, [YES, NO], 1743975290, This pool will close after the presidential debate, Grade YES if Trump wins the debate, NO otherwise, 114200313009802638, https://external-content.duckduckgo.com/iu/?u=https%3A%2F%2Fa57.foxnews.com%2Fstatic.foxnews.com%2Ffoxnews.com%2Fcontent%2Fuploads%2F2024%2F03%2F1200%2F675%2FGettyImages-2046568057.jpg%3Fve%3D1%26tl%3D1&f=1&nofb=1&ipt=024458203d063e012384059b488227e0952a1ab564494040c9d0d182b6466965&ipo=images)"
      ],
      "transaction": {
        "from": "0x7956c2c1b85f5ac14c2c537f669b65991428e268",
        "to": "0x9202a8ee7c3e3926352a3f713e6e86952c2232fb",
        "gas": "0xf708f",
        "value": "0x0",
        "input": "0x496670a7000000000000000000000000000000000000000000000000000000000000002000000000000000000000000000000000000000000000000000000000000000e000000000000000000000000000000000000000000000000000000000000001600000000000000000000000000000000000000000000000000000000067f2f37a0000000000000000000000000000000000000000000000000000000000000220000000000000000000000000000000000000000000000000000000000000028000000000000000000000000000000000000000000000000000000000000002e00000000000000000000000000000000000000000000000000000000000000320000000000000000000000000000000000000000000000000000000000000005257696c6c20492057494e207468652064656261746520616761696e737420534c45455059204a4f453f2045766572796f6e65206b6e6f7773204920776f6e20746865206c617374206f6e65204249474c59210000000000000000000000000000000000000000000000000000000000000000000000000000000000000000004000000000000000000000000000000000000000000000000000000000000000800000000000000000000000000000000000000000000000000000000000000003594553000000000000000000000000000000000000000000000000000000000000000000000000000000000000000000000000000000000000000000000000024e4f00000000000000000000000000000000000000000000000000000000000000000000000000000000000000000000000000000000000000000000000000325468697320706f6f6c2077696c6c20636c6f73652061667465722074686520707265736964656e7469616c2064656261746500000000000000000000000000000000000000000000000000000000000000000000000000000000000000000030477261646520594553206966205472756d702077696e7320746865206465626174652c204e4f206f74686572776973650000000000000000000000000000000000000000000000000000000000000000000000000000000000000000000000123131343230303331333030393830323633380000000000000000000000000000000000000000000000000000000000000000000000000000000000000000012568747470733a2f2f65787465726e616c2d636f6e74656e742e6475636b6475636b676f2e636f6d2f69752f3f753d68747470732533412532462532466135372e666f786e6577732e636f6d2532467374617469632e666f786e6577732e636f6d253246666f786e6577732e636f6d253246636f6e74656e7425324675706c6f616473253246323032342532463033253246313230302532463637352532464765747479496d616765732d323034363536383035372e6a7067253346766525334431253236746c2533443126663d31266e6f66623d31266970743d303234343538323033643036336530313233383430353962343838323237653039353261316162353634343934303430633964306431383262363436363936352669706f3d696d61676573000000000000000000000000000000000000000000000000000000",
        "nonce": "0xa40",
        "chainId": "0x14a34"
      },
      "additionalContracts": [],
      "isFixedGasLimit": false
    },
    {
      "hash": null,
      "transactionType": "CALL",
      "contractName": null,
      "contractAddress": "0x634afea4d8cbe4c1deb5b5fde992f92e92ad4214",
      "function": "approve(address,uint256)",
      "arguments": ["0x9202A8Ee7C3E3926352A3f713e6E86952c2232FB", "101030000000000"],
      "transaction": {
        "from": "0x4e5dc9df946500b07e9c66e4dd29bf9cd062002b",
        "to": "0x634afea4d8cbe4c1deb5b5fde992f92e92ad4214",
        "gas": "0xf7fe",
        "value": "0x0",
        "input": "0x095ea7b30000000000000000000000009202a8ee7c3e3926352a3f713e6e86952c2232fb00000000000000000000000000000000000000000000000000005be2e142fc00",
        "nonce": "0xb687",
        "chainId": "0x14a34"
      },
      "additionalContracts": [],
      "isFixedGasLimit": false
    },
    {
      "hash": null,
      "transactionType": "CALL",
      "contractName": null,
      "contractAddress": "0x036cbd53842c5426634e7929541ec2318f3dcf7e",
      "function": "approve(address,uint256)",
      "arguments": ["0x9202A8Ee7C3E3926352A3f713e6E86952c2232FB", "484608251"],
      "transaction": {
        "from": "0x4e5dc9df946500b07e9c66e4dd29bf9cd062002b",
        "to": "0x036cbd53842c5426634e7929541ec2318f3dcf7e",
        "gas": "0x13cc6",
        "value": "0x0",
        "input": "0x095ea7b30000000000000000000000009202a8ee7c3e3926352a3f713e6e86952c2232fb000000000000000000000000000000000000000000000000000000001ce288fb",
        "nonce": "0xb688",
        "chainId": "0x14a34"
      },
      "additionalContracts": [],
      "isFixedGasLimit": false
    },
    {
      "hash": null,
      "transactionType": "CALL",
      "contractName": null,
      "contractAddress": "0x9202a8ee7c3e3926352a3f713e6e86952c2232fb",
      "function": "placeBet(uint256,uint256,uint256,address,uint8)",
      "arguments": ["4", "1", "30308999999999", "0x4E5dC9dF946500b07E9c66e4DD29bf9CD062002B", "1"],
      "transaction": {
        "from": "0x4e5dc9df946500b07e9c66e4dd29bf9cd062002b",
        "to": "0x9202a8ee7c3e3926352a3f713e6e86952c2232fb",
        "gas": "0x826dc",
        "value": "0x0",
        "input": "0x011c4dd90000000000000000000000000000000000000000000000000000000000000004000000000000000000000000000000000000000000000000000000000000000100000000000000000000000000000000000000000000000000001b90dd2db1ff0000000000000000000000004e5dc9df946500b07e9c66e4dd29bf9cd062002b0000000000000000000000000000000000000000000000000000000000000001",
        "nonce": "0xb689",
        "chainId": "0x14a34"
      },
      "additionalContracts": [],
      "isFixedGasLimit": false
    },
    {
      "hash": null,
      "transactionType": "CALL",
      "contractName": null,
      "contractAddress": "0x9202a8ee7c3e3926352a3f713e6e86952c2232fb",
      "function": "placeBet(uint256,uint256,uint256,address,uint8)",
      "arguments": ["5", "0", "30308999999999", "0x4E5dC9dF946500b07E9c66e4DD29bf9CD062002B", "1"],
      "transaction": {
        "from": "0x4e5dc9df946500b07e9c66e4dd29bf9cd062002b",
        "to": "0x9202a8ee7c3e3926352a3f713e6e86952c2232fb",
        "gas": "0x6a7c1",
        "value": "0x0",
        "input": "0x011c4dd90000000000000000000000000000000000000000000000000000000000000005000000000000000000000000000000000000000000000000000000000000000000000000000000000000000000000000000000000000000000001b90dd2db1ff0000000000000000000000004e5dc9df946500b07e9c66e4dd29bf9cd062002b0000000000000000000000000000000000000000000000000000000000000001",
        "nonce": "0xb68a",
        "chainId": "0x14a34"
      },
      "additionalContracts": [],
      "isFixedGasLimit": false
    },
    {
      "hash": null,
      "transactionType": "CALL",
      "contractName": null,
      "contractAddress": "0x9202a8ee7c3e3926352a3f713e6e86952c2232fb",
      "function": "placeBet(uint256,uint256,uint256,address,uint8)",
      "arguments": ["6", "1", "30308999999999", "0x4E5dC9dF946500b07E9c66e4DD29bf9CD062002B", "1"],
      "transaction": {
        "from": "0x4e5dc9df946500b07e9c66e4dd29bf9cd062002b",
        "to": "0x9202a8ee7c3e3926352a3f713e6e86952c2232fb",
        "gas": "0x797fe",
        "value": "0x0",
        "input": "0x011c4dd90000000000000000000000000000000000000000000000000000000000000006000000000000000000000000000000000000000000000000000000000000000100000000000000000000000000000000000000000000000000001b90dd2db1ff0000000000000000000000004e5dc9df946500b07e9c66e4dd29bf9cd062002b0000000000000000000000000000000000000000000000000000000000000001",
        "nonce": "0xb68b",
        "chainId": "0x14a34"
      },
      "additionalContracts": [],
      "isFixedGasLimit": false
    },
    {
      "hash": null,
      "transactionType": "CALL",
      "contractName": null,
      "contractAddress": "0x9202a8ee7c3e3926352a3f713e6e86952c2232fb",
      "function": "placeBet(uint256,uint256,uint256,address,uint8)",
      "arguments": ["4", "1", "5000000", "0x4E5dC9dF946500b07E9c66e4DD29bf9CD062002B", "0"],
      "transaction": {
        "from": "0x4e5dc9df946500b07e9c66e4dd29bf9cd062002b",
        "to": "0x9202a8ee7c3e3926352a3f713e6e86952c2232fb",
        "gas": "0x73188",
        "value": "0x0",
        "input": "0x011c4dd90000000000000000000000000000000000000000000000000000000000000004000000000000000000000000000000000000000000000000000000000000000100000000000000000000000000000000000000000000000000000000004c4b400000000000000000000000004e5dc9df946500b07e9c66e4dd29bf9cd062002b0000000000000000000000000000000000000000000000000000000000000000",
        "nonce": "0xb68c",
        "chainId": "0x14a34"
      },
      "additionalContracts": [],
      "isFixedGasLimit": false
    },
    {
      "hash": null,
      "transactionType": "CALL",
      "contractName": null,
      "contractAddress": "0x9202a8ee7c3e3926352a3f713e6e86952c2232fb",
      "function": "placeBet(uint256,uint256,uint256,address,uint8)",
      "arguments": ["5", "0", "4000000", "0x4E5dC9dF946500b07E9c66e4DD29bf9CD062002B", "0"],
      "transaction": {
        "from": "0x4e5dc9df946500b07e9c66e4dd29bf9cd062002b",
        "to": "0x9202a8ee7c3e3926352a3f713e6e86952c2232fb",
        "gas": "0x6e49a",
        "value": "0x0",
        "input": "0x011c4dd90000000000000000000000000000000000000000000000000000000000000005000000000000000000000000000000000000000000000000000000000000000000000000000000000000000000000000000000000000000000000000003d09000000000000000000000000004e5dc9df946500b07e9c66e4dd29bf9cd062002b0000000000000000000000000000000000000000000000000000000000000000",
        "nonce": "0xb68d",
        "chainId": "0x14a34"
      },
      "additionalContracts": [],
      "isFixedGasLimit": false
    },
    {
      "hash": null,
      "transactionType": "CALL",
      "contractName": null,
      "contractAddress": "0x9202a8ee7c3e3926352a3f713e6e86952c2232fb",
      "function": "placeBet(uint256,uint256,uint256,address,uint8)",
      "arguments": ["6", "1", "4000000", "0x4E5dC9dF946500b07E9c66e4DD29bf9CD062002B", "0"],
      "transaction": {
        "from": "0x4e5dc9df946500b07e9c66e4dd29bf9cd062002b",
        "to": "0x9202a8ee7c3e3926352a3f713e6e86952c2232fb",
        "gas": "0x706cc",
        "value": "0x0",
        "input": "0x011c4dd90000000000000000000000000000000000000000000000000000000000000006000000000000000000000000000000000000000000000000000000000000000100000000000000000000000000000000000000000000000000000000003d09000000000000000000000000004e5dc9df946500b07e9c66e4dd29bf9cd062002b0000000000000000000000000000000000000000000000000000000000000000",
        "nonce": "0xb68e",
        "chainId": "0x14a34"
      },
      "additionalContracts": [],
      "isFixedGasLimit": false
    },
    {
      "hash": null,
      "transactionType": "CALL",
      "contractName": null,
      "contractAddress": "0x634afea4d8cbe4c1deb5b5fde992f92e92ad4214",
      "function": "approve(address,uint256)",
      "arguments": ["0x9202A8Ee7C3E3926352A3f713e6E86952c2232FB", "101030000000000"],
      "transaction": {
        "from": "0x67bfd0b42f5f39710b4e90301289f81eab6315da",
        "to": "0x634afea4d8cbe4c1deb5b5fde992f92e92ad4214",
        "gas": "0xf7fe",
        "value": "0x0",
        "input": "0x095ea7b30000000000000000000000009202a8ee7c3e3926352a3f713e6e86952c2232fb00000000000000000000000000000000000000000000000000005be2e142fc00",
        "nonce": "0x1cdc8",
        "chainId": "0x14a34"
      },
      "additionalContracts": [],
      "isFixedGasLimit": false
    },
    {
      "hash": null,
      "transactionType": "CALL",
      "contractName": null,
      "contractAddress": "0x036cbd53842c5426634e7929541ec2318f3dcf7e",
      "function": "approve(address,uint256)",
      "arguments": ["0x9202A8Ee7C3E3926352A3f713e6E86952c2232FB", "475000000"],
      "transaction": {
        "from": "0x67bfd0b42f5f39710b4e90301289f81eab6315da",
        "to": "0x036cbd53842c5426634e7929541ec2318f3dcf7e",
        "gas": "0x13cc6",
        "value": "0x0",
        "input": "0x095ea7b30000000000000000000000009202a8ee7c3e3926352a3f713e6e86952c2232fb000000000000000000000000000000000000000000000000000000001c4fecc0",
        "nonce": "0x1cdc9",
        "chainId": "0x14a34"
      },
      "additionalContracts": [],
      "isFixedGasLimit": false
    },
    {
      "hash": null,
      "transactionType": "CALL",
      "contractName": null,
      "contractAddress": "0x9202a8ee7c3e3926352a3f713e6e86952c2232fb",
      "function": "placeBet(uint256,uint256,uint256,address,uint8)",
      "arguments": ["4", "1", "30308999999999", "0x67bFd0B42F5f39710B4E90301289F81Eab6315dA", "1"],
      "transaction": {
        "from": "0x67bfd0b42f5f39710b4e90301289f81eab6315da",
        "to": "0x9202a8ee7c3e3926352a3f713e6e86952c2232fb",
        "gas": "0x69e42",
        "value": "0x0",
        "input": "0x011c4dd90000000000000000000000000000000000000000000000000000000000000004000000000000000000000000000000000000000000000000000000000000000100000000000000000000000000000000000000000000000000001b90dd2db1ff00000000000000000000000067bfd0b42f5f39710b4e90301289f81eab6315da0000000000000000000000000000000000000000000000000000000000000001",
        "nonce": "0x1cdca",
        "chainId": "0x14a34"
      },
      "additionalContracts": [],
      "isFixedGasLimit": false
    },
    {
      "hash": null,
      "transactionType": "CALL",
      "contractName": null,
      "contractAddress": "0x9202a8ee7c3e3926352a3f713e6e86952c2232fb",
      "function": "placeBet(uint256,uint256,uint256,address,uint8)",
      "arguments": ["5", "0", "30308999999999", "0x67bFd0B42F5f39710B4E90301289F81Eab6315dA", "1"],
      "transaction": {
        "from": "0x67bfd0b42f5f39710b4e90301289f81eab6315da",
        "to": "0x9202a8ee7c3e3926352a3f713e6e86952c2232fb",
        "gas": "0x5ef5c",
        "value": "0x0",
        "input": "0x011c4dd90000000000000000000000000000000000000000000000000000000000000005000000000000000000000000000000000000000000000000000000000000000000000000000000000000000000000000000000000000000000001b90dd2db1ff00000000000000000000000067bfd0b42f5f39710b4e90301289f81eab6315da0000000000000000000000000000000000000000000000000000000000000001",
        "nonce": "0x1cdcb",
        "chainId": "0x14a34"
      },
      "additionalContracts": [],
      "isFixedGasLimit": false
    },
    {
      "hash": null,
      "transactionType": "CALL",
      "contractName": null,
      "contractAddress": "0x9202a8ee7c3e3926352a3f713e6e86952c2232fb",
      "function": "placeBet(uint256,uint256,uint256,address,uint8)",
      "arguments": ["6", "1", "30308999999999", "0x67bFd0B42F5f39710B4E90301289F81Eab6315dA", "1"],
      "transaction": {
        "from": "0x67bfd0b42f5f39710b4e90301289f81eab6315da",
        "to": "0x9202a8ee7c3e3926352a3f713e6e86952c2232fb",
        "gas": "0x6d4bf",
        "value": "0x0",
        "input": "0x011c4dd90000000000000000000000000000000000000000000000000000000000000006000000000000000000000000000000000000000000000000000000000000000100000000000000000000000000000000000000000000000000001b90dd2db1ff00000000000000000000000067bfd0b42f5f39710b4e90301289f81eab6315da0000000000000000000000000000000000000000000000000000000000000001",
        "nonce": "0x1cdcc",
        "chainId": "0x14a34"
      },
      "additionalContracts": [],
      "isFixedGasLimit": false
    },
    {
      "hash": null,
      "transactionType": "CALL",
      "contractName": null,
      "contractAddress": "0x9202a8ee7c3e3926352a3f713e6e86952c2232fb",
      "function": "placeBet(uint256,uint256,uint256,address,uint8)",
      "arguments": ["4", "0", "1000000", "0x67bFd0B42F5f39710B4E90301289F81Eab6315dA", "0"],
      "transaction": {
        "from": "0x67bfd0b42f5f39710b4e90301289f81eab6315da",
        "to": "0x9202a8ee7c3e3926352a3f713e6e86952c2232fb",
        "gas": "0x65e42",
        "value": "0x0",
        "input": "0x011c4dd90000000000000000000000000000000000000000000000000000000000000004000000000000000000000000000000000000000000000000000000000000000000000000000000000000000000000000000000000000000000000000000f424000000000000000000000000067bfd0b42f5f39710b4e90301289f81eab6315da0000000000000000000000000000000000000000000000000000000000000000",
        "nonce": "0x1cdcd",
        "chainId": "0x14a34"
      },
      "additionalContracts": [],
      "isFixedGasLimit": false
    },
    {
      "hash": null,
      "transactionType": "CALL",
      "contractName": null,
      "contractAddress": "0x9202a8ee7c3e3926352a3f713e6e86952c2232fb",
      "function": "placeBet(uint256,uint256,uint256,address,uint8)",
      "arguments": ["5", "1", "1000000", "0x67bFd0B42F5f39710B4E90301289F81Eab6315dA", "0"],
      "transaction": {
        "from": "0x67bfd0b42f5f39710b4e90301289f81eab6315da",
        "to": "0x9202a8ee7c3e3926352a3f713e6e86952c2232fb",
        "gas": "0x6e27e",
        "value": "0x0",
        "input": "0x011c4dd90000000000000000000000000000000000000000000000000000000000000005000000000000000000000000000000000000000000000000000000000000000100000000000000000000000000000000000000000000000000000000000f424000000000000000000000000067bfd0b42f5f39710b4e90301289f81eab6315da0000000000000000000000000000000000000000000000000000000000000000",
        "nonce": "0x1cdce",
        "chainId": "0x14a34"
      },
      "additionalContracts": [],
      "isFixedGasLimit": false
    },
    {
      "hash": null,
      "transactionType": "CALL",
      "contractName": null,
      "contractAddress": "0x9202a8ee7c3e3926352a3f713e6e86952c2232fb",
      "function": "placeBet(uint256,uint256,uint256,address,uint8)",
      "arguments": ["6", "1", "5000000", "0x67bFd0B42F5f39710B4E90301289F81Eab6315dA", "0"],
      "transaction": {
        "from": "0x67bfd0b42f5f39710b4e90301289f81eab6315da",
        "to": "0x9202a8ee7c3e3926352a3f713e6e86952c2232fb",
        "gas": "0x6aabb",
        "value": "0x0",
        "input": "0x011c4dd90000000000000000000000000000000000000000000000000000000000000006000000000000000000000000000000000000000000000000000000000000000100000000000000000000000000000000000000000000000000000000004c4b4000000000000000000000000067bfd0b42f5f39710b4e90301289f81eab6315da0000000000000000000000000000000000000000000000000000000000000000",
        "nonce": "0x1cdcf",
        "chainId": "0x14a34"
      },
      "additionalContracts": [],
      "isFixedGasLimit": false
    },
    {
      "hash": null,
      "transactionType": "CALL",
      "contractName": null,
      "contractAddress": "0x634afea4d8cbe4c1deb5b5fde992f92e92ad4214",
      "function": "approve(address,uint256)",
      "arguments": ["0x9202A8Ee7C3E3926352A3f713e6E86952c2232FB", "101030000000000"],
      "transaction": {
        "from": "0x12be474d127757d0a6a36631294f8ffbcdef44f8",
        "to": "0x634afea4d8cbe4c1deb5b5fde992f92e92ad4214",
        "gas": "0xf7fe",
        "value": "0x0",
        "input": "0x095ea7b30000000000000000000000009202a8ee7c3e3926352a3f713e6e86952c2232fb00000000000000000000000000000000000000000000000000005be2e142fc00",
        "nonce": "0x24c51",
        "chainId": "0x14a34"
      },
      "additionalContracts": [],
      "isFixedGasLimit": false
    },
    {
      "hash": null,
      "transactionType": "CALL",
      "contractName": null,
      "contractAddress": "0x036cbd53842c5426634e7929541ec2318f3dcf7e",
      "function": "approve(address,uint256)",
      "arguments": ["0x9202A8Ee7C3E3926352A3f713e6E86952c2232FB", "495022751"],
      "transaction": {
        "from": "0x12be474d127757d0a6a36631294f8ffbcdef44f8",
        "to": "0x036cbd53842c5426634e7929541ec2318f3dcf7e",
        "gas": "0x13cc6",
        "value": "0x0",
        "input": "0x095ea7b30000000000000000000000009202a8ee7c3e3926352a3f713e6e86952c2232fb000000000000000000000000000000000000000000000000000000001d81729f",
        "nonce": "0x24c52",
        "chainId": "0x14a34"
      },
      "additionalContracts": [],
      "isFixedGasLimit": false
    },
    {
      "hash": null,
      "transactionType": "CALL",
      "contractName": null,
      "contractAddress": "0x9202a8ee7c3e3926352a3f713e6e86952c2232fb",
      "function": "placeBet(uint256,uint256,uint256,address,uint8)",
      "arguments": ["4", "0", "30308999999999", "0x12BE474D127757d0a6a36631294F8FfBCdeF44F8", "1"],
      "transaction": {
        "from": "0x12be474d127757d0a6a36631294f8ffbcdef44f8",
        "to": "0x9202a8ee7c3e3926352a3f713e6e86952c2232fb",
        "gas": "0x6f1dc",
        "value": "0x0",
        "input": "0x011c4dd90000000000000000000000000000000000000000000000000000000000000004000000000000000000000000000000000000000000000000000000000000000000000000000000000000000000000000000000000000000000001b90dd2db1ff00000000000000000000000012be474d127757d0a6a36631294f8ffbcdef44f80000000000000000000000000000000000000000000000000000000000000001",
        "nonce": "0x24c53",
        "chainId": "0x14a34"
      },
      "additionalContracts": [],
      "isFixedGasLimit": false
    },
    {
      "hash": null,
      "transactionType": "CALL",
      "contractName": null,
      "contractAddress": "0x9202a8ee7c3e3926352a3f713e6e86952c2232fb",
      "function": "placeBet(uint256,uint256,uint256,address,uint8)",
      "arguments": ["5", "0", "30308999999999", "0x12BE474D127757d0a6a36631294F8FfBCdeF44F8", "1"],
      "transaction": {
        "from": "0x12be474d127757d0a6a36631294f8ffbcdef44f8",
        "to": "0x9202a8ee7c3e3926352a3f713e6e86952c2232fb",
        "gas": "0x5ef5c",
        "value": "0x0",
        "input": "0x011c4dd90000000000000000000000000000000000000000000000000000000000000005000000000000000000000000000000000000000000000000000000000000000000000000000000000000000000000000000000000000000000001b90dd2db1ff00000000000000000000000012be474d127757d0a6a36631294f8ffbcdef44f80000000000000000000000000000000000000000000000000000000000000001",
        "nonce": "0x24c54",
        "chainId": "0x14a34"
      },
      "additionalContracts": [],
      "isFixedGasLimit": false
    },
    {
      "hash": null,
      "transactionType": "CALL",
      "contractName": null,
      "contractAddress": "0x9202a8ee7c3e3926352a3f713e6e86952c2232fb",
      "function": "placeBet(uint256,uint256,uint256,address,uint8)",
      "arguments": ["6", "0", "30308999999999", "0x12BE474D127757d0a6a36631294F8FfBCdeF44F8", "1"],
      "transaction": {
        "from": "0x12be474d127757d0a6a36631294f8ffbcdef44f8",
        "to": "0x9202a8ee7c3e3926352a3f713e6e86952c2232fb",
        "gas": "0x6646b",
        "value": "0x0",
        "input": "0x011c4dd90000000000000000000000000000000000000000000000000000000000000006000000000000000000000000000000000000000000000000000000000000000000000000000000000000000000000000000000000000000000001b90dd2db1ff00000000000000000000000012be474d127757d0a6a36631294f8ffbcdef44f80000000000000000000000000000000000000000000000000000000000000001",
        "nonce": "0x24c55",
        "chainId": "0x14a34"
      },
      "additionalContracts": [],
      "isFixedGasLimit": false
    },
    {
      "hash": null,
      "transactionType": "CALL",
      "contractName": null,
      "contractAddress": "0x9202a8ee7c3e3926352a3f713e6e86952c2232fb",
      "function": "placeBet(uint256,uint256,uint256,address,uint8)",
      "arguments": ["4", "0", "4000000", "0x12BE474D127757d0a6a36631294F8FfBCdeF44F8", "0"],
      "transaction": {
        "from": "0x12be474d127757d0a6a36631294f8ffbcdef44f8",
        "to": "0x9202a8ee7c3e3926352a3f713e6e86952c2232fb",
        "gas": "0x668cb",
        "value": "0x0",
        "input": "0x011c4dd90000000000000000000000000000000000000000000000000000000000000004000000000000000000000000000000000000000000000000000000000000000000000000000000000000000000000000000000000000000000000000003d090000000000000000000000000012be474d127757d0a6a36631294f8ffbcdef44f80000000000000000000000000000000000000000000000000000000000000000",
        "nonce": "0x24c56",
        "chainId": "0x14a34"
      },
      "additionalContracts": [],
      "isFixedGasLimit": false
    },
    {
      "hash": null,
      "transactionType": "CALL",
      "contractName": null,
      "contractAddress": "0x9202a8ee7c3e3926352a3f713e6e86952c2232fb",
      "function": "placeBet(uint256,uint256,uint256,address,uint8)",
      "arguments": ["5", "1", "5000000", "0x12BE474D127757d0a6a36631294F8FfBCdeF44F8", "0"],
      "transaction": {
        "from": "0x12be474d127757d0a6a36631294f8ffbcdef44f8",
        "to": "0x9202a8ee7c3e3926352a3f713e6e86952c2232fb",
        "gas": "0x6863b",
        "value": "0x0",
        "input": "0x011c4dd90000000000000000000000000000000000000000000000000000000000000005000000000000000000000000000000000000000000000000000000000000000100000000000000000000000000000000000000000000000000000000004c4b4000000000000000000000000012be474d127757d0a6a36631294f8ffbcdef44f80000000000000000000000000000000000000000000000000000000000000000",
        "nonce": "0x24c57",
        "chainId": "0x14a34"
      },
      "additionalContracts": [],
      "isFixedGasLimit": false
    },
    {
      "hash": null,
      "transactionType": "CALL",
      "contractName": null,
      "contractAddress": "0x9202a8ee7c3e3926352a3f713e6e86952c2232fb",
      "function": "placeBet(uint256,uint256,uint256,address,uint8)",
      "arguments": ["6", "1", "3000000", "0x12BE474D127757d0a6a36631294F8FfBCdeF44F8", "0"],
      "transaction": {
        "from": "0x12be474d127757d0a6a36631294f8ffbcdef44f8",
        "to": "0x9202a8ee7c3e3926352a3f713e6e86952c2232fb",
        "gas": "0x69f07",
        "value": "0x0",
        "input": "0x011c4dd90000000000000000000000000000000000000000000000000000000000000006000000000000000000000000000000000000000000000000000000000000000100000000000000000000000000000000000000000000000000000000002dc6c000000000000000000000000012be474d127757d0a6a36631294f8ffbcdef44f80000000000000000000000000000000000000000000000000000000000000000",
        "nonce": "0x24c58",
        "chainId": "0x14a34"
      },
      "additionalContracts": [],
      "isFixedGasLimit": false
    },
    {
      "hash": null,
      "transactionType": "CALL",
      "contractName": null,
      "contractAddress": "0x9202a8ee7c3e3926352a3f713e6e86952c2232fb",
      "function": "gradeBet(uint256,uint256)",
      "arguments": ["4", "0"],
      "transaction": {
        "from": "0x7956c2c1b85f5ac14c2c537f669b65991428e268",
        "to": "0x9202a8ee7c3e3926352a3f713e6e86952c2232fb",
        "gas": "0x6faf4",
        "value": "0x0",
        "input": "0xff0beb6200000000000000000000000000000000000000000000000000000000000000040000000000000000000000000000000000000000000000000000000000000000",
        "nonce": "0xa41",
        "chainId": "0x14a34"
      },
      "additionalContracts": [],
      "isFixedGasLimit": false
    },
    {
      "hash": null,
      "transactionType": "CALL",
      "contractName": null,
      "contractAddress": "0x9202a8ee7c3e3926352a3f713e6e86952c2232fb",
      "function": "gradeBet(uint256,uint256)",
      "arguments": ["5", "0"],
      "transaction": {
        "from": "0x7956c2c1b85f5ac14c2c537f669b65991428e268",
        "to": "0x9202a8ee7c3e3926352a3f713e6e86952c2232fb",
        "gas": "0x5a169",
        "value": "0x0",
        "input": "0xff0beb6200000000000000000000000000000000000000000000000000000000000000050000000000000000000000000000000000000000000000000000000000000000",
        "nonce": "0xa42",
        "chainId": "0x14a34"
      },
      "additionalContracts": [],
      "isFixedGasLimit": false
    },
    {
      "hash": null,
      "transactionType": "CALL",
      "contractName": null,
      "contractAddress": "0x9202a8ee7c3e3926352a3f713e6e86952c2232fb",
      "function": "gradeBet(uint256,uint256)",
      "arguments": ["6", "0"],
      "transaction": {
        "from": "0x7956c2c1b85f5ac14c2c537f669b65991428e268",
        "to": "0x9202a8ee7c3e3926352a3f713e6e86952c2232fb",
        "gas": "0x4c38c",
        "value": "0x0",
        "input": "0xff0beb6200000000000000000000000000000000000000000000000000000000000000060000000000000000000000000000000000000000000000000000000000000000",
        "nonce": "0xa43",
        "chainId": "0x14a34"
      },
      "additionalContracts": [],
      "isFixedGasLimit": false
    },
    {
      "hash": null,
      "transactionType": "CALL",
      "contractName": null,
      "contractAddress": "0x9202a8ee7c3e3926352a3f713e6e86952c2232fb",
      "function": "claimPayouts(uint256[])",
      "arguments": ["[1, 2, 3, 4, 5, 6]"],
      "transaction": {
        "from": "0x4e5dc9df946500b07e9c66e4dd29bf9cd062002b",
        "to": "0x9202a8ee7c3e3926352a3f713e6e86952c2232fb",
        "gas": "0x136a2",
        "value": "0x0",
        "input": "0x3d695c5200000000000000000000000000000000000000000000000000000000000000200000000000000000000000000000000000000000000000000000000000000006000000000000000000000000000000000000000000000000000000000000000100000000000000000000000000000000000000000000000000000000000000020000000000000000000000000000000000000000000000000000000000000003000000000000000000000000000000000000000000000000000000000000000400000000000000000000000000000000000000000000000000000000000000050000000000000000000000000000000000000000000000000000000000000006",
        "nonce": "0xb68f",
        "chainId": "0x14a34"
      },
      "additionalContracts": [],
      "isFixedGasLimit": false
    },
    {
      "hash": null,
      "transactionType": "CALL",
      "contractName": null,
      "contractAddress": "0x9202a8ee7c3e3926352a3f713e6e86952c2232fb",
      "function": "withdraw(uint8,uint256)",
      "arguments": ["0", "13910000"],
      "transaction": {
        "from": "0x4e5dc9df946500b07e9c66e4dd29bf9cd062002b",
        "to": "0x9202a8ee7c3e3926352a3f713e6e86952c2232fb",
        "gas": "0x125e2",
        "value": "0x0",
        "input": "0x3f48991400000000000000000000000000000000000000000000000000000000000000000000000000000000000000000000000000000000000000000000000000d43ff0",
        "nonce": "0xb690",
        "chainId": "0x14a34"
      },
      "additionalContracts": [],
      "isFixedGasLimit": false
    },
    {
      "hash": null,
      "transactionType": "CALL",
      "contractName": null,
      "contractAddress": "0x9202a8ee7c3e3926352a3f713e6e86952c2232fb",
      "function": "withdraw(uint8,uint256)",
      "arguments": ["1", "30308999999999"],
      "transaction": {
        "from": "0x4e5dc9df946500b07e9c66e4dd29bf9cd062002b",
        "to": "0x9202a8ee7c3e3926352a3f713e6e86952c2232fb",
        "gas": "0xe7bd",
        "value": "0x0",
        "input": "0x3f489914000000000000000000000000000000000000000000000000000000000000000100000000000000000000000000000000000000000000000000001b90dd2db1ff",
        "nonce": "0xb691",
        "chainId": "0x14a34"
      },
      "additionalContracts": [],
      "isFixedGasLimit": false
    },
    {
      "hash": null,
      "transactionType": "CALL",
      "contractName": null,
      "contractAddress": "0x9202a8ee7c3e3926352a3f713e6e86952c2232fb",
      "function": "claimPayouts(uint256[])",
      "arguments": ["[7, 8, 9, 10, 11, 12]"],
      "transaction": {
        "from": "0x67bfd0b42f5f39710b4e90301289f81eab6315da",
        "to": "0x9202a8ee7c3e3926352a3f713e6e86952c2232fb",
        "gas": "0x136a2",
        "value": "0x0",
        "input": "0x3d695c5200000000000000000000000000000000000000000000000000000000000000200000000000000000000000000000000000000000000000000000000000000006000000000000000000000000000000000000000000000000000000000000000700000000000000000000000000000000000000000000000000000000000000080000000000000000000000000000000000000000000000000000000000000009000000000000000000000000000000000000000000000000000000000000000a000000000000000000000000000000000000000000000000000000000000000b000000000000000000000000000000000000000000000000000000000000000c",
        "nonce": "0x1cdd0",
        "chainId": "0x14a34"
      },
      "additionalContracts": [],
      "isFixedGasLimit": false
    },
    {
      "hash": null,
      "transactionType": "CALL",
      "contractName": null,
      "contractAddress": "0x9202a8ee7c3e3926352a3f713e6e86952c2232fb",
      "function": "withdraw(uint8,uint256)",
      "arguments": ["0", "6982000"],
      "transaction": {
        "from": "0x67bfd0b42f5f39710b4e90301289f81eab6315da",
        "to": "0x9202a8ee7c3e3926352a3f713e6e86952c2232fb",
        "gas": "0x125e2",
        "value": "0x0",
        "input": "0x3f489914000000000000000000000000000000000000000000000000000000000000000000000000000000000000000000000000000000000000000000000000006a8970",
        "nonce": "0x1cdd1",
        "chainId": "0x14a34"
      },
      "additionalContracts": [],
      "isFixedGasLimit": false
    },
    {
      "hash": null,
      "transactionType": "CALL",
      "contractName": null,
      "contractAddress": "0x9202a8ee7c3e3926352a3f713e6e86952c2232fb",
      "function": "withdraw(uint8,uint256)",
      "arguments": ["1", "30308999999999"],
      "transaction": {
        "from": "0x67bfd0b42f5f39710b4e90301289f81eab6315da",
        "to": "0x9202a8ee7c3e3926352a3f713e6e86952c2232fb",
        "gas": "0xe7bd",
        "value": "0x0",
        "input": "0x3f489914000000000000000000000000000000000000000000000000000000000000000100000000000000000000000000000000000000000000000000001b90dd2db1ff",
        "nonce": "0x1cdd2",
        "chainId": "0x14a34"
      },
      "additionalContracts": [],
      "isFixedGasLimit": false
    },
    {
      "hash": null,
      "transactionType": "CALL",
      "contractName": null,
      "contractAddress": "0x9202a8ee7c3e3926352a3f713e6e86952c2232fb",
      "function": "claimPayouts(uint256[])",
      "arguments": ["[13, 14, 15, 16, 17, 18]"],
      "transaction": {
        "from": "0x12be474d127757d0a6a36631294f8ffbcdef44f8",
        "to": "0x9202a8ee7c3e3926352a3f713e6e86952c2232fb",
        "gas": "0x136a2",
        "value": "0x0",
        "input": "0x3d695c5200000000000000000000000000000000000000000000000000000000000000200000000000000000000000000000000000000000000000000000000000000006000000000000000000000000000000000000000000000000000000000000000d000000000000000000000000000000000000000000000000000000000000000e000000000000000000000000000000000000000000000000000000000000000f000000000000000000000000000000000000000000000000000000000000001000000000000000000000000000000000000000000000000000000000000000110000000000000000000000000000000000000000000000000000000000000012",
        "nonce": "0x24c59",
        "chainId": "0x14a34"
      },
      "additionalContracts": [],
      "isFixedGasLimit": false
    },
    {
      "hash": null,
      "transactionType": "CALL",
      "contractName": null,
      "contractAddress": "0x9202a8ee7c3e3926352a3f713e6e86952c2232fb",
      "function": "withdraw(uint8,uint256)",
      "arguments": ["0", "10928000"],
      "transaction": {
        "from": "0x12be474d127757d0a6a36631294f8ffbcdef44f8",
        "to": "0x9202a8ee7c3e3926352a3f713e6e86952c2232fb",
        "gas": "0x125e2",
        "value": "0x0",
        "input": "0x3f48991400000000000000000000000000000000000000000000000000000000000000000000000000000000000000000000000000000000000000000000000000a6bf80",
        "nonce": "0x24c5a",
        "chainId": "0x14a34"
      },
      "additionalContracts": [],
      "isFixedGasLimit": false
    },
    {
      "hash": null,
      "transactionType": "CALL",
      "contractName": null,
      "contractAddress": "0x9202a8ee7c3e3926352a3f713e6e86952c2232fb",
      "function": "withdraw(uint8,uint256)",
      "arguments": ["1", "210526313999995"],
      "transaction": {
        "from": "0x12be474d127757d0a6a36631294f8ffbcdef44f8",
        "to": "0x9202a8ee7c3e3926352a3f713e6e86952c2232fb",
        "gas": "0xe7bd",
        "value": "0x0",
        "input": "0x3f48991400000000000000000000000000000000000000000000000000000000000000010000000000000000000000000000000000000000000000000000bf78fa296e7b",
        "nonce": "0x24c5b",
        "chainId": "0x14a34"
      },
      "additionalContracts": [],
      "isFixedGasLimit": false
    }
  ],
  "receipts": [
    {
      "status": "0x1",
      "cumulativeGasUsed": "0x78b2fe",
      "logs": [
        {
          "address": "0x634afea4d8cbe4c1deb5b5fde992f92e92ad4214",
          "topics": [
            "0xddf252ad1be2c89b69c2b068fc378daa952ba7f163c4a11628f55a4df523b3ef",
            "0x0000000000000000000000000000000000000000000000000000000000000000",
            "0x0000000000000000000000004e5dc9df946500b07e9c66e4dd29bf9cd062002b"
          ],
          "data": "0x00000000000000000000000000000000000000000000000000000002540be400",
          "blockHash": "0x532e509c492fb6b3a205d5ada7bc3d3cc51c895a23745f94c2a78148ae5fd1fa",
          "blockNumber": "0x16fc358",
          "transactionHash": "0xaa5ca05724b6165fd811b13786def25612dbe2d1dbe660e7d220d469d5e890ca",
          "transactionIndex": "0x22",
          "logIndex": "0xf2",
          "removed": false
        }
      ],
      "logsBloom": "0x00000000000000000000000000000000000000000000000000000000000000000000000000000004000800000000000000000000000000000000000000000000000000000000000000000008000000000000000000000000000000000000000000000000020000000000000000000800000000000000000000000010000000000000000000000000004000000000000000000000000000000000000000000000000000000000000000000000000000000000000000000000000000000000000000010002000000000000000000000000000000000000800000000000000020000000000000000000000000000000000000000000000000000000000400000000",
      "type": "0x2",
      "transactionHash": "0xaa5ca05724b6165fd811b13786def25612dbe2d1dbe660e7d220d469d5e890ca",
      "transactionIndex": "0x22",
      "blockHash": "0x532e509c492fb6b3a205d5ada7bc3d3cc51c895a23745f94c2a78148ae5fd1fa",
      "blockNumber": "0x16fc358",
      "gasUsed": "0x8cc8",
      "effectiveGasPrice": "0xece88",
      "from": "0x7956c2c1b85f5ac14c2c537f669b65991428e268",
      "to": "0x634afea4d8cbe4c1deb5b5fde992f92e92ad4214",
      "contractAddress": null,
      "l1BaseFeeScalar": "0x44d",
      "l1BlobBaseFee": "0x1",
      "l1BlobBaseFeeScalar": "0xa118b",
      "l1Fee": "0x20e0a",
      "l1GasPrice": "0x12a78",
      "l1GasUsed": "0x640"
    },
    {
      "status": "0x1",
      "cumulativeGasUsed": "0x7e999b",
      "logs": [
        {
          "address": "0x634afea4d8cbe4c1deb5b5fde992f92e92ad4214",
          "topics": [
            "0xddf252ad1be2c89b69c2b068fc378daa952ba7f163c4a11628f55a4df523b3ef",
            "0x0000000000000000000000000000000000000000000000000000000000000000",
            "0x00000000000000000000000067bfd0b42f5f39710b4e90301289f81eab6315da"
          ],
          "data": "0x00000000000000000000000000000000000000000000000000000002540be400",
          "blockHash": "0xbf91a5e1c4c0eb93f2f958ea4097d81e4b34f8ef3a60904ba95548ddca441dd0",
          "blockNumber": "0x16fc359",
          "transactionHash": "0x7ddd5543ef307bf8ab4662b45929352a2cf22a33b47bbf9d49be28ca5d5e213c",
          "transactionIndex": "0x2b",
          "logIndex": "0xac",
          "removed": false
        }
      ],
      "logsBloom": "0x00000000000000000080000000000000000000000000000000000000000000000000000000000004000800000000000000000000000000000000000000000000000000000000000000000008000000000000000000000000000000000000000000000000020000000000000000000800000000000000000000000010000000000000000000000000000000000000000000000000000000000000000000000000000000000000280000000000000000000000000000000000000000000000000000000002000000000000000000000000000000000000000000000000000020000000000000000000000000000000000000000000000000000000000400000000",
      "type": "0x2",
      "transactionHash": "0x7ddd5543ef307bf8ab4662b45929352a2cf22a33b47bbf9d49be28ca5d5e213c",
      "transactionIndex": "0x2b",
      "blockHash": "0xbf91a5e1c4c0eb93f2f958ea4097d81e4b34f8ef3a60904ba95548ddca441dd0",
      "blockNumber": "0x16fc359",
      "gasUsed": "0x8ce0",
      "effectiveGasPrice": "0xece88",
      "from": "0x7956c2c1b85f5ac14c2c537f669b65991428e268",
      "to": "0x634afea4d8cbe4c1deb5b5fde992f92e92ad4214",
      "contractAddress": null,
      "l1BaseFeeScalar": "0x44d",
      "l1BlobBaseFee": "0x1",
      "l1BlobBaseFeeScalar": "0xa118b",
      "l1Fee": "0x20e0a",
      "l1GasPrice": "0x12a78",
      "l1GasUsed": "0x640"
    },
    {
      "status": "0x1",
      "cumulativeGasUsed": "0x5690b",
      "logs": [
        {
          "address": "0x634afea4d8cbe4c1deb5b5fde992f92e92ad4214",
          "topics": [
            "0xddf252ad1be2c89b69c2b068fc378daa952ba7f163c4a11628f55a4df523b3ef",
            "0x0000000000000000000000000000000000000000000000000000000000000000",
            "0x00000000000000000000000012be474d127757d0a6a36631294f8ffbcdef44f8"
          ],
          "data": "0x00000000000000000000000000000000000000000000000000000002540be400",
          "blockHash": "0xbe94333b92d11677087ba2168a8af837f82fadff9709fcbc89a5be0439a2ff51",
          "blockNumber": "0x16fc35b",
          "transactionHash": "0x53477f65a08ebdbd79a59561cde2a1eb5bed2bd5b658be8310c7eaa651f0bada",
          "transactionIndex": "0x6",
          "logIndex": "0x5",
          "removed": false
        }
      ],
      "logsBloom": "0x00000000000000000000000000000000000000000000000000000000000000000000000000000004000800000000000000000000000000000000000000000000000000000000000000000008000000000000000000000000000000000000000000000000020000000000000000000800000000000000000000800010000000000000000000000000000000000000000000000000000000000000000000000000008000000000000000000000000000000000000000000000000000000000000000000002000000000000000100000000000000000000000000000000000020000000000000000000000000000000000000000000000000000000000400000000",
      "type": "0x2",
      "transactionHash": "0x53477f65a08ebdbd79a59561cde2a1eb5bed2bd5b658be8310c7eaa651f0bada",
      "transactionIndex": "0x6",
      "blockHash": "0xbe94333b92d11677087ba2168a8af837f82fadff9709fcbc89a5be0439a2ff51",
      "blockNumber": "0x16fc35b",
      "gasUsed": "0x8ce0",
      "effectiveGasPrice": "0xece88",
      "from": "0x7956c2c1b85f5ac14c2c537f669b65991428e268",
      "to": "0x634afea4d8cbe4c1deb5b5fde992f92e92ad4214",
      "contractAddress": null,
      "l1BaseFeeScalar": "0x44d",
      "l1BlobBaseFee": "0x1",
      "l1BlobBaseFeeScalar": "0xa118b",
      "l1Fee": "0x20e0a",
      "l1GasPrice": "0x12a78",
      "l1GasUsed": "0x640"
    },
    {
      "status": "0x1",
      "cumulativeGasUsed": "0x235bd5",
      "logs": [
        {
          "address": "0x9202a8ee7c3e3926352a3f713e6e86952c2232fb",
          "topics": ["0x8002ff15e38c75183bc079451615f7149b25142d14bf1b7f418ea2c6fd489bf0"],
          "data": "0x0000000000000000000000000000000000000000000000000000000000000004000000000000000000000000000000000000000000000000000000000000004000000000000000000000000000000000000000000000000000000000000000e000000000000000000000000000000000000000000000000000000000000001400000000000000000000000000000000000000000000000000000000067f2f37a0000000000000000000000000000000000000000000000000000000000000200000000000000000000000000000000000000000000000000000000000000026000000000000000000000000000000000000000000000000000000000000002c00000000000000000000000000000000000000000000000000000000000000300000000000000000000000000000000000000000000000000000000000000003c57696c6c204920504152444f4e204d5953454c463f20546865205241444943414c204c45465420697320544552524946494544206f6620746869732100000000000000000000000000000000000000000000000000000000000000000000004000000000000000000000000000000000000000000000000000000000000000800000000000000000000000000000000000000000000000000000000000000003594553000000000000000000000000000000000000000000000000000000000000000000000000000000000000000000000000000000000000000000000000024e4f000000000000000000000000000000000000000000000000000000000000000000000000000000000000000000000000000000000000000000000000003f5468697320706f6f6c2077696c6c20636c6f7365206966205472756d7020706f73747320746861742068652077696c6c20706172646f6e2068696d73656c6600000000000000000000000000000000000000000000000000000000000000003e477261646520594553206966205472756d7020706f7374732061626f757420706172646f6e696e672068696d73656c662c204e4f206f7468657277697365000000000000000000000000000000000000000000000000000000000000000000123131343139373039323230353731393535370000000000000000000000000000000000000000000000000000000000000000000000000000000000000000012568747470733a2f2f65787465726e616c2d636f6e74656e742e6475636b6475636b676f2e636f6d2f69752f3f753d68747470732533412532462532466135372e666f786e6577732e636f6d2532467374617469632e666f786e6577732e636f6d253246666f786e6577732e636f6d253246636f6e74656e7425324675706c6f616473253246323032342532463033253246313230302532463637352532464765747479496d616765732d323034363536383035372e6a7067253346766525334431253236746c2533443126663d31266e6f66623d31266970743d303234343538323033643036336530313233383430353962343838323237653039353261316162353634343934303430633964306431383262363436363936352669706f3d696d61676573000000000000000000000000000000000000000000000000000000",
          "blockHash": "0x2624d3c77c18a4bbd48e922b4488c723d01f7db66109046a26f99d7be1b2d43b",
          "blockNumber": "0x16fc35d",
          "transactionHash": "0xa1cc9d1a1e630a85eff5c90dbc03749db8c68fb400e6f2217278349dc0089a18",
          "transactionIndex": "0xb",
          "logIndex": "0x6",
          "removed": false
        }
      ],
      "logsBloom": "0x00000000000000000000000000000000000000000000000000000000000000000000000000000000000000000000000000000000000000000000000000000000000000000000000000000000000000000000000001000000000000000000000000000000000000000000000010000000000000000000000000000000000000400000000000000000000000000000000000400000000000000000000000000000000000000000000000000000000000000000000000000000000000000000000000000000000000000000000000000000000000000000000000000000000020000000000000000000000000000000400000000000000000000000000000000000",
      "type": "0x2",
      "transactionHash": "0xa1cc9d1a1e630a85eff5c90dbc03749db8c68fb400e6f2217278349dc0089a18",
      "transactionIndex": "0xb",
      "blockHash": "0x2624d3c77c18a4bbd48e922b4488c723d01f7db66109046a26f99d7be1b2d43b",
      "blockNumber": "0x16fc35d",
      "gasUsed": "0xa3692",
      "effectiveGasPrice": "0xece88",
      "from": "0x7956c2c1b85f5ac14c2c537f669b65991428e268",
      "to": "0x9202a8ee7c3e3926352a3f713e6e86952c2232fb",
      "contractAddress": null,
      "l1BaseFeeScalar": "0x44d",
      "l1BlobBaseFee": "0x1",
      "l1BlobBaseFeeScalar": "0xa118b",
      "l1Fee": "0xaa7fd",
      "l1GasPrice": "0x11f47",
      "l1GasUsed": "0x21ac"
    },
    {
      "status": "0x1",
      "cumulativeGasUsed": "0x17a2a3",
      "logs": [
        {
          "address": "0x9202a8ee7c3e3926352a3f713e6e86952c2232fb",
          "topics": ["0x8002ff15e38c75183bc079451615f7149b25142d14bf1b7f418ea2c6fd489bf0"],
          "data": "0x0000000000000000000000000000000000000000000000000000000000000005000000000000000000000000000000000000000000000000000000000000004000000000000000000000000000000000000000000000000000000000000000e000000000000000000000000000000000000000000000000000000000000001600000000000000000000000000000000000000000000000000000000067f2f37a000000000000000000000000000000000000000000000000000000000000022000000000000000000000000000000000000000000000000000000000000002a000000000000000000000000000000000000000000000000000000000000003200000000000000000000000000000000000000000000000000000000000000360000000000000000000000000000000000000000000000000000000000000005057696c6c204920464952452054484520464249204449524543544f52206f6e20646179206f6e653f205468652046424920686173206265656e20574541504f4e495a454420616761696e73742075732100000000000000000000000000000000000000000000000000000000000000000000000000000000000000000000004000000000000000000000000000000000000000000000000000000000000000800000000000000000000000000000000000000000000000000000000000000003594553000000000000000000000000000000000000000000000000000000000000000000000000000000000000000000000000000000000000000000000000024e4f00000000000000000000000000000000000000000000000000000000000000000000000000000000000000000000000000000000000000000000000000465468697320706f6f6c2077696c6c20636c6f7365206966205472756d70206d616b657320612073746174656d656e742061626f75742074686520464249204469726563746f7200000000000000000000000000000000000000000000000000000000000000000000000000000000000000000000000000000000000000000043477261646520594553206966205472756d7020736179732068652077696c6c20666972652074686520464249204469726563746f722c204e4f206f7468657277697365000000000000000000000000000000000000000000000000000000000000000000000000000000000000000000000000000000000000000000000000123131343230303137353038323830363838320000000000000000000000000000000000000000000000000000000000000000000000000000000000000000012568747470733a2f2f65787465726e616c2d636f6e74656e742e6475636b6475636b676f2e636f6d2f69752f3f753d68747470732533412532462532466135372e666f786e6577732e636f6d2532467374617469632e666f786e6577732e636f6d253246666f786e6577732e636f6d253246636f6e74656e7425324675706c6f616473253246323032342532463033253246313230302532463637352532464765747479496d616765732d323034363536383035372e6a7067253346766525334431253236746c2533443126663d31266e6f66623d31266970743d303234343538323033643036336530313233383430353962343838323237653039353261316162353634343934303430633964306431383262363436363936352669706f3d696d61676573000000000000000000000000000000000000000000000000000000",
          "blockHash": "0x67e450698bd194e57a4ea3505ea08dddcb92ba44037e5ea4d807751b4512a067",
          "blockNumber": "0x16fc35f",
          "transactionHash": "0xa6a0b44432b2220686828f809d9b402cced7247f941018ed9c5d9cd3e56d2d38",
          "transactionIndex": "0x5",
          "logIndex": "0x16",
          "removed": false
        }
      ],
      "logsBloom": "0x00000000000000000000000000000000000000000000000000000000000000000000000000000000000000000000000000000000000000000000000000000000000000000000000000000000000000000000000001000000000000000000000000000000000000000000000010000000000000000000000000000000000000400000000000000000000000000000000000400000000000000000000000000000000000000000000000000000000000000000000000000000000000000000000000000000000000000000000000000000000000000000000000000000000020000000000000000000000000000000400000000000000000000000000000000000",
      "type": "0x2",
      "transactionHash": "0xa6a0b44432b2220686828f809d9b402cced7247f941018ed9c5d9cd3e56d2d38",
      "transactionIndex": "0x5",
      "blockHash": "0x67e450698bd194e57a4ea3505ea08dddcb92ba44037e5ea4d807751b4512a067",
      "blockNumber": "0x16fc35f",
      "gasUsed": "0xb40b2",
      "effectiveGasPrice": "0xece88",
      "from": "0x7956c2c1b85f5ac14c2c537f669b65991428e268",
      "to": "0x9202a8ee7c3e3926352a3f713e6e86952c2232fb",
      "contractAddress": null,
      "l1BaseFeeScalar": "0x44d",
      "l1BlobBaseFee": "0x1",
      "l1BlobBaseFeeScalar": "0xa118b",
      "l1Fee": "0xaf876",
      "l1GasPrice": "0x11f47",
      "l1GasUsed": "0x22aa"
    },
    {
      "status": "0x1",
      "cumulativeGasUsed": "0x30694e",
      "logs": [
        {
          "address": "0x9202a8ee7c3e3926352a3f713e6e86952c2232fb",
          "topics": ["0x8002ff15e38c75183bc079451615f7149b25142d14bf1b7f418ea2c6fd489bf0"],
          "data": "0x0000000000000000000000000000000000000000000000000000000000000006000000000000000000000000000000000000000000000000000000000000004000000000000000000000000000000000000000000000000000000000000000e000000000000000000000000000000000000000000000000000000000000001600000000000000000000000000000000000000000000000000000000067f2f37a0000000000000000000000000000000000000000000000000000000000000220000000000000000000000000000000000000000000000000000000000000028000000000000000000000000000000000000000000000000000000000000002e00000000000000000000000000000000000000000000000000000000000000320000000000000000000000000000000000000000000000000000000000000005257696c6c20492057494e207468652064656261746520616761696e737420534c45455059204a4f453f2045766572796f6e65206b6e6f7773204920776f6e20746865206c617374206f6e65204249474c59210000000000000000000000000000000000000000000000000000000000000000000000000000000000000000004000000000000000000000000000000000000000000000000000000000000000800000000000000000000000000000000000000000000000000000000000000003594553000000000000000000000000000000000000000000000000000000000000000000000000000000000000000000000000000000000000000000000000024e4f00000000000000000000000000000000000000000000000000000000000000000000000000000000000000000000000000000000000000000000000000325468697320706f6f6c2077696c6c20636c6f73652061667465722074686520707265736964656e7469616c2064656261746500000000000000000000000000000000000000000000000000000000000000000000000000000000000000000030477261646520594553206966205472756d702077696e7320746865206465626174652c204e4f206f74686572776973650000000000000000000000000000000000000000000000000000000000000000000000000000000000000000000000123131343230303331333030393830323633380000000000000000000000000000000000000000000000000000000000000000000000000000000000000000012568747470733a2f2f65787465726e616c2d636f6e74656e742e6475636b6475636b676f2e636f6d2f69752f3f753d68747470732533412532462532466135372e666f786e6577732e636f6d2532467374617469632e666f786e6577732e636f6d253246666f786e6577732e636f6d253246636f6e74656e7425324675706c6f616473253246323032342532463033253246313230302532463637352532464765747479496d616765732d323034363536383035372e6a7067253346766525334431253236746c2533443126663d31266e6f66623d31266970743d303234343538323033643036336530313233383430353962343838323237653039353261316162353634343934303430633964306431383262363436363936352669706f3d696d61676573000000000000000000000000000000000000000000000000000000",
          "blockHash": "0xedc30ba306fcad1c927c4c4feebacfd01880bb66e978ba630085fa1f98f7914c",
          "blockNumber": "0x16fc361",
          "transactionHash": "0x92f7b209bad868462bcc9a0e9b1f38d8f59a9e006f82adb13f7fe32ecc9f199d",
          "transactionIndex": "0xb",
          "logIndex": "0x4a",
          "removed": false
        }
      ],
      "logsBloom": "0x00000000000000000000000000000000000000000000000000000000000000000000000000000000000000000000000000000000000000000000000000000000000000000000000000000000000000000000000001000000000000000000000000000000000000000000000010000000000000000000000000000000000000400000000000000000000000000000000000400000000000000000000000000000000000000000000000000000000000000000000000000000000000000000000000000000000000000000000000000000000000000000000000000000000020000000000000000000000000000000400000000000000000000000000000000000",
      "type": "0x2",
      "transactionHash": "0x92f7b209bad868462bcc9a0e9b1f38d8f59a9e006f82adb13f7fe32ecc9f199d",
      "transactionIndex": "0xb",
      "blockHash": "0xedc30ba306fcad1c927c4c4feebacfd01880bb66e978ba630085fa1f98f7914c",
      "blockNumber": "0x16fc361",
      "gasUsed": "0xa8e9b",
      "effectiveGasPrice": "0xece88",
      "from": "0x7956c2c1b85f5ac14c2c537f669b65991428e268",
      "to": "0x9202a8ee7c3e3926352a3f713e6e86952c2232fb",
      "contractAddress": null,
      "l1BaseFeeScalar": "0x44d",
      "l1BlobBaseFee": "0x1",
      "l1BlobBaseFeeScalar": "0xa118b",
      "l1Fee": "0xa6cb1",
      "l1GasPrice": "0x11f47",
      "l1GasUsed": "0x20f1"
    }
  ],
  "libraries": [],
  "pending": [],
  "returns": {},
  "timestamp": 1743971747,
  "chain": 84532,
  "commit": "3b97135"
}
