{
  "transactions": [
    {
      "hash": "0x94e009cc6a19f6c7b75f6eeed832088bf1e6da59ae57f0904124f83dd4e28362",
      "transactionType": "CALL",
      "contractName": null,
      "contractAddress": "0x617c72b7b53b209af732b87a85e2d6593a6e4c3c",
      "function": "createPool((string,string[2],uint40,string,string,string))",
      "arguments": [
        "(Will I WIN the case against the CORRUPT NY Attorney General? The case is RIGGED but the PEOPLE know the TRUTH! (1742586036), [YES, TOTAL VICTORY!, NO, DEEP STATE WINS], 1743190836, When the NY court issues its final ruling on the case, Grade YES if Trump wins the case or it is dismissed. Grade NO if Trump loses the case., 114197092205719557)"
      ],
      "transaction": {
        "from": "0x7956c2c1b85f5ac14c2c537f669b65991428e268",
        "to": "0x617c72b7b53b209af732b87a85e2d6593a6e4c3c",
        "gas": "0xac4a5",
        "value": "0x0",
        "input": "0x1a5c3706000000000000000000000000000000000000000000000000000000000000002000000000000000000000000000000000000000000000000000000000000000c000000000000000000000000000000000000000000000000000000000000001600000000000000000000000000000000000000000000000000000000067e6fb34000000000000000000000000000000000000000000000000000000000000022000000000000000000000000000000000000000000000000000000000000002800000000000000000000000000000000000000000000000000000000000000300000000000000000000000000000000000000000000000000000000000000007b57696c6c20492057494e20746865206361736520616761696e73742074686520434f5252555054204e59204174746f726e65792047656e6572616c3f2054686520636173652069732052494747454420627574207468652050454f504c45206b6e6f7720746865205452555448212028313734323538363033362900000000000000000000000000000000000000000000000000000000000000000000000040000000000000000000000000000000000000000000000000000000000000008000000000000000000000000000000000000000000000000000000000000000135945532c20544f54414c20564943544f5259210000000000000000000000000000000000000000000000000000000000000000000000000000000000000000134e4f2c20444545502053544154452057494e530000000000000000000000000000000000000000000000000000000000000000000000000000000000000000355768656e20746865204e5920636f75727420697373756573206974732066696e616c2072756c696e67206f6e20746865206361736500000000000000000000000000000000000000000000000000000000000000000000000000000000000056477261646520594553206966205472756d702077696e73207468652063617365206f72206974206973206469736d69737365642e204772616465204e4f206966205472756d70206c6f7365732074686520636173652e0000000000000000000000000000000000000000000000000000000000000000000000000000000000123131343139373039323230353731393535370000000000000000000000000000",
        "nonce": "0xa1",
        "chainId": "0x14a34"
      },
      "additionalContracts": [],
      "isFixedGasLimit": false
    }
  ],
  "receipts": [
    {
      "status": "0x1",
      "cumulativeGasUsed": "0x259372",
      "logs": [
        {
          "address": "0x617c72b7b53b209af732b87a85e2d6593a6e4c3c",
          "topics": [
            "0xa6911b1100a84108be7e4458ca4926ac7aac190db354ff63847b820b02beb88b"
          ],
          "data": "0x0000000000000000000000000000000000000000000000000000000000000001000000000000000000000000000000000000000000000000000000000000004000000000000000000000000000000000000000000000000000000000000000c000000000000000000000000000000000000000000000000000000000000001600000000000000000000000000000000000000000000000000000000067e6fb34000000000000000000000000000000000000000000000000000000000000022000000000000000000000000000000000000000000000000000000000000002800000000000000000000000000000000000000000000000000000000000000300000000000000000000000000000000000000000000000000000000000000007b57696c6c20492057494e20746865206361736520616761696e73742074686520434f5252555054204e59204174746f726e65792047656e6572616c3f2054686520636173652069732052494747454420627574207468652050454f504c45206b6e6f7720746865205452555448212028313734323538363033362900000000000000000000000000000000000000000000000000000000000000000000000040000000000000000000000000000000000000000000000000000000000000008000000000000000000000000000000000000000000000000000000000000000135945532c20544f54414c20564943544f5259210000000000000000000000000000000000000000000000000000000000000000000000000000000000000000134e4f2c20444545502053544154452057494e530000000000000000000000000000000000000000000000000000000000000000000000000000000000000000355768656e20746865204e5920636f75727420697373756573206974732066696e616c2072756c696e67206f6e20746865206361736500000000000000000000000000000000000000000000000000000000000000000000000000000000000056477261646520594553206966205472756d702077696e73207468652063617365206f72206974206973206469736d69737365642e204772616465204e4f206966205472756d70206c6f7365732074686520636173652e0000000000000000000000000000000000000000000000000000000000000000000000000000000000123131343139373039323230353731393535370000000000000000000000000000",
          "blockHash": "0x5c9c47f83bf98a11f12b06822ae846e316a1c9b166a87cd2197f241fbeef0d1f",
          "blockNumber": "0x16530ef",
          "transactionHash": "0x94e009cc6a19f6c7b75f6eeed832088bf1e6da59ae57f0904124f83dd4e28362",
          "transactionIndex": "0x7",
          "logIndex": "0x21",
          "removed": false
        }
      ],
      "logsBloom": "0x00000000000000000000000000000000000000000008000000000000000000000000000000000000000000000000000000000000000000000000000000000000000000000000000080000000000000000000000000000000000000000000000000000000000000000000000000000000000000000000000000000000000000000000000000000020000000000000004000000000000000000000000000000000000000000000000000000000000000000000000000000000000000000000000000000000000000000000000000000000000000000000000000000000000000000000008002000000000000000000000000000000000000000000000000000000",
      "type": "0x2",
      "transactionHash": "0x94e009cc6a19f6c7b75f6eeed832088bf1e6da59ae57f0904124f83dd4e28362",
      "transactionIndex": "0x7",
      "blockHash": "0x5c9c47f83bf98a11f12b06822ae846e316a1c9b166a87cd2197f241fbeef0d1f",
      "blockNumber": "0x16530ef",
      "gasUsed": "0x75ce3",
      "effectiveGasPrice": "0xf05e8",
      "from": "0x7956c2c1b85f5ac14c2c537f669b65991428e268",
      "to": "0x617c72b7b53b209af732b87a85e2d6593a6e4c3c",
      "contractAddress": null,
      "l1BaseFeeScalar": "0x44d",
      "l1BlobBaseFee": "0x1",
      "l1BlobBaseFeeScalar": "0xa118b",
      "l1Fee": "0xc092fe41",
      "l1GasPrice": "0x1cb75831",
      "l1GasUsed": "0x17ca"
    }
  ],
  "libraries": [],
  "pending": [],
  "returns": {},
  "timestamp": 1742586045,
  "chain": 84532,
  "commit": "634eede"
}