{
  "transactions": [
    {
      "hash": "0x4051eb3295655c1ddd0df032055389eb3f961069d0c66cd9a615fa1e57942d88",
      "transactionType": "CALL",
      "contractName": null,
      "contractAddress": "0x2e180501d3d68241dd0318c68fd9be0af1d519a1",
      "function": "createPool((string,string[2],uint40,string,string,string))",
      "arguments": [
        "(test, [yes, no], 1742587418, test, test, 114197092205719557)"
      ],
      "transaction": {
        "from": "0x7956c2c1b85f5ac14c2c537f669b65991428e268",
        "to": "0x2e180501d3d68241dd0318c68fd9be0af1d519a1",
        "gas": "0x6406f",
        "value": "0x0",
        "input": "0x1a5c3706000000000000000000000000000000000000000000000000000000000000002000000000000000000000000000000000000000000000000000000000000000c000000000000000000000000000000000000000000000000000000000000001000000000000000000000000000000000000000000000000000000000067ddc61a00000000000000000000000000000000000000000000000000000000000001c00000000000000000000000000000000000000000000000000000000000000200000000000000000000000000000000000000000000000000000000000000024000000000000000000000000000000000000000000000000000000000000000047465737400000000000000000000000000000000000000000000000000000000000000000000000000000000000000000000000000000000000000000000004000000000000000000000000000000000000000000000000000000000000000800000000000000000000000000000000000000000000000000000000000000003796573000000000000000000000000000000000000000000000000000000000000000000000000000000000000000000000000000000000000000000000000026e6f000000000000000000000000000000000000000000000000000000000000000000000000000000000000000000000000000000000000000000000000000474657374000000000000000000000000000000000000000000000000000000000000000000000000000000000000000000000000000000000000000000000004746573740000000000000000000000000000000000000000000000000000000000000000000000000000000000000000000000000000000000000000000000123131343139373039323230353731393535370000000000000000000000000000",
        "nonce": "0xa4",
        "chainId": "0x14a34"
      },
      "additionalContracts": [],
      "isFixedGasLimit": false
    }
  ],
  "receipts": [
    {
      "status": "0x1",
      "cumulativeGasUsed": "0x33ae92",
      "logs": [
        {
          "address": "0x2e180501d3d68241dd0318c68fd9be0af1d519a1",
          "topics": [
            "0xa6911b1100a84108be7e4458ca4926ac7aac190db354ff63847b820b02beb88b"
          ],
          "data": "0x0000000000000000000000000000000000000000000000000000000000000002000000000000000000000000000000000000000000000000000000000000004000000000000000000000000000000000000000000000000000000000000000c000000000000000000000000000000000000000000000000000000000000001000000000000000000000000000000000000000000000000000000000067ddc61a00000000000000000000000000000000000000000000000000000000000001c00000000000000000000000000000000000000000000000000000000000000200000000000000000000000000000000000000000000000000000000000000024000000000000000000000000000000000000000000000000000000000000000047465737400000000000000000000000000000000000000000000000000000000000000000000000000000000000000000000000000000000000000000000004000000000000000000000000000000000000000000000000000000000000000800000000000000000000000000000000000000000000000000000000000000003796573000000000000000000000000000000000000000000000000000000000000000000000000000000000000000000000000000000000000000000000000026e6f000000000000000000000000000000000000000000000000000000000000000000000000000000000000000000000000000000000000000000000000000474657374000000000000000000000000000000000000000000000000000000000000000000000000000000000000000000000000000000000000000000000004746573740000000000000000000000000000000000000000000000000000000000000000000000000000000000000000000000000000000000000000000000123131343139373039323230353731393535370000000000000000000000000000",
          "blockHash": "0x8155d06ae379eb4cb0b9f4456610402a3fdcc65dd47de303bbd2386018a99fbf",
          "blockNumber": "0x1653215",
          "transactionHash": "0x4051eb3295655c1ddd0df032055389eb3f961069d0c66cd9a615fa1e57942d88",
          "transactionIndex": "0x11",
          "logIndex": "0x4b",
          "removed": false
        }
      ],
      "logsBloom": "0x00000000000000000000000000000000000010000000000000000000000000000000000000000000000001000000000000000000000000000000000000000000000000000000000000000000000000000000000000000000000000000000000000000000000000000000000000000000000000000000000000000000000000000000000000000000000000000000004000000000000000000000000000000000000000000000000000000000000000000000000000000000000000000000000000000000000000000000000000000000000000000000000000000000000000000000028002000000000000000000000000000000000000000000000000000000",
      "type": "0x2",
      "transactionHash": "0x4051eb3295655c1ddd0df032055389eb3f961069d0c66cd9a615fa1e57942d88",
      "transactionIndex": "0x11",
      "blockHash": "0x8155d06ae379eb4cb0b9f4456610402a3fdcc65dd47de303bbd2386018a99fbf",
      "blockNumber": "0x1653215",
      "gasUsed": "0x44651",
      "effectiveGasPrice": "0xf38df",
      "from": "0x7956c2c1b85f5ac14c2c537f669b65991428e268",
      "to": "0x2e180501d3d68241dd0318c68fd9be0af1d519a1",
      "contractAddress": null,
      "l1BaseFeeScalar": "0x44d",
      "l1BlobBaseFee": "0x1",
      "l1BlobBaseFeeScalar": "0xa118b",
      "l1Fee": "0x49ff7dff",
      "l1GasPrice": "0x197a98d7",
      "l1GasUsed": "0xa4d"
    }
  ],
  "libraries": [],
  "pending": [],
  "returns": {},
  "timestamp": 1742586634,
  "chain": 84532,
  "commit": "634eede"
}