{
  "transactions": [
    {
      "hash": "0x960f2dbc429223169360db4f5f0ff8155a87a5b4111e183d1b6244f687d625c0",
      "transactionType": "CALL",
      "contractName": null,
      "contractAddress": "0x5787d9cb0ac6f1b238e4ad409f149a8fe8433451",
      "function": "createPool((string,string[2],uint40,string,string,string))",
      "arguments": [
        "(Will I WIN the case against the CORRUPT NY Attorney General? The case is RIGGED but the PEOPLE know the TRUTH! (1742586014), [YES, TOTAL VICTORY!, NO, DEEP STATE WINS], 1743190814, When the NY court issues its final ruling on the case, Grade YES if Trump wins the case or it is dismissed. Grade NO if Trump loses the case., 114197092205719557)"
      ],
      "transaction": {
        "from": "0x7956c2c1b85f5ac14c2c537f669b65991428e268",
        "to": "0x5787d9cb0ac6f1b238e4ad409f149a8fe8433451",
        "gas": "0xa2a23",
        "value": "0x0",
        "input": "0x1a5c3706000000000000000000000000000000000000000000000000000000000000002000000000000000000000000000000000000000000000000000000000000000c000000000000000000000000000000000000000000000000000000000000001600000000000000000000000000000000000000000000000000000000067e6fb1e000000000000000000000000000000000000000000000000000000000000022000000000000000000000000000000000000000000000000000000000000002800000000000000000000000000000000000000000000000000000000000000300000000000000000000000000000000000000000000000000000000000000007b57696c6c20492057494e20746865206361736520616761696e73742074686520434f5252555054204e59204174746f726e65792047656e6572616c3f2054686520636173652069732052494747454420627574207468652050454f504c45206b6e6f7720746865205452555448212028313734323538363031342900000000000000000000000000000000000000000000000000000000000000000000000040000000000000000000000000000000000000000000000000000000000000008000000000000000000000000000000000000000000000000000000000000000135945532c20544f54414c20564943544f5259210000000000000000000000000000000000000000000000000000000000000000000000000000000000000000134e4f2c20444545502053544154452057494e530000000000000000000000000000000000000000000000000000000000000000000000000000000000000000355768656e20746865204e5920636f75727420697373756573206974732066696e616c2072756c696e67206f6e20746865206361736500000000000000000000000000000000000000000000000000000000000000000000000000000000000056477261646520594553206966205472756d702077696e73207468652063617365206f72206974206973206469736d69737365642e204772616465204e4f206966205472756d70206c6f7365732074686520636173652e0000000000000000000000000000000000000000000000000000000000000000000000000000000000123131343139373039323230353731393535370000000000000000000000000000",
        "nonce": "0xa0",
        "chainId": "0x14a34"
      },
      "additionalContracts": [],
      "isFixedGasLimit": false
    }
  ],
  "receipts": [
    {
      "status": "0x1",
      "cumulativeGasUsed": "0x34c00d",
      "logs": [
        {
          "address": "0x5787d9cb0ac6f1b238e4ad409f149a8fe8433451",
          "topics": [
            "0xa6911b1100a84108be7e4458ca4926ac7aac190db354ff63847b820b02beb88b"
          ],
          "data": "0x0000000000000000000000000000000000000000000000000000000000000004000000000000000000000000000000000000000000000000000000000000004000000000000000000000000000000000000000000000000000000000000000c000000000000000000000000000000000000000000000000000000000000001600000000000000000000000000000000000000000000000000000000067e6fb1e000000000000000000000000000000000000000000000000000000000000022000000000000000000000000000000000000000000000000000000000000002800000000000000000000000000000000000000000000000000000000000000300000000000000000000000000000000000000000000000000000000000000007b57696c6c20492057494e20746865206361736520616761696e73742074686520434f5252555054204e59204174746f726e65792047656e6572616c3f2054686520636173652069732052494747454420627574207468652050454f504c45206b6e6f7720746865205452555448212028313734323538363031342900000000000000000000000000000000000000000000000000000000000000000000000040000000000000000000000000000000000000000000000000000000000000008000000000000000000000000000000000000000000000000000000000000000135945532c20544f54414c20564943544f5259210000000000000000000000000000000000000000000000000000000000000000000000000000000000000000134e4f2c20444545502053544154452057494e530000000000000000000000000000000000000000000000000000000000000000000000000000000000000000355768656e20746865204e5920636f75727420697373756573206974732066696e616c2072756c696e67206f6e20746865206361736500000000000000000000000000000000000000000000000000000000000000000000000000000000000056477261646520594553206966205472756d702077696e73207468652063617365206f72206974206973206469736d69737365642e204772616465204e4f206966205472756d70206c6f7365732074686520636173652e0000000000000000000000000000000000000000000000000000000000000000000000000000000000123131343139373039323230353731393535370000000000000000000000000000",
          "blockHash": "0x97f23fe6c301adc26366a76edbc07d85f8ede522c7721227be8ae747e96fe6eb",
          "blockNumber": "0x16530e4",
          "transactionHash": "0x960f2dbc429223169360db4f5f0ff8155a87a5b4111e183d1b6244f687d625c0",
          "transactionIndex": "0xc",
          "logIndex": "0x50",
          "removed": false
        }
      ],
      "logsBloom": "0x00100000000000000000000000000000000000000000000000000000000000000000000000000000000000000000000000000000000000000000000000000000000000000000000000000000000000000000000000000000000000000000000000000000000000000000000000000000000000000000000000000000000000000000000040000000000000000000004000000000000000000000000000000000000000000000000000000000000000000000000000000000000000000000000000000000000000000000000000000000000000000000000000000000000000000000008002000000000000000000000000000000000000000100000000000000",
      "type": "0x2",
      "transactionHash": "0x960f2dbc429223169360db4f5f0ff8155a87a5b4111e183d1b6244f687d625c0",
      "transactionIndex": "0xc",
      "blockHash": "0x97f23fe6c301adc26366a76edbc07d85f8ede522c7721227be8ae747e96fe6eb",
      "blockNumber": "0x16530e4",
      "gasUsed": "0x75be7",
      "effectiveGasPrice": "0xf7bee",
      "from": "0x7956c2c1b85f5ac14c2c537f669b65991428e268",
      "to": "0x5787d9cb0ac6f1b238e4ad409f149a8fe8433451",
      "contractAddress": null,
      "l1BaseFeeScalar": "0x44d",
      "l1BlobBaseFee": "0x1",
      "l1BlobBaseFeeScalar": "0xa118b",
      "l1Fee": "0xc3eb968e",
      "l1GasPrice": "0x1d3713ed",
      "l1GasUsed": "0x17ca"
    }
  ],
  "libraries": [],
  "pending": [],
  "returns": {},
  "timestamp": 1742586022,
  "chain": 84532,
  "commit": "634eede"
}