{
  "transactions": [
    {
      "hash": "0x96af5ac9307bc78c608496211ce7aa2e5117d8ebdf5d29722852e45fc44c8521",
      "transactionType": "CALL",
      "contractName": null,
      "contractAddress": "0x2e180501d3d68241dd0318c68fd9be0af1d519a1",
      "function": "createPool((string,string[2],uint40,string,string,string))",
      "arguments": [
        "(Will I WIN the case against the CORRUPT NY Attorney General? The case is RIGGED but the PEOPLE know the TRUTH! (1742586366), [YES, TOTAL VICTORY!, NO, DEEP STATE WINS], 1743191166, When the NY court issues its final ruling on the case, Grade YES if Trump wins the case or it is dismissed. Grade NO if Trump loses the case., 114197092205719557)"
      ],
      "transaction": {
        "from": "0x7956c2c1b85f5ac14c2c537f669b65991428e268",
        "to": "0x2e180501d3d68241dd0318c68fd9be0af1d519a1",
        "gas": "0xa3c9c",
        "value": "0x0",
        "input": "0x1a5c3706000000000000000000000000000000000000000000000000000000000000002000000000000000000000000000000000000000000000000000000000000000c000000000000000000000000000000000000000000000000000000000000001600000000000000000000000000000000000000000000000000000000067e6fc7e000000000000000000000000000000000000000000000000000000000000022000000000000000000000000000000000000000000000000000000000000002800000000000000000000000000000000000000000000000000000000000000300000000000000000000000000000000000000000000000000000000000000007b57696c6c20492057494e20746865206361736520616761696e73742074686520434f5252555054204e59204174746f726e65792047656e6572616c3f2054686520636173652069732052494747454420627574207468652050454f504c45206b6e6f7720746865205452555448212028313734323538363336362900000000000000000000000000000000000000000000000000000000000000000000000040000000000000000000000000000000000000000000000000000000000000008000000000000000000000000000000000000000000000000000000000000000135945532c20544f54414c20564943544f5259210000000000000000000000000000000000000000000000000000000000000000000000000000000000000000134e4f2c20444545502053544154452057494e530000000000000000000000000000000000000000000000000000000000000000000000000000000000000000355768656e20746865204e5920636f75727420697373756573206974732066696e616c2072756c696e67206f6e20746865206361736500000000000000000000000000000000000000000000000000000000000000000000000000000000000056477261646520594553206966205472756d702077696e73207468652063617365206f72206974206973206469736d69737365642e204772616465204e4f206966205472756d70206c6f7365732074686520636173652e0000000000000000000000000000000000000000000000000000000000000000000000000000000000123131343139373039323230353731393535370000000000000000000000000000",
        "nonce": "0xa3",
        "chainId": "0x14a34"
      },
      "additionalContracts": [],
      "isFixedGasLimit": false
    }
  ],
  "receipts": [
    {
      "status": "0x1",
      "cumulativeGasUsed": "0x5f4b79",
      "logs": [
        {
          "address": "0x2e180501d3d68241dd0318c68fd9be0af1d519a1",
          "topics": [
            "0xa6911b1100a84108be7e4458ca4926ac7aac190db354ff63847b820b02beb88b"
          ],
          "data": "0x0000000000000000000000000000000000000000000000000000000000000001000000000000000000000000000000000000000000000000000000000000004000000000000000000000000000000000000000000000000000000000000000c000000000000000000000000000000000000000000000000000000000000001600000000000000000000000000000000000000000000000000000000067e6fc7e000000000000000000000000000000000000000000000000000000000000022000000000000000000000000000000000000000000000000000000000000002800000000000000000000000000000000000000000000000000000000000000300000000000000000000000000000000000000000000000000000000000000007b57696c6c20492057494e20746865206361736520616761696e73742074686520434f5252555054204e59204174746f726e65792047656e6572616c3f2054686520636173652069732052494747454420627574207468652050454f504c45206b6e6f7720746865205452555448212028313734323538363336362900000000000000000000000000000000000000000000000000000000000000000000000040000000000000000000000000000000000000000000000000000000000000008000000000000000000000000000000000000000000000000000000000000000135945532c20544f54414c20564943544f5259210000000000000000000000000000000000000000000000000000000000000000000000000000000000000000134e4f2c20444545502053544154452057494e530000000000000000000000000000000000000000000000000000000000000000000000000000000000000000355768656e20746865204e5920636f75727420697373756573206974732066696e616c2072756c696e67206f6e20746865206361736500000000000000000000000000000000000000000000000000000000000000000000000000000000000056477261646520594553206966205472756d702077696e73207468652063617365206f72206974206973206469736d69737365642e204772616465204e4f206966205472756d70206c6f7365732074686520636173652e0000000000000000000000000000000000000000000000000000000000000000000000000000000000123131343139373039323230353731393535370000000000000000000000000000",
          "blockHash": "0x75d821e2a7a053b075e0537a61837122b0b305820832856a3fa1a6bef227486b",
          "blockNumber": "0x1653194",
          "transactionHash": "0x96af5ac9307bc78c608496211ce7aa2e5117d8ebdf5d29722852e45fc44c8521",
          "transactionIndex": "0x1b",
          "logIndex": "0x8c",
          "removed": false
        }
      ],
      "logsBloom": "0x00000000000000000000000000000000000010000000000000000000000000000000000000000000000001000000000000000000000000000000000000000000000000000000000000000000000000000000000000000000000000000000000000000000000000000000000000000000000000000000000000000000000000000000000000000000000000000000004000000000000000000000000000000000000000000000000000000000000000000000000000000000000000000000000000000000000000000000000000000000000000000000000000000000000000000000028002000000000000000000000000000000000000000000000000000000",
      "type": "0x2",
      "transactionHash": "0x96af5ac9307bc78c608496211ce7aa2e5117d8ebdf5d29722852e45fc44c8521",
      "transactionIndex": "0x1b",
      "blockHash": "0x75d821e2a7a053b075e0537a61837122b0b305820832856a3fa1a6bef227486b",
      "blockNumber": "0x1653194",
      "gasUsed": "0x76947",
      "effectiveGasPrice": "0xf0260",
      "from": "0x7956c2c1b85f5ac14c2c537f669b65991428e268",
      "to": "0x2e180501d3d68241dd0318c68fd9be0af1d519a1",
      "contractAddress": null,
      "l1BaseFeeScalar": "0x44d",
      "l1BlobBaseFee": "0x1",
      "l1BlobBaseFeeScalar": "0xa118b",
      "l1Fee": "0xdc338291",
      "l1GasPrice": "0x20d5fb1b",
      "l1GasUsed": "0x17ca"
    }
  ],
  "libraries": [],
  "pending": [],
  "returns": {},
  "timestamp": 1742586375,
  "chain": 84532,
  "commit": "634eede"
}