{
  "transactions": [
    {
      "hash": "0x8d7e995a37aaa4e058c432779290e38f2b3cc4cdb3c70100e2f4b0ae23937099",
      "transactionType": "CALL",
      "contractName": null,
      "contractAddress": "0x2e180501d3d68241dd0318c68fd9be0af1d519a1",
      "function": "gradeBet(uint256,uint256)",
      "arguments": [
        "125",
        "0"
      ],
      "transaction": {
        "from": "0x7956c2c1b85f5ac14c2c537f669b65991428e268",
        "to": "0x2e180501d3d68241dd0318c68fd9be0af1d519a1",
        "gas": "0x2e1a8",
        "value": "0x0",
        "input": "0xff0beb62000000000000000000000000000000000000000000000000000000000000007d0000000000000000000000000000000000000000000000000000000000000000",
        "nonce": "0x16f",
        "chainId": "0x14a34"
      },
      "additionalContracts": [],
      "isFixedGasLimit": false
    }
  ],
  "receipts": [
    {
      "status": "0x1",
      "cumulativeGasUsed": "0x4d71e",
      "logs": [
        {
          "address": "0x2e180501d3d68241dd0318c68fd9be0af1d519a1",
          "topics": [
            "0xaf7faf29a251efa1bcf2b47dab1a72baa0906a2e4ff957e6cb6d4f7c642161ab",
            "0x000000000000000000000000000000000000000000000000000000000000007d"
          ],
          "data": "0x0000000000000000000000000000000000000000000000000000000000000000",
          "blockHash": "0x0918512714f2de9d96be887d905ff70f21b33ea2a1d697298e65fae73813e373",
          "blockNumber": "0x165da23",
          "transactionHash": "0x8d7e995a37aaa4e058c432779290e38f2b3cc4cdb3c70100e2f4b0ae23937099",
          "transactionIndex": "0x2",
          "logIndex": "0x8",
          "removed": false
        },
        {
          "address": "0x2e180501d3d68241dd0318c68fd9be0af1d519a1",
          "topics": [
            "0x71bf4dbc735bb7b341dcea9720315ff68bb3c8f5548eed9966947402c6187601",
            "0x000000000000000000000000000000000000000000000000000000000000002a",
            "0x000000000000000000000000000000000000000000000000000000000000007d",
            "0x0000000000000000000000007956c2c1b85f5ac14c2c537f669b65991428e268"
          ],
          "data": "0x00000000000000000000000000000000000000000000000000000000001e3e320000000000000000000000000000000000000000000000000000000000000001",
          "blockHash": "0x0918512714f2de9d96be887d905ff70f21b33ea2a1d697298e65fae73813e373",
          "blockNumber": "0x165da23",
          "transactionHash": "0x8d7e995a37aaa4e058c432779290e38f2b3cc4cdb3c70100e2f4b0ae23937099",
          "transactionIndex": "0x2",
          "logIndex": "0x9",
          "removed": false
        }
      ],
      "logsBloom": "0x00000000000000000000000000000000000410000000000000000000000000000000000000004000000001000000000000000000000000200000000000000000200000000000000100000000000000000000000000000000100000000000000000000000000000000000000000000000000000004000000000000000000000000000000000000000000000000000000000000000000000000000000104000000000000000000000000000000000000000000000000000000000040000000000000000000020000000000000000000000000000000000000000000000000800100000020000000000000010000020000000000000000000000000000000000000",
      "type": "0x2",
      "transactionHash": "0x8d7e995a37aaa4e058c432779290e38f2b3cc4cdb3c70100e2f4b0ae23937099",
      "transactionIndex": "0x2",
      "blockHash": "0x0918512714f2de9d96be887d905ff70f21b33ea2a1d697298e65fae73813e373",
      "blockNumber": "0x165da23",
      "gasUsed": "0x2160e",
      "effectiveGasPrice": "0xf160a",
      "from": "0x7956c2c1b85f5ac14c2c537f669b65991428e268",
      "to": "0x2e180501d3d68241dd0318c68fd9be0af1d519a1",
      "contractAddress": null,
      "l1BaseFeeScalar": "0x44d",
      "l1BlobBaseFee": "0x1",
      "l1BlobBaseFeeScalar": "0xa118b",
      "l1Fee": "0x4e0a1a",
      "l1GasPrice": "0x2c4cbd",
      "l1GasUsed": "0x640"
    }
  ],
  "libraries": [],
  "pending": [],
  "returns": {},
  "timestamp": 1742672680,
  "chain": 84532,
  "commit": "d4a03e8"
}