{
  "transactions": [
    {
      "hash": "0x962325374d7a5d1aecd024cfa1124a51b6a4b1ed0df63aebdce3ca076a18bee0",
      "transactionType": "CALL",
      "contractName": null,
      "contractAddress": "0x2e180501d3d68241dd0318c68fd9be0af1d519a1",
      "function": "gradeBet(uint256,uint256)",
      "arguments": [
        "37",
        "0"
      ],
      "transaction": {
        "from": "0x7956c2c1b85f5ac14c2c537f669b65991428e268",
        "to": "0x2e180501d3d68241dd0318c68fd9be0af1d519a1",
        "gas": "0xca6f",
        "value": "0x0",
        "input": "0xff0beb6200000000000000000000000000000000000000000000000000000000000000250000000000000000000000000000000000000000000000000000000000000000",
        "nonce": "0x174",
        "chainId": "0x14a34"
      },
      "additionalContracts": [],
      "isFixedGasLimit": false
    }
  ],
  "receipts": [
    {
      "status": "0x1",
      "cumulativeGasUsed": "0x4ed22b",
      "logs": [
        {
          "address": "0x2e180501d3d68241dd0318c68fd9be0af1d519a1",
          "topics": [
            "0xaf7faf29a251efa1bcf2b47dab1a72baa0906a2e4ff957e6cb6d4f7c642161ab",
            "0x0000000000000000000000000000000000000000000000000000000000000025"
          ],
          "data": "0x0000000000000000000000000000000000000000000000000000000000000000",
          "blockHash": "0x14efc6acafbbdbab0d32fdc2b4db81c0e1e3d093d14d245e19e1b30e0ce09860",
          "blockNumber": "0x165dadf",
          "transactionHash": "0x962325374d7a5d1aecd024cfa1124a51b6a4b1ed0df63aebdce3ca076a18bee0",
          "transactionIndex": "0x22",
          "logIndex": "0x7f",
          "removed": false
        }
      ],
      "logsBloom": "0x00000000000000000000000000000000000010000000000000000000000000000000000000000000000001000000000000000000000000200000000000000000000000000000000000000000000000000000000000000000000000000000000000000000000000000000000000000000000000000000000000000000000000000000000000000000000000000000000000000000000000000000000004000000000000000000000000000002000000000000000000000000000040000000000000000000000000000000000000000000000000000000000000000000000000008000020000000000000000000000000000000000000000000000000002000000",
      "type": "0x2",
      "transactionHash": "0x962325374d7a5d1aecd024cfa1124a51b6a4b1ed0df63aebdce3ca076a18bee0",
      "transactionIndex": "0x22",
      "blockHash": "0x14efc6acafbbdbab0d32fdc2b4db81c0e1e3d093d14d245e19e1b30e0ce09860",
      "blockNumber": "0x165dadf",
      "gasUsed": "0x8a6b",
      "effectiveGasPrice": "0xedb0b",
      "from": "0x7956c2c1b85f5ac14c2c537f669b65991428e268",
      "to": "0x2e180501d3d68241dd0318c68fd9be0af1d519a1",
      "contractAddress": null,
      "l1BaseFeeScalar": "0x44d",
      "l1BlobBaseFee": "0x1",
      "l1BlobBaseFeeScalar": "0xa118b",
      "l1Fee": "0x4e2820",
      "l1GasPrice": "0x2c5dc8",
      "l1GasUsed": "0x640"
    }
  ],
  "libraries": [],
  "pending": [],
  "returns": {},
  "timestamp": 1742673055,
  "chain": 84532,
  "commit": "d4a03e8"
}