{
  "transactions": [
    {
      "hash": "0xc45d7a1b53dd37ada2527c605b9be45ec9fb05f75da3fb250c7910c641d81c1a",
      "transactionType": "CALL",
      "contractName": null,
      "contractAddress": "0x2e180501d3d68241dd0318c68fd9be0af1d519a1",
      "function": "gradeBet(uint256,uint256)",
      "arguments": [
        "38",
        "0"
      ],
      "transaction": {
        "from": "0x7956c2c1b85f5ac14c2c537f669b65991428e268",
        "to": "0x2e180501d3d68241dd0318c68fd9be0af1d519a1",
        "gas": "0xca6f",
        "value": "0x0",
        "input": "0xff0beb6200000000000000000000000000000000000000000000000000000000000000260000000000000000000000000000000000000000000000000000000000000000",
        "nonce": "0x175",
        "chainId": "0x14a34"
      },
      "additionalContracts": [],
      "isFixedGasLimit": false
    }
  ],
  "receipts": [
    {
      "status": "0x1",
      "cumulativeGasUsed": "0x54edb7",
      "logs": [
        {
          "address": "0x2e180501d3d68241dd0318c68fd9be0af1d519a1",
          "topics": [
            "0xaf7faf29a251efa1bcf2b47dab1a72baa0906a2e4ff957e6cb6d4f7c642161ab",
            "0x0000000000000000000000000000000000000000000000000000000000000026"
          ],
          "data": "0x0000000000000000000000000000000000000000000000000000000000000000",
          "blockHash": "0x4c2feaaa3c027a353b6b502465a2f847d4ae1a4b81bdedbe5b87e953192124c1",
          "blockNumber": "0x165db3c",
          "transactionHash": "0xc45d7a1b53dd37ada2527c605b9be45ec9fb05f75da3fb250c7910c641d81c1a",
          "transactionIndex": "0x14",
          "logIndex": "0x6a",
          "removed": false
        }
      ],
      "logsBloom": "0x00000000000000000000000000000000000010000000000000000000000000000000000000000000000001000000000000000000000000200000000000000000000000000000000000000000000000000001000000000000000000000000000001000000000000000000000000000000000000000000040000000000000000000000000000000000000000000000000000000000000000000000000004000000000000000000000000000000000000000000000000000000000040000000000000000000000000000000000000000000000000000000000000000000000000000000020000000000000000000000000000000000000000000000000000000000",
      "type": "0x2",
      "transactionHash": "0xc45d7a1b53dd37ada2527c605b9be45ec9fb05f75da3fb250c7910c641d81c1a",
      "transactionIndex": "0x14",
      "blockHash": "0x4c2feaaa3c027a353b6b502465a2f847d4ae1a4b81bdedbe5b87e953192124c1",
      "blockNumber": "0x165db3c",
      "gasUsed": "0x8a6b",
      "effectiveGasPrice": "0xe695c",
      "from": "0x7956c2c1b85f5ac14c2c537f669b65991428e268",
      "to": "0x2e180501d3d68241dd0318c68fd9be0af1d519a1",
      "contractAddress": null,
      "l1BaseFeeScalar": "0x44d",
      "l1BlobBaseFee": "0x1",
      "l1BlobBaseFeeScalar": "0xa118b",
      "l1Fee": "0x56cf6d",
      "l1GasPrice": "0x314755",
      "l1GasUsed": "0x640"
    }
  ],
  "libraries": [],
  "pending": [],
  "returns": {},
  "timestamp": 1742673241,
  "chain": 84532,
  "commit": "d4a03e8"
}