{
  "transactions": [
    {
      "hash": "0xdf83fa3c30278d7d6eb15f08733417915b3539751976896e9093486adae7910c",
      "transactionType": "CALL",
      "contractName": "BettingContract",
      "contractAddress": "0xe3092b0feed0eedcd941b98b006b227c3ee924c4",
      "function": "gradeBet(uint256,uint256)",
      "arguments": ["365", "0"],
      "transaction": {
        "from": "0x7956c2c1b85f5ac14c2c537f669b65991428e268",
        "to": "0xe3092b0feed0eedcd941b98b006b227c3ee924c4",
        "gas": "0x20dfb",
        "value": "0x0",
        "input": "0xff0beb62000000000000000000000000000000000000000000000000000000000000016d0000000000000000000000000000000000000000000000000000000000000000",
        "nonce": "0xdf1",
        "chainId": "0x14a34"
      },
      "additionalContracts": [],
      "isFixedGasLimit": false
    }
  ],
  "receipts": [
    {
      "status": "0x1",
      "cumulativeGasUsed": "0x5a335",
      "logs": [
        {
          "address": "0xe3092b0feed0eedcd941b98b006b227c3ee924c4",
          "topics": [
            "0xaf7faf29a251efa1bcf2b47dab1a72baa0906a2e4ff957e6cb6d4f7c642161ab",
            "0x000000000000000000000000000000000000000000000000000000000000016d"
          ],
          "data": "0x0000000000000000000000000000000000000000000000000000000000000000",
          "blockHash": "0x817f925508856c3b2dda6cb024f9a255d41a7b148cb54fbe3caed91c4aed847f",
          "blockNumber": "0x171f8c3",
          "transactionHash": "0xdf83fa3c30278d7d6eb15f08733417915b3539751976896e9093486adae7910c",
          "transactionIndex": "0x6",
          "logIndex": "0x3",
          "removed": false
        },
        {
          "address": "0xe3092b0feed0eedcd941b98b006b227c3ee924c4",
          "topics": [
            "0x71bf4dbc735bb7b341dcea9720315ff68bb3c8f5548eed9966947402c6187601",
            "0x000000000000000000000000000000000000000000000000000000000000003d",
            "0x000000000000000000000000000000000000000000000000000000000000016d",
            "0x0000000000000000000000007956c2c1b85f5ac14c2c537f669b65991428e268"
          ],
          "data": "0x000000000000000000000000000000000000000000000000000000005e8256000000000000000000000000000000000000000000000000000000000000000001",
          "blockHash": "0x817f925508856c3b2dda6cb024f9a255d41a7b148cb54fbe3caed91c4aed847f",
          "blockNumber": "0x171f8c3",
          "transactionHash": "0xdf83fa3c30278d7d6eb15f08733417915b3539751976896e9093486adae7910c",
          "transactionIndex": "0x6",
          "logIndex": "0x4",
          "removed": false
        }
      ],
      "logsBloom": "0x00000000000000000000000000000000000400000000000000000000000000000000000000000000000000000000000000000000000000200000000000000000200000400000000100000000000080000000000000000000100000040000000020000040000000000000000000000000000000004000000000000000000000000000000000000000040000000000000000000000800000000000000004000000000000000000000000000000000000000040000000000000000040000000000000000000020000000000000000010000000000000000000000000000000000000000000000000000000000000000000000000000000000000000000000000000",
      "type": "0x2",
      "transactionHash": "0xdf83fa3c30278d7d6eb15f08733417915b3539751976896e9093486adae7910c",
      "transactionIndex": "0x6",
      "blockHash": "0x817f925508856c3b2dda6cb024f9a255d41a7b148cb54fbe3caed91c4aed847f",
      "blockNumber": "0x171f8c3",
      "gasUsed": "0x17cce",
      "effectiveGasPrice": "0xf45bc",
      "from": "0x7956c2c1b85f5ac14c2c537f669b65991428e268",
      "to": "0xe3092b0feed0eedcd941b98b006b227c3ee924c4",
      "contractAddress": null,
      "l1BaseFeeScalar": "0x44d",
      "l1BlobBaseFee": "0x1",
      "l1BlobBaseFeeScalar": "0xa118b",
      "l1Fee": "0x8fa0",
      "l1GasPrice": "0x5163",
      "l1GasUsed": "0x640"
    }
  ],
  "libraries": [],
  "pending": [],
  "returns": {},
  "timestamp": 1744261220,
  "chain": 84532,
  "commit": "d63fb1d"
}
