{
  "transactions": [
    {
      "hash": "0x29e16fac58ea89a3ff42b9c77cc73f6ffffca4b9b3bbad42117070410fbee34b",
      "transactionType": "CALL",
      "contractName": null,
      "contractAddress": "0xa373482b473e33b96412a6c0ca8b847e6bbb4d0d",
      "function": "mint(address,uint256)",
      "arguments": [
        "0x4E5dC9dF946500b07E9c66e4DD29bf9CD062002B",
        "10000"
      ],
      "transaction": {
        "from": "0x7956c2c1b85f5ac14c2c537f669b65991428e268",
        "to": "0xa373482b473e33b96412a6c0ca8b847e6bbb4d0d",
        "gas": "0xc253",
        "value": "0x0",
        "input": "0x40c10f190000000000000000000000004e5dc9df946500b07e9c66e4dd29bf9cd062002b0000000000000000000000000000000000000000000000000000000000002710",
        "nonce": "0x1bc",
        "chainId": "0x14a34"
      },
      "additionalContracts": [],
      "isFixedGasLimit": false
    },
    {
      "hash": "0x209244e632c4d14aa85e0238cbcd446509824284e2a34eb2f14d0ee3c8eec875",
      "transactionType": "CALL",
      "contractName": null,
      "contractAddress": "0xa373482b473e33b96412a6c0ca8b847e6bbb4d0d",
      "function": "mint(address,uint256)",
      "arguments": [
        "0x67bFd0B42F5f39710B4E90301289F81Eab6315dA",
        "10000"
      ],
      "transaction": {
        "from": "0x7956c2c1b85f5ac14c2c537f669b65991428e268",
        "to": "0xa373482b473e33b96412a6c0ca8b847e6bbb4d0d",
        "gas": "0xc273",
        "value": "0x0",
        "input": "0x40c10f1900000000000000000000000067bfd0b42f5f39710b4e90301289f81eab6315da0000000000000000000000000000000000000000000000000000000000002710",
        "nonce": "0x1bd",
        "chainId": "0x14a34"
      },
      "additionalContracts": [],
      "isFixedGasLimit": false
    },
    {
      "hash": "0x9b94a19a640035cf5066f044c0aa4b7441f7599975135672a2c33cb4dc33cd80",
      "transactionType": "CALL",
      "contractName": null,
      "contractAddress": "0xa373482b473e33b96412a6c0ca8b847e6bbb4d0d",
      "function": "mint(address,uint256)",
      "arguments": [
        "0x12BE474D127757d0a6a36631294F8FfBCdeF44F8",
        "10000"
      ],
      "transaction": {
        "from": "0x7956c2c1b85f5ac14c2c537f669b65991428e268",
        "to": "0xa373482b473e33b96412a6c0ca8b847e6bbb4d0d",
        "gas": "0xc273",
        "value": "0x0",
        "input": "0x40c10f1900000000000000000000000012be474d127757d0a6a36631294f8ffbcdef44f80000000000000000000000000000000000000000000000000000000000002710",
        "nonce": "0x1be",
        "chainId": "0x14a34"
      },
      "additionalContracts": [],
      "isFixedGasLimit": false
    },
    {
      "hash": "0xc5c18c68136e3fbb152b450549bd2501993f1f4e6b2b105a5338b9ea7c43ecc3",
      "transactionType": "CALL",
      "contractName": null,
      "contractAddress": "0x2e180501d3d68241dd0318c68fd9be0af1d519a1",
      "function": "createPool((string,string[2],uint40,string,string,string))",
      "arguments": [
        "(Will I PARDON MYSELF? The RADICAL LEFT is TERRIFIED of this!, [YES, NO], 1742680856, This pool will close if Trump posts that he will pardon himself, Grade YES if Trump posts about pardoning himself, NO otherwise, 114197092205719557)"
      ],
      "transaction": {
        "from": "0x7956c2c1b85f5ac14c2c537f669b65991428e268",
        "to": "0x2e180501d3d68241dd0318c68fd9be0af1d519a1",
        "gas": "0x94c45",
        "value": "0x0",
        "input": "0x1a5c3706000000000000000000000000000000000000000000000000000000000000002000000000000000000000000000000000000000000000000000000000000000c000000000000000000000000000000000000000000000000000000000000001200000000000000000000000000000000000000000000000000000000067df331800000000000000000000000000000000000000000000000000000000000001e0000000000000000000000000000000000000000000000000000000000000024000000000000000000000000000000000000000000000000000000000000002a0000000000000000000000000000000000000000000000000000000000000003c57696c6c204920504152444f4e204d5953454c463f20546865205241444943414c204c45465420697320544552524946494544206f6620746869732100000000000000000000000000000000000000000000000000000000000000000000004000000000000000000000000000000000000000000000000000000000000000800000000000000000000000000000000000000000000000000000000000000003594553000000000000000000000000000000000000000000000000000000000000000000000000000000000000000000000000000000000000000000000000024e4f000000000000000000000000000000000000000000000000000000000000000000000000000000000000000000000000000000000000000000000000003f5468697320706f6f6c2077696c6c20636c6f7365206966205472756d7020706f73747320746861742068652077696c6c20706172646f6e2068696d73656c6600000000000000000000000000000000000000000000000000000000000000003e477261646520594553206966205472756d7020706f7374732061626f757420706172646f6e696e672068696d73656c662c204e4f206f7468657277697365000000000000000000000000000000000000000000000000000000000000000000123131343139373039323230353731393535370000000000000000000000000000",
        "nonce": "0x1bf",
        "chainId": "0x14a34"
      },
      "additionalContracts": [],
      "isFixedGasLimit": false
    },
    {
      "hash": "0x836d3b32b56d607259bb772910bf78986511eb945d0ccc27cd5597afe6a21af4",
      "transactionType": "CALL",
      "contractName": null,
      "contractAddress": "0x2e180501d3d68241dd0318c68fd9be0af1d519a1",
      "function": "createPool((string,string[2],uint40,string,string,string))",
      "arguments": [
        "(Will I FIRE THE FBI DIRECTOR on day one? The FBI has been WEAPONIZED against us!, [YES, NO], 1742680856, This pool will close if Trump makes a statement about the FBI Director, Grade YES if Trump says he will fire the FBI Director, NO otherwise, 114200175082806882)"
      ],
      "transaction": {
        "from": "0x7956c2c1b85f5ac14c2c537f669b65991428e268",
        "to": "0x2e180501d3d68241dd0318c68fd9be0af1d519a1",
        "gas": "0xad159",
        "value": "0x0",
        "input": "0x1a5c3706000000000000000000000000000000000000000000000000000000000000002000000000000000000000000000000000000000000000000000000000000000c000000000000000000000000000000000000000000000000000000000000001400000000000000000000000000000000000000000000000000000000067df3318000000000000000000000000000000000000000000000000000000000000020000000000000000000000000000000000000000000000000000000000000002800000000000000000000000000000000000000000000000000000000000000300000000000000000000000000000000000000000000000000000000000000005057696c6c204920464952452054484520464249204449524543544f52206f6e20646179206f6e653f205468652046424920686173206265656e20574541504f4e495a454420616761696e73742075732100000000000000000000000000000000000000000000000000000000000000000000000000000000000000000000004000000000000000000000000000000000000000000000000000000000000000800000000000000000000000000000000000000000000000000000000000000003594553000000000000000000000000000000000000000000000000000000000000000000000000000000000000000000000000000000000000000000000000024e4f00000000000000000000000000000000000000000000000000000000000000000000000000000000000000000000000000000000000000000000000000465468697320706f6f6c2077696c6c20636c6f7365206966205472756d70206d616b657320612073746174656d656e742061626f75742074686520464249204469726563746f7200000000000000000000000000000000000000000000000000000000000000000000000000000000000000000000000000000000000000000043477261646520594553206966205472756d7020736179732068652077696c6c20666972652074686520464249204469726563746f722c204e4f206f7468657277697365000000000000000000000000000000000000000000000000000000000000000000000000000000000000000000000000000000000000000000000000123131343230303137353038323830363838320000000000000000000000000000",
        "nonce": "0x1c0",
        "chainId": "0x14a34"
      },
      "additionalContracts": [],
      "isFixedGasLimit": false
    },
    {
      "hash": "0x8750f68ba61ac052f5b461c344f35307e2425898244b9a6807dbde5db6f4def6",
      "transactionType": "CALL",
      "contractName": null,
      "contractAddress": "0x2e180501d3d68241dd0318c68fd9be0af1d519a1",
      "function": "createPool((string,string[2],uint40,string,string,string))",
      "arguments": [
        "(Will I WIN the debate against SLEEPY JOE? Everyone knows I won the last one BIGLY!, [YES, NO], 1742680856, This pool will close after the presidential debate, Grade YES if Trump wins the debate, NO otherwise, 114200313009802638)"
      ],
      "transaction": {
        "from": "0x7956c2c1b85f5ac14c2c537f669b65991428e268",
        "to": "0x2e180501d3d68241dd0318c68fd9be0af1d519a1",
        "gas": "0x9417b",
        "value": "0x0",
        "input": "0x1a5c3706000000000000000000000000000000000000000000000000000000000000002000000000000000000000000000000000000000000000000000000000000000c000000000000000000000000000000000000000000000000000000000000001400000000000000000000000000000000000000000000000000000000067df33180000000000000000000000000000000000000000000000000000000000000200000000000000000000000000000000000000000000000000000000000000026000000000000000000000000000000000000000000000000000000000000002c0000000000000000000000000000000000000000000000000000000000000005257696c6c20492057494e207468652064656261746520616761696e737420534c45455059204a4f453f2045766572796f6e65206b6e6f7773204920776f6e20746865206c617374206f6e65204249474c59210000000000000000000000000000000000000000000000000000000000000000000000000000000000000000004000000000000000000000000000000000000000000000000000000000000000800000000000000000000000000000000000000000000000000000000000000003594553000000000000000000000000000000000000000000000000000000000000000000000000000000000000000000000000000000000000000000000000024e4f00000000000000000000000000000000000000000000000000000000000000000000000000000000000000000000000000000000000000000000000000325468697320706f6f6c2077696c6c20636c6f73652061667465722074686520707265736964656e7469616c2064656261746500000000000000000000000000000000000000000000000000000000000000000000000000000000000000000030477261646520594553206966205472756d702077696e7320746865206465626174652c204e4f206f74686572776973650000000000000000000000000000000000000000000000000000000000000000000000000000000000000000000000123131343230303331333030393830323633380000000000000000000000000000",
        "nonce": "0x1c1",
        "chainId": "0x14a34"
      },
      "additionalContracts": [],
      "isFixedGasLimit": false
    },
    {
      "hash": "0x625d64e748df60807599e7016f0eeab46dc270b508d2611e8202a107447a1033",
      "transactionType": "CALL",
      "contractName": null,
      "contractAddress": "0xa373482b473e33b96412a6c0ca8b847e6bbb4d0d",
      "function": "approve(address,uint256)",
      "arguments": [
        "0x2E180501D3D68241dd0318c68fD9BE0AF1D519a1",
        "2167051001"
      ],
      "transaction": {
        "from": "0x4e5dc9df946500b07e9c66e4dd29bf9cd062002b",
        "to": "0xa373482b473e33b96412a6c0ca8b847e6bbb4d0d",
        "gas": "0x9bab",
        "value": "0x0",
        "input": "0x095ea7b30000000000000000000000002e180501d3d68241dd0318c68fd9be0af1d519a100000000000000000000000000000000000000000000000000000000812a92f9",
        "nonce": "0x13b",
        "chainId": "0x14a34"
      },
      "additionalContracts": [],
      "isFixedGasLimit": false
    },
    {
      "hash": "0x670b077e082e10fc390cbd86d8f9b3412bb0e1b9b9797058d925b561c7ab53cd",
      "transactionType": "CALL",
      "contractName": null,
      "contractAddress": "0x036cbd53842c5426634e7929541ec2318f3dcf7e",
      "function": "approve(address,uint256)",
      "arguments": [
        "0x2E180501D3D68241dd0318c68fD9BE0AF1D519a1",
        "489662251"
      ],
      "transaction": {
        "from": "0x4e5dc9df946500b07e9c66e4dd29bf9cd062002b",
        "to": "0x036cbd53842c5426634e7929541ec2318f3dcf7e",
        "gas": "0xbfcd",
        "value": "0x0",
        "input": "0x095ea7b30000000000000000000000002e180501d3d68241dd0318c68fd9be0af1d519a1000000000000000000000000000000000000000000000000000000001d2fa72b",
        "nonce": "0x13c",
        "chainId": "0x14a34"
      },
      "additionalContracts": [],
      "isFixedGasLimit": false
    },
    {
      "hash": "0xdd640e34d7dd2dfcea90ae2e086da8014d18932d1a77f8979a5d3bca42518426",
      "transactionType": "CALL",
      "contractName": null,
      "contractAddress": "0x2e180501d3d68241dd0318c68fd9be0af1d519a1",
      "function": "placeBet(uint256,uint256,uint256,address,uint8)",
      "arguments": [
        "195",
        "0",
        "650115299",
        "0x4E5dC9dF946500b07E9c66e4DD29bf9CD062002B",
        "1"
      ],
      "transaction": {
        "from": "0x4e5dc9df946500b07e9c66e4dd29bf9cd062002b",
        "to": "0x2e180501d3d68241dd0318c68fd9be0af1d519a1",
        "gas": "0xa74fa",
        "value": "0x0",
        "input": "0x011c4dd900000000000000000000000000000000000000000000000000000000000000c300000000000000000000000000000000000000000000000000000000000000000000000000000000000000000000000000000000000000000000000026bff8e30000000000000000000000004e5dc9df946500b07e9c66e4dd29bf9cd062002b0000000000000000000000000000000000000000000000000000000000000001",
        "nonce": "0x13d",
        "chainId": "0x14a34"
      },
      "additionalContracts": [],
      "isFixedGasLimit": false
    },
    {
      "hash": "0x3d7fb86ad5c5cfddce1200b3808a47ee23a60e3e22cecd5ac363691c7636d321",
      "transactionType": "CALL",
      "contractName": null,
      "contractAddress": "0x2e180501d3d68241dd0318c68fd9be0af1d519a1",
      "function": "placeBet(uint256,uint256,uint256,address,uint8)",
      "arguments": [
        "196",
        "1",
        "650115299",
        "0x4E5dC9dF946500b07E9c66e4DD29bf9CD062002B",
        "1"
      ],
      "transaction": {
        "from": "0x4e5dc9df946500b07e9c66e4dd29bf9cd062002b",
        "to": "0x2e180501d3d68241dd0318c68fd9be0af1d519a1",
        "gas": "0xab70f",
        "value": "0x0",
        "input": "0x011c4dd900000000000000000000000000000000000000000000000000000000000000c400000000000000000000000000000000000000000000000000000000000000010000000000000000000000000000000000000000000000000000000026bff8e30000000000000000000000004e5dc9df946500b07e9c66e4dd29bf9cd062002b0000000000000000000000000000000000000000000000000000000000000001",
        "nonce": "0x13e",
        "chainId": "0x14a34"
      },
      "additionalContracts": [],
      "isFixedGasLimit": false
    },
    {
      "hash": "0xcefa40b5c0ea8111b2e0cb37d3b3f8c91a3bda03be2fff5be041fdbf98281289",
      "transactionType": "CALL",
      "contractName": null,
      "contractAddress": "0x2e180501d3d68241dd0318c68fd9be0af1d519a1",
      "function": "placeBet(uint256,uint256,uint256,address,uint8)",
      "arguments": [
        "197",
        "0",
        "650115299",
        "0x4E5dC9dF946500b07E9c66e4DD29bf9CD062002B",
        "1"
      ],
      "transaction": {
        "from": "0x4e5dc9df946500b07e9c66e4dd29bf9cd062002b",
        "to": "0x2e180501d3d68241dd0318c68fd9be0af1d519a1",
        "gas": "0xa74fa",
        "value": "0x0",
        "input": "0x011c4dd900000000000000000000000000000000000000000000000000000000000000c500000000000000000000000000000000000000000000000000000000000000000000000000000000000000000000000000000000000000000000000026bff8e30000000000000000000000004e5dc9df946500b07e9c66e4dd29bf9cd062002b0000000000000000000000000000000000000000000000000000000000000001",
        "nonce": "0x13f",
        "chainId": "0x14a34"
      },
      "additionalContracts": [],
      "isFixedGasLimit": false
    },
    {
      "hash": "0xd7498cae0eb4599cbe0a28c6acf8576d7eff7926c4f84b3bc6d41b7a1750dd73",
      "transactionType": "CALL",
      "contractName": null,
      "contractAddress": "0x2e180501d3d68241dd0318c68fd9be0af1d519a1",
      "function": "placeBet(uint256,uint256,uint256,address,uint8)",
      "arguments": [
        "195",
        "0",
        "2000000",
        "0x4E5dC9dF946500b07E9c66e4DD29bf9CD062002B",
        "0"
      ],
      "transaction": {
        "from": "0x4e5dc9df946500b07e9c66e4dd29bf9cd062002b",
        "to": "0x2e180501d3d68241dd0318c68fd9be0af1d519a1",
        "gas": "0x974a2",
        "value": "0x0",
        "input": "0x011c4dd900000000000000000000000000000000000000000000000000000000000000c3000000000000000000000000000000000000000000000000000000000000000000000000000000000000000000000000000000000000000000000000001e84800000000000000000000000004e5dc9df946500b07e9c66e4dd29bf9cd062002b0000000000000000000000000000000000000000000000000000000000000000",
        "nonce": "0x140",
        "chainId": "0x14a34"
      },
      "additionalContracts": [],
      "isFixedGasLimit": false
    },
    {
      "hash": "0x764daa19b78993212b2616930f6e7aca889a3e52fe86f7375cad756d0ef6aedf",
      "transactionType": "CALL",
      "contractName": null,
      "contractAddress": "0x2e180501d3d68241dd0318c68fd9be0af1d519a1",
      "function": "placeBet(uint256,uint256,uint256,address,uint8)",
      "arguments": [
        "196",
        "1",
        "3000000",
        "0x4E5dC9dF946500b07E9c66e4DD29bf9CD062002B",
        "0"
      ],
      "transaction": {
        "from": "0x4e5dc9df946500b07e9c66e4dd29bf9cd062002b",
        "to": "0x2e180501d3d68241dd0318c68fd9be0af1d519a1",
        "gas": "0x9c4f6",
        "value": "0x0",
        "input": "0x011c4dd900000000000000000000000000000000000000000000000000000000000000c4000000000000000000000000000000000000000000000000000000000000000100000000000000000000000000000000000000000000000000000000002dc6c00000000000000000000000004e5dc9df946500b07e9c66e4dd29bf9cd062002b0000000000000000000000000000000000000000000000000000000000000000",
        "nonce": "0x141",
        "chainId": "0x14a34"
      },
      "additionalContracts": [],
      "isFixedGasLimit": false
    },
    {
      "hash": "0x50a1691ac9be0863506a03d325f6f5525516b54f749a7d04ba8b814c45ab8750",
      "transactionType": "CALL",
      "contractName": null,
      "contractAddress": "0x2e180501d3d68241dd0318c68fd9be0af1d519a1",
      "function": "placeBet(uint256,uint256,uint256,address,uint8)",
      "arguments": [
        "197",
        "1",
        "4000000",
        "0x4E5dC9dF946500b07E9c66e4DD29bf9CD062002B",
        "0"
      ],
      "transaction": {
        "from": "0x4e5dc9df946500b07e9c66e4dd29bf9cd062002b",
        "to": "0x2e180501d3d68241dd0318c68fd9be0af1d519a1",
        "gas": "0xa5802",
        "value": "0x0",
        "input": "0x011c4dd900000000000000000000000000000000000000000000000000000000000000c5000000000000000000000000000000000000000000000000000000000000000100000000000000000000000000000000000000000000000000000000003d09000000000000000000000000004e5dc9df946500b07e9c66e4dd29bf9cd062002b0000000000000000000000000000000000000000000000000000000000000000",
        "nonce": "0x142",
        "chainId": "0x14a34"
      },
      "additionalContracts": [],
      "isFixedGasLimit": false
    },
    {
      "hash": "0x489de4c873e3124c00e2d12eb12079378fd1eb2a7226b43d4417db0f8ad087d5",
      "transactionType": "CALL",
      "contractName": null,
      "contractAddress": "0xa373482b473e33b96412a6c0ca8b847e6bbb4d0d",
      "function": "approve(address,uint256)",
      "arguments": [
        "0x2E180501D3D68241dd0318c68fD9BE0AF1D519a1",
        "1721101002"
      ],
      "transaction": {
        "from": "0x67bfd0b42f5f39710b4e90301289f81eab6315da",
        "to": "0xa373482b473e33b96412a6c0ca8b847e6bbb4d0d",
        "gas": "0x9bab",
        "value": "0x0",
        "input": "0x095ea7b30000000000000000000000002e180501d3d68241dd0318c68fd9be0af1d519a1000000000000000000000000000000000000000000000000000000006695eaca",
        "nonce": "0xc2",
        "chainId": "0x14a34"
      },
      "additionalContracts": [],
      "isFixedGasLimit": false
    },
    {
      "hash": "0xf35afdab927358f05054c703b2260bb932383c056d5a6f3782e4887621eb4c86",
      "transactionType": "CALL",
      "contractName": null,
      "contractAddress": "0x036cbd53842c5426634e7929541ec2318f3dcf7e",
      "function": "approve(address,uint256)",
      "arguments": [
        "0x2E180501D3D68241dd0318c68fD9BE0AF1D519a1",
        "484000000"
      ],
      "transaction": {
        "from": "0x67bfd0b42f5f39710b4e90301289f81eab6315da",
        "to": "0x036cbd53842c5426634e7929541ec2318f3dcf7e",
        "gas": "0xcb04",
        "value": "0x0",
        "input": "0x095ea7b30000000000000000000000002e180501d3d68241dd0318c68fd9be0af1d519a1000000000000000000000000000000000000000000000000000000001cd94100",
        "nonce": "0xc3",
        "chainId": "0x14a34"
      },
      "additionalContracts": [],
      "isFixedGasLimit": false
    },
    {
      "hash": "0xe07841bcb013861f01ba3c8c29f280802821c069d402dc34d4eb8297ca6d5e62",
      "transactionType": "CALL",
      "contractName": null,
      "contractAddress": "0x2e180501d3d68241dd0318c68fd9be0af1d519a1",
      "function": "placeBet(uint256,uint256,uint256,address,uint8)",
      "arguments": [
        "195",
        "0",
        "516330300",
        "0x67bFd0B42F5f39710B4E90301289F81Eab6315dA",
        "1"
      ],
      "transaction": {
        "from": "0x67bfd0b42f5f39710b4e90301289f81eab6315da",
        "to": "0x2e180501d3d68241dd0318c68fd9be0af1d519a1",
        "gas": "0x9b1bc",
        "value": "0x0",
        "input": "0x011c4dd900000000000000000000000000000000000000000000000000000000000000c30000000000000000000000000000000000000000000000000000000000000000000000000000000000000000000000000000000000000000000000001ec6933c00000000000000000000000067bfd0b42f5f39710b4e90301289f81eab6315da0000000000000000000000000000000000000000000000000000000000000001",
        "nonce": "0xc4",
        "chainId": "0x14a34"
      },
      "additionalContracts": [],
      "isFixedGasLimit": false
    },
    {
      "hash": "0x0e4edd25e8bbd07bb8e7f61f86f895c96eeda078f549c58d4f1142258acab9e4",
      "transactionType": "CALL",
      "contractName": null,
      "contractAddress": "0x2e180501d3d68241dd0318c68fd9be0af1d519a1",
      "function": "placeBet(uint256,uint256,uint256,address,uint8)",
      "arguments": [
        "196",
        "1",
        "516330300",
        "0x67bFd0B42F5f39710B4E90301289F81Eab6315dA",
        "1"
      ],
      "transaction": {
        "from": "0x67bfd0b42f5f39710b4e90301289f81eab6315da",
        "to": "0x2e180501d3d68241dd0318c68fd9be0af1d519a1",
        "gas": "0x9feaa",
        "value": "0x0",
        "input": "0x011c4dd900000000000000000000000000000000000000000000000000000000000000c40000000000000000000000000000000000000000000000000000000000000001000000000000000000000000000000000000000000000000000000001ec6933c00000000000000000000000067bfd0b42f5f39710b4e90301289f81eab6315da0000000000000000000000000000000000000000000000000000000000000001",
        "nonce": "0xc5",
        "chainId": "0x14a34"
      },
      "additionalContracts": [],
      "isFixedGasLimit": false
    },
    {
      "hash": "0x3688ce9964985257c9b7cd4e6e1ca645f530b8c462c38e9c29918db0c82067f5",
      "transactionType": "CALL",
      "contractName": null,
      "contractAddress": "0x2e180501d3d68241dd0318c68fd9be0af1d519a1",
      "function": "placeBet(uint256,uint256,uint256,address,uint8)",
      "arguments": [
        "197",
        "0",
        "516330300",
        "0x67bFd0B42F5f39710B4E90301289F81Eab6315dA",
        "1"
      ],
      "transaction": {
        "from": "0x67bfd0b42f5f39710b4e90301289f81eab6315da",
        "to": "0x2e180501d3d68241dd0318c68fd9be0af1d519a1",
        "gas": "0x9b1bc",
        "value": "0x0",
        "input": "0x011c4dd900000000000000000000000000000000000000000000000000000000000000c50000000000000000000000000000000000000000000000000000000000000000000000000000000000000000000000000000000000000000000000001ec6933c00000000000000000000000067bfd0b42f5f39710b4e90301289f81eab6315da0000000000000000000000000000000000000000000000000000000000000001",
        "nonce": "0xc6",
        "chainId": "0x14a34"
      },
      "additionalContracts": [],
      "isFixedGasLimit": false
    },
    {
      "hash": "0x5dfa4b8072ccc004f42338ead8e8f7088807762741b1f40196dda216d4d598bd",
      "transactionType": "CALL",
      "contractName": null,
      "contractAddress": "0x2e180501d3d68241dd0318c68fd9be0af1d519a1",
      "function": "placeBet(uint256,uint256,uint256,address,uint8)",
      "arguments": [
        "195",
        "0",
        "2000000",
        "0x67bFd0B42F5f39710B4E90301289F81Eab6315dA",
        "0"
      ],
      "transaction": {
        "from": "0x67bfd0b42f5f39710b4e90301289f81eab6315da",
        "to": "0x2e180501d3d68241dd0318c68fd9be0af1d519a1",
        "gas": "0x89204",
        "value": "0x0",
        "input": "0x011c4dd900000000000000000000000000000000000000000000000000000000000000c3000000000000000000000000000000000000000000000000000000000000000000000000000000000000000000000000000000000000000000000000001e848000000000000000000000000067bfd0b42f5f39710b4e90301289f81eab6315da0000000000000000000000000000000000000000000000000000000000000000",
        "nonce": "0xc7",
        "chainId": "0x14a34"
      },
      "additionalContracts": [],
      "isFixedGasLimit": false
    },
    {
      "hash": "0xedf8b073dabd6cab344211b563c7c49be4b44f10651c27bec217cec094d28fc6",
      "transactionType": "CALL",
      "contractName": null,
      "contractAddress": "0x2e180501d3d68241dd0318c68fd9be0af1d519a1",
      "function": "placeBet(uint256,uint256,uint256,address,uint8)",
      "arguments": [
        "196",
        "0",
        "3000000",
        "0x67bFd0B42F5f39710B4E90301289F81Eab6315dA",
        "0"
      ],
      "transaction": {
        "from": "0x67bfd0b42f5f39710b4e90301289f81eab6315da",
        "to": "0x2e180501d3d68241dd0318c68fd9be0af1d519a1",
        "gas": "0x974c5",
        "value": "0x0",
        "input": "0x011c4dd900000000000000000000000000000000000000000000000000000000000000c4000000000000000000000000000000000000000000000000000000000000000000000000000000000000000000000000000000000000000000000000002dc6c000000000000000000000000067bfd0b42f5f39710b4e90301289f81eab6315da0000000000000000000000000000000000000000000000000000000000000000",
        "nonce": "0xc8",
        "chainId": "0x14a34"
      },
      "additionalContracts": [],
      "isFixedGasLimit": false
    },
    {
      "hash": "0x14515c14cef317eb57cfb80b90536866ee4bdfac427ee5558f97d56df30daf8b",
      "transactionType": "CALL",
      "contractName": null,
      "contractAddress": "0x2e180501d3d68241dd0318c68fd9be0af1d519a1",
      "function": "placeBet(uint256,uint256,uint256,address,uint8)",
      "arguments": [
        "197",
        "1",
        "3000000",
        "0x67bFd0B42F5f39710B4E90301289F81Eab6315dA",
        "0"
      ],
      "transaction": {
        "from": "0x67bfd0b42f5f39710b4e90301289f81eab6315da",
        "to": "0x2e180501d3d68241dd0318c68fd9be0af1d519a1",
        "gas": "0x9f686",
        "value": "0x0",
        "input": "0x011c4dd900000000000000000000000000000000000000000000000000000000000000c5000000000000000000000000000000000000000000000000000000000000000100000000000000000000000000000000000000000000000000000000002dc6c000000000000000000000000067bfd0b42f5f39710b4e90301289f81eab6315da0000000000000000000000000000000000000000000000000000000000000000",
        "nonce": "0xc9",
        "chainId": "0x14a34"
      },
      "additionalContracts": [],
      "isFixedGasLimit": false
    },
    {
      "hash": "0x096b586e65d88c4e079b36cad21b33c47eeb9c366126c0a47f13f615c6df90c7",
      "transactionType": "CALL",
      "contractName": null,
      "contractAddress": "0xa373482b473e33b96412a6c0ca8b847e6bbb4d0d",
      "function": "approve(address,uint256)",
      "arguments": [
        "0x2E180501D3D68241dd0318c68fD9BE0AF1D519a1",
        "1185961001"
      ],
      "transaction": {
        "from": "0x12be474d127757d0a6a36631294f8ffbcdef44f8",
        "to": "0xa373482b473e33b96412a6c0ca8b847e6bbb4d0d",
        "gas": "0x9bab",
        "value": "0x0",
        "input": "0x095ea7b30000000000000000000000002e180501d3d68241dd0318c68fd9be0af1d519a10000000000000000000000000000000000000000000000000000000046b05429",
        "nonce": "0xa7",
        "chainId": "0x14a34"
      },
      "additionalContracts": [],
      "isFixedGasLimit": false
    },
    {
      "hash": "0xb1be7fee02479e7a0bc03a1908b837187bfe2b3413780e1f6dc12a58f398f52e",
      "transactionType": "CALL",
      "contractName": null,
      "contractAddress": "0x036cbd53842c5426634e7929541ec2318f3dcf7e",
      "function": "approve(address,uint256)",
      "arguments": [
        "0x2E180501D3D68241dd0318c68fD9BE0AF1D519a1",
        "498049751"
      ],
      "transaction": {
        "from": "0x12be474d127757d0a6a36631294f8ffbcdef44f8",
        "to": "0x036cbd53842c5426634e7929541ec2318f3dcf7e",
        "gas": "0xbfcd",
        "value": "0x0",
        "input": "0x095ea7b30000000000000000000000002e180501d3d68241dd0318c68fd9be0af1d519a1000000000000000000000000000000000000000000000000000000001dafa2d7",
        "nonce": "0xa8",
        "chainId": "0x14a34"
      },
      "additionalContracts": [],
      "isFixedGasLimit": false
    },
    {
      "hash": "0xaad1562de450dcb9bd872669ec1ecc85f75b2f71297dc29bfeae72d7ad0fc693",
      "transactionType": "CALL",
      "contractName": null,
      "contractAddress": "0x2e180501d3d68241dd0318c68fd9be0af1d519a1",
      "function": "placeBet(uint256,uint256,uint256,address,uint8)",
      "arguments": [
        "195",
        "1",
        "355788299",
        "0x12BE474D127757d0a6a36631294F8FfBCdeF44F8",
        "1"
      ],
      "transaction": {
        "from": "0x12be474d127757d0a6a36631294f8ffbcdef44f8",
        "to": "0x2e180501d3d68241dd0318c68fd9be0af1d519a1",
        "gas": "0xaf6de",
        "value": "0x0",
        "input": "0x011c4dd900000000000000000000000000000000000000000000000000000000000000c30000000000000000000000000000000000000000000000000000000000000001000000000000000000000000000000000000000000000000000000001534e60b00000000000000000000000012be474d127757d0a6a36631294f8ffbcdef44f80000000000000000000000000000000000000000000000000000000000000001",
        "nonce": "0xa9",
        "chainId": "0x14a34"
      },
      "additionalContracts": [],
      "isFixedGasLimit": false
    },
    {
      "hash": "0x678caef6e3bec818e8a08458271d9a110a68c4a7d80e3ba9bef7ae2d3defb0ae",
      "transactionType": "CALL",
      "contractName": null,
      "contractAddress": "0x2e180501d3d68241dd0318c68fd9be0af1d519a1",
      "function": "placeBet(uint256,uint256,uint256,address,uint8)",
      "arguments": [
        "196",
        "0",
        "355788299",
        "0x12BE474D127757d0a6a36631294F8FfBCdeF44F8",
        "1"
      ],
      "transaction": {
        "from": "0x12be474d127757d0a6a36631294f8ffbcdef44f8",
        "to": "0x2e180501d3d68241dd0318c68fd9be0af1d519a1",
        "gas": "0x9841f",
        "value": "0x0",
        "input": "0x011c4dd900000000000000000000000000000000000000000000000000000000000000c40000000000000000000000000000000000000000000000000000000000000000000000000000000000000000000000000000000000000000000000001534e60b00000000000000000000000012be474d127757d0a6a36631294f8ffbcdef44f80000000000000000000000000000000000000000000000000000000000000001",
        "nonce": "0xaa",
        "chainId": "0x14a34"
      },
      "additionalContracts": [],
      "isFixedGasLimit": false
    },
    {
      "hash": "0x857771335ea97cf3d8ff5ae8eaf71d299d2d4e9dc503204fb1a2698cf6ec09ac",
      "transactionType": "CALL",
      "contractName": null,
      "contractAddress": "0x2e180501d3d68241dd0318c68fd9be0af1d519a1",
      "function": "placeBet(uint256,uint256,uint256,address,uint8)",
      "arguments": [
        "197",
        "0",
        "355788299",
        "0x12BE474D127757d0a6a36631294F8FfBCdeF44F8",
        "1"
      ],
      "transaction": {
        "from": "0x12be474d127757d0a6a36631294f8ffbcdef44f8",
        "to": "0x2e180501d3d68241dd0318c68fd9be0af1d519a1",
        "gas": "0x9b1bc",
        "value": "0x0",
        "input": "0x011c4dd900000000000000000000000000000000000000000000000000000000000000c50000000000000000000000000000000000000000000000000000000000000000000000000000000000000000000000000000000000000000000000001534e60b00000000000000000000000012be474d127757d0a6a36631294f8ffbcdef44f80000000000000000000000000000000000000000000000000000000000000001",
        "nonce": "0xab",
        "chainId": "0x14a34"
      },
      "additionalContracts": [],
      "isFixedGasLimit": false
    },
    {
      "hash": "0x748cee9b17bd3a7cc072109a0b998795c69fcb1532b59327091e35bc72d52b64",
      "transactionType": "CALL",
      "contractName": null,
      "contractAddress": "0x2e180501d3d68241dd0318c68fd9be0af1d519a1",
      "function": "placeBet(uint256,uint256,uint256,address,uint8)",
      "arguments": [
        "195",
        "1",
        "2000000",
        "0x12BE474D127757d0a6a36631294F8FfBCdeF44F8",
        "0"
      ],
      "transaction": {
        "from": "0x12be474d127757d0a6a36631294f8ffbcdef44f8",
        "to": "0x2e180501d3d68241dd0318c68fd9be0af1d519a1",
        "gas": "0x9c516",
        "value": "0x0",
        "input": "0x011c4dd900000000000000000000000000000000000000000000000000000000000000c3000000000000000000000000000000000000000000000000000000000000000100000000000000000000000000000000000000000000000000000000001e848000000000000000000000000012be474d127757d0a6a36631294f8ffbcdef44f80000000000000000000000000000000000000000000000000000000000000000",
        "nonce": "0xac",
        "chainId": "0x14a34"
      },
      "additionalContracts": [],
      "isFixedGasLimit": false
    },
    {
      "hash": "0x7b204bc1287f536f1f96c9252ca0387bd43428726ba6389f1eb761df5d7e023e",
      "transactionType": "CALL",
      "contractName": null,
      "contractAddress": "0x2e180501d3d68241dd0318c68fd9be0af1d519a1",
      "function": "placeBet(uint256,uint256,uint256,address,uint8)",
      "arguments": [
        "196",
        "1",
        "3000000",
        "0x12BE474D127757d0a6a36631294F8FfBCdeF44F8",
        "0"
      ],
      "transaction": {
        "from": "0x12be474d127757d0a6a36631294f8ffbcdef44f8",
        "to": "0x2e180501d3d68241dd0318c68fd9be0af1d519a1",
        "gas": "0x9f686",
        "value": "0x0",
        "input": "0x011c4dd900000000000000000000000000000000000000000000000000000000000000c4000000000000000000000000000000000000000000000000000000000000000100000000000000000000000000000000000000000000000000000000002dc6c000000000000000000000000012be474d127757d0a6a36631294f8ffbcdef44f80000000000000000000000000000000000000000000000000000000000000000",
        "nonce": "0xad",
        "chainId": "0x14a34"
      },
      "additionalContracts": [],
      "isFixedGasLimit": false
    },
    {
      "hash": "0xff11d4bad912f4e6c3e1bd94d96b31fb28e82fc3013fe3f203fcbd49d2ea49fa",
      "transactionType": "CALL",
      "contractName": null,
      "contractAddress": "0x2e180501d3d68241dd0318c68fd9be0af1d519a1",
      "function": "placeBet(uint256,uint256,uint256,address,uint8)",
      "arguments": [
        "197",
        "1",
        "2000000",
        "0x12BE474D127757d0a6a36631294F8FfBCdeF44F8",
        "0"
      ],
      "transaction": {
        "from": "0x12be474d127757d0a6a36631294f8ffbcdef44f8",
        "to": "0x2e180501d3d68241dd0318c68fd9be0af1d519a1",
        "gas": "0x9f686",
        "value": "0x0",
        "input": "0x011c4dd900000000000000000000000000000000000000000000000000000000000000c5000000000000000000000000000000000000000000000000000000000000000100000000000000000000000000000000000000000000000000000000001e848000000000000000000000000012be474d127757d0a6a36631294f8ffbcdef44f80000000000000000000000000000000000000000000000000000000000000000",
        "nonce": "0xae",
        "chainId": "0x14a34"
      },
      "additionalContracts": [],
      "isFixedGasLimit": false
    },
    {
      "hash": "0x9655a682a9dd175c064c4df836a011c7c4ecac8b1ba8852179ea869d9b17d5ae",
      "transactionType": "CALL",
      "contractName": null,
      "contractAddress": "0x2e180501d3d68241dd0318c68fd9be0af1d519a1",
      "function": "gradeBet(uint256,uint256)",
      "arguments": [
        "192",
        "0"
      ],
      "transaction": {
        "from": "0x7956c2c1b85f5ac14c2c537f669b65991428e268",
        "to": "0x2e180501d3d68241dd0318c68fd9be0af1d519a1",
        "gas": "0x7046c",
        "value": "0x0",
        "input": "0xff0beb6200000000000000000000000000000000000000000000000000000000000000c00000000000000000000000000000000000000000000000000000000000000000",
        "nonce": "0x1c2",
        "chainId": "0x14a34"
      },
      "additionalContracts": [],
      "isFixedGasLimit": false
    },
    {
      "hash": "0x16bcbf9141162b09279ff99cc21d5a03370a91b8446d55015969163970353bf1",
      "transactionType": "CALL",
      "contractName": null,
      "contractAddress": "0x2e180501d3d68241dd0318c68fd9be0af1d519a1",
      "function": "claimPayouts(uint256[])",
      "arguments": [
        "[67, 68, 69, 70, 71, 72]"
      ],
      "transaction": {
        "from": "0x4e5dc9df946500b07e9c66e4dd29bf9cd062002b",
        "to": "0x2e180501d3d68241dd0318c68fd9be0af1d519a1",
        "gas": "0xf0b9",
        "value": "0x0",
        "input": "0x3d695c5200000000000000000000000000000000000000000000000000000000000000200000000000000000000000000000000000000000000000000000000000000006000000000000000000000000000000000000000000000000000000000000004300000000000000000000000000000000000000000000000000000000000000440000000000000000000000000000000000000000000000000000000000000045000000000000000000000000000000000000000000000000000000000000004600000000000000000000000000000000000000000000000000000000000000470000000000000000000000000000000000000000000000000000000000000048",
        "nonce": "0x143",
        "chainId": "0x14a34"
      },
      "additionalContracts": [],
      "isFixedGasLimit": false
    },
    {
      "hash": "0x5361109baa79c6fb1479c0b8812004bfe32e2d01db23c9044990fed123e3bc3c",
      "transactionType": "CALL",
      "contractName": null,
      "contractAddress": "0x2e180501d3d68241dd0318c68fd9be0af1d519a1",
      "function": "withdraw(uint8,uint256)",
      "arguments": [
        "0",
        "2000000"
      ],
      "transaction": {
        "from": "0x4e5dc9df946500b07e9c66e4dd29bf9cd062002b",
        "to": "0x2e180501d3d68241dd0318c68fd9be0af1d519a1",
        "gas": "0x125cc",
        "value": "0x0",
        "input": "0x3f489914000000000000000000000000000000000000000000000000000000000000000000000000000000000000000000000000000000000000000000000000001e8480",
        "nonce": "0x144",
        "chainId": "0x14a34"
      },
      "additionalContracts": [],
      "isFixedGasLimit": false
    },
    {
      "hash": "0xbb4dd2cd8749f51ce431c0cb2fb81ecdf781f05b8d0d1367ed8e7cf4ee5c66d3",
      "transactionType": "CALL",
      "contractName": null,
      "contractAddress": "0x2e180501d3d68241dd0318c68fd9be0af1d519a1",
      "function": "claimPayouts(uint256[])",
      "arguments": [
        "[73, 74, 75, 76, 77, 78]"
      ],
      "transaction": {
        "from": "0x67bfd0b42f5f39710b4e90301289f81eab6315da",
        "to": "0x2e180501d3d68241dd0318c68fd9be0af1d519a1",
        "gas": "0xf0b9",
        "value": "0x0",
        "input": "0x3d695c52000000000000000000000000000000000000000000000000000000000000002000000000000000000000000000000000000000000000000000000000000000060000000000000000000000000000000000000000000000000000000000000049000000000000000000000000000000000000000000000000000000000000004a000000000000000000000000000000000000000000000000000000000000004b000000000000000000000000000000000000000000000000000000000000004c000000000000000000000000000000000000000000000000000000000000004d000000000000000000000000000000000000000000000000000000000000004e",
        "nonce": "0xca",
        "chainId": "0x14a34"
      },
      "additionalContracts": [],
      "isFixedGasLimit": false
    },
    {
      "hash": "0x30dc50a571948fa49d346df2a63fc9031edb3f7722f27fd5bef97aa9207a6062",
      "transactionType": "CALL",
      "contractName": null,
      "contractAddress": "0x2e180501d3d68241dd0318c68fd9be0af1d519a1",
      "function": "withdraw(uint8,uint256)",
      "arguments": [
        "0",
        "2000000"
      ],
      "transaction": {
        "from": "0x67bfd0b42f5f39710b4e90301289f81eab6315da",
        "to": "0x2e180501d3d68241dd0318c68fd9be0af1d519a1",
        "gas": "0x125cc",
        "value": "0x0",
        "input": "0x3f489914000000000000000000000000000000000000000000000000000000000000000000000000000000000000000000000000000000000000000000000000001e8480",
        "nonce": "0xcb",
        "chainId": "0x14a34"
      },
      "additionalContracts": [],
      "isFixedGasLimit": false
    },
    {
      "hash": "0xce80564b4653ed7e5926f185b081f565e6cd18da4c78af0ec491205a4e16c0ca",
      "transactionType": "CALL",
      "contractName": null,
      "contractAddress": "0x2e180501d3d68241dd0318c68fd9be0af1d519a1",
      "function": "withdraw(uint8,uint256)",
      "arguments": [
        "1",
        "8931101055"
      ],
      "transaction": {
        "from": "0x67bfd0b42f5f39710b4e90301289f81eab6315da",
        "to": "0x2e180501d3d68241dd0318c68fd9be0af1d519a1",
        "gas": "0xf536",
        "value": "0x0",
        "input": "0x3f4899140000000000000000000000000000000000000000000000000000000000000001000000000000000000000000000000000000000000000000000000021455c97f",
        "nonce": "0xcc",
        "chainId": "0x14a34"
      },
      "additionalContracts": [],
      "isFixedGasLimit": false
    },
    {
      "hash": "0x74bfb3e9ef58b5e9e55f284553088669c978b8cf357599f934baeab8ab48f2f6",
      "transactionType": "CALL",
      "contractName": null,
      "contractAddress": "0x2e180501d3d68241dd0318c68fd9be0af1d519a1",
      "function": "claimPayouts(uint256[])",
      "arguments": [
        "[79, 80, 81, 82, 83, 84]"
      ],
      "transaction": {
        "from": "0x12be474d127757d0a6a36631294f8ffbcdef44f8",
        "to": "0x2e180501d3d68241dd0318c68fd9be0af1d519a1",
        "gas": "0xf0b9",
        "value": "0x0",
        "input": "0x3d695c5200000000000000000000000000000000000000000000000000000000000000200000000000000000000000000000000000000000000000000000000000000006000000000000000000000000000000000000000000000000000000000000004f00000000000000000000000000000000000000000000000000000000000000500000000000000000000000000000000000000000000000000000000000000051000000000000000000000000000000000000000000000000000000000000005200000000000000000000000000000000000000000000000000000000000000530000000000000000000000000000000000000000000000000000000000000054",
        "nonce": "0xaf",
        "chainId": "0x14a34"
      },
      "additionalContracts": [],
      "isFixedGasLimit": false
    },
    {
      "hash": "0x079e4ca29e23de22a3e27a8e5d87e2a8809692c3e963965ca0e55b8968cafa2d",
      "transactionType": "CALL",
      "contractName": null,
      "contractAddress": "0x2e180501d3d68241dd0318c68fd9be0af1d519a1",
      "function": "withdraw(uint8,uint256)",
      "arguments": [
        "0",
        "3000000"
      ],
      "transaction": {
        "from": "0x12be474d127757d0a6a36631294f8ffbcdef44f8",
        "to": "0x2e180501d3d68241dd0318c68fd9be0af1d519a1",
        "gas": "0x125cc",
        "value": "0x0",
        "input": "0x3f489914000000000000000000000000000000000000000000000000000000000000000000000000000000000000000000000000000000000000000000000000002dc6c0",
        "nonce": "0xb0",
        "chainId": "0x14a34"
      },
      "additionalContracts": [],
      "isFixedGasLimit": false
    },
    {
      "hash": "0xc246c64819a4c5423d86a706001cc928f62b21738e344c3f6e106819fad4fc46",
      "transactionType": "CALL",
      "contractName": null,
      "contractAddress": "0x2e180501d3d68241dd0318c68fd9be0af1d519a1",
      "function": "withdraw(uint8,uint256)",
      "arguments": [
        "1",
        "6154147704"
      ],
      "transaction": {
        "from": "0x12be474d127757d0a6a36631294f8ffbcdef44f8",
        "to": "0x2e180501d3d68241dd0318c68fd9be0af1d519a1",
        "gas": "0xf536",
        "value": "0x0",
        "input": "0x3f4899140000000000000000000000000000000000000000000000000000000000000001000000000000000000000000000000000000000000000000000000016ed0d778",
        "nonce": "0xb1",
        "chainId": "0x14a34"
      },
      "additionalContracts": [],
      "isFixedGasLimit": false
    }
  ],
  "receipts": [
    {
      "status": "0x1",
      "cumulativeGasUsed": "0x3f4e5b",
      "logs": [
        {
          "address": "0xa373482b473e33b96412a6c0ca8b847e6bbb4d0d",
          "topics": [
            "0xddf252ad1be2c89b69c2b068fc378daa952ba7f163c4a11628f55a4df523b3ef",
            "0x0000000000000000000000000000000000000000000000000000000000000000",
            "0x0000000000000000000000004e5dc9df946500b07e9c66e4dd29bf9cd062002b"
          ],
          "data": "0x0000000000000000000000000000000000000000000000000000000000002710",
          "blockHash": "0x70e31c919eb15d75ba067e0a9720f3c9132c140557e3a16632d782e68271f105",
          "blockNumber": "0x165e361",
          "transactionHash": "0x29e16fac58ea89a3ff42b9c77cc73f6ffffca4b9b3bbad42117070410fbee34b",
          "transactionIndex": "0x16",
          "logIndex": "0x59",
          "removed": false
        }
      ],
      "logsBloom": "0x00000000000000000000000000000000000000000000000000000000000000000000000000000000000000000000000000000000000000000000000000000000000000000000000000000008000000000000000000200000000000000000000000000000020000000000000000000800000000000000000000000010000000000000000000001000004000000000000000000000000000000000000000000000000000000000000000000000000000000000000000000000000000000000000000010002000000000000000000000000000000000000800000100000000020000000000000000000000000000000000000000000000000000000000000000000",
      "type": "0x2",
      "transactionHash": "0x29e16fac58ea89a3ff42b9c77cc73f6ffffca4b9b3bbad42117070410fbee34b",
      "transactionIndex": "0x16",
      "blockHash": "0x70e31c919eb15d75ba067e0a9720f3c9132c140557e3a16632d782e68271f105",
      "blockNumber": "0x165e361",
      "gasUsed": "0x8cb0",
      "effectiveGasPrice": "0xd576d",
      "from": "0x7956c2c1b85f5ac14c2c537f669b65991428e268",
      "to": "0xa373482b473e33b96412a6c0ca8b847e6bbb4d0d",
      "contractAddress": null,
      "l1BaseFeeScalar": "0x44d",
      "l1BlobBaseFee": "0x1",
      "l1BlobBaseFeeScalar": "0xa118b",
      "l1Fee": "0x52efef",
      "l1GasPrice": "0x2f147f",
      "l1GasUsed": "0x640"
    },
    {
      "status": "0x1",
      "cumulativeGasUsed": "0x759a49",
      "logs": [
        {
          "address": "0xa373482b473e33b96412a6c0ca8b847e6bbb4d0d",
          "topics": [
            "0xddf252ad1be2c89b69c2b068fc378daa952ba7f163c4a11628f55a4df523b3ef",
            "0x0000000000000000000000000000000000000000000000000000000000000000",
            "0x00000000000000000000000067bfd0b42f5f39710b4e90301289f81eab6315da"
          ],
          "data": "0x0000000000000000000000000000000000000000000000000000000000002710",
          "blockHash": "0xd3f3eea364728beb99feb30b766886bf4fe4033d61ed0c0f7c72dc191b7d3bd7",
          "blockNumber": "0x165e362",
          "transactionHash": "0x209244e632c4d14aa85e0238cbcd446509824284e2a34eb2f14d0ee3c8eec875",
          "transactionIndex": "0x1e",
          "logIndex": "0xce",
          "removed": false
        }
      ],
      "logsBloom": "0x00000000000000000080000000000000000000000000000000000000000000000000000000000000000000000000000000000000000000000000000000000000000000000000000000000008000000000000000000200000000000000000000000000000020000000000000000000800000000000000000000000010000000000000000000001000000000000000000000000000000000000000000000000000000000000000280000000000000000000000000000000000000000000000000000000002000000000000000000000000000000000000000000100000000020000000000000000000000000000000000000000000000000000000000000000000",
      "type": "0x2",
      "transactionHash": "0x209244e632c4d14aa85e0238cbcd446509824284e2a34eb2f14d0ee3c8eec875",
      "transactionIndex": "0x1e",
      "blockHash": "0xd3f3eea364728beb99feb30b766886bf4fe4033d61ed0c0f7c72dc191b7d3bd7",
      "blockNumber": "0x165e362",
      "gasUsed": "0x8cc8",
      "effectiveGasPrice": "0xd5769",
      "from": "0x7956c2c1b85f5ac14c2c537f669b65991428e268",
      "to": "0xa373482b473e33b96412a6c0ca8b847e6bbb4d0d",
      "contractAddress": null,
      "l1BaseFeeScalar": "0x44d",
      "l1BlobBaseFee": "0x1",
      "l1BlobBaseFeeScalar": "0xa118b",
      "l1Fee": "0x52efef",
      "l1GasPrice": "0x2f147f",
      "l1GasUsed": "0x640"
    },
    {
      "status": "0x1",
      "cumulativeGasUsed": "0x30d3e7",
      "logs": [
        {
          "address": "0xa373482b473e33b96412a6c0ca8b847e6bbb4d0d",
          "topics": [
            "0xddf252ad1be2c89b69c2b068fc378daa952ba7f163c4a11628f55a4df523b3ef",
            "0x0000000000000000000000000000000000000000000000000000000000000000",
            "0x00000000000000000000000012be474d127757d0a6a36631294f8ffbcdef44f8"
          ],
          "data": "0x0000000000000000000000000000000000000000000000000000000000002710",
          "blockHash": "0x0bc4de7266c13da6a0d060107169001f0201b6af60612f6498aabf3c0f969c10",
          "blockNumber": "0x165e364",
          "transactionHash": "0x9b94a19a640035cf5066f044c0aa4b7441f7599975135672a2c33cb4dc33cd80",
          "transactionIndex": "0xb",
          "logIndex": "0x33",
          "removed": false
        }
      ],
      "logsBloom": "0x00000000000000000000000000000000000000000000000000000000000000000000000000000000000000000000000000000000000000000000000000000000000000000000000000000008000000000000000000200000000000000000000000000000020000000000000000000800000000000000000000800010000000000000000000001000000000000000000000000000000000000000000000000000008000000000000000000000000000000000000000000000000000000000000000000002000000000000000100000000000000000000000000100000000020000000000000000000000000000000000000000000000000000000000000000000",
      "type": "0x2",
      "transactionHash": "0x9b94a19a640035cf5066f044c0aa4b7441f7599975135672a2c33cb4dc33cd80",
      "transactionIndex": "0xb",
      "blockHash": "0x0bc4de7266c13da6a0d060107169001f0201b6af60612f6498aabf3c0f969c10",
      "blockNumber": "0x165e364",
      "gasUsed": "0x8cc8",
      "effectiveGasPrice": "0xd5761",
      "from": "0x7956c2c1b85f5ac14c2c537f669b65991428e268",
      "to": "0xa373482b473e33b96412a6c0ca8b847e6bbb4d0d",
      "contractAddress": null,
      "l1BaseFeeScalar": "0x44d",
      "l1BlobBaseFee": "0x1",
      "l1BlobBaseFeeScalar": "0xa118b",
      "l1Fee": "0x52efef",
      "l1GasPrice": "0x2f147f",
      "l1GasUsed": "0x640"
    },
    {
      "status": "0x1",
      "cumulativeGasUsed": "0x934cdb",
      "logs": [
        {
          "address": "0x2e180501d3d68241dd0318c68fd9be0af1d519a1",
          "topics": [
            "0xa6911b1100a84108be7e4458ca4926ac7aac190db354ff63847b820b02beb88b"
          ],
          "data": "0x00000000000000000000000000000000000000000000000000000000000000c3000000000000000000000000000000000000000000000000000000000000004000000000000000000000000000000000000000000000000000000000000000c000000000000000000000000000000000000000000000000000000000000001200000000000000000000000000000000000000000000000000000000067df331800000000000000000000000000000000000000000000000000000000000001e0000000000000000000000000000000000000000000000000000000000000024000000000000000000000000000000000000000000000000000000000000002a0000000000000000000000000000000000000000000000000000000000000003c57696c6c204920504152444f4e204d5953454c463f20546865205241444943414c204c45465420697320544552524946494544206f6620746869732100000000000000000000000000000000000000000000000000000000000000000000004000000000000000000000000000000000000000000000000000000000000000800000000000000000000000000000000000000000000000000000000000000003594553000000000000000000000000000000000000000000000000000000000000000000000000000000000000000000000000000000000000000000000000024e4f000000000000000000000000000000000000000000000000000000000000000000000000000000000000000000000000000000000000000000000000003f5468697320706f6f6c2077696c6c20636c6f7365206966205472756d7020706f73747320746861742068652077696c6c20706172646f6e2068696d73656c6600000000000000000000000000000000000000000000000000000000000000003e477261646520594553206966205472756d7020706f7374732061626f757420706172646f6e696e672068696d73656c662c204e4f206f7468657277697365000000000000000000000000000000000000000000000000000000000000000000123131343139373039323230353731393535370000000000000000000000000000",
          "blockHash": "0xef0061df781e2e0c128ce495fc1f895a5c0fb5e5856b1f914644a16a6f52cfc4",
          "blockNumber": "0x165e366",
          "transactionHash": "0xc5c18c68136e3fbb152b450549bd2501993f1f4e6b2b105a5338b9ea7c43ecc3",
          "transactionIndex": "0x19",
          "logIndex": "0x17d",
          "removed": false
        }
      ],
      "logsBloom": "0x00000000000000000000000000000000000010000000000000000000000000000000000000000000000001000000000000000000000000000000000000000000000000000000000000000000000000000000000000000000000000000000000000000000000000000000000000000000000000000000000000000000000000000000000000000000000000000000004000000000000000000000000000000000000000000000000000000000000000000000000000000000000000000000000000000000000000000000000000000000000000000000000000000000000000000000028002000000000000000000000000000000000000000000000000000000",
      "type": "0x2",
      "transactionHash": "0xc5c18c68136e3fbb152b450549bd2501993f1f4e6b2b105a5338b9ea7c43ecc3",
      "transactionIndex": "0x19",
      "blockHash": "0xef0061df781e2e0c128ce495fc1f895a5c0fb5e5856b1f914644a16a6f52cfc4",
      "blockNumber": "0x165e366",
      "gasUsed": "0x65b89",
      "effectiveGasPrice": "0xd575e",
      "from": "0x7956c2c1b85f5ac14c2c537f669b65991428e268",
      "to": "0x2e180501d3d68241dd0318c68fd9be0af1d519a1",
      "contractAddress": null,
      "l1BaseFeeScalar": "0x44d",
      "l1BlobBaseFee": "0x1",
      "l1BlobBaseFeeScalar": "0xa118b",
      "l1Fee": "0xf5efdb",
      "l1GasPrice": "0x2d96af",
      "l1GasUsed": "0x1323"
    },
    {
      "status": "0x1",
      "cumulativeGasUsed": "0x4a562c",
      "logs": [
        {
          "address": "0x2e180501d3d68241dd0318c68fd9be0af1d519a1",
          "topics": [
            "0xa6911b1100a84108be7e4458ca4926ac7aac190db354ff63847b820b02beb88b"
          ],
          "data": "0x00000000000000000000000000000000000000000000000000000000000000c4000000000000000000000000000000000000000000000000000000000000004000000000000000000000000000000000000000000000000000000000000000c000000000000000000000000000000000000000000000000000000000000001400000000000000000000000000000000000000000000000000000000067df3318000000000000000000000000000000000000000000000000000000000000020000000000000000000000000000000000000000000000000000000000000002800000000000000000000000000000000000000000000000000000000000000300000000000000000000000000000000000000000000000000000000000000005057696c6c204920464952452054484520464249204449524543544f52206f6e20646179206f6e653f205468652046424920686173206265656e20574541504f4e495a454420616761696e73742075732100000000000000000000000000000000000000000000000000000000000000000000000000000000000000000000004000000000000000000000000000000000000000000000000000000000000000800000000000000000000000000000000000000000000000000000000000000003594553000000000000000000000000000000000000000000000000000000000000000000000000000000000000000000000000000000000000000000000000024e4f00000000000000000000000000000000000000000000000000000000000000000000000000000000000000000000000000000000000000000000000000465468697320706f6f6c2077696c6c20636c6f7365206966205472756d70206d616b657320612073746174656d656e742061626f75742074686520464249204469726563746f7200000000000000000000000000000000000000000000000000000000000000000000000000000000000000000000000000000000000000000043477261646520594553206966205472756d7020736179732068652077696c6c20666972652074686520464249204469726563746f722c204e4f206f7468657277697365000000000000000000000000000000000000000000000000000000000000000000000000000000000000000000000000000000000000000000000000123131343230303137353038323830363838320000000000000000000000000000",
          "blockHash": "0xe5accfe1d84f553073de56a9c45b28feee999cc8b7f3d6bba0d24f6701e5913b",
          "blockNumber": "0x165e368",
          "transactionHash": "0x836d3b32b56d607259bb772910bf78986511eb945d0ccc27cd5597afe6a21af4",
          "transactionIndex": "0x11",
          "logIndex": "0x65",
          "removed": false
        }
      ],
      "logsBloom": "0x00000000000000000000000000000000000010000000000000000000000000000000000000000000000001000000000000000000000000000000000000000000000000000000000000000000000000000000000000000000000000000000000000000000000000000000000000000000000000000000000000000000000000000000000000000000000000000000004000000000000000000000000000000000000000000000000000000000000000000000000000000000000000000000000000000000000000000000000000000000000000000000000000000000000000000000028002000000000000000000000000000000000000000000000000000000",
      "type": "0x2",
      "transactionHash": "0x836d3b32b56d607259bb772910bf78986511eb945d0ccc27cd5597afe6a21af4",
      "transactionIndex": "0x11",
      "blockHash": "0xe5accfe1d84f553073de56a9c45b28feee999cc8b7f3d6bba0d24f6701e5913b",
      "blockNumber": "0x165e368",
      "gasUsed": "0x76593",
      "effectiveGasPrice": "0xd575b",
      "from": "0x7956c2c1b85f5ac14c2c537f669b65991428e268",
      "to": "0x2e180501d3d68241dd0318c68fd9be0af1d519a1",
      "contractAddress": null,
      "l1BaseFeeScalar": "0x44d",
      "l1BlobBaseFee": "0x1",
      "l1BlobBaseFeeScalar": "0xa118b",
      "l1Fee": "0x1060f59",
      "l1GasPrice": "0x2d96af",
      "l1GasUsed": "0x1464"
    },
    {
      "status": "0x1",
      "cumulativeGasUsed": "0x55c7a8",
      "logs": [
        {
          "address": "0x2e180501d3d68241dd0318c68fd9be0af1d519a1",
          "topics": [
            "0xa6911b1100a84108be7e4458ca4926ac7aac190db354ff63847b820b02beb88b"
          ],
          "data": "0x00000000000000000000000000000000000000000000000000000000000000c5000000000000000000000000000000000000000000000000000000000000004000000000000000000000000000000000000000000000000000000000000000c000000000000000000000000000000000000000000000000000000000000001400000000000000000000000000000000000000000000000000000000067df33180000000000000000000000000000000000000000000000000000000000000200000000000000000000000000000000000000000000000000000000000000026000000000000000000000000000000000000000000000000000000000000002c0000000000000000000000000000000000000000000000000000000000000005257696c6c20492057494e207468652064656261746520616761696e737420534c45455059204a4f453f2045766572796f6e65206b6e6f7773204920776f6e20746865206c617374206f6e65204249474c59210000000000000000000000000000000000000000000000000000000000000000000000000000000000000000004000000000000000000000000000000000000000000000000000000000000000800000000000000000000000000000000000000000000000000000000000000003594553000000000000000000000000000000000000000000000000000000000000000000000000000000000000000000000000000000000000000000000000024e4f00000000000000000000000000000000000000000000000000000000000000000000000000000000000000000000000000000000000000000000000000325468697320706f6f6c2077696c6c20636c6f73652061667465722074686520707265736964656e7469616c2064656261746500000000000000000000000000000000000000000000000000000000000000000000000000000000000000000030477261646520594553206966205472756d702077696e7320746865206465626174652c204e4f206f74686572776973650000000000000000000000000000000000000000000000000000000000000000000000000000000000000000000000123131343230303331333030393830323633380000000000000000000000000000",
          "blockHash": "0xc38a7dff67a1f407617c292ac017d54fc3e5e786074d5a94e069f9c54c11ba2f",
          "blockNumber": "0x165e36a",
          "transactionHash": "0x8750f68ba61ac052f5b461c344f35307e2425898244b9a6807dbde5db6f4def6",
          "transactionIndex": "0x16",
          "logIndex": "0x82",
          "removed": false
        }
      ],
      "logsBloom": "0x00000000000000000000000000000000000010000000000000000000000000000000000000000000000001000000000000000000000000000000000000000000000000000000000000000000000000000000000000000000000000000000000000000000000000000000000000000000000000000000000000000000000000000000000000000000000000000000004000000000000000000000000000000000000000000000000000000000000000000000000000000000000000000000000000000000000000000000000000000000000000000000000000000000000000000000028002000000000000000000000000000000000000000000000000000000",
      "type": "0x2",
      "transactionHash": "0x8750f68ba61ac052f5b461c344f35307e2425898244b9a6807dbde5db6f4def6",
      "transactionIndex": "0x16",
      "blockHash": "0xc38a7dff67a1f407617c292ac017d54fc3e5e786074d5a94e069f9c54c11ba2f",
      "blockNumber": "0x165e36a",
      "gasUsed": "0x6b377",
      "effectiveGasPrice": "0xd575a",
      "from": "0x7956c2c1b85f5ac14c2c537f669b65991428e268",
      "to": "0x2e180501d3d68241dd0318c68fd9be0af1d519a1",
      "contractAddress": null,
      "l1BaseFeeScalar": "0x44d",
      "l1BlobBaseFee": "0x1",
      "l1BlobBaseFeeScalar": "0xa118b",
      "l1Fee": "0xf94bbf",
      "l1GasPrice": "0x2d96af",
      "l1GasUsed": "0x1366"
    },
    {
      "status": "0x1",
      "cumulativeGasUsed": "0x13cbf4",
      "logs": [
        {
          "address": "0xa373482b473e33b96412a6c0ca8b847e6bbb4d0d",
          "topics": [
            "0x8c5be1e5ebec7d5bd14f71427d1e84f3dd0314c0f7b2291e5b200ac8c7c3b925",
            "0x0000000000000000000000004e5dc9df946500b07e9c66e4dd29bf9cd062002b",
            "0x0000000000000000000000002e180501d3d68241dd0318c68fd9be0af1d519a1"
          ],
          "data": "0x00000000000000000000000000000000000000000000000000000000812a92f9",
          "blockHash": "0xa5cb87ba1626e4d92b0d78fea4e4dccfd5a85405d51c9e93942c5fc1e6e6a0b8",
          "blockNumber": "0x165e36c",
          "transactionHash": "0x625d64e748df60807599e7016f0eeab46dc270b508d2611e8202a107447a1033",
          "transactionIndex": "0x7",
          "logIndex": "0x1f",
          "removed": false
        }
      ],
      "logsBloom": "0x00000000000000000000000000000000000000000000000000000000000000000000000000000000000000000000000000000000000000000000000000200000000000000000000000000000000000000000000000200000000000000000000000000000000000000000000000000000000000000000000000000000000000000000000000081000804000000000000000000000000000000000000000000000020000000000000000000000000000000000000000000000000000000000000000010000000000000000000000000000000000010000800000100000000000000010000000000000000000000000000000000000000000000000000000000000",
      "type": "0x2",
      "transactionHash": "0x625d64e748df60807599e7016f0eeab46dc270b508d2611e8202a107447a1033",
      "transactionIndex": "0x7",
      "blockHash": "0xa5cb87ba1626e4d92b0d78fea4e4dccfd5a85405d51c9e93942c5fc1e6e6a0b8",
      "blockNumber": "0x165e36c",
      "gasUsed": "0x70b4",
      "effectiveGasPrice": "0xd5752",
      "from": "0x4e5dc9df946500b07e9c66e4dd29bf9cd062002b",
      "to": "0xa373482b473e33b96412a6c0ca8b847e6bbb4d0d",
      "contractAddress": null,
      "l1BaseFeeScalar": "0x44d",
      "l1BlobBaseFee": "0x1",
      "l1BlobBaseFeeScalar": "0xa118b",
      "l1Fee": "0x4c3bea",
      "l1GasPrice": "0x2b465f",
      "l1GasUsed": "0x640"
    },
    {
      "status": "0x1",
      "cumulativeGasUsed": "0x56c536",
      "logs": [
        {
          "address": "0x036cbd53842c5426634e7929541ec2318f3dcf7e",
          "topics": [
            "0x8c5be1e5ebec7d5bd14f71427d1e84f3dd0314c0f7b2291e5b200ac8c7c3b925",
            "0x0000000000000000000000004e5dc9df946500b07e9c66e4dd29bf9cd062002b",
            "0x0000000000000000000000002e180501d3d68241dd0318c68fd9be0af1d519a1"
          ],
          "data": "0x000000000000000000000000000000000000000000000000000000001d2fa72b",
          "blockHash": "0x7bd2b72c9a93c269adbc6f4a6c1024636ed7474402667867fae3d533b42a0e3d",
          "blockNumber": "0x165e36e",
          "transactionHash": "0x670b077e082e10fc390cbd86d8f9b3412bb0e1b9b9797058d925b561c7ab53cd",
          "transactionIndex": "0x13",
          "logIndex": "0x80",
          "removed": false
        }
      ],
      "logsBloom": "0x00000000040000000000000000000000000000000000000000000000000000000000000000000000000000000000000000000000000000000000000000200000000000000000000000000000000000000000000000000000000000000000000800000000000000000000000000000000000000000000000000000000000000000000000000080000804000000000000000000000000000000000000000000000020000000000000000000000000000000000000000000000000000000000000000010000000000000000000000000000000000010000800000000000000000000010000000000000000000000020000000000000000000000000000000000000",
      "type": "0x2",
      "transactionHash": "0x670b077e082e10fc390cbd86d8f9b3412bb0e1b9b9797058d925b561c7ab53cd",
      "transactionIndex": "0x13",
      "blockHash": "0x7bd2b72c9a93c269adbc6f4a6c1024636ed7474402667867fae3d533b42a0e3d",
      "blockNumber": "0x165e36e",
      "gasUsed": "0x8add",
      "effectiveGasPrice": "0xd574d",
      "from": "0x4e5dc9df946500b07e9c66e4dd29bf9cd062002b",
      "to": "0x036cbd53842c5426634e7929541ec2318f3dcf7e",
      "contractAddress": null,
      "l1BaseFeeScalar": "0x44d",
      "l1BlobBaseFee": "0x1",
      "l1BlobBaseFeeScalar": "0xa118b",
      "l1Fee": "0x4c3bea",
      "l1GasPrice": "0x2b465f",
      "l1GasUsed": "0x640"
    },
    {
      "status": "0x1",
      "cumulativeGasUsed": "0x11ecb91",
      "logs": [
        {
          "address": "0xa373482b473e33b96412a6c0ca8b847e6bbb4d0d",
          "topics": [
            "0xddf252ad1be2c89b69c2b068fc378daa952ba7f163c4a11628f55a4df523b3ef",
            "0x0000000000000000000000004e5dc9df946500b07e9c66e4dd29bf9cd062002b",
            "0x0000000000000000000000002e180501d3d68241dd0318c68fd9be0af1d519a1"
          ],
          "data": "0x0000000000000000000000000000000000000000000000000000000026bff8e3",
          "blockHash": "0xf13c4fb6ed2f1eaa1fdbea86ab60c2b0a274d0b6f51dab6111a355f852620cbf",
          "blockNumber": "0x165e370",
          "transactionHash": "0xdd640e34d7dd2dfcea90ae2e086da8014d18932d1a77f8979a5d3bca42518426",
          "transactionIndex": "0x30",
          "logIndex": "0x1fe",
          "removed": false
        },
        {
          "address": "0x2e180501d3d68241dd0318c68fd9be0af1d519a1",
          "topics": [
            "0xe523847b7270abe685bcbcb11a424b9030e5627e3d5770781dd5bbeb1ddee143",
            "0x0000000000000000000000000000000000000000000000000000000000000043",
            "0x00000000000000000000000000000000000000000000000000000000000000c3",
            "0x0000000000000000000000004e5dc9df946500b07e9c66e4dd29bf9cd062002b"
          ],
          "data": "0x00000000000000000000000000000000000000000000000000000000000000000000000000000000000000000000000000000000000000000000000026bff8e30000000000000000000000000000000000000000000000000000000000000001",
          "blockHash": "0xf13c4fb6ed2f1eaa1fdbea86ab60c2b0a274d0b6f51dab6111a355f852620cbf",
          "blockNumber": "0x165e370",
          "transactionHash": "0xdd640e34d7dd2dfcea90ae2e086da8014d18932d1a77f8979a5d3bca42518426",
          "transactionIndex": "0x30",
          "logIndex": "0x1ff",
          "removed": false
        }
      ],
      "logsBloom": "0x00002000000000000000000000000000000010200000000000000000000000000000000000004000000001000001000000000000000000000000080000000000000000000000000000000008020200000000000000200000000000000000000000000000000000000000000000000000000000000000000000000010000000000000000000081000804000000000000000000000000000000400000000000000000000000000000000000000000000000000000000000000000000000000000000010002000000000000000000000000000000010000800000100000000000000000020000000000000000000000000000000000000010000000000000000000",
      "type": "0x2",
      "transactionHash": "0xdd640e34d7dd2dfcea90ae2e086da8014d18932d1a77f8979a5d3bca42518426",
      "transactionIndex": "0x30",
      "blockHash": "0xf13c4fb6ed2f1eaa1fdbea86ab60c2b0a274d0b6f51dab6111a355f852620cbf",
      "blockNumber": "0x165e370",
      "gasUsed": "0x7266a",
      "effectiveGasPrice": "0xd574c",
      "from": "0x4e5dc9df946500b07e9c66e4dd29bf9cd062002b",
      "to": "0x2e180501d3d68241dd0318c68fd9be0af1d519a1",
      "contractAddress": null,
      "l1BaseFeeScalar": "0x44d",
      "l1BlobBaseFee": "0x1",
      "l1BlobBaseFeeScalar": "0xa118b",
      "l1Fee": "0x4d3823",
      "l1GasPrice": "0x2b465f",
      "l1GasUsed": "0x654"
    },
    {
      "status": "0x1",
      "cumulativeGasUsed": "0x477674",
      "logs": [
        {
          "address": "0xa373482b473e33b96412a6c0ca8b847e6bbb4d0d",
          "topics": [
            "0xddf252ad1be2c89b69c2b068fc378daa952ba7f163c4a11628f55a4df523b3ef",
            "0x0000000000000000000000004e5dc9df946500b07e9c66e4dd29bf9cd062002b",
            "0x0000000000000000000000002e180501d3d68241dd0318c68fd9be0af1d519a1"
          ],
          "data": "0x0000000000000000000000000000000000000000000000000000000026bff8e3",
          "blockHash": "0xdf1681bc07db53861114703479c88addbd0beb2bf4296771126e1aaddefdfdee",
          "blockNumber": "0x165e372",
          "transactionHash": "0x3d7fb86ad5c5cfddce1200b3808a47ee23a60e3e22cecd5ac363691c7636d321",
          "transactionIndex": "0x16",
          "logIndex": "0x66",
          "removed": false
        },
        {
          "address": "0x2e180501d3d68241dd0318c68fd9be0af1d519a1",
          "topics": [
            "0xe523847b7270abe685bcbcb11a424b9030e5627e3d5770781dd5bbeb1ddee143",
            "0x0000000000000000000000000000000000000000000000000000000000000044",
            "0x00000000000000000000000000000000000000000000000000000000000000c4",
            "0x0000000000000000000000004e5dc9df946500b07e9c66e4dd29bf9cd062002b"
          ],
          "data": "0x00000000000000000000000000000000000000000000000000000000000000010000000000000000000000000000000000000000000000000000000026bff8e30000000000000000000000000000000000000000000000000000000000000001",
          "blockHash": "0xdf1681bc07db53861114703479c88addbd0beb2bf4296771126e1aaddefdfdee",
          "blockNumber": "0x165e372",
          "transactionHash": "0x3d7fb86ad5c5cfddce1200b3808a47ee23a60e3e22cecd5ac363691c7636d321",
          "transactionIndex": "0x16",
          "logIndex": "0x67",
          "removed": false
        }
      ],
      "logsBloom": "0x00002000000000000000000000000000000010000000000000000000000000000000000000000000000001000000000000000000000000000000000000000000000000000000000000000008000000000000000000200000000000000000000000000000000000000000000000000000000000000000000000000010000000000000000040481000804000000000000000000000000000000400000400001000000000000000000000000000000000000000000000000000000000000000000000010002000000000000000000000000000000010200800000100000000000000000020000000000000000000000000000000000008010000000000000000000",
      "type": "0x2",
      "transactionHash": "0x3d7fb86ad5c5cfddce1200b3808a47ee23a60e3e22cecd5ac363691c7636d321",
      "transactionIndex": "0x16",
      "blockHash": "0xdf1681bc07db53861114703479c88addbd0beb2bf4296771126e1aaddefdfdee",
      "blockNumber": "0x165e372",
      "gasUsed": "0x7c1ee",
      "effectiveGasPrice": "0xd574f",
      "from": "0x4e5dc9df946500b07e9c66e4dd29bf9cd062002b",
      "to": "0x2e180501d3d68241dd0318c68fd9be0af1d519a1",
      "contractAddress": null,
      "l1BaseFeeScalar": "0x44d",
      "l1BlobBaseFee": "0x1",
      "l1BlobBaseFeeScalar": "0xa118b",
      "l1Fee": "0x4d03a2",
      "l1GasPrice": "0x2972ce",
      "l1GasUsed": "0x697"
    },
    {
      "status": "0x1",
      "cumulativeGasUsed": "0x1c1873",
      "logs": [
        {
          "address": "0xa373482b473e33b96412a6c0ca8b847e6bbb4d0d",
          "topics": [
            "0xddf252ad1be2c89b69c2b068fc378daa952ba7f163c4a11628f55a4df523b3ef",
            "0x0000000000000000000000004e5dc9df946500b07e9c66e4dd29bf9cd062002b",
            "0x0000000000000000000000002e180501d3d68241dd0318c68fd9be0af1d519a1"
          ],
          "data": "0x0000000000000000000000000000000000000000000000000000000026bff8e3",
          "blockHash": "0xf179877b641d13605c5c06d665d4613cdcf7d2f8639a6b6ebc8822b5ad315248",
          "blockNumber": "0x165e374",
          "transactionHash": "0xcefa40b5c0ea8111b2e0cb37d3b3f8c91a3bda03be2fff5be041fdbf98281289",
          "transactionIndex": "0x6",
          "logIndex": "0x13",
          "removed": false
        },
        {
          "address": "0x2e180501d3d68241dd0318c68fd9be0af1d519a1",
          "topics": [
            "0xe523847b7270abe685bcbcb11a424b9030e5627e3d5770781dd5bbeb1ddee143",
            "0x0000000000000000000000000000000000000000000000000000000000000045",
            "0x00000000000000000000000000000000000000000000000000000000000000c5",
            "0x0000000000000000000000004e5dc9df946500b07e9c66e4dd29bf9cd062002b"
          ],
          "data": "0x00000000000000000000000000000000000000000000000000000000000000000000000000000000000000000000000000000000000000000000000026bff8e30000000000000000000000000000000000000000000000000000000000000001",
          "blockHash": "0xf179877b641d13605c5c06d665d4613cdcf7d2f8639a6b6ebc8822b5ad315248",
          "blockNumber": "0x165e374",
          "transactionHash": "0xcefa40b5c0ea8111b2e0cb37d3b3f8c91a3bda03be2fff5be041fdbf98281289",
          "transactionIndex": "0x6",
          "logIndex": "0x14",
          "removed": false
        }
      ],
      "logsBloom": "0x00002000000010000000000000000000000010000000000000000000000000000000000000000000000001000000000000000000000000000000000000000000000000000000000000000008010000000000000000200000000000000000000000000000000000000000000000000000000000000000000000000010000000000000000000081000804000000000000000000000000000000400000000000000000000000000200000000000000000000000000000000000000000000080000000010002000000000000000000000000004000010000800000100000000000000000020000000000000000000000000000000000000010000000000000000400",
      "type": "0x2",
      "transactionHash": "0xcefa40b5c0ea8111b2e0cb37d3b3f8c91a3bda03be2fff5be041fdbf98281289",
      "transactionIndex": "0x6",
      "blockHash": "0xf179877b641d13605c5c06d665d4613cdcf7d2f8639a6b6ebc8822b5ad315248",
      "blockNumber": "0x165e374",
      "gasUsed": "0x7266a",
      "effectiveGasPrice": "0xd574b",
      "from": "0x4e5dc9df946500b07e9c66e4dd29bf9cd062002b",
      "to": "0x2e180501d3d68241dd0318c68fd9be0af1d519a1",
      "contractAddress": null,
      "l1BaseFeeScalar": "0x44d",
      "l1BlobBaseFee": "0x1",
      "l1BlobBaseFeeScalar": "0xa118b",
      "l1Fee": "0x49f5d4",
      "l1GasPrice": "0x2972ce",
      "l1GasUsed": "0x654"
    },
    {
      "status": "0x1",
      "cumulativeGasUsed": "0x29075f",
      "logs": [
        {
          "address": "0x036cbd53842c5426634e7929541ec2318f3dcf7e",
          "topics": [
            "0xddf252ad1be2c89b69c2b068fc378daa952ba7f163c4a11628f55a4df523b3ef",
            "0x0000000000000000000000004e5dc9df946500b07e9c66e4dd29bf9cd062002b",
            "0x0000000000000000000000002e180501d3d68241dd0318c68fd9be0af1d519a1"
          ],
          "data": "0x00000000000000000000000000000000000000000000000000000000001e8480",
          "blockHash": "0xef43847f56cab5bcafde51f41bf0e613a37f1bd277c28e0dba2dc6483a66ce93",
          "blockNumber": "0x165e376",
          "transactionHash": "0xd7498cae0eb4599cbe0a28c6acf8576d7eff7926c4f84b3bc6d41b7a1750dd73",
          "transactionIndex": "0xb",
          "logIndex": "0x3c",
          "removed": false
        },
        {
          "address": "0x2e180501d3d68241dd0318c68fd9be0af1d519a1",
          "topics": [
            "0xe523847b7270abe685bcbcb11a424b9030e5627e3d5770781dd5bbeb1ddee143",
            "0x0000000000000000000000000000000000000000000000000000000000000046",
            "0x00000000000000000000000000000000000000000000000000000000000000c3",
            "0x0000000000000000000000004e5dc9df946500b07e9c66e4dd29bf9cd062002b"
          ],
          "data": "0x000000000000000000000000000000000000000000000000000000000000000000000000000000000000000000000000000000000000000000000000001e84800000000000000000000000000000000000000000000000000000000000000000",
          "blockHash": "0xef43847f56cab5bcafde51f41bf0e613a37f1bd277c28e0dba2dc6483a66ce93",
          "blockNumber": "0x165e376",
          "transactionHash": "0xd7498cae0eb4599cbe0a28c6acf8576d7eff7926c4f84b3bc6d41b7a1750dd73",
          "transactionIndex": "0xb",
          "logIndex": "0x3d",
          "removed": false
        }
      ],
      "logsBloom": "0x00202000040000000000000000000000000010200000000000000000000000000000000000000000000001000000000000000000000000000000080000000000000000000000000000000008000200000000000000000000000000000000000800000000000000000000000000000000000000000000000000000010000000000000000000080000804000000000000000000000000000000400000000000000000000000000000000000000000000400000000000000000000000000000000040010002000000000000000000000000000000010000800000000000000000000000020000000000000000000020000000000000000010000000000000000000",
      "type": "0x2",
      "transactionHash": "0xd7498cae0eb4599cbe0a28c6acf8576d7eff7926c4f84b3bc6d41b7a1750dd73",
      "transactionIndex": "0xb",
      "blockHash": "0xef43847f56cab5bcafde51f41bf0e613a37f1bd277c28e0dba2dc6483a66ce93",
      "blockNumber": "0x165e376",
      "gasUsed": "0x67723",
      "effectiveGasPrice": "0xd574b",
      "from": "0x4e5dc9df946500b07e9c66e4dd29bf9cd062002b",
      "to": "0x2e180501d3d68241dd0318c68fd9be0af1d519a1",
      "contractAddress": null,
      "l1BaseFeeScalar": "0x44d",
      "l1BlobBaseFee": "0x1",
      "l1BlobBaseFeeScalar": "0xa118b",
      "l1Fee": "0x490440",
      "l1GasPrice": "0x2972ce",
      "l1GasUsed": "0x640"
    },
    {
      "status": "0x1",
      "cumulativeGasUsed": "0x5fc329",
      "logs": [
        {
          "address": "0x036cbd53842c5426634e7929541ec2318f3dcf7e",
          "topics": [
            "0xddf252ad1be2c89b69c2b068fc378daa952ba7f163c4a11628f55a4df523b3ef",
            "0x0000000000000000000000004e5dc9df946500b07e9c66e4dd29bf9cd062002b",
            "0x0000000000000000000000002e180501d3d68241dd0318c68fd9be0af1d519a1"
          ],
          "data": "0x00000000000000000000000000000000000000000000000000000000002dc6c0",
          "blockHash": "0x3c2c41c8e0d80daf0c5a88c2a881d5b009505f5b46e490b1181cf1577c1579a9",
          "blockNumber": "0x165e377",
          "transactionHash": "0x764daa19b78993212b2616930f6e7aca889a3e52fe86f7375cad756d0ef6aedf",
          "transactionIndex": "0x1b",
          "logIndex": "0x93",
          "removed": false
        },
        {
          "address": "0x2e180501d3d68241dd0318c68fd9be0af1d519a1",
          "topics": [
            "0xe523847b7270abe685bcbcb11a424b9030e5627e3d5770781dd5bbeb1ddee143",
            "0x0000000000000000000000000000000000000000000000000000000000000047",
            "0x00000000000000000000000000000000000000000000000000000000000000c4",
            "0x0000000000000000000000004e5dc9df946500b07e9c66e4dd29bf9cd062002b"
          ],
          "data": "0x000000000000000000000000000000000000000000000000000000000000000100000000000000000000000000000000000000000000000000000000002dc6c00000000000000000000000000000000000000000000000000000000000000000",
          "blockHash": "0x3c2c41c8e0d80daf0c5a88c2a881d5b009505f5b46e490b1181cf1577c1579a9",
          "blockNumber": "0x165e377",
          "transactionHash": "0x764daa19b78993212b2616930f6e7aca889a3e52fe86f7375cad756d0ef6aedf",
          "transactionIndex": "0x1b",
          "logIndex": "0x94",
          "removed": false
        }
      ],
      "logsBloom": "0x00002000040000000000000000000000000010000000000000000000000000000000000000000000000001000000000000000000000000000000001000000000000000000000000000000008000000000000000000000000000000000000000800000000000000000000000000000000000000000000000010000010000000000000000040080000804000000000000000000000000000000400000000001000000000000000000000000000000000000000000000000000000000000000000000010002000000000000000000000100000000010000800000000000000000000000020000000000000000000020000000000000008010000000000000000000",
      "type": "0x2",
      "transactionHash": "0x764daa19b78993212b2616930f6e7aca889a3e52fe86f7375cad756d0ef6aedf",
      "transactionIndex": "0x1b",
      "blockHash": "0x3c2c41c8e0d80daf0c5a88c2a881d5b009505f5b46e490b1181cf1577c1579a9",
      "blockNumber": "0x165e377",
      "gasUsed": "0x712a7",
      "effectiveGasPrice": "0xd5747",
      "from": "0x4e5dc9df946500b07e9c66e4dd29bf9cd062002b",
      "to": "0x2e180501d3d68241dd0318c68fd9be0af1d519a1",
      "contractAddress": null,
      "l1BaseFeeScalar": "0x44d",
      "l1BlobBaseFee": "0x1",
      "l1BlobBaseFeeScalar": "0xa118b",
      "l1Fee": "0x4bcae9",
      "l1GasPrice": "0x2972ce",
      "l1GasUsed": "0x67c"
    },
    {
      "status": "0x1",
      "cumulativeGasUsed": "0x3ec298",
      "logs": [
        {
          "address": "0x036cbd53842c5426634e7929541ec2318f3dcf7e",
          "topics": [
            "0xddf252ad1be2c89b69c2b068fc378daa952ba7f163c4a11628f55a4df523b3ef",
            "0x0000000000000000000000004e5dc9df946500b07e9c66e4dd29bf9cd062002b",
            "0x0000000000000000000000002e180501d3d68241dd0318c68fd9be0af1d519a1"
          ],
          "data": "0x00000000000000000000000000000000000000000000000000000000003d0900",
          "blockHash": "0x97b73fbd83a721cdba1c78de62a40d8cacced2f958cb1ad81b138e81a393dcd6",
          "blockNumber": "0x165e379",
          "transactionHash": "0x50a1691ac9be0863506a03d325f6f5525516b54f749a7d04ba8b814c45ab8750",
          "transactionIndex": "0x9",
          "logIndex": "0x66",
          "removed": false
        },
        {
          "address": "0x2e180501d3d68241dd0318c68fd9be0af1d519a1",
          "topics": [
            "0xe523847b7270abe685bcbcb11a424b9030e5627e3d5770781dd5bbeb1ddee143",
            "0x0000000000000000000000000000000000000000000000000000000000000048",
            "0x00000000000000000000000000000000000000000000000000000000000000c5",
            "0x0000000000000000000000004e5dc9df946500b07e9c66e4dd29bf9cd062002b"
          ],
          "data": "0x000000000000000000000000000000000000000000000000000000000000000100000000000000000000000000000000000000000000000000000000003d09000000000000000000000000000000000000000000000000000000000000000000",
          "blockHash": "0x97b73fbd83a721cdba1c78de62a40d8cacced2f958cb1ad81b138e81a393dcd6",
          "blockNumber": "0x165e379",
          "transactionHash": "0x50a1691ac9be0863506a03d325f6f5525516b54f749a7d04ba8b814c45ab8750",
          "transactionIndex": "0x9",
          "logIndex": "0x67",
          "removed": false
        }
      ],
      "logsBloom": "0x00002000040000000000000000000000000090000000000000000000000000000000000000000000000001000000000000000000000000000000000000000000000000000000000000000008010000000000000000000000000000000000001800000000000000000000000000000000000000000000000000000010000000000000000000080000804000000000000000000000000000000400000000000000000000000000200000000000000000000000000000000000000000000080000000010002000000000000000000000000000000010040800000000000000000000000020000000000000000000020000000000000000010000000000000000000",
      "type": "0x2",
      "transactionHash": "0x50a1691ac9be0863506a03d325f6f5525516b54f749a7d04ba8b814c45ab8750",
      "transactionIndex": "0x9",
      "blockHash": "0x97b73fbd83a721cdba1c78de62a40d8cacced2f958cb1ad81b138e81a393dcd6",
      "blockNumber": "0x165e379",
      "gasUsed": "0x7129b",
      "effectiveGasPrice": "0xd5740",
      "from": "0x4e5dc9df946500b07e9c66e4dd29bf9cd062002b",
      "to": "0x2e180501d3d68241dd0318c68fd9be0af1d519a1",
      "contractAddress": null,
      "l1BaseFeeScalar": "0x44d",
      "l1BlobBaseFee": "0x1",
      "l1BlobBaseFeeScalar": "0xa118b",
      "l1Fee": "0x4b2e8d",
      "l1GasPrice": "0x2972ce",
      "l1GasUsed": "0x66f"
    },
    {
      "status": "0x1",
      "cumulativeGasUsed": "0x6af922",
      "logs": [
        {
          "address": "0xa373482b473e33b96412a6c0ca8b847e6bbb4d0d",
          "topics": [
            "0x8c5be1e5ebec7d5bd14f71427d1e84f3dd0314c0f7b2291e5b200ac8c7c3b925",
            "0x00000000000000000000000067bfd0b42f5f39710b4e90301289f81eab6315da",
            "0x0000000000000000000000002e180501d3d68241dd0318c68fd9be0af1d519a1"
          ],
          "data": "0x000000000000000000000000000000000000000000000000000000006695eaca",
          "blockHash": "0x27d364b42367dffc90106977971c428498a2f3b8092c743323a461a06427963d",
          "blockNumber": "0x165e37b",
          "transactionHash": "0x489de4c873e3124c00e2d12eb12079378fd1eb2a7226b43d4417db0f8ad087d5",
          "transactionIndex": "0x11",
          "logIndex": "0xcd",
          "removed": false
        }
      ],
      "logsBloom": "0x00000000000000000080000000000000000000000000000000000000000000000000000000000000000000000000000000000000000000000000000000200000000000000000000000000000000000000000000000200000000000000000000000000000000000000000000000000000000000000000000000000000000000000000000000081000800000000000000000000000000000000000000000000000020000000000280000000000000000000000000000000000000000000000000000000000000000000000000000000000000000010000000000100000000000000010000000000000000000000000000000000000000000000000000000000000",
      "type": "0x2",
      "transactionHash": "0x489de4c873e3124c00e2d12eb12079378fd1eb2a7226b43d4417db0f8ad087d5",
      "transactionIndex": "0x11",
      "blockHash": "0x27d364b42367dffc90106977971c428498a2f3b8092c743323a461a06427963d",
      "blockNumber": "0x165e37b",
      "gasUsed": "0x70b4",
      "effectiveGasPrice": "0xd573f",
      "from": "0x67bfd0b42f5f39710b4e90301289f81eab6315da",
      "to": "0xa373482b473e33b96412a6c0ca8b847e6bbb4d0d",
      "contractAddress": null,
      "l1BaseFeeScalar": "0x44d",
      "l1BlobBaseFee": "0x1",
      "l1BlobBaseFeeScalar": "0xa118b",
      "l1Fee": "0x490440",
      "l1GasPrice": "0x2972ce",
      "l1GasUsed": "0x640"
    },
    {
      "status": "0x1",
      "cumulativeGasUsed": "0x6c560f",
      "logs": [
        {
          "address": "0x036cbd53842c5426634e7929541ec2318f3dcf7e",
          "topics": [
            "0x8c5be1e5ebec7d5bd14f71427d1e84f3dd0314c0f7b2291e5b200ac8c7c3b925",
            "0x00000000000000000000000067bfd0b42f5f39710b4e90301289f81eab6315da",
            "0x0000000000000000000000002e180501d3d68241dd0318c68fd9be0af1d519a1"
          ],
          "data": "0x000000000000000000000000000000000000000000000000000000001cd94100",
          "blockHash": "0x1f4d1972674f419023c42bb85203762056a6309d680e5987fd78455fee4d39d7",
          "blockNumber": "0x165e37d",
          "transactionHash": "0xf35afdab927358f05054c703b2260bb932383c056d5a6f3782e4887621eb4c86",
          "transactionIndex": "0x1a",
          "logIndex": "0xa8",
          "removed": false
        }
      ],
      "logsBloom": "0x00000000040000000080000000000000000000000000000000000000000000000000000000000000000000000000000000000000000000000000000000200000000000000000000000000000000000000000000000000000000000000000000800000000000000000000000000000000000000000000000000000000000000000000000000080000800000000000000000000000000000000000000000000000020000000000280000000000000000000000000000000000000000000000000000000000000000000000000000000000000000010000000000000000000000000010000000000000000000000020000000000000000000000000000000000000",
      "type": "0x2",
      "transactionHash": "0xf35afdab927358f05054c703b2260bb932383c056d5a6f3782e4887621eb4c86",
      "transactionIndex": "0x1a",
      "blockHash": "0x1f4d1972674f419023c42bb85203762056a6309d680e5987fd78455fee4d39d7",
      "blockNumber": "0x165e37d",
      "gasUsed": "0x8ad1",
      "effectiveGasPrice": "0xd5745",
      "from": "0x67bfd0b42f5f39710b4e90301289f81eab6315da",
      "to": "0x036cbd53842c5426634e7929541ec2318f3dcf7e",
      "contractAddress": null,
      "l1BaseFeeScalar": "0x44d",
      "l1BlobBaseFee": "0x1",
      "l1BlobBaseFeeScalar": "0xa118b",
      "l1Fee": "0x490440",
      "l1GasPrice": "0x2972ce",
      "l1GasUsed": "0x640"
    },
    {
      "status": "0x1",
      "cumulativeGasUsed": "0x27986f",
      "logs": [
        {
          "address": "0xa373482b473e33b96412a6c0ca8b847e6bbb4d0d",
          "topics": [
            "0xddf252ad1be2c89b69c2b068fc378daa952ba7f163c4a11628f55a4df523b3ef",
            "0x00000000000000000000000067bfd0b42f5f39710b4e90301289f81eab6315da",
            "0x0000000000000000000000002e180501d3d68241dd0318c68fd9be0af1d519a1"
          ],
          "data": "0x000000000000000000000000000000000000000000000000000000001ec6933c",
          "blockHash": "0x15dbd4147e112cf484fe4214569022425fbebbf8ce262ecf15d08cca2561b9b3",
          "blockNumber": "0x165e37f",
          "transactionHash": "0xe07841bcb013861f01ba3c8c29f280802821c069d402dc34d4eb8297ca6d5e62",
          "transactionIndex": "0x7",
          "logIndex": "0x3b",
          "removed": false
        },
        {
          "address": "0x2e180501d3d68241dd0318c68fd9be0af1d519a1",
          "topics": [
            "0xe523847b7270abe685bcbcb11a424b9030e5627e3d5770781dd5bbeb1ddee143",
            "0x0000000000000000000000000000000000000000000000000000000000000049",
            "0x00000000000000000000000000000000000000000000000000000000000000c3",
            "0x00000000000000000000000067bfd0b42f5f39710b4e90301289f81eab6315da"
          ],
          "data": "0x0000000000000000000000000000000000000000000000000000000000000000000000000000000000000000000000000000000000000000000000001ec6933c0000000000000000000000000000000000000000000000000000000000000001",
          "blockHash": "0x15dbd4147e112cf484fe4214569022425fbebbf8ce262ecf15d08cca2561b9b3",
          "blockNumber": "0x165e37f",
          "transactionHash": "0xe07841bcb013861f01ba3c8c29f280802821c069d402dc34d4eb8297ca6d5e62",
          "transactionIndex": "0x7",
          "logIndex": "0x3c",
          "removed": false
        }
      ],
      "logsBloom": "0x00002010000000000080000000000000000010200000000000000000000000000000000000000000000001000000000000000000000000000000080000000000000000000000000000000008000200000000000000200000000000000000000000000200000000000000000000000000000000000000000000000010000000000000000000081000800000000000000000000000000000000400000000000000002000000000280000000000000000000000000000000000000000000000000000000002000000000000000000000000000000010000000000100000000000000000020000000000000000000000000000000000000010000000000000000000",
      "type": "0x2",
      "transactionHash": "0xe07841bcb013861f01ba3c8c29f280802821c069d402dc34d4eb8297ca6d5e62",
      "transactionIndex": "0x7",
      "blockHash": "0x15dbd4147e112cf484fe4214569022425fbebbf8ce262ecf15d08cca2561b9b3",
      "blockNumber": "0x165e37f",
      "gasUsed": "0x6a0ea",
      "effectiveGasPrice": "0xd574d",
      "from": "0x67bfd0b42f5f39710b4e90301289f81eab6315da",
      "to": "0x2e180501d3d68241dd0318c68fd9be0af1d519a1",
      "contractAddress": null,
      "l1BaseFeeScalar": "0x44d",
      "l1BlobBaseFee": "0x1",
      "l1BlobBaseFeeScalar": "0xa118b",
      "l1Fee": "0x4cc131",
      "l1GasPrice": "0x2b5f68",
      "l1GasUsed": "0x647"
    },
    {
      "status": "0x1",
      "cumulativeGasUsed": "0x45980a",
      "logs": [
        {
          "address": "0xa373482b473e33b96412a6c0ca8b847e6bbb4d0d",
          "topics": [
            "0xddf252ad1be2c89b69c2b068fc378daa952ba7f163c4a11628f55a4df523b3ef",
            "0x00000000000000000000000067bfd0b42f5f39710b4e90301289f81eab6315da",
            "0x0000000000000000000000002e180501d3d68241dd0318c68fd9be0af1d519a1"
          ],
          "data": "0x000000000000000000000000000000000000000000000000000000001ec6933c",
          "blockHash": "0xcc603c6a560fbf6f0b3787a19ed7074e52a00946e9407efe77d21b7c642b84f2",
          "blockNumber": "0x165e381",
          "transactionHash": "0x0e4edd25e8bbd07bb8e7f61f86f895c96eeda078f549c58d4f1142258acab9e4",
          "transactionIndex": "0x10",
          "logIndex": "0x65",
          "removed": false
        },
        {
          "address": "0x2e180501d3d68241dd0318c68fd9be0af1d519a1",
          "topics": [
            "0xe523847b7270abe685bcbcb11a424b9030e5627e3d5770781dd5bbeb1ddee143",
            "0x000000000000000000000000000000000000000000000000000000000000004a",
            "0x00000000000000000000000000000000000000000000000000000000000000c4",
            "0x00000000000000000000000067bfd0b42f5f39710b4e90301289f81eab6315da"
          ],
          "data": "0x0000000000000000000000000000000000000000000000000000000000000001000000000000000000000000000000000000000000000000000000001ec6933c0000000000000000000000000000000000000000000000000000000000000001",
          "blockHash": "0xcc603c6a560fbf6f0b3787a19ed7074e52a00946e9407efe77d21b7c642b84f2",
          "blockNumber": "0x165e381",
          "transactionHash": "0x0e4edd25e8bbd07bb8e7f61f86f895c96eeda078f549c58d4f1142258acab9e4",
          "transactionIndex": "0x10",
          "logIndex": "0x66",
          "removed": false
        }
      ],
      "logsBloom": "0x00002000000000000080000000000000000010000000000000000000000000000000000000000000000001000000000000000000000000000000000000000000000000000000000000000008000000000000000000200000000000000000000000000000000000200000000000000000000000000000000000000010000000000000000040081000800000000000000000000000000000000400000000001000000000000000280000000000000000000000000000000000000000000400000000000002000000000000000000000000000000010000000000100000000000001000020000000000000000000000000000000000008010000000000000000000",
      "type": "0x2",
      "transactionHash": "0x0e4edd25e8bbd07bb8e7f61f86f895c96eeda078f549c58d4f1142258acab9e4",
      "transactionIndex": "0x10",
      "blockHash": "0xcc603c6a560fbf6f0b3787a19ed7074e52a00946e9407efe77d21b7c642b84f2",
      "blockNumber": "0x165e381",
      "gasUsed": "0x73c6e",
      "effectiveGasPrice": "0xd5746",
      "from": "0x67bfd0b42f5f39710b4e90301289f81eab6315da",
      "to": "0x2e180501d3d68241dd0318c68fd9be0af1d519a1",
      "contractAddress": null,
      "l1BaseFeeScalar": "0x44d",
      "l1BlobBaseFee": "0x1",
      "l1BlobBaseFeeScalar": "0xa118b",
      "l1Fee": "0x4ff34a",
      "l1GasPrice": "0x2b5f68",
      "l1GasUsed": "0x68a"
    },
    {
      "status": "0x1",
      "cumulativeGasUsed": "0x75a5bf",
      "logs": [
        {
          "address": "0xa373482b473e33b96412a6c0ca8b847e6bbb4d0d",
          "topics": [
            "0xddf252ad1be2c89b69c2b068fc378daa952ba7f163c4a11628f55a4df523b3ef",
            "0x00000000000000000000000067bfd0b42f5f39710b4e90301289f81eab6315da",
            "0x0000000000000000000000002e180501d3d68241dd0318c68fd9be0af1d519a1"
          ],
          "data": "0x000000000000000000000000000000000000000000000000000000001ec6933c",
          "blockHash": "0xa6f18b132ca16575b087ba5cd1aa83dd9a5d61f96a8b2650b19984d33e519232",
          "blockNumber": "0x165e382",
          "transactionHash": "0x3688ce9964985257c9b7cd4e6e1ca645f530b8c462c38e9c29918db0c82067f5",
          "transactionIndex": "0x20",
          "logIndex": "0xc0",
          "removed": false
        },
        {
          "address": "0x2e180501d3d68241dd0318c68fd9be0af1d519a1",
          "topics": [
            "0xe523847b7270abe685bcbcb11a424b9030e5627e3d5770781dd5bbeb1ddee143",
            "0x000000000000000000000000000000000000000000000000000000000000004b",
            "0x00000000000000000000000000000000000000000000000000000000000000c5",
            "0x00000000000000000000000067bfd0b42f5f39710b4e90301289f81eab6315da"
          ],
          "data": "0x0000000000000000000000000000000000000000000000000000000000000000000000000000000000000000000000000000000000000000000000001ec6933c0000000000000000000000000000000000000000000000000000000000000001",
          "blockHash": "0xa6f18b132ca16575b087ba5cd1aa83dd9a5d61f96a8b2650b19984d33e519232",
          "blockNumber": "0x165e382",
          "transactionHash": "0x3688ce9964985257c9b7cd4e6e1ca645f530b8c462c38e9c29918db0c82067f5",
          "transactionIndex": "0x20",
          "logIndex": "0xc1",
          "removed": false
        }
      ],
      "logsBloom": "0x00002000000000000081000000000000000010000000000000000000002000000000000000000000000001000000000000000000000000000000000000000000000000000000000000000008010000000000000000200000000000000000000000000000000000000000000000000000000000000000000000000010000000000000000000081000800000000000000000000000000000000400000000000000000000000000280000000000000400000000000000000000000000000080000000000002000000000000000000000000000000010000000000100000000000000000020000000000000000000000000000000000000010000000000000000000",
      "type": "0x2",
      "transactionHash": "0x3688ce9964985257c9b7cd4e6e1ca645f530b8c462c38e9c29918db0c82067f5",
      "transactionIndex": "0x20",
      "blockHash": "0xa6f18b132ca16575b087ba5cd1aa83dd9a5d61f96a8b2650b19984d33e519232",
      "blockNumber": "0x165e382",
      "gasUsed": "0x6a0ea",
      "effectiveGasPrice": "0xd5743",
      "from": "0x67bfd0b42f5f39710b4e90301289f81eab6315da",
      "to": "0x2e180501d3d68241dd0318c68fd9be0af1d519a1",
      "contractAddress": null,
      "l1BaseFeeScalar": "0x44d",
      "l1BlobBaseFee": "0x1",
      "l1BlobBaseFeeScalar": "0xa118b",
      "l1Fee": "0x4cc131",
      "l1GasPrice": "0x2b5f68",
      "l1GasUsed": "0x647"
    },
    {
      "status": "0x1",
      "cumulativeGasUsed": "0x768647",
      "logs": [
        {
          "address": "0x036cbd53842c5426634e7929541ec2318f3dcf7e",
          "topics": [
            "0xddf252ad1be2c89b69c2b068fc378daa952ba7f163c4a11628f55a4df523b3ef",
            "0x00000000000000000000000067bfd0b42f5f39710b4e90301289f81eab6315da",
            "0x0000000000000000000000002e180501d3d68241dd0318c68fd9be0af1d519a1"
          ],
          "data": "0x00000000000000000000000000000000000000000000000000000000001e8480",
          "blockHash": "0xa6f1a85a65881d607652b4f1c084de0ae4c71b75ab28ae5e250769210c7fa5d4",
          "blockNumber": "0x165e384",
          "transactionHash": "0x5dfa4b8072ccc004f42338ead8e8f7088807762741b1f40196dda216d4d598bd",
          "transactionIndex": "0x1a",
          "logIndex": "0xc1",
          "removed": false
        },
        {
          "address": "0x2e180501d3d68241dd0318c68fd9be0af1d519a1",
          "topics": [
            "0xe523847b7270abe685bcbcb11a424b9030e5627e3d5770781dd5bbeb1ddee143",
            "0x000000000000000000000000000000000000000000000000000000000000004c",
            "0x00000000000000000000000000000000000000000000000000000000000000c3",
            "0x00000000000000000000000067bfd0b42f5f39710b4e90301289f81eab6315da"
          ],
          "data": "0x000000000000000000000000000000000000000000000000000000000000000000000000000000000000000000000000000000000000000000000000001e84800000000000000000000000000000000000000000000000000000000000000000",
          "blockHash": "0xa6f1a85a65881d607652b4f1c084de0ae4c71b75ab28ae5e250769210c7fa5d4",
          "blockNumber": "0x165e384",
          "transactionHash": "0x5dfa4b8072ccc004f42338ead8e8f7088807762741b1f40196dda216d4d598bd",
          "transactionIndex": "0x1a",
          "logIndex": "0xc2",
          "removed": false
        }
      ],
      "logsBloom": "0x00002000040000000080000000000000000010200000000000000000000000000000000000000000000001000000000000000000000000000000080000000000000000000000000000000008000200000000000000008000800000000000000800000000000000000000000000000000000000000000000000000010000000000000000000080000800000000000000000000000000000000400000000000000000000000000280000000000000000200000000000000000000000000000000000000002000000000000000000000000000000010000000000000000000000000000020000000000000000000020000000000000000010000000000000000000",
      "type": "0x2",
      "transactionHash": "0x5dfa4b8072ccc004f42338ead8e8f7088807762741b1f40196dda216d4d598bd",
      "transactionIndex": "0x1a",
      "blockHash": "0xa6f1a85a65881d607652b4f1c084de0ae4c71b75ab28ae5e250769210c7fa5d4",
      "blockNumber": "0x165e384",
      "gasUsed": "0x6346f",
      "effectiveGasPrice": "0xd573e",
      "from": "0x67bfd0b42f5f39710b4e90301289f81eab6315da",
      "to": "0x2e180501d3d68241dd0318c68fd9be0af1d519a1",
      "contractAddress": null,
      "l1BaseFeeScalar": "0x44d",
      "l1BlobBaseFee": "0x1",
      "l1BlobBaseFeeScalar": "0xa118b",
      "l1Fee": "0x4c6804",
      "l1GasPrice": "0x2b5f68",
      "l1GasUsed": "0x640"
    },
    {
      "status": "0x1",
      "cumulativeGasUsed": "0x2a0e8a",
      "logs": [
        {
          "address": "0x036cbd53842c5426634e7929541ec2318f3dcf7e",
          "topics": [
            "0xddf252ad1be2c89b69c2b068fc378daa952ba7f163c4a11628f55a4df523b3ef",
            "0x00000000000000000000000067bfd0b42f5f39710b4e90301289f81eab6315da",
            "0x0000000000000000000000002e180501d3d68241dd0318c68fd9be0af1d519a1"
          ],
          "data": "0x00000000000000000000000000000000000000000000000000000000002dc6c0",
          "blockHash": "0x9f37b941f208ea19ca2cf92f0148316f0a6e541ea320444f44a1ded3e486aaf6",
          "blockNumber": "0x165e386",
          "transactionHash": "0xedf8b073dabd6cab344211b563c7c49be4b44f10651c27bec217cec094d28fc6",
          "transactionIndex": "0x9",
          "logIndex": "0x2e",
          "removed": false
        },
        {
          "address": "0x2e180501d3d68241dd0318c68fd9be0af1d519a1",
          "topics": [
            "0xe523847b7270abe685bcbcb11a424b9030e5627e3d5770781dd5bbeb1ddee143",
            "0x000000000000000000000000000000000000000000000000000000000000004d",
            "0x00000000000000000000000000000000000000000000000000000000000000c4",
            "0x00000000000000000000000067bfd0b42f5f39710b4e90301289f81eab6315da"
          ],
          "data": "0x000000000000000000000000000000000000000000000000000000000000000000000000000000000000000000000000000000000000000000000000002dc6c00000000000000000000000000000000000000000000000000000000000000000",
          "blockHash": "0x9f37b941f208ea19ca2cf92f0148316f0a6e541ea320444f44a1ded3e486aaf6",
          "blockNumber": "0x165e386",
          "transactionHash": "0xedf8b073dabd6cab344211b563c7c49be4b44f10651c27bec217cec094d28fc6",
          "transactionIndex": "0x9",
          "logIndex": "0x2f",
          "removed": false
        }
      ],
      "logsBloom": "0x00002000040000000080000000000000000010000000000000000000000000000000000000000000000001000000000000000000000000000000000010000000000000000000000000000008000000000000000000000000000000000000000800000000000000000000000000000000000000000000000000000010000000000000000040080000800000000000000000000000000c00000400000000001000000000000000280000000000000000000000000000000000000000000000000000000002000000000000000000000000000000010000000000000000000000000000020000000000000000000020000000000000008010000000000000000000",
      "type": "0x2",
      "transactionHash": "0xedf8b073dabd6cab344211b563c7c49be4b44f10651c27bec217cec094d28fc6",
      "transactionIndex": "0x9",
      "blockHash": "0x9f37b941f208ea19ca2cf92f0148316f0a6e541ea320444f44a1ded3e486aaf6",
      "blockNumber": "0x165e386",
      "gasUsed": "0x6773b",
      "effectiveGasPrice": "0xd5738",
      "from": "0x67bfd0b42f5f39710b4e90301289f81eab6315da",
      "to": "0x2e180501d3d68241dd0318c68fd9be0af1d519a1",
      "contractAddress": null,
      "l1BaseFeeScalar": "0x44d",
      "l1BlobBaseFee": "0x1",
      "l1BlobBaseFeeScalar": "0xa118b",
      "l1Fee": "0x4c6804",
      "l1GasPrice": "0x2b5f68",
      "l1GasUsed": "0x640"
    },
    {
      "status": "0x1",
      "cumulativeGasUsed": "0x832baa",
      "logs": [
        {
          "address": "0x036cbd53842c5426634e7929541ec2318f3dcf7e",
          "topics": [
            "0xddf252ad1be2c89b69c2b068fc378daa952ba7f163c4a11628f55a4df523b3ef",
            "0x00000000000000000000000067bfd0b42f5f39710b4e90301289f81eab6315da",
            "0x0000000000000000000000002e180501d3d68241dd0318c68fd9be0af1d519a1"
          ],
          "data": "0x00000000000000000000000000000000000000000000000000000000002dc6c0",
          "blockHash": "0x6d6bd13ed5b6572c29934030125347a8aa5cbed078cfd45ccbce51ace3fb59a0",
          "blockNumber": "0x165e388",
          "transactionHash": "0x14515c14cef317eb57cfb80b90536866ee4bdfac427ee5558f97d56df30daf8b",
          "transactionIndex": "0x15",
          "logIndex": "0xca",
          "removed": false
        },
        {
          "address": "0x2e180501d3d68241dd0318c68fd9be0af1d519a1",
          "topics": [
            "0xe523847b7270abe685bcbcb11a424b9030e5627e3d5770781dd5bbeb1ddee143",
            "0x000000000000000000000000000000000000000000000000000000000000004e",
            "0x00000000000000000000000000000000000000000000000000000000000000c5",
            "0x00000000000000000000000067bfd0b42f5f39710b4e90301289f81eab6315da"
          ],
          "data": "0x000000000000000000000000000000000000000000000000000000000000000100000000000000000000000000000000000000000000000000000000002dc6c00000000000000000000000000000000000000000000000000000000000000000",
          "blockHash": "0x6d6bd13ed5b6572c29934030125347a8aa5cbed078cfd45ccbce51ace3fb59a0",
          "blockNumber": "0x165e388",
          "transactionHash": "0x14515c14cef317eb57cfb80b90536866ee4bdfac427ee5558f97d56df30daf8b",
          "transactionIndex": "0x15",
          "logIndex": "0xcb",
          "removed": false
        }
      ],
      "logsBloom": "0x00002000040000000080000000000000000010000000000000000000000000000000000000000000000001000000000000000000000000002000000000000000000000000000000000000008010000000000000000000000000000000000000800000000000000000000000000000010000000000000000000000010000000000000000000080000800000000000000000000020000000000400000000000000000000000000280000000000000000000000000000000000000000000080000000000002000000000000000000000000000000010000000000000000000000000000020000000000000000000020000000000000000010000000000000000000",
      "type": "0x2",
      "transactionHash": "0x14515c14cef317eb57cfb80b90536866ee4bdfac427ee5558f97d56df30daf8b",
      "transactionIndex": "0x15",
      "blockHash": "0x6d6bd13ed5b6572c29934030125347a8aa5cbed078cfd45ccbce51ace3fb59a0",
      "blockNumber": "0x165e388",
      "gasUsed": "0x6cff3",
      "effectiveGasPrice": "0xd5731",
      "from": "0x67bfd0b42f5f39710b4e90301289f81eab6315da",
      "to": "0x2e180501d3d68241dd0318c68fd9be0af1d519a1",
      "contractAddress": null,
      "l1BaseFeeScalar": "0x44d",
      "l1BlobBaseFee": "0x1",
      "l1BlobBaseFeeScalar": "0xa118b",
      "l1Fee": "0x4eac0d",
      "l1GasPrice": "0x2b5f68",
      "l1GasUsed": "0x66f"
    },
    {
      "status": "0x1",
      "cumulativeGasUsed": "0x5507ff",
      "logs": [
        {
          "address": "0xa373482b473e33b96412a6c0ca8b847e6bbb4d0d",
          "topics": [
            "0x8c5be1e5ebec7d5bd14f71427d1e84f3dd0314c0f7b2291e5b200ac8c7c3b925",
            "0x00000000000000000000000012be474d127757d0a6a36631294f8ffbcdef44f8",
            "0x0000000000000000000000002e180501d3d68241dd0318c68fd9be0af1d519a1"
          ],
          "data": "0x0000000000000000000000000000000000000000000000000000000046b05429",
          "blockHash": "0xf51a4e554eec2d55afea0c21fe5d7b3e7bde6ff7ae94d215765ec53d09e76622",
          "blockNumber": "0x165e38a",
          "transactionHash": "0x096b586e65d88c4e079b36cad21b33c47eeb9c366126c0a47f13f615c6df90c7",
          "transactionIndex": "0xd",
          "logIndex": "0x7c",
          "removed": false
        }
      ],
      "logsBloom": "0x00000000000000000000000000000000000000000000000000000000000000000000000000000000000000000000000000000000000000000000000000200000000000000000000000000000000000000000000000200000000000000000000000000000000000000000000000000000000000000000000000800000000000000000000000081000800000000000000000000000000000000000000000000000028000000000000000000000000000000000000000000000000000000000000000000000000000000000000100000000000000010000000000100000000000000010000000000000000000000000000000000000000000000000000000000000",
      "type": "0x2",
      "transactionHash": "0x096b586e65d88c4e079b36cad21b33c47eeb9c366126c0a47f13f615c6df90c7",
      "transactionIndex": "0xd",
      "blockHash": "0xf51a4e554eec2d55afea0c21fe5d7b3e7bde6ff7ae94d215765ec53d09e76622",
      "blockNumber": "0x165e38a",
      "gasUsed": "0x70b4",
      "effectiveGasPrice": "0xd5742",
      "from": "0x12be474d127757d0a6a36631294f8ffbcdef44f8",
      "to": "0xa373482b473e33b96412a6c0ca8b847e6bbb4d0d",
      "contractAddress": null,
      "l1BaseFeeScalar": "0x44d",
      "l1BlobBaseFee": "0x1",
      "l1BlobBaseFeeScalar": "0xa118b",
      "l1Fee": "0x54d4e2",
      "l1GasPrice": "0x3027c9",
      "l1GasUsed": "0x640"
    },
    {
      "status": "0x1",
      "cumulativeGasUsed": "0x1ff02e",
      "logs": [
        {
          "address": "0x036cbd53842c5426634e7929541ec2318f3dcf7e",
          "topics": [
            "0x8c5be1e5ebec7d5bd14f71427d1e84f3dd0314c0f7b2291e5b200ac8c7c3b925",
            "0x00000000000000000000000012be474d127757d0a6a36631294f8ffbcdef44f8",
            "0x0000000000000000000000002e180501d3d68241dd0318c68fd9be0af1d519a1"
          ],
          "data": "0x000000000000000000000000000000000000000000000000000000001dafa2d7",
          "blockHash": "0x852cf6bccfcfaf179755ff21a5a1541e5094bf7d85c6f1b3888148bbc9c74559",
          "blockNumber": "0x165e38c",
          "transactionHash": "0xb1be7fee02479e7a0bc03a1908b837187bfe2b3413780e1f6dc12a58f398f52e",
          "transactionIndex": "0x9",
          "logIndex": "0x35",
          "removed": false
        }
      ],
      "logsBloom": "0x00000000040000000000000000000000000000000000000000000000000000000000000000000000000000000000000000000000000000000000000000200000000000000000000000000000000000000000000000000000000000000000000800000000000000000000000000000000000000000000000000800000000000000000000000080000800000000000000000000000000000000000000000000000028000000000000000000000000000000000000000000000000000000000000000000000000000000000000100000000000000010000000000000000000000000010000000000000000000000020000000000000000000000000000000000000",
      "type": "0x2",
      "transactionHash": "0xb1be7fee02479e7a0bc03a1908b837187bfe2b3413780e1f6dc12a58f398f52e",
      "transactionIndex": "0x9",
      "blockHash": "0x852cf6bccfcfaf179755ff21a5a1541e5094bf7d85c6f1b3888148bbc9c74559",
      "blockNumber": "0x165e38c",
      "gasUsed": "0x8add",
      "effectiveGasPrice": "0xd5744",
      "from": "0x12be474d127757d0a6a36631294f8ffbcdef44f8",
      "to": "0x036cbd53842c5426634e7929541ec2318f3dcf7e",
      "contractAddress": null,
      "l1BaseFeeScalar": "0x44d",
      "l1BlobBaseFee": "0x1",
      "l1BlobBaseFeeScalar": "0xa118b",
      "l1Fee": "0x5e921e",
      "l1GasPrice": "0x35af1c",
      "l1GasUsed": "0x640"
    },
    {
      "status": "0x1",
      "cumulativeGasUsed": "0x6e29ca",
      "logs": [
        {
          "address": "0xa373482b473e33b96412a6c0ca8b847e6bbb4d0d",
          "topics": [
            "0xddf252ad1be2c89b69c2b068fc378daa952ba7f163c4a11628f55a4df523b3ef",
            "0x00000000000000000000000012be474d127757d0a6a36631294f8ffbcdef44f8",
            "0x0000000000000000000000002e180501d3d68241dd0318c68fd9be0af1d519a1"
          ],
          "data": "0x000000000000000000000000000000000000000000000000000000001534e60b",
          "blockHash": "0x8f2d74b3a9f4cc0ce981703ee64335706cf8cf4553697ff14d5213d85bc5c327",
          "blockNumber": "0x165e38e",
          "transactionHash": "0xaad1562de450dcb9bd872669ec1ecc85f75b2f71297dc29bfeae72d7ad0fc693",
          "transactionIndex": "0x1c",
          "logIndex": "0xae",
          "removed": false
        },
        {
          "address": "0x2e180501d3d68241dd0318c68fd9be0af1d519a1",
          "topics": [
            "0xe523847b7270abe685bcbcb11a424b9030e5627e3d5770781dd5bbeb1ddee143",
            "0x000000000000000000000000000000000000000000000000000000000000004f",
            "0x00000000000000000000000000000000000000000000000000000000000000c3",
            "0x00000000000000000000000012be474d127757d0a6a36631294f8ffbcdef44f8"
          ],
          "data": "0x0000000000000000000000000000000000000000000000000000000000000001000000000000000000000000000000000000000000000000000000001534e60b0000000000000000000000000000000000000000000000000000000000000001",
          "blockHash": "0x8f2d74b3a9f4cc0ce981703ee64335706cf8cf4553697ff14d5213d85bc5c327",
          "blockNumber": "0x165e38e",
          "transactionHash": "0xaad1562de450dcb9bd872669ec1ecc85f75b2f71297dc29bfeae72d7ad0fc693",
          "transactionIndex": "0x1c",
          "logIndex": "0xaf",
          "removed": false
        }
      ],
      "logsBloom": "0x00002000000000000000000000000000000010200000000000000000000000000000000000000000000001000000000000000000000000000000080000000000000000000000000000000008000200000000000000200000000000000000000000000000000000000000000080000000000000000000000000800010000000000000000000081000800000000000000000000000000000000400000000000000008001000000000000000000000000000000000000000000000000000000000000000002000000000000000100000000000400010000000000100000000000000000020000000000000000000000000000000000000010000000000000000000",
      "type": "0x2",
      "transactionHash": "0xaad1562de450dcb9bd872669ec1ecc85f75b2f71297dc29bfeae72d7ad0fc693",
      "transactionIndex": "0x1c",
      "blockHash": "0x8f2d74b3a9f4cc0ce981703ee64335706cf8cf4553697ff14d5213d85bc5c327",
      "blockNumber": "0x165e38e",
      "gasUsed": "0x77f3a",
      "effectiveGasPrice": "0xd573b",
      "from": "0x12be474d127757d0a6a36631294f8ffbcdef44f8",
      "to": "0x2e180501d3d68241dd0318c68fd9be0af1d519a1",
      "contractAddress": null,
      "l1BaseFeeScalar": "0x44d",
      "l1BlobBaseFee": "0x1",
      "l1BlobBaseFeeScalar": "0xa118b",
      "l1Fee": "0x62f514",
      "l1GasPrice": "0x35af1c",
      "l1GasUsed": "0x68a"
    },
    {
      "status": "0x1",
      "cumulativeGasUsed": "0x2ce0f7",
      "logs": [
        {
          "address": "0xa373482b473e33b96412a6c0ca8b847e6bbb4d0d",
          "topics": [
            "0xddf252ad1be2c89b69c2b068fc378daa952ba7f163c4a11628f55a4df523b3ef",
            "0x00000000000000000000000012be474d127757d0a6a36631294f8ffbcdef44f8",
            "0x0000000000000000000000002e180501d3d68241dd0318c68fd9be0af1d519a1"
          ],
          "data": "0x000000000000000000000000000000000000000000000000000000001534e60b",
          "blockHash": "0x847c957f96690efc7bd469c750bc030c72dad2b184e4446b96e1c1c39bf39ac4",
          "blockNumber": "0x165e390",
          "transactionHash": "0x678caef6e3bec818e8a08458271d9a110a68c4a7d80e3ba9bef7ae2d3defb0ae",
          "transactionIndex": "0xb",
          "logIndex": "0x27",
          "removed": false
        },
        {
          "address": "0x2e180501d3d68241dd0318c68fd9be0af1d519a1",
          "topics": [
            "0xe523847b7270abe685bcbcb11a424b9030e5627e3d5770781dd5bbeb1ddee143",
            "0x0000000000000000000000000000000000000000000000000000000000000050",
            "0x00000000000000000000000000000000000000000000000000000000000000c4",
            "0x00000000000000000000000012be474d127757d0a6a36631294f8ffbcdef44f8"
          ],
          "data": "0x0000000000000000000000000000000000000000000000000000000000000000000000000000000000000000000000000000000000000000000000001534e60b0000000000000000000000000000000000000000000000000000000000000001",
          "blockHash": "0x847c957f96690efc7bd469c750bc030c72dad2b184e4446b96e1c1c39bf39ac4",
          "blockNumber": "0x165e390",
          "transactionHash": "0x678caef6e3bec818e8a08458271d9a110a68c4a7d80e3ba9bef7ae2d3defb0ae",
          "transactionIndex": "0xb",
          "logIndex": "0x28",
          "removed": false
        }
      ],
      "logsBloom": "0x00002000000000000000000000000000000010000000000000000000000000000000000000000000000001000020000000000000000000000000000000000000000000000000000000000008000000000000000000200000000002000000000000000000000000000000000000000000000000000000000000800010000000000000000040081000800000000000000000000000000000000400000000001000008000000000000000000000000000000000000000000000000000000000000000000002000000000000000100000000000000010000000000100020000000000000020000000000000000000000000000000000008010000000000000000000",
      "type": "0x2",
      "transactionHash": "0x678caef6e3bec818e8a08458271d9a110a68c4a7d80e3ba9bef7ae2d3defb0ae",
      "transactionIndex": "0xb",
      "blockHash": "0x847c957f96690efc7bd469c750bc030c72dad2b184e4446b96e1c1c39bf39ac4",
      "blockNumber": "0x165e390",
      "gasUsed": "0x6e3b6",
      "effectiveGasPrice": "0xd5733",
      "from": "0x12be474d127757d0a6a36631294f8ffbcdef44f8",
      "to": "0x2e180501d3d68241dd0318c68fd9be0af1d519a1",
      "contractAddress": null,
      "l1BaseFeeScalar": "0x44d",
      "l1BlobBaseFee": "0x1",
      "l1BlobBaseFeeScalar": "0xa118b",
      "l1Fee": "0x5c236a",
      "l1GasPrice": "0x3410db",
      "l1GasUsed": "0x647"
    },
    {
      "status": "0x1",
      "cumulativeGasUsed": "0x470283",
      "logs": [
        {
          "address": "0xa373482b473e33b96412a6c0ca8b847e6bbb4d0d",
          "topics": [
            "0xddf252ad1be2c89b69c2b068fc378daa952ba7f163c4a11628f55a4df523b3ef",
            "0x00000000000000000000000012be474d127757d0a6a36631294f8ffbcdef44f8",
            "0x0000000000000000000000002e180501d3d68241dd0318c68fd9be0af1d519a1"
          ],
          "data": "0x000000000000000000000000000000000000000000000000000000001534e60b",
          "blockHash": "0xb9e7856dcc6d8e68c5858289e44956dc1214d3686a4dec347654f7f46440a2a6",
          "blockNumber": "0x165e392",
          "transactionHash": "0x857771335ea97cf3d8ff5ae8eaf71d299d2d4e9dc503204fb1a2698cf6ec09ac",
          "transactionIndex": "0xb",
          "logIndex": "0x67",
          "removed": false
        },
        {
          "address": "0x2e180501d3d68241dd0318c68fd9be0af1d519a1",
          "topics": [
            "0xe523847b7270abe685bcbcb11a424b9030e5627e3d5770781dd5bbeb1ddee143",
            "0x0000000000000000000000000000000000000000000000000000000000000051",
            "0x00000000000000000000000000000000000000000000000000000000000000c5",
            "0x00000000000000000000000012be474d127757d0a6a36631294f8ffbcdef44f8"
          ],
          "data": "0x0000000000000000000000000000000000000000000000000000000000000000000000000000000000000000000000000000000000000000000000001534e60b0000000000000000000000000000000000000000000000000000000000000001",
          "blockHash": "0xb9e7856dcc6d8e68c5858289e44956dc1214d3686a4dec347654f7f46440a2a6",
          "blockNumber": "0x165e392",
          "transactionHash": "0x857771335ea97cf3d8ff5ae8eaf71d299d2d4e9dc503204fb1a2698cf6ec09ac",
          "transactionIndex": "0xb",
          "logIndex": "0x68",
          "removed": false
        }
      ],
      "logsBloom": "0x00002000000000000000000000000000000010000000000000000000000000000000000000000000000001000000000000000000000000000000000000000000000000000000000000080008010000000000000000200000000000000000000000000000000000000000000000000000000000000000000000800010000000000000000000081000800000000000000000000000000040000400000000000000008000000000200000000000000000000000000000000000000000000080000000000002000000000000000100000000000000010000040000100000000000000000020000000000000000000000000000000000000010000000000000000000",
      "type": "0x2",
      "transactionHash": "0x857771335ea97cf3d8ff5ae8eaf71d299d2d4e9dc503204fb1a2698cf6ec09ac",
      "transactionIndex": "0xb",
      "blockHash": "0xb9e7856dcc6d8e68c5858289e44956dc1214d3686a4dec347654f7f46440a2a6",
      "blockNumber": "0x165e392",
      "gasUsed": "0x6a0ea",
      "effectiveGasPrice": "0xd5733",
      "from": "0x12be474d127757d0a6a36631294f8ffbcdef44f8",
      "to": "0x2e180501d3d68241dd0318c68fd9be0af1d519a1",
      "contractAddress": null,
      "l1BaseFeeScalar": "0x44d",
      "l1BlobBaseFee": "0x1",
      "l1BlobBaseFeeScalar": "0xa118b",
      "l1Fee": "0x5c236a",
      "l1GasPrice": "0x3410db",
      "l1GasUsed": "0x647"
    },
    {
      "status": "0x1",
      "cumulativeGasUsed": "0x73bf60",
      "logs": [
        {
          "address": "0x036cbd53842c5426634e7929541ec2318f3dcf7e",
          "topics": [
            "0xddf252ad1be2c89b69c2b068fc378daa952ba7f163c4a11628f55a4df523b3ef",
            "0x00000000000000000000000012be474d127757d0a6a36631294f8ffbcdef44f8",
            "0x0000000000000000000000002e180501d3d68241dd0318c68fd9be0af1d519a1"
          ],
          "data": "0x00000000000000000000000000000000000000000000000000000000001e8480",
          "blockHash": "0xd715cc95a3750bdb3c992c8f14d931c4ff4def2d8018b666df75cc79153e9cd0",
          "blockNumber": "0x165e394",
          "transactionHash": "0x748cee9b17bd3a7cc072109a0b998795c69fcb1532b59327091e35bc72d52b64",
          "transactionIndex": "0x19",
          "logIndex": "0xce",
          "removed": false
        },
        {
          "address": "0x2e180501d3d68241dd0318c68fd9be0af1d519a1",
          "topics": [
            "0xe523847b7270abe685bcbcb11a424b9030e5627e3d5770781dd5bbeb1ddee143",
            "0x0000000000000000000000000000000000000000000000000000000000000052",
            "0x00000000000000000000000000000000000000000000000000000000000000c3",
            "0x00000000000000000000000012be474d127757d0a6a36631294f8ffbcdef44f8"
          ],
          "data": "0x000000000000000000000000000000000000000000000000000000000000000100000000000000000000000000000000000000000000000000000000001e84800000000000000000000000000000000000000000000000000000000000000000",
          "blockHash": "0xd715cc95a3750bdb3c992c8f14d931c4ff4def2d8018b666df75cc79153e9cd0",
          "blockNumber": "0x165e394",
          "transactionHash": "0x748cee9b17bd3a7cc072109a0b998795c69fcb1532b59327091e35bc72d52b64",
          "transactionIndex": "0x19",
          "logIndex": "0xcf",
          "removed": false
        }
      ],
      "logsBloom": "0x00002000040000000000000000000000000010200000000000000000000000002000000000000000000001000000000000000000000000000000080000000000000000000000000000000008000200000000000000000000000000000000000800000000000000000000000000000000000000000000000000800010000000000000000000080000800000000000000000000000000000000400000000000000008000000000000000000000000000000000000040000000000000000000000000000002000000000000000100000000000000010000000000000000001000000000020000000000000000000020000000000000000010000000000000000000",
      "type": "0x2",
      "transactionHash": "0x748cee9b17bd3a7cc072109a0b998795c69fcb1532b59327091e35bc72d52b64",
      "transactionIndex": "0x19",
      "blockHash": "0xd715cc95a3750bdb3c992c8f14d931c4ff4def2d8018b666df75cc79153e9cd0",
      "blockNumber": "0x165e394",
      "gasUsed": "0x712bf",
      "effectiveGasPrice": "0xd573b",
      "from": "0x12be474d127757d0a6a36631294f8ffbcdef44f8",
      "to": "0x2e180501d3d68241dd0318c68fd9be0af1d519a1",
      "contractAddress": null,
      "l1BaseFeeScalar": "0x44d",
      "l1BlobBaseFee": "0x1",
      "l1BlobBaseFeeScalar": "0xa118b",
      "l1Fee": "0x5e70a8",
      "l1GasPrice": "0x3410db",
      "l1GasUsed": "0x66f"
    },
    {
      "status": "0x1",
      "cumulativeGasUsed": "0x172c7d9",
      "logs": [
        {
          "address": "0x036cbd53842c5426634e7929541ec2318f3dcf7e",
          "topics": [
            "0xddf252ad1be2c89b69c2b068fc378daa952ba7f163c4a11628f55a4df523b3ef",
            "0x00000000000000000000000012be474d127757d0a6a36631294f8ffbcdef44f8",
            "0x0000000000000000000000002e180501d3d68241dd0318c68fd9be0af1d519a1"
          ],
          "data": "0x00000000000000000000000000000000000000000000000000000000002dc6c0",
          "blockHash": "0x4149b81176d78779145921354f36b7009a3b953a5186fd7e9e1f25ae7eeb3a82",
          "blockNumber": "0x165e396",
          "transactionHash": "0x7b204bc1287f536f1f96c9252ca0387bd43428726ba6389f1eb761df5d7e023e",
          "transactionIndex": "0x42",
          "logIndex": "0x292",
          "removed": false
        },
        {
          "address": "0x2e180501d3d68241dd0318c68fd9be0af1d519a1",
          "topics": [
            "0xe523847b7270abe685bcbcb11a424b9030e5627e3d5770781dd5bbeb1ddee143",
            "0x0000000000000000000000000000000000000000000000000000000000000053",
            "0x00000000000000000000000000000000000000000000000000000000000000c4",
            "0x00000000000000000000000012be474d127757d0a6a36631294f8ffbcdef44f8"
          ],
          "data": "0x000000000000000000000000000000000000000000000000000000000000000100000000000000000000000000000000000000000000000000000000002dc6c00000000000000000000000000000000000000000000000000000000000000000",
          "blockHash": "0x4149b81176d78779145921354f36b7009a3b953a5186fd7e9e1f25ae7eeb3a82",
          "blockNumber": "0x165e396",
          "transactionHash": "0x7b204bc1287f536f1f96c9252ca0387bd43428726ba6389f1eb761df5d7e023e",
          "transactionIndex": "0x42",
          "logIndex": "0x293",
          "removed": false
        }
      ],
      "logsBloom": "0x00002000040000000008000000000000000010000000000000000000000000000000000000000000000001000000000000000000000000000000000000000000000000000000000000000008000000000000000000000000000000000000000800000000000000000000000000000008000000000000000000800010000000000000000040080000800000000000000000000000000000000400000000001000008000000000000000000000000000000000000000000000000000000000000000000002000000000000000100000000000000010000000000000000000000000000020000000000000000000020000000000000008010000000040000000000",
      "type": "0x2",
      "transactionHash": "0x7b204bc1287f536f1f96c9252ca0387bd43428726ba6389f1eb761df5d7e023e",
      "transactionIndex": "0x42",
      "blockHash": "0x4149b81176d78779145921354f36b7009a3b953a5186fd7e9e1f25ae7eeb3a82",
      "blockNumber": "0x165e396",
      "gasUsed": "0x6cff3",
      "effectiveGasPrice": "0xd5745",
      "from": "0x12be474d127757d0a6a36631294f8ffbcdef44f8",
      "to": "0x2e180501d3d68241dd0318c68fd9be0af1d519a1",
      "contractAddress": null,
      "l1BaseFeeScalar": "0x44d",
      "l1BlobBaseFee": "0x1",
      "l1BlobBaseFeeScalar": "0xa118b",
      "l1Fee": "0x5f7bc0",
      "l1GasPrice": "0x34a41c",
      "l1GasUsed": "0x66f"
    },
    {
      "status": "0x1",
      "cumulativeGasUsed": "0x1e8aef",
      "logs": [
        {
          "address": "0x036cbd53842c5426634e7929541ec2318f3dcf7e",
          "topics": [
            "0xddf252ad1be2c89b69c2b068fc378daa952ba7f163c4a11628f55a4df523b3ef",
            "0x00000000000000000000000012be474d127757d0a6a36631294f8ffbcdef44f8",
            "0x0000000000000000000000002e180501d3d68241dd0318c68fd9be0af1d519a1"
          ],
          "data": "0x00000000000000000000000000000000000000000000000000000000001e8480",
          "blockHash": "0x87e1048fb28ed5481048e138989d3f3d011f31812271d0cac554253714b21098",
          "blockNumber": "0x165e398",
          "transactionHash": "0xff11d4bad912f4e6c3e1bd94d96b31fb28e82fc3013fe3f203fcbd49d2ea49fa",
          "transactionIndex": "0x8",
          "logIndex": "0x26",
          "removed": false
        },
        {
          "address": "0x2e180501d3d68241dd0318c68fd9be0af1d519a1",
          "topics": [
            "0xe523847b7270abe685bcbcb11a424b9030e5627e3d5770781dd5bbeb1ddee143",
            "0x0000000000000000000000000000000000000000000000000000000000000054",
            "0x00000000000000000000000000000000000000000000000000000000000000c5",
            "0x00000000000000000000000012be474d127757d0a6a36631294f8ffbcdef44f8"
          ],
          "data": "0x000000000000000000000000000000000000000000000000000000000000000100000000000000000000000000000000000000000000000000000000001e84800000000000000000000000000000000000000000000000000000000000000000",
          "blockHash": "0x87e1048fb28ed5481048e138989d3f3d011f31812271d0cac554253714b21098",
          "blockNumber": "0x165e398",
          "transactionHash": "0xff11d4bad912f4e6c3e1bd94d96b31fb28e82fc3013fe3f203fcbd49d2ea49fa",
          "transactionIndex": "0x8",
          "logIndex": "0x27",
          "removed": false
        }
      ],
      "logsBloom": "0x00002000040000000000000000000000000010000002000000000000000000000000000000000000000001000000000000000000000000000000000000000000000000000000000000000008010000000000000000000000000000000000000800000000000000000000000000000000000000000000000000800010000000000000000000080000800000000000000000000000000000000400000000000000008000000800200000000000000000000000000000000000000000000080000000000002000000000000000100000000000000010000000000000000000000000000020000400000000000000020000000000000000010000000000000000000",
      "type": "0x2",
      "transactionHash": "0xff11d4bad912f4e6c3e1bd94d96b31fb28e82fc3013fe3f203fcbd49d2ea49fa",
      "transactionIndex": "0x8",
      "blockHash": "0x87e1048fb28ed5481048e138989d3f3d011f31812271d0cac554253714b21098",
      "blockNumber": "0x165e398",
      "gasUsed": "0x6cff3",
      "effectiveGasPrice": "0xd5747",
      "from": "0x12be474d127757d0a6a36631294f8ffbcdef44f8",
      "to": "0x2e180501d3d68241dd0318c68fd9be0af1d519a1",
      "contractAddress": null,
      "l1BaseFeeScalar": "0x44d",
      "l1BlobBaseFee": "0x1",
      "l1BlobBaseFeeScalar": "0xa118b",
      "l1Fee": "0x5f7bc0",
      "l1GasPrice": "0x34a41c",
      "l1GasUsed": "0x66f"
    },
    {
      "status": "0x1",
      "cumulativeGasUsed": "0x70d95c",
      "logs": [
        {
          "address": "0x2e180501d3d68241dd0318c68fd9be0af1d519a1",
          "topics": [
            "0xaf7faf29a251efa1bcf2b47dab1a72baa0906a2e4ff957e6cb6d4f7c642161ab",
            "0x00000000000000000000000000000000000000000000000000000000000000c0"
          ],
          "data": "0x0000000000000000000000000000000000000000000000000000000000000000",
          "blockHash": "0x4a8c5f259cabddde59ec251a48a540c21887b13df6b256f6fcf8df007540e900",
          "blockNumber": "0x165e39a",
          "transactionHash": "0x9655a682a9dd175c064c4df836a011c7c4ecac8b1ba8852179ea869d9b17d5ae",
          "transactionIndex": "0x23",
          "logIndex": "0x8a",
          "removed": false
        },
        {
          "address": "0x2e180501d3d68241dd0318c68fd9be0af1d519a1",
          "topics": [
            "0x71bf4dbc735bb7b341dcea9720315ff68bb3c8f5548eed9966947402c6187601",
            "0x0000000000000000000000000000000000000000000000000000000000000037",
            "0x00000000000000000000000000000000000000000000000000000000000000c0",
            "0x00000000000000000000000067bfd0b42f5f39710b4e90301289f81eab6315da"
          ],
          "data": "0x000000000000000000000000000000000000000000000000000000021455c97f0000000000000000000000000000000000000000000000000000000000000001",
          "blockHash": "0x4a8c5f259cabddde59ec251a48a540c21887b13df6b256f6fcf8df007540e900",
          "blockNumber": "0x165e39a",
          "transactionHash": "0x9655a682a9dd175c064c4df836a011c7c4ecac8b1ba8852179ea869d9b17d5ae",
          "transactionIndex": "0x23",
          "logIndex": "0x8b",
          "removed": false
        },
        {
          "address": "0x2e180501d3d68241dd0318c68fd9be0af1d519a1",
          "topics": [
            "0x71bf4dbc735bb7b341dcea9720315ff68bb3c8f5548eed9966947402c6187601",
            "0x000000000000000000000000000000000000000000000000000000000000003d",
            "0x00000000000000000000000000000000000000000000000000000000000000c0",
            "0x00000000000000000000000012be474d127757d0a6a36631294f8ffbcdef44f8"
          ],
          "data": "0x000000000000000000000000000000000000000000000000000000016ed0d7780000000000000000000000000000000000000000000000000000000000000001",
          "blockHash": "0x4a8c5f259cabddde59ec251a48a540c21887b13df6b256f6fcf8df007540e900",
          "blockNumber": "0x165e39a",
          "transactionHash": "0x9655a682a9dd175c064c4df836a011c7c4ecac8b1ba8852179ea869d9b17d5ae",
          "transactionIndex": "0x23",
          "logIndex": "0x8c",
          "removed": false
        }
      ],
      "logsBloom": "0x00000000200000000080000000000000000410000000000000000000000000000000000000000000000003000000000000000000000000200000020000000000200000000000000000000000000000000000000000000000000000040000000020000040000000000000000000000000000000000000000000800000000000000000000000000000000000000000000000000000000000000000000004001000008000000000280000000080000000000000000000000000000040000000000000000000020000000000000100000000000000000000000000000000000000000000020000000000000000000000000000000000100000000000000000000000",
      "type": "0x2",
      "transactionHash": "0x9655a682a9dd175c064c4df836a011c7c4ecac8b1ba8852179ea869d9b17d5ae",
      "transactionIndex": "0x23",
      "blockHash": "0x4a8c5f259cabddde59ec251a48a540c21887b13df6b256f6fcf8df007540e900",
      "blockNumber": "0x165e39a",
      "gasUsed": "0x4cc53",
      "effectiveGasPrice": "0xd573e",
      "from": "0x7956c2c1b85f5ac14c2c537f669b65991428e268",
      "to": "0x2e180501d3d68241dd0318c68fd9be0af1d519a1",
      "contractAddress": null,
      "l1BaseFeeScalar": "0x44d",
      "l1BlobBaseFee": "0x1",
      "l1BlobBaseFeeScalar": "0xa118b",
      "l1Fee": "0x5cbbc5",
      "l1GasPrice": "0x34a41c",
      "l1GasUsed": "0x640"
    },
    {
      "status": "0x1",
      "cumulativeGasUsed": "0xf8207",
      "logs": [],
      "logsBloom": "0x00000000000000000000000000000000000000000000000000000000000000000000000000000000000000000000000000000000000000000000000000000000000000000000000000000000000000000000000000000000000000000000000000000000000000000000000000000000000000000000000000000000000000000000000000000000000000000000000000000000000000000000000000000000000000000000000000000000000000000000000000000000000000000000000000000000000000000000000000000000000000000000000000000000000000000000000000000000000000000000000000000000000000000000000000000000",
      "type": "0x2",
      "transactionHash": "0x16bcbf9141162b09279ff99cc21d5a03370a91b8446d55015969163970353bf1",
      "transactionIndex": "0x5",
      "blockHash": "0x98cf4f3f593eec7a1b378cb94f16241a9b0475665c747fd160cb16f54e5c79ba",
      "blockNumber": "0x165e39c",
      "gasUsed": "0xae48",
      "effectiveGasPrice": "0xd573d",
      "from": "0x4e5dc9df946500b07e9c66e4dd29bf9cd062002b",
      "to": "0x2e180501d3d68241dd0318c68fd9be0af1d519a1",
      "contractAddress": null,
      "l1BaseFeeScalar": "0x44d",
      "l1BlobBaseFee": "0x1",
      "l1BlobBaseFeeScalar": "0xa118b",
      "l1Fee": "0x5e3c5c",
      "l1GasPrice": "0x32b795",
      "l1GasUsed": "0x697"
    },
    {
      "status": "0x1",
      "cumulativeGasUsed": "0x5985bf",
      "logs": [
        {
          "address": "0x036cbd53842c5426634e7929541ec2318f3dcf7e",
          "topics": [
            "0xddf252ad1be2c89b69c2b068fc378daa952ba7f163c4a11628f55a4df523b3ef",
            "0x0000000000000000000000002e180501d3d68241dd0318c68fd9be0af1d519a1",
            "0x0000000000000000000000004e5dc9df946500b07e9c66e4dd29bf9cd062002b"
          ],
          "data": "0x00000000000000000000000000000000000000000000000000000000001e8480",
          "blockHash": "0x6a9b9003b71f3d5b0fabfa746141de79413cf5cf3820d1418e2870b3525ef31d",
          "blockNumber": "0x165e39e",
          "transactionHash": "0x5361109baa79c6fb1479c0b8812004bfe32e2d01db23c9044990fed123e3bc3c",
          "transactionIndex": "0xf",
          "logIndex": "0x46",
          "removed": false
        },
        {
          "address": "0x2e180501d3d68241dd0318c68fd9be0af1d519a1",
          "topics": [
            "0x160fe0cc604b665554dd642ca246d28d4e9158d16008da789ab5b6462f594777",
            "0x0000000000000000000000004e5dc9df946500b07e9c66e4dd29bf9cd062002b"
          ],
          "data": "0x00000000000000000000000000000000000000000000000000000000001e84800000000000000000000000000000000000000000000000000000000000000000",
          "blockHash": "0x6a9b9003b71f3d5b0fabfa746141de79413cf5cf3820d1418e2870b3525ef31d",
          "blockNumber": "0x165e39e",
          "transactionHash": "0x5361109baa79c6fb1479c0b8812004bfe32e2d01db23c9044990fed123e3bc3c",
          "transactionIndex": "0xf",
          "logIndex": "0x47",
          "removed": false
        }
      ],
      "logsBloom": "0x00000000040000000000000000000000800010000000000000000000000000000000000000000000000001000000000000000000000000010000000000000000000000000000000000000008000000000000000000000000000000000000000800000000010000000000000000000000000000000000000000000010000000000000000000080000804000000000000000000000000000000000000000000000000000000000000000000000000000000000000000000000000000000000000000010002000000000000000000000000000000010000800000000000000000000000020000000000000000000020000000000000000000000000000000000000",
      "type": "0x2",
      "transactionHash": "0x5361109baa79c6fb1479c0b8812004bfe32e2d01db23c9044990fed123e3bc3c",
      "transactionIndex": "0xf",
      "blockHash": "0x6a9b9003b71f3d5b0fabfa746141de79413cf5cf3820d1418e2870b3525ef31d",
      "blockNumber": "0x165e39e",
      "gasUsed": "0xd4b5",
      "effectiveGasPrice": "0xd5736",
      "from": "0x4e5dc9df946500b07e9c66e4dd29bf9cd062002b",
      "to": "0x2e180501d3d68241dd0318c68fd9be0af1d519a1",
      "contractAddress": null,
      "l1BaseFeeScalar": "0x44d",
      "l1BlobBaseFee": "0x1",
      "l1BlobBaseFeeScalar": "0xa118b",
      "l1Fee": "0x595822",
      "l1GasPrice": "0x32b795",
      "l1GasUsed": "0x640"
    },
    {
      "status": "0x1",
      "cumulativeGasUsed": "0x797afd",
      "logs": [],
      "logsBloom": "0x00000000000000000000000000000000000000000000000000000000000000000000000000000000000000000000000000000000000000000000000000000000000000000000000000000000000000000000000000000000000000000000000000000000000000000000000000000000000000000000000000000000000000000000000000000000000000000000000000000000000000000000000000000000000000000000000000000000000000000000000000000000000000000000000000000000000000000000000000000000000000000000000000000000000000000000000000000000000000000000000000000000000000000000000000000000",
      "type": "0x2",
      "transactionHash": "0xbb4dd2cd8749f51ce431c0cb2fb81ecdf781f05b8d0d1367ed8e7cf4ee5c66d3",
      "transactionIndex": "0x20",
      "blockHash": "0x08664e8c40cb0d74c5ea0964e8d054124d5bafa7d673b5ea03dc3d54506904a5",
      "blockNumber": "0x165e3a0",
      "gasUsed": "0xae48",
      "effectiveGasPrice": "0xd5732",
      "from": "0x67bfd0b42f5f39710b4e90301289f81eab6315da",
      "to": "0x2e180501d3d68241dd0318c68fd9be0af1d519a1",
      "contractAddress": null,
      "l1BaseFeeScalar": "0x44d",
      "l1BlobBaseFee": "0x1",
      "l1BlobBaseFeeScalar": "0xa118b",
      "l1Fee": "0x5d7d09",
      "l1GasPrice": "0x32b795",
      "l1GasUsed": "0x68a"
    },
    {
      "status": "0x1",
      "cumulativeGasUsed": "0x2653a9",
      "logs": [
        {
          "address": "0x036cbd53842c5426634e7929541ec2318f3dcf7e",
          "topics": [
            "0xddf252ad1be2c89b69c2b068fc378daa952ba7f163c4a11628f55a4df523b3ef",
            "0x0000000000000000000000002e180501d3d68241dd0318c68fd9be0af1d519a1",
            "0x00000000000000000000000067bfd0b42f5f39710b4e90301289f81eab6315da"
          ],
          "data": "0x00000000000000000000000000000000000000000000000000000000001e8480",
          "blockHash": "0xcbfff6aa491ecd8a1012cfcc0a26ea6c539dd47f2e0e8b50eb209ec62b05acaf",
          "blockNumber": "0x165e3a2",
          "transactionHash": "0x30dc50a571948fa49d346df2a63fc9031edb3f7722f27fd5bef97aa9207a6062",
          "transactionIndex": "0x10",
          "logIndex": "0x1d",
          "removed": false
        },
        {
          "address": "0x2e180501d3d68241dd0318c68fd9be0af1d519a1",
          "topics": [
            "0x160fe0cc604b665554dd642ca246d28d4e9158d16008da789ab5b6462f594777",
            "0x00000000000000000000000067bfd0b42f5f39710b4e90301289f81eab6315da"
          ],
          "data": "0x00000000000000000000000000000000000000000000000000000000001e84800000000000000000000000000000000000000000000000000000000000000000",
          "blockHash": "0xcbfff6aa491ecd8a1012cfcc0a26ea6c539dd47f2e0e8b50eb209ec62b05acaf",
          "blockNumber": "0x165e3a2",
          "transactionHash": "0x30dc50a571948fa49d346df2a63fc9031edb3f7722f27fd5bef97aa9207a6062",
          "transactionIndex": "0x10",
          "logIndex": "0x1e",
          "removed": false
        }
      ],
      "logsBloom": "0x00000000040000000080000000000000800010000000000000000000000000000000000000000000000001000000000000000000000000010000000000000000000000000000000000000008000000000000000000000000000000000000000800000000010000000000000000000000000000000000000000000010000000000000000000080000800000000000000000000000000000000000000000000000000000000000280000000000000000000000000000000000000000000000000000000002000000000000000000000000000000010000000000000000000000000000020000000000000000000020000000000000000000000000000000000000",
      "type": "0x2",
      "transactionHash": "0x30dc50a571948fa49d346df2a63fc9031edb3f7722f27fd5bef97aa9207a6062",
      "transactionIndex": "0x10",
      "blockHash": "0xcbfff6aa491ecd8a1012cfcc0a26ea6c539dd47f2e0e8b50eb209ec62b05acaf",
      "blockNumber": "0x165e3a2",
      "gasUsed": "0xd4b5",
      "effectiveGasPrice": "0xd572d",
      "from": "0x67bfd0b42f5f39710b4e90301289f81eab6315da",
      "to": "0x2e180501d3d68241dd0318c68fd9be0af1d519a1",
      "contractAddress": null,
      "l1BaseFeeScalar": "0x44d",
      "l1BlobBaseFee": "0x1",
      "l1BlobBaseFeeScalar": "0xa118b",
      "l1Fee": "0x58140c",
      "l1GasPrice": "0x31ff9c",
      "l1GasUsed": "0x640"
    },
    {
      "status": "0x1",
      "cumulativeGasUsed": "0x1a42ee",
      "logs": [
        {
          "address": "0xa373482b473e33b96412a6c0ca8b847e6bbb4d0d",
          "topics": [
            "0xddf252ad1be2c89b69c2b068fc378daa952ba7f163c4a11628f55a4df523b3ef",
            "0x0000000000000000000000002e180501d3d68241dd0318c68fd9be0af1d519a1",
            "0x00000000000000000000000067bfd0b42f5f39710b4e90301289f81eab6315da"
          ],
          "data": "0x000000000000000000000000000000000000000000000000000000021455c97f",
          "blockHash": "0x655dabe31f3e9e9716cb0b7e809c258674bd511dcc6a8cd010b2f39a412825f7",
          "blockNumber": "0x165e3a4",
          "transactionHash": "0xce80564b4653ed7e5926f185b081f565e6cd18da4c78af0ec491205a4e16c0ca",
          "transactionIndex": "0x4",
          "logIndex": "0x0",
          "removed": false
        },
        {
          "address": "0x2e180501d3d68241dd0318c68fd9be0af1d519a1",
          "topics": [
            "0x160fe0cc604b665554dd642ca246d28d4e9158d16008da789ab5b6462f594777",
            "0x00000000000000000000000067bfd0b42f5f39710b4e90301289f81eab6315da"
          ],
          "data": "0x000000000000000000000000000000000000000000000000000000021455c97f0000000000000000000000000000000000000000000000000000000000000001",
          "blockHash": "0x655dabe31f3e9e9716cb0b7e809c258674bd511dcc6a8cd010b2f39a412825f7",
          "blockNumber": "0x165e3a4",
          "transactionHash": "0xce80564b4653ed7e5926f185b081f565e6cd18da4c78af0ec491205a4e16c0ca",
          "transactionIndex": "0x4",
          "logIndex": "0x1",
          "removed": false
        }
      ],
      "logsBloom": "0x00000000000000000080000000000000800010000000000000000000000000000000000000000000000001000000000000000000000000010000000000000000000000000000000000000008000000000000000000200000000000000000000000000000010000000000000000000000000000000000000000000010000000000000000000081000800000000000000000000000000000000000000000000000000000000000280000000000000000000000000000000000000000000000000000000002000000000000000000000000000000010000000000100000000000000000020000000000000000000000000000000000000000000000000000000000",
      "type": "0x2",
      "transactionHash": "0xce80564b4653ed7e5926f185b081f565e6cd18da4c78af0ec491205a4e16c0ca",
      "transactionIndex": "0x4",
      "blockHash": "0x655dabe31f3e9e9716cb0b7e809c258674bd511dcc6a8cd010b2f39a412825f7",
      "blockNumber": "0x165e3a4",
      "gasUsed": "0xa7ab",
      "effectiveGasPrice": "0xd572e",
      "from": "0x67bfd0b42f5f39710b4e90301289f81eab6315da",
      "to": "0x2e180501d3d68241dd0318c68fd9be0af1d519a1",
      "contractAddress": null,
      "l1BaseFeeScalar": "0x44d",
      "l1BlobBaseFee": "0x1",
      "l1BlobBaseFeeScalar": "0xa118b",
      "l1Fee": "0x58140c",
      "l1GasPrice": "0x31ff9c",
      "l1GasUsed": "0x640"
    },
    {
      "status": "0x1",
      "cumulativeGasUsed": "0x39ddec",
      "logs": [],
      "logsBloom": "0x00000000000000000000000000000000000000000000000000000000000000000000000000000000000000000000000000000000000000000000000000000000000000000000000000000000000000000000000000000000000000000000000000000000000000000000000000000000000000000000000000000000000000000000000000000000000000000000000000000000000000000000000000000000000000000000000000000000000000000000000000000000000000000000000000000000000000000000000000000000000000000000000000000000000000000000000000000000000000000000000000000000000000000000000000000000",
      "type": "0x2",
      "transactionHash": "0x74bfb3e9ef58b5e9e55f284553088669c978b8cf357599f934baeab8ab48f2f6",
      "transactionIndex": "0x12",
      "blockHash": "0x079994d6708096b539728d0d0a4de94f6062051c31a3df846df9eb3e7f0744b7",
      "blockNumber": "0x165e3a6",
      "gasUsed": "0xae48",
      "effectiveGasPrice": "0xd572c",
      "from": "0x12be474d127757d0a6a36631294f8ffbcdef44f8",
      "to": "0x2e180501d3d68241dd0318c68fd9be0af1d519a1",
      "contractAddress": null,
      "l1BaseFeeScalar": "0x44d",
      "l1BlobBaseFee": "0x1",
      "l1BlobBaseFeeScalar": "0xa118b",
      "l1Fee": "0x593775",
      "l1GasPrice": "0x31ff9c",
      "l1GasUsed": "0x654"
    },
    {
      "status": "0x1",
      "cumulativeGasUsed": "0x80e86c",
      "logs": [
        {
          "address": "0x036cbd53842c5426634e7929541ec2318f3dcf7e",
          "topics": [
            "0xddf252ad1be2c89b69c2b068fc378daa952ba7f163c4a11628f55a4df523b3ef",
            "0x0000000000000000000000002e180501d3d68241dd0318c68fd9be0af1d519a1",
            "0x00000000000000000000000012be474d127757d0a6a36631294f8ffbcdef44f8"
          ],
          "data": "0x00000000000000000000000000000000000000000000000000000000002dc6c0",
          "blockHash": "0x38b029c5f96b80c8e811bd9faee36dd6a0760cdece626ed9b6502f50f288557f",
          "blockNumber": "0x165e3a7",
          "transactionHash": "0x079e4ca29e23de22a3e27a8e5d87e2a8809692c3e963965ca0e55b8968cafa2d",
          "transactionIndex": "0x22",
          "logIndex": "0xc1",
          "removed": false
        },
        {
          "address": "0x2e180501d3d68241dd0318c68fd9be0af1d519a1",
          "topics": [
            "0x160fe0cc604b665554dd642ca246d28d4e9158d16008da789ab5b6462f594777",
            "0x00000000000000000000000012be474d127757d0a6a36631294f8ffbcdef44f8"
          ],
          "data": "0x00000000000000000000000000000000000000000000000000000000002dc6c00000000000000000000000000000000000000000000000000000000000000000",
          "blockHash": "0x38b029c5f96b80c8e811bd9faee36dd6a0760cdece626ed9b6502f50f288557f",
          "blockNumber": "0x165e3a7",
          "transactionHash": "0x079e4ca29e23de22a3e27a8e5d87e2a8809692c3e963965ca0e55b8968cafa2d",
          "transactionIndex": "0x22",
          "logIndex": "0xc2",
          "removed": false
        }
      ],
      "logsBloom": "0x00000000040000000000000000000000800010000000000000000000000000000000000000000000000001000000000000000000000000010000000000000000000000000000000000000008000000000000000000000000000000000000000800000000010000000000000000000000000000000000000000800010000000000000000000080000800000000000000000000000000000000000000000000000008000000000000000000000000000000000000000000000000000000000000000000002000000000000000100000000000000010000000000000000000000000000020000000000000000000020000000000000000000000000000000000000",
      "type": "0x2",
      "transactionHash": "0x079e4ca29e23de22a3e27a8e5d87e2a8809692c3e963965ca0e55b8968cafa2d",
      "transactionIndex": "0x22",
      "blockHash": "0x38b029c5f96b80c8e811bd9faee36dd6a0760cdece626ed9b6502f50f288557f",
      "blockNumber": "0x165e3a7",
      "gasUsed": "0xd4b5",
      "effectiveGasPrice": "0xd5728",
      "from": "0x12be474d127757d0a6a36631294f8ffbcdef44f8",
      "to": "0x2e180501d3d68241dd0318c68fd9be0af1d519a1",
      "contractAddress": null,
      "l1BaseFeeScalar": "0x44d",
      "l1BlobBaseFee": "0x1",
      "l1BlobBaseFeeScalar": "0xa118b",
      "l1Fee": "0x58140c",
      "l1GasPrice": "0x31ff9c",
      "l1GasUsed": "0x640"
    },
    {
      "status": "0x1",
      "cumulativeGasUsed": "0x1ad567",
      "logs": [
        {
          "address": "0xa373482b473e33b96412a6c0ca8b847e6bbb4d0d",
          "topics": [
            "0xddf252ad1be2c89b69c2b068fc378daa952ba7f163c4a11628f55a4df523b3ef",
            "0x0000000000000000000000002e180501d3d68241dd0318c68fd9be0af1d519a1",
            "0x00000000000000000000000012be474d127757d0a6a36631294f8ffbcdef44f8"
          ],
          "data": "0x000000000000000000000000000000000000000000000000000000016ed0d778",
          "blockHash": "0xe62df002f7323f5f9523d6da990126cffe877f0d8e568594d1be2c2f67882b1b",
          "blockNumber": "0x165e3a9",
          "transactionHash": "0xc246c64819a4c5423d86a706001cc928f62b21738e344c3f6e106819fad4fc46",
          "transactionIndex": "0xa",
          "logIndex": "0x25",
          "removed": false
        },
        {
          "address": "0x2e180501d3d68241dd0318c68fd9be0af1d519a1",
          "topics": [
            "0x160fe0cc604b665554dd642ca246d28d4e9158d16008da789ab5b6462f594777",
            "0x00000000000000000000000012be474d127757d0a6a36631294f8ffbcdef44f8"
          ],
          "data": "0x000000000000000000000000000000000000000000000000000000016ed0d7780000000000000000000000000000000000000000000000000000000000000001",
          "blockHash": "0xe62df002f7323f5f9523d6da990126cffe877f0d8e568594d1be2c2f67882b1b",
          "blockNumber": "0x165e3a9",
          "transactionHash": "0xc246c64819a4c5423d86a706001cc928f62b21738e344c3f6e106819fad4fc46",
          "transactionIndex": "0xa",
          "logIndex": "0x26",
          "removed": false
        }
      ],
      "logsBloom": "0x00000000000000000000000000000000800010000000000000000000000000000000000000000000000001000000000000000000000000010000000000000000000000000000000000000008000000000000000000200000000000000000000000000000010000000000000000000000000000000000000000800010000000000000000000081000800000000000000000000000000000000000000000000000008000000000000000000000000000000000000000000000000000000000000000000002000000000000000100000000000000010000000000100000000000000000020000000000000000000000000000000000000000000000000000000000",
      "type": "0x2",
      "transactionHash": "0xc246c64819a4c5423d86a706001cc928f62b21738e344c3f6e106819fad4fc46",
      "transactionIndex": "0xa",
      "blockHash": "0xe62df002f7323f5f9523d6da990126cffe877f0d8e568594d1be2c2f67882b1b",
      "blockNumber": "0x165e3a9",
      "gasUsed": "0xa7ab",
      "effectiveGasPrice": "0xd5721",
      "from": "0x12be474d127757d0a6a36631294f8ffbcdef44f8",
      "to": "0x2e180501d3d68241dd0318c68fd9be0af1d519a1",
      "contractAddress": null,
      "l1BaseFeeScalar": "0x44d",
      "l1BlobBaseFee": "0x1",
      "l1BlobBaseFeeScalar": "0xa118b",
      "l1Fee": "0x535494",
      "l1GasPrice": "0x2f4da1",
      "l1GasUsed": "0x640"
    }
  ],
  "libraries": [],
  "pending": [],
  "returns": {},
  "timestamp": 1742677556,
  "chain": 84532,
  "commit": "c2b0c0b"
}