{
  "transactions": [
    {
      "hash": "0x5a8741d8114c75c453d03812a2e768cf3950272fe8e3496775d92fe1c4d36260",
      "transactionType": "CALL",
      "contractName": "BettingContract",
      "contractAddress": "0xe3092b0feed0eedcd941b98b006b227c3ee924c4",
      "function": "gradeBet(uint256,uint256)",
      "arguments": ["364", "0"],
      "transaction": {
        "from": "0x7956c2c1b85f5ac14c2c537f669b65991428e268",
        "to": "0xe3092b0feed0eedcd941b98b006b227c3ee924c4",
        "gas": "0x2a1fb",
        "value": "0x0",
        "input": "0xff0beb62000000000000000000000000000000000000000000000000000000000000016c0000000000000000000000000000000000000000000000000000000000000000",
        "nonce": "0xdff",
        "chainId": "0x14a34"
      },
      "additionalContracts": [],
      "isFixedGasLimit": false
    }
  ],
  "receipts": [
    {
      "status": "0x1",
      "cumulativeGasUsed": "0x5b3fd7",
      "logs": [
        {
          "address": "0xe3092b0feed0eedcd941b98b006b227c3ee924c4",
          "topics": [
            "0xaf7faf29a251efa1bcf2b47dab1a72baa0906a2e4ff957e6cb6d4f7c642161ab",
            "0x000000000000000000000000000000000000000000000000000000000000016c"
          ],
          "data": "0x0000000000000000000000000000000000000000000000000000000000000000",
          "blockHash": "0x965d4e7774c8a946fa9653f86cbe7cf9c8de151259789a2fccb50e35562e6129",
          "blockNumber": "0x1720b62",
          "transactionHash": "0x5a8741d8114c75c453d03812a2e768cf3950272fe8e3496775d92fe1c4d36260",
          "transactionIndex": "0x13",
          "logIndex": "0xa1",
          "removed": false
        },
        {
          "address": "0xe3092b0feed0eedcd941b98b006b227c3ee924c4",
          "topics": [
            "0x71bf4dbc735bb7b341dcea9720315ff68bb3c8f5548eed9966947402c6187601",
            "0x0000000000000000000000000000000000000000000000000000000000000039",
            "0x000000000000000000000000000000000000000000000000000000000000016c",
            "0x00000000000000000000000067bfd0b42f5f39710b4e90301289f81eab6315da"
          ],
          "data": "0x0000000000000000000000000000000000000000000000000000001a9b7abded0000000000000000000000000000000000000000000000000000000000000001",
          "blockHash": "0x965d4e7774c8a946fa9653f86cbe7cf9c8de151259789a2fccb50e35562e6129",
          "blockNumber": "0x1720b62",
          "transactionHash": "0x5a8741d8114c75c453d03812a2e768cf3950272fe8e3496775d92fe1c4d36260",
          "transactionIndex": "0x13",
          "logIndex": "0xa2",
          "removed": false
        },
        {
          "address": "0xe3092b0feed0eedcd941b98b006b227c3ee924c4",
          "topics": [
            "0x71bf4dbc735bb7b341dcea9720315ff68bb3c8f5548eed9966947402c6187601",
            "0x0000000000000000000000000000000000000000000000000000000000000040",
            "0x000000000000000000000000000000000000000000000000000000000000016c",
            "0x0000000000000000000000007956c2c1b85f5ac14c2c537f669b65991428e268"
          ],
          "data": "0x00000000000000000000000000000000000000000000000000000003d875c9630000000000000000000000000000000000000000000000000000000000000001",
          "blockHash": "0x965d4e7774c8a946fa9653f86cbe7cf9c8de151259789a2fccb50e35562e6129",
          "blockNumber": "0x1720b62",
          "transactionHash": "0x5a8741d8114c75c453d03812a2e768cf3950272fe8e3496775d92fe1c4d36260",
          "transactionIndex": "0x13",
          "logIndex": "0xa3",
          "removed": false
        }
      ],
      "logsBloom": "0x00000000000000000082000000002000000400000000000000000000000000000080000100000000000000020000000000000000000000200000000000000000200000400000000100008000000080000000000000000000100080000000000000000000000000000000000000000000000000004000000000000000004000000000000000000000040000000000000000000000000000000000000004000000000000000000280000000000000000000000000000000000000040000000000000000000020000000000000000000000000000000000000000000000000000000000000000000000000000000000000001000000000000000000000000000000",
      "type": "0x2",
      "transactionHash": "0x5a8741d8114c75c453d03812a2e768cf3950272fe8e3496775d92fe1c4d36260",
      "transactionIndex": "0x13",
      "blockHash": "0x965d4e7774c8a946fa9653f86cbe7cf9c8de151259789a2fccb50e35562e6129",
      "blockNumber": "0x1720b62",
      "gasUsed": "0x1e7f4",
      "effectiveGasPrice": "0xe2630",
      "from": "0x7956c2c1b85f5ac14c2c537f669b65991428e268",
      "to": "0xe3092b0feed0eedcd941b98b006b227c3ee924c4",
      "contractAddress": null,
      "l1BaseFeeScalar": "0x44d",
      "l1BlobBaseFee": "0x3",
      "l1BlobBaseFeeScalar": "0xa118b",
      "l1Fee": "0x2c44a2224",
      "l1GasPrice": "0x192125d59",
      "l1GasUsed": "0x640"
    }
  ],
  "libraries": [],
  "pending": [],
  "returns": {},
  "timestamp": 1744270753,
  "chain": 84532,
  "commit": "725af9a"
}
