{
  "transactions": [
    {
      "hash": "0x127d06dbeff2c275f794acea958a8e5a4357c1917af80bc087cbfa90f08bf0fe",
      "transactionType": "CALL",
      "contractName": null,
      "contractAddress": "0xa373482b473e33b96412a6c0ca8b847e6bbb4d0d",
      "function": "mint(address,uint256)",
      "arguments": [
        "0x4E5dC9dF946500b07E9c66e4DD29bf9CD062002B",
        "10000"
      ],
      "transaction": {
        "from": "0x7956c2c1b85f5ac14c2c537f669b65991428e268",
        "to": "0xa373482b473e33b96412a6c0ca8b847e6bbb4d0d",
        "gas": "0xc253",
        "value": "0x0",
        "input": "0x40c10f190000000000000000000000004e5dc9df946500b07e9c66e4dd29bf9cd062002b0000000000000000000000000000000000000000000000000000000000002710",
        "nonce": "0x1b5",
        "chainId": "0x14a34"
      },
      "additionalContracts": [],
      "isFixedGasLimit": false
    },
    {
      "hash": "0xf5e4ad555bda9efcc42c17745b2707e44881f224ebb3dbe73ec6eaba018cacb0",
      "transactionType": "CALL",
      "contractName": null,
      "contractAddress": "0xa373482b473e33b96412a6c0ca8b847e6bbb4d0d",
      "function": "mint(address,uint256)",
      "arguments": [
        "0x67bFd0B42F5f39710B4E90301289F81Eab6315dA",
        "10000"
      ],
      "transaction": {
        "from": "0x7956c2c1b85f5ac14c2c537f669b65991428e268",
        "to": "0xa373482b473e33b96412a6c0ca8b847e6bbb4d0d",
        "gas": "0xc273",
        "value": "0x0",
        "input": "0x40c10f1900000000000000000000000067bfd0b42f5f39710b4e90301289f81eab6315da0000000000000000000000000000000000000000000000000000000000002710",
        "nonce": "0x1b6",
        "chainId": "0x14a34"
      },
      "additionalContracts": [],
      "isFixedGasLimit": false
    },
    {
      "hash": "0x8d02dfd8b8b414ea6bbe4f3d7b4631b69957bbc44dafa7ddfe79e7dd5fbfd8ef",
      "transactionType": "CALL",
      "contractName": null,
      "contractAddress": "0xa373482b473e33b96412a6c0ca8b847e6bbb4d0d",
      "function": "mint(address,uint256)",
      "arguments": [
        "0x12BE474D127757d0a6a36631294F8FfBCdeF44F8",
        "10000"
      ],
      "transaction": {
        "from": "0x7956c2c1b85f5ac14c2c537f669b65991428e268",
        "to": "0xa373482b473e33b96412a6c0ca8b847e6bbb4d0d",
        "gas": "0xc273",
        "value": "0x0",
        "input": "0x40c10f1900000000000000000000000012be474d127757d0a6a36631294f8ffbcdef44f80000000000000000000000000000000000000000000000000000000000002710",
        "nonce": "0x1b7",
        "chainId": "0x14a34"
      },
      "additionalContracts": [],
      "isFixedGasLimit": false
    },
    {
      "hash": "0xaca8c2cd43be09be1506a740f68ab55022035d98b53ac3733fa72a68ff7b8561",
      "transactionType": "CALL",
      "contractName": null,
      "contractAddress": "0x2e180501d3d68241dd0318c68fd9be0af1d519a1",
      "function": "createPool((string,string[2],uint40,string,string,string))",
      "arguments": [
        "(Will I PARDON MYSELF? The RADICAL LEFT is TERRIFIED of this!, [YES, NO], 1742679992, This pool will close if Trump posts that he will pardon himself, Grade YES if Trump posts about pardoning himself, NO otherwise, 114197092205719557)"
      ],
      "transaction": {
        "from": "0x7956c2c1b85f5ac14c2c537f669b65991428e268",
        "to": "0x2e180501d3d68241dd0318c68fd9be0af1d519a1",
        "gas": "0x94c45",
        "value": "0x0",
        "input": "0x1a5c3706000000000000000000000000000000000000000000000000000000000000002000000000000000000000000000000000000000000000000000000000000000c000000000000000000000000000000000000000000000000000000000000001200000000000000000000000000000000000000000000000000000000067df2fb800000000000000000000000000000000000000000000000000000000000001e0000000000000000000000000000000000000000000000000000000000000024000000000000000000000000000000000000000000000000000000000000002a0000000000000000000000000000000000000000000000000000000000000003c57696c6c204920504152444f4e204d5953454c463f20546865205241444943414c204c45465420697320544552524946494544206f6620746869732100000000000000000000000000000000000000000000000000000000000000000000004000000000000000000000000000000000000000000000000000000000000000800000000000000000000000000000000000000000000000000000000000000003594553000000000000000000000000000000000000000000000000000000000000000000000000000000000000000000000000000000000000000000000000024e4f000000000000000000000000000000000000000000000000000000000000000000000000000000000000000000000000000000000000000000000000003f5468697320706f6f6c2077696c6c20636c6f7365206966205472756d7020706f73747320746861742068652077696c6c20706172646f6e2068696d73656c6600000000000000000000000000000000000000000000000000000000000000003e477261646520594553206966205472756d7020706f7374732061626f757420706172646f6e696e672068696d73656c662c204e4f206f7468657277697365000000000000000000000000000000000000000000000000000000000000000000123131343139373039323230353731393535370000000000000000000000000000",
        "nonce": "0x1b8",
        "chainId": "0x14a34"
      },
      "additionalContracts": [],
      "isFixedGasLimit": false
    },
    {
      "hash": "0x9c7b77d3b3b0a18dddfcf158962a00713e70cb57485a56debb128398b1ce22ee",
      "transactionType": "CALL",
      "contractName": null,
      "contractAddress": "0x2e180501d3d68241dd0318c68fd9be0af1d519a1",
      "function": "createPool((string,string[2],uint40,string,string,string))",
      "arguments": [
        "(Will I FIRE THE FBI DIRECTOR on day one? The FBI has been WEAPONIZED against us!, [YES, NO], 1742679992, This pool will close if Trump makes a statement about the FBI Director, Grade YES if Trump says he will fire the FBI Director, NO otherwise, 114200175082806882)"
      ],
      "transaction": {
        "from": "0x7956c2c1b85f5ac14c2c537f669b65991428e268",
        "to": "0x2e180501d3d68241dd0318c68fd9be0af1d519a1",
        "gas": "0xad159",
        "value": "0x0",
        "input": "0x1a5c3706000000000000000000000000000000000000000000000000000000000000002000000000000000000000000000000000000000000000000000000000000000c000000000000000000000000000000000000000000000000000000000000001400000000000000000000000000000000000000000000000000000000067df2fb8000000000000000000000000000000000000000000000000000000000000020000000000000000000000000000000000000000000000000000000000000002800000000000000000000000000000000000000000000000000000000000000300000000000000000000000000000000000000000000000000000000000000005057696c6c204920464952452054484520464249204449524543544f52206f6e20646179206f6e653f205468652046424920686173206265656e20574541504f4e495a454420616761696e73742075732100000000000000000000000000000000000000000000000000000000000000000000000000000000000000000000004000000000000000000000000000000000000000000000000000000000000000800000000000000000000000000000000000000000000000000000000000000003594553000000000000000000000000000000000000000000000000000000000000000000000000000000000000000000000000000000000000000000000000024e4f00000000000000000000000000000000000000000000000000000000000000000000000000000000000000000000000000000000000000000000000000465468697320706f6f6c2077696c6c20636c6f7365206966205472756d70206d616b657320612073746174656d656e742061626f75742074686520464249204469726563746f7200000000000000000000000000000000000000000000000000000000000000000000000000000000000000000000000000000000000000000043477261646520594553206966205472756d7020736179732068652077696c6c20666972652074686520464249204469726563746f722c204e4f206f7468657277697365000000000000000000000000000000000000000000000000000000000000000000000000000000000000000000000000000000000000000000000000123131343230303137353038323830363838320000000000000000000000000000",
        "nonce": "0x1b9",
        "chainId": "0x14a34"
      },
      "additionalContracts": [],
      "isFixedGasLimit": false
    },
    {
      "hash": "0xd3785f28268335af4f1bdc161491982e60fe8862ac17284badb30f120ae6ae1d",
      "transactionType": "CALL",
      "contractName": null,
      "contractAddress": "0x2e180501d3d68241dd0318c68fd9be0af1d519a1",
      "function": "createPool((string,string[2],uint40,string,string,string))",
      "arguments": [
        "(Will I WIN the debate against SLEEPY JOE? Everyone knows I won the last one BIGLY!, [YES, NO], 1742679992, This pool will close after the presidential debate, Grade YES if Trump wins the debate, NO otherwise, 114200313009802638)"
      ],
      "transaction": {
        "from": "0x7956c2c1b85f5ac14c2c537f669b65991428e268",
        "to": "0x2e180501d3d68241dd0318c68fd9be0af1d519a1",
        "gas": "0x9417b",
        "value": "0x0",
        "input": "0x1a5c3706000000000000000000000000000000000000000000000000000000000000002000000000000000000000000000000000000000000000000000000000000000c000000000000000000000000000000000000000000000000000000000000001400000000000000000000000000000000000000000000000000000000067df2fb80000000000000000000000000000000000000000000000000000000000000200000000000000000000000000000000000000000000000000000000000000026000000000000000000000000000000000000000000000000000000000000002c0000000000000000000000000000000000000000000000000000000000000005257696c6c20492057494e207468652064656261746520616761696e737420534c45455059204a4f453f2045766572796f6e65206b6e6f7773204920776f6e20746865206c617374206f6e65204249474c59210000000000000000000000000000000000000000000000000000000000000000000000000000000000000000004000000000000000000000000000000000000000000000000000000000000000800000000000000000000000000000000000000000000000000000000000000003594553000000000000000000000000000000000000000000000000000000000000000000000000000000000000000000000000000000000000000000000000024e4f00000000000000000000000000000000000000000000000000000000000000000000000000000000000000000000000000000000000000000000000000325468697320706f6f6c2077696c6c20636c6f73652061667465722074686520707265736964656e7469616c2064656261746500000000000000000000000000000000000000000000000000000000000000000000000000000000000000000030477261646520594553206966205472756d702077696e7320746865206465626174652c204e4f206f74686572776973650000000000000000000000000000000000000000000000000000000000000000000000000000000000000000000000123131343230303331333030393830323633380000000000000000000000000000",
        "nonce": "0x1ba",
        "chainId": "0x14a34"
      },
      "additionalContracts": [],
      "isFixedGasLimit": false
    },
    {
      "hash": "0x7a36ff319d3e99c09a96cb85dd5b8a1671c4c78732defdfd851517a8b396bfc9",
      "transactionType": "CALL",
      "contractName": null,
      "contractAddress": "0xa373482b473e33b96412a6c0ca8b847e6bbb4d0d",
      "function": "approve(address,uint256)",
      "arguments": [
        "0x2E180501D3D68241dd0318c68fD9BE0AF1D519a1",
        "21670410001"
      ],
      "transaction": {
        "from": "0x4e5dc9df946500b07e9c66e4dd29bf9cd062002b",
        "to": "0xa373482b473e33b96412a6c0ca8b847e6bbb4d0d",
        "gas": "0x9bbc",
        "value": "0x0",
        "input": "0x095ea7b30000000000000000000000002e180501d3d68241dd0318c68fd9be0af1d519a1000000000000000000000000000000000000000000000000000000050ba83711",
        "nonce": "0x132",
        "chainId": "0x14a34"
      },
      "additionalContracts": [],
      "isFixedGasLimit": false
    },
    {
      "hash": "0x4a6fbf6e648e3e1a3caa2c6105ea43ae6dd70ac884942785fef0809f516f715d",
      "transactionType": "CALL",
      "contractName": null,
      "contractAddress": "0x036cbd53842c5426634e7929541ec2318f3dcf7e",
      "function": "approve(address,uint256)",
      "arguments": [
        "0x2E180501D3D68241dd0318c68fD9BE0AF1D519a1",
        "494662251"
      ],
      "transaction": {
        "from": "0x4e5dc9df946500b07e9c66e4dd29bf9cd062002b",
        "to": "0x036cbd53842c5426634e7929541ec2318f3dcf7e",
        "gas": "0xcee8",
        "value": "0x0",
        "input": "0x095ea7b30000000000000000000000002e180501d3d68241dd0318c68fd9be0af1d519a1000000000000000000000000000000000000000000000000000000001d7bf26b",
        "nonce": "0x133",
        "chainId": "0x14a34"
      },
      "additionalContracts": [],
      "isFixedGasLimit": false
    },
    {
      "hash": "0x561996610d176a24345b3bc67c392509600c58cf0793255d4148c2e5a5d318cc",
      "transactionType": "CALL",
      "contractName": null,
      "contractAddress": "0x2e180501d3d68241dd0318c68fd9be0af1d519a1",
      "function": "placeBet(uint256,uint256,uint256,address,uint8)",
      "arguments": [
        "192",
        "1",
        "6501123000",
        "0x4E5dC9dF946500b07E9c66e4DD29bf9CD062002B",
        "1"
      ],
      "transaction": {
        "from": "0x4e5dc9df946500b07e9c66e4dd29bf9cd062002b",
        "to": "0x2e180501d3d68241dd0318c68fd9be0af1d519a1",
        "gas": "0xb587d",
        "value": "0x0",
        "input": "0x011c4dd900000000000000000000000000000000000000000000000000000000000000c0000000000000000000000000000000000000000000000000000000000000000100000000000000000000000000000000000000000000000000000001837f43b80000000000000000000000004e5dc9df946500b07e9c66e4dd29bf9cd062002b0000000000000000000000000000000000000000000000000000000000000001",
        "nonce": "0x134",
        "chainId": "0x14a34"
      },
      "additionalContracts": [],
      "isFixedGasLimit": false
    },
    {
      "hash": "0x7c0867595e9176604d7cb5c06f9b9f06efa29690142623cf63d3c4a9130bf94b",
      "transactionType": "CALL",
      "contractName": null,
      "contractAddress": "0x2e180501d3d68241dd0318c68fd9be0af1d519a1",
      "function": "placeBet(uint256,uint256,uint256,address,uint8)",
      "arguments": [
        "193",
        "1",
        "6501123000",
        "0x4E5dC9dF946500b07E9c66e4DD29bf9CD062002B",
        "1"
      ],
      "transaction": {
        "from": "0x4e5dc9df946500b07e9c66e4dd29bf9cd062002b",
        "to": "0x2e180501d3d68241dd0318c68fd9be0af1d519a1",
        "gas": "0xb587d",
        "value": "0x0",
        "input": "0x011c4dd900000000000000000000000000000000000000000000000000000000000000c1000000000000000000000000000000000000000000000000000000000000000100000000000000000000000000000000000000000000000000000001837f43b80000000000000000000000004e5dc9df946500b07e9c66e4dd29bf9cd062002b0000000000000000000000000000000000000000000000000000000000000001",
        "nonce": "0x135",
        "chainId": "0x14a34"
      },
      "additionalContracts": [],
      "isFixedGasLimit": false
    },
    {
      "hash": "0x7ca6d6c72555e63b9eaa2ed82e3920c610bb9523bc83743880847163a2231b8e",
      "transactionType": "CALL",
      "contractName": null,
      "contractAddress": "0x2e180501d3d68241dd0318c68fd9be0af1d519a1",
      "function": "placeBet(uint256,uint256,uint256,address,uint8)",
      "arguments": [
        "194",
        "0",
        "6501123000",
        "0x4E5dC9dF946500b07E9c66e4DD29bf9CD062002B",
        "1"
      ],
      "transaction": {
        "from": "0x4e5dc9df946500b07e9c66e4dd29bf9cd062002b",
        "to": "0x2e180501d3d68241dd0318c68fd9be0af1d519a1",
        "gas": "0x9e052",
        "value": "0x0",
        "input": "0x011c4dd900000000000000000000000000000000000000000000000000000000000000c2000000000000000000000000000000000000000000000000000000000000000000000000000000000000000000000000000000000000000000000001837f43b80000000000000000000000004e5dc9df946500b07e9c66e4dd29bf9cd062002b0000000000000000000000000000000000000000000000000000000000000001",
        "nonce": "0x136",
        "chainId": "0x14a34"
      },
      "additionalContracts": [],
      "isFixedGasLimit": false
    },
    {
      "hash": "0x893e998f1b98866aa582337229252146e812369b6ec4b6f4c325dede1bbad33e",
      "transactionType": "CALL",
      "contractName": null,
      "contractAddress": "0x2e180501d3d68241dd0318c68fd9be0af1d519a1",
      "function": "placeBet(uint256,uint256,uint256,address,uint8)",
      "arguments": [
        "192",
        "0",
        "2000000",
        "0x4E5dC9dF946500b07E9c66e4DD29bf9CD062002B",
        "0"
      ],
      "transaction": {
        "from": "0x4e5dc9df946500b07e9c66e4dd29bf9cd062002b",
        "to": "0x2e180501d3d68241dd0318c68fd9be0af1d519a1",
        "gas": "0x974a2",
        "value": "0x0",
        "input": "0x011c4dd900000000000000000000000000000000000000000000000000000000000000c0000000000000000000000000000000000000000000000000000000000000000000000000000000000000000000000000000000000000000000000000001e84800000000000000000000000004e5dc9df946500b07e9c66e4dd29bf9cd062002b0000000000000000000000000000000000000000000000000000000000000000",
        "nonce": "0x137",
        "chainId": "0x14a34"
      },
      "additionalContracts": [],
      "isFixedGasLimit": false
    },
    {
      "hash": "0xb0e3e2fe062737bcdb092a5c1de9a645d5359ee6408426a13fbfe17a1eb3614c",
      "transactionType": "CALL",
      "contractName": null,
      "contractAddress": "0x2e180501d3d68241dd0318c68fd9be0af1d519a1",
      "function": "placeBet(uint256,uint256,uint256,address,uint8)",
      "arguments": [
        "193",
        "0",
        "1000000",
        "0x4E5dC9dF946500b07E9c66e4DD29bf9CD062002B",
        "0"
      ],
      "transaction": {
        "from": "0x4e5dc9df946500b07e9c66e4dd29bf9cd062002b",
        "to": "0x2e180501d3d68241dd0318c68fd9be0af1d519a1",
        "gas": "0x974a2",
        "value": "0x0",
        "input": "0x011c4dd900000000000000000000000000000000000000000000000000000000000000c1000000000000000000000000000000000000000000000000000000000000000000000000000000000000000000000000000000000000000000000000000f42400000000000000000000000004e5dc9df946500b07e9c66e4dd29bf9cd062002b0000000000000000000000000000000000000000000000000000000000000000",
        "nonce": "0x138",
        "chainId": "0x14a34"
      },
      "additionalContracts": [],
      "isFixedGasLimit": false
    },
    {
      "hash": "0x90985e13dd5a58776563af967c7ad587fda698f373fd00ba307300ed13d11266",
      "transactionType": "CALL",
      "contractName": null,
      "contractAddress": "0x2e180501d3d68241dd0318c68fd9be0af1d519a1",
      "function": "placeBet(uint256,uint256,uint256,address,uint8)",
      "arguments": [
        "194",
        "1",
        "2000000",
        "0x4E5dC9dF946500b07E9c66e4DD29bf9CD062002B",
        "0"
      ],
      "transaction": {
        "from": "0x4e5dc9df946500b07e9c66e4dd29bf9cd062002b",
        "to": "0x2e180501d3d68241dd0318c68fd9be0af1d519a1",
        "gas": "0x9c4f6",
        "value": "0x0",
        "input": "0x011c4dd900000000000000000000000000000000000000000000000000000000000000c2000000000000000000000000000000000000000000000000000000000000000100000000000000000000000000000000000000000000000000000000001e84800000000000000000000000004e5dc9df946500b07e9c66e4dd29bf9cd062002b0000000000000000000000000000000000000000000000000000000000000000",
        "nonce": "0x139",
        "chainId": "0x14a34"
      },
      "additionalContracts": [],
      "isFixedGasLimit": false
    },
    {
      "hash": "0x7ec27ebbeef9c31e170709cefebeafb585e3132d103473e85a11dc1b8caa781b",
      "transactionType": "CALL",
      "contractName": null,
      "contractAddress": "0xa373482b473e33b96412a6c0ca8b847e6bbb4d0d",
      "function": "approve(address,uint256)",
      "arguments": [
        "0x2E180501D3D68241dd0318c68fD9BE0AF1D519a1",
        "17210910002"
      ],
      "transaction": {
        "from": "0x67bfd0b42f5f39710b4e90301289f81eab6315da",
        "to": "0xa373482b473e33b96412a6c0ca8b847e6bbb4d0d",
        "gas": "0x9bbc",
        "value": "0x0",
        "input": "0x095ea7b30000000000000000000000002e180501d3d68241dd0318c68fd9be0af1d519a10000000000000000000000000000000000000000000000000000000401d9a532",
        "nonce": "0xb9",
        "chainId": "0x14a34"
      },
      "additionalContracts": [],
      "isFixedGasLimit": false
    },
    {
      "hash": "0x1c6827a15772d72fbe58957998d959dcfd52f7128fcf1cbc764078e18a3665e0",
      "transactionType": "CALL",
      "contractName": null,
      "contractAddress": "0x036cbd53842c5426634e7929541ec2318f3dcf7e",
      "function": "approve(address,uint256)",
      "arguments": [
        "0x2E180501D3D68241dd0318c68fD9BE0AF1D519a1",
        "490000000"
      ],
      "transaction": {
        "from": "0x67bfd0b42f5f39710b4e90301289f81eab6315da",
        "to": "0x036cbd53842c5426634e7929541ec2318f3dcf7e",
        "gas": "0xcee8",
        "value": "0x0",
        "input": "0x095ea7b30000000000000000000000002e180501d3d68241dd0318c68fd9be0af1d519a1000000000000000000000000000000000000000000000000000000001d34ce80",
        "nonce": "0xba",
        "chainId": "0x14a34"
      },
      "additionalContracts": [],
      "isFixedGasLimit": false
    },
    {
      "hash": "0xea7419798a0aa5f20d16ea21b8c93ac67856d16dfbdb767c8f12f36b3f4516cf",
      "transactionType": "CALL",
      "contractName": null,
      "contractAddress": "0x2e180501d3d68241dd0318c68fd9be0af1d519a1",
      "function": "placeBet(uint256,uint256,uint256,address,uint8)",
      "arguments": [
        "192",
        "0",
        "5163273000",
        "0x67bFd0B42F5f39710B4E90301289F81Eab6315dA",
        "1"
      ],
      "transaction": {
        "from": "0x67bfd0b42f5f39710b4e90301289f81eab6315da",
        "to": "0x2e180501d3d68241dd0318c68fd9be0af1d519a1",
        "gas": "0xa137e",
        "value": "0x0",
        "input": "0x011c4dd900000000000000000000000000000000000000000000000000000000000000c000000000000000000000000000000000000000000000000000000000000000000000000000000000000000000000000000000000000000000000000133c14b2800000000000000000000000067bfd0b42f5f39710b4e90301289f81eab6315da0000000000000000000000000000000000000000000000000000000000000001",
        "nonce": "0xbb",
        "chainId": "0x14a34"
      },
      "additionalContracts": [],
      "isFixedGasLimit": false
    },
    {
      "hash": "0x7de886d76d5cdce9d8c93d392417e8f90641e05269c7bec6f5ec00a871bd3dbc",
      "transactionType": "CALL",
      "contractName": null,
      "contractAddress": "0x2e180501d3d68241dd0318c68fd9be0af1d519a1",
      "function": "placeBet(uint256,uint256,uint256,address,uint8)",
      "arguments": [
        "193",
        "1",
        "5163273000",
        "0x67bFd0B42F5f39710B4E90301289F81Eab6315dA",
        "1"
      ],
      "transaction": {
        "from": "0x67bfd0b42f5f39710b4e90301289f81eab6315da",
        "to": "0x2e180501d3d68241dd0318c68fd9be0af1d519a1",
        "gas": "0xa953e",
        "value": "0x0",
        "input": "0x011c4dd900000000000000000000000000000000000000000000000000000000000000c100000000000000000000000000000000000000000000000000000000000000010000000000000000000000000000000000000000000000000000000133c14b2800000000000000000000000067bfd0b42f5f39710b4e90301289f81eab6315da0000000000000000000000000000000000000000000000000000000000000001",
        "nonce": "0xbc",
        "chainId": "0x14a34"
      },
      "additionalContracts": [],
      "isFixedGasLimit": false
    },
    {
      "hash": "0x28ba5f013abfc054073af0f3950f02a7f8c0d90d9581e1c58d92b4f091e901c1",
      "transactionType": "CALL",
      "contractName": null,
      "contractAddress": "0x2e180501d3d68241dd0318c68fd9be0af1d519a1",
      "function": "placeBet(uint256,uint256,uint256,address,uint8)",
      "arguments": [
        "194",
        "1",
        "5163273000",
        "0x67bFd0B42F5f39710B4E90301289F81Eab6315dA",
        "1"
      ],
      "transaction": {
        "from": "0x67bfd0b42f5f39710b4e90301289f81eab6315da",
        "to": "0x2e180501d3d68241dd0318c68fd9be0af1d519a1",
        "gas": "0xa5afe",
        "value": "0x0",
        "input": "0x011c4dd900000000000000000000000000000000000000000000000000000000000000c200000000000000000000000000000000000000000000000000000000000000010000000000000000000000000000000000000000000000000000000133c14b2800000000000000000000000067bfd0b42f5f39710b4e90301289f81eab6315da0000000000000000000000000000000000000000000000000000000000000001",
        "nonce": "0xbd",
        "chainId": "0x14a34"
      },
      "additionalContracts": [],
      "isFixedGasLimit": false
    },
    {
      "hash": "0xa3907cfa4a2c61f62ba80b6cdf2c2f167e0950d87af1626ca645ae301a6aa64e",
      "transactionType": "CALL",
      "contractName": null,
      "contractAddress": "0x2e180501d3d68241dd0318c68fd9be0af1d519a1",
      "function": "placeBet(uint256,uint256,uint256,address,uint8)",
      "arguments": [
        "192",
        "0",
        "2000000",
        "0x67bFd0B42F5f39710B4E90301289F81Eab6315dA",
        "0"
      ],
      "transaction": {
        "from": "0x67bfd0b42f5f39710b4e90301289f81eab6315da",
        "to": "0x2e180501d3d68241dd0318c68fd9be0af1d519a1",
        "gas": "0x89204",
        "value": "0x0",
        "input": "0x011c4dd900000000000000000000000000000000000000000000000000000000000000c0000000000000000000000000000000000000000000000000000000000000000000000000000000000000000000000000000000000000000000000000001e848000000000000000000000000067bfd0b42f5f39710b4e90301289f81eab6315da0000000000000000000000000000000000000000000000000000000000000000",
        "nonce": "0xbe",
        "chainId": "0x14a34"
      },
      "additionalContracts": [],
      "isFixedGasLimit": false
    },
    {
      "hash": "0xcd550a13bbb10c904c3de9e6fdfb92afc14be80eb8da371cda0298b65ebb4876",
      "transactionType": "CALL",
      "contractName": null,
      "contractAddress": "0x2e180501d3d68241dd0318c68fd9be0af1d519a1",
      "function": "placeBet(uint256,uint256,uint256,address,uint8)",
      "arguments": [
        "193",
        "0",
        "2000000",
        "0x67bFd0B42F5f39710B4E90301289F81Eab6315dA",
        "0"
      ],
      "transaction": {
        "from": "0x67bfd0b42f5f39710b4e90301289f81eab6315da",
        "to": "0x2e180501d3d68241dd0318c68fd9be0af1d519a1",
        "gas": "0x89204",
        "value": "0x0",
        "input": "0x011c4dd900000000000000000000000000000000000000000000000000000000000000c1000000000000000000000000000000000000000000000000000000000000000000000000000000000000000000000000000000000000000000000000001e848000000000000000000000000067bfd0b42f5f39710b4e90301289f81eab6315da0000000000000000000000000000000000000000000000000000000000000000",
        "nonce": "0xbf",
        "chainId": "0x14a34"
      },
      "additionalContracts": [],
      "isFixedGasLimit": false
    },
    {
      "hash": "0x28c8939c207ff631fd7309305e95eeaeabf461b311f39906f2cada7353e407e9",
      "transactionType": "CALL",
      "contractName": null,
      "contractAddress": "0x2e180501d3d68241dd0318c68fd9be0af1d519a1",
      "function": "placeBet(uint256,uint256,uint256,address,uint8)",
      "arguments": [
        "194",
        "1",
        "2000000",
        "0x67bFd0B42F5f39710B4E90301289F81Eab6315dA",
        "0"
      ],
      "transaction": {
        "from": "0x67bfd0b42f5f39710b4e90301289f81eab6315da",
        "to": "0x2e180501d3d68241dd0318c68fd9be0af1d519a1",
        "gas": "0x9f686",
        "value": "0x0",
        "input": "0x011c4dd900000000000000000000000000000000000000000000000000000000000000c2000000000000000000000000000000000000000000000000000000000000000100000000000000000000000000000000000000000000000000000000001e848000000000000000000000000067bfd0b42f5f39710b4e90301289f81eab6315da0000000000000000000000000000000000000000000000000000000000000000",
        "nonce": "0xc0",
        "chainId": "0x14a34"
      },
      "additionalContracts": [],
      "isFixedGasLimit": false
    },
    {
      "hash": "0xcbde06bfa5bdedbbbaaee55256ce35e6860228ad1083c9a456d40d5dbb330f2a",
      "transactionType": "CALL",
      "contractName": null,
      "contractAddress": "0xa373482b473e33b96412a6c0ca8b847e6bbb4d0d",
      "function": "approve(address,uint256)",
      "arguments": [
        "0x2E180501D3D68241dd0318c68fD9BE0AF1D519a1",
        "11859510001"
      ],
      "transaction": {
        "from": "0x12be474d127757d0a6a36631294f8ffbcdef44f8",
        "to": "0xa373482b473e33b96412a6c0ca8b847e6bbb4d0d",
        "gas": "0x9bbc",
        "value": "0x0",
        "input": "0x095ea7b30000000000000000000000002e180501d3d68241dd0318c68fd9be0af1d519a100000000000000000000000000000000000000000000000000000002c2e1c2f1",
        "nonce": "0x9e",
        "chainId": "0x14a34"
      },
      "additionalContracts": [],
      "isFixedGasLimit": false
    },
    {
      "hash": "0xc3a46598189ba461e7ec8f266aec594d8dd081f2239fa7ccb6f73f5d02a4c093",
      "transactionType": "CALL",
      "contractName": null,
      "contractAddress": "0x036cbd53842c5426634e7929541ec2318f3dcf7e",
      "function": "approve(address,uint256)",
      "arguments": [
        "0x2E180501D3D68241dd0318c68fD9BE0AF1D519a1",
        "506049751"
      ],
      "transaction": {
        "from": "0x12be474d127757d0a6a36631294f8ffbcdef44f8",
        "to": "0x036cbd53842c5426634e7929541ec2318f3dcf7e",
        "gas": "0xcee8",
        "value": "0x0",
        "input": "0x095ea7b30000000000000000000000002e180501d3d68241dd0318c68fd9be0af1d519a1000000000000000000000000000000000000000000000000000000001e29b4d7",
        "nonce": "0x9f",
        "chainId": "0x14a34"
      },
      "additionalContracts": [],
      "isFixedGasLimit": false
    },
    {
      "hash": "0xdd5fddb45a0ae695bcdc4327576de447ba54902a5f51387af34c35598d619ad7",
      "transactionType": "CALL",
      "contractName": null,
      "contractAddress": "0x2e180501d3d68241dd0318c68fd9be0af1d519a1",
      "function": "placeBet(uint256,uint256,uint256,address,uint8)",
      "arguments": [
        "192",
        "0",
        "3557853000",
        "0x12BE474D127757d0a6a36631294F8FfBCdeF44F8",
        "1"
      ],
      "transaction": {
        "from": "0x12be474d127757d0a6a36631294f8ffbcdef44f8",
        "to": "0x2e180501d3d68241dd0318c68fd9be0af1d519a1",
        "gas": "0x9b1bc",
        "value": "0x0",
        "input": "0x011c4dd900000000000000000000000000000000000000000000000000000000000000c0000000000000000000000000000000000000000000000000000000000000000000000000000000000000000000000000000000000000000000000000d410874800000000000000000000000012be474d127757d0a6a36631294f8ffbcdef44f80000000000000000000000000000000000000000000000000000000000000001",
        "nonce": "0xa0",
        "chainId": "0x14a34"
      },
      "additionalContracts": [],
      "isFixedGasLimit": false
    },
    {
      "hash": "0xe70eb3b3d5420eb9b8aefc005be6ed159c50522c0e73bc5efd44820ecc4f4902",
      "transactionType": "CALL",
      "contractName": null,
      "contractAddress": "0x2e180501d3d68241dd0318c68fd9be0af1d519a1",
      "function": "placeBet(uint256,uint256,uint256,address,uint8)",
      "arguments": [
        "193",
        "0",
        "3557853000",
        "0x12BE474D127757d0a6a36631294F8FfBCdeF44F8",
        "1"
      ],
      "transaction": {
        "from": "0x12be474d127757d0a6a36631294f8ffbcdef44f8",
        "to": "0x2e180501d3d68241dd0318c68fd9be0af1d519a1",
        "gas": "0x9841f",
        "value": "0x0",
        "input": "0x011c4dd900000000000000000000000000000000000000000000000000000000000000c1000000000000000000000000000000000000000000000000000000000000000000000000000000000000000000000000000000000000000000000000d410874800000000000000000000000012be474d127757d0a6a36631294f8ffbcdef44f80000000000000000000000000000000000000000000000000000000000000001",
        "nonce": "0xa1",
        "chainId": "0x14a34"
      },
      "additionalContracts": [],
      "isFixedGasLimit": false
    },
    {
      "hash": "0x2117b9e61b84a745aa2600167d08487fcc79631f7627a79d44634af9d5a64843",
      "transactionType": "CALL",
      "contractName": null,
      "contractAddress": "0x2e180501d3d68241dd0318c68fd9be0af1d519a1",
      "function": "placeBet(uint256,uint256,uint256,address,uint8)",
      "arguments": [
        "194",
        "1",
        "3557853000",
        "0x12BE474D127757d0a6a36631294F8FfBCdeF44F8",
        "1"
      ],
      "transaction": {
        "from": "0x12be474d127757d0a6a36631294f8ffbcdef44f8",
        "to": "0x2e180501d3d68241dd0318c68fd9be0af1d519a1",
        "gas": "0x9feaa",
        "value": "0x0",
        "input": "0x011c4dd900000000000000000000000000000000000000000000000000000000000000c2000000000000000000000000000000000000000000000000000000000000000100000000000000000000000000000000000000000000000000000000d410874800000000000000000000000012be474d127757d0a6a36631294f8ffbcdef44f80000000000000000000000000000000000000000000000000000000000000001",
        "nonce": "0xa2",
        "chainId": "0x14a34"
      },
      "additionalContracts": [],
      "isFixedGasLimit": false
    },
    {
      "hash": "0x8ec7860ecf0ada3347f0f8a99056662f9b83556ce874d627ff80bd12d59ad050",
      "transactionType": "CALL",
      "contractName": null,
      "contractAddress": "0x2e180501d3d68241dd0318c68fd9be0af1d519a1",
      "function": "placeBet(uint256,uint256,uint256,address,uint8)",
      "arguments": [
        "192",
        "0",
        "3000000",
        "0x12BE474D127757d0a6a36631294F8FfBCdeF44F8",
        "0"
      ],
      "transaction": {
        "from": "0x12be474d127757d0a6a36631294f8ffbcdef44f8",
        "to": "0x2e180501d3d68241dd0318c68fd9be0af1d519a1",
        "gas": "0x89204",
        "value": "0x0",
        "input": "0x011c4dd900000000000000000000000000000000000000000000000000000000000000c0000000000000000000000000000000000000000000000000000000000000000000000000000000000000000000000000000000000000000000000000002dc6c000000000000000000000000012be474d127757d0a6a36631294f8ffbcdef44f80000000000000000000000000000000000000000000000000000000000000000",
        "nonce": "0xa3",
        "chainId": "0x14a34"
      },
      "additionalContracts": [],
      "isFixedGasLimit": false
    },
    {
      "hash": "0xb9912a74518606d900fbc2332ef39cf98d2959a82e0b05a733004ea001259273",
      "transactionType": "CALL",
      "contractName": null,
      "contractAddress": "0x2e180501d3d68241dd0318c68fd9be0af1d519a1",
      "function": "placeBet(uint256,uint256,uint256,address,uint8)",
      "arguments": [
        "193",
        "0",
        "4000000",
        "0x12BE474D127757d0a6a36631294F8FfBCdeF44F8",
        "0"
      ],
      "transaction": {
        "from": "0x12be474d127757d0a6a36631294f8ffbcdef44f8",
        "to": "0x2e180501d3d68241dd0318c68fd9be0af1d519a1",
        "gas": "0x91303",
        "value": "0x0",
        "input": "0x011c4dd900000000000000000000000000000000000000000000000000000000000000c1000000000000000000000000000000000000000000000000000000000000000000000000000000000000000000000000000000000000000000000000003d090000000000000000000000000012be474d127757d0a6a36631294f8ffbcdef44f80000000000000000000000000000000000000000000000000000000000000000",
        "nonce": "0xa4",
        "chainId": "0x14a34"
      },
      "additionalContracts": [],
      "isFixedGasLimit": false
    },
    {
      "hash": "0x1e1bd2d28e212e57ee1e731cb39e7d75be31d0cf7b3f0dc3065d2170d3d63d29",
      "transactionType": "CALL",
      "contractName": null,
      "contractAddress": "0x2e180501d3d68241dd0318c68fd9be0af1d519a1",
      "function": "placeBet(uint256,uint256,uint256,address,uint8)",
      "arguments": [
        "194",
        "1",
        "1000000",
        "0x12BE474D127757d0a6a36631294F8FfBCdeF44F8",
        "0"
      ],
      "transaction": {
        "from": "0x12be474d127757d0a6a36631294f8ffbcdef44f8",
        "to": "0x2e180501d3d68241dd0318c68fd9be0af1d519a1",
        "gas": "0x9f686",
        "value": "0x0",
        "input": "0x011c4dd900000000000000000000000000000000000000000000000000000000000000c2000000000000000000000000000000000000000000000000000000000000000100000000000000000000000000000000000000000000000000000000000f424000000000000000000000000012be474d127757d0a6a36631294f8ffbcdef44f80000000000000000000000000000000000000000000000000000000000000000",
        "nonce": "0xa5",
        "chainId": "0x14a34"
      },
      "additionalContracts": [],
      "isFixedGasLimit": false
    },
    {
      "hash": "0x3b12fe1871bf3ca822582d2223b483875cd5d98100892ba4039daac59a5880df",
      "transactionType": "CALL",
      "contractName": null,
      "contractAddress": "0x2e180501d3d68241dd0318c68fd9be0af1d519a1",
      "function": "gradeBet(uint256,uint256)",
      "arguments": [
        "101",
        "0"
      ],
      "transaction": {
        "from": "0x7956c2c1b85f5ac14c2c537f669b65991428e268",
        "to": "0x2e180501d3d68241dd0318c68fd9be0af1d519a1",
        "gas": "0xca6f",
        "value": "0x0",
        "input": "0xff0beb6200000000000000000000000000000000000000000000000000000000000000650000000000000000000000000000000000000000000000000000000000000000",
        "nonce": "0x1bb",
        "chainId": "0x14a34"
      },
      "additionalContracts": [],
      "isFixedGasLimit": false
    },
    {
      "hash": "0xc20faaa988a7d2954eeb03a0653380573845f9ff996f19eeb94de1c579888cfb",
      "transactionType": "CALL",
      "contractName": null,
      "contractAddress": "0x2e180501d3d68241dd0318c68fd9be0af1d519a1",
      "function": "claimPayouts(uint256[])",
      "arguments": [
        "[49, 50, 51, 52, 53, 54]"
      ],
      "transaction": {
        "from": "0x4e5dc9df946500b07e9c66e4dd29bf9cd062002b",
        "to": "0x2e180501d3d68241dd0318c68fd9be0af1d519a1",
        "gas": "0xf0b9",
        "value": "0x0",
        "input": "0x3d695c5200000000000000000000000000000000000000000000000000000000000000200000000000000000000000000000000000000000000000000000000000000006000000000000000000000000000000000000000000000000000000000000003100000000000000000000000000000000000000000000000000000000000000320000000000000000000000000000000000000000000000000000000000000033000000000000000000000000000000000000000000000000000000000000003400000000000000000000000000000000000000000000000000000000000000350000000000000000000000000000000000000000000000000000000000000036",
        "nonce": "0x13a",
        "chainId": "0x14a34"
      },
      "additionalContracts": [],
      "isFixedGasLimit": false
    },
    {
      "hash": "0x0292db04b1e967e3af338297ae8fc3410b077a2e94049a139a87c5cd0dabb099",
      "transactionType": "CALL",
      "contractName": null,
      "contractAddress": "0x2e180501d3d68241dd0318c68fd9be0af1d519a1",
      "function": "claimPayouts(uint256[])",
      "arguments": [
        "[55, 56, 57, 58, 59, 60]"
      ],
      "transaction": {
        "from": "0x67bfd0b42f5f39710b4e90301289f81eab6315da",
        "to": "0x2e180501d3d68241dd0318c68fd9be0af1d519a1",
        "gas": "0xf0b9",
        "value": "0x0",
        "input": "0x3d695c5200000000000000000000000000000000000000000000000000000000000000200000000000000000000000000000000000000000000000000000000000000006000000000000000000000000000000000000000000000000000000000000003700000000000000000000000000000000000000000000000000000000000000380000000000000000000000000000000000000000000000000000000000000039000000000000000000000000000000000000000000000000000000000000003a000000000000000000000000000000000000000000000000000000000000003b000000000000000000000000000000000000000000000000000000000000003c",
        "nonce": "0xc1",
        "chainId": "0x14a34"
      },
      "additionalContracts": [],
      "isFixedGasLimit": false
    },
    {
      "hash": "0x4e7a5154e737dad01473b8c7ec825ee2941eef85b18e3472bdc7446876423bfb",
      "transactionType": "CALL",
      "contractName": null,
      "contractAddress": "0x2e180501d3d68241dd0318c68fd9be0af1d519a1",
      "function": "claimPayouts(uint256[])",
      "arguments": [
        "[61, 62, 63, 64, 65, 66]"
      ],
      "transaction": {
        "from": "0x12be474d127757d0a6a36631294f8ffbcdef44f8",
        "to": "0x2e180501d3d68241dd0318c68fd9be0af1d519a1",
        "gas": "0xf0b9",
        "value": "0x0",
        "input": "0x3d695c5200000000000000000000000000000000000000000000000000000000000000200000000000000000000000000000000000000000000000000000000000000006000000000000000000000000000000000000000000000000000000000000003d000000000000000000000000000000000000000000000000000000000000003e000000000000000000000000000000000000000000000000000000000000003f000000000000000000000000000000000000000000000000000000000000004000000000000000000000000000000000000000000000000000000000000000410000000000000000000000000000000000000000000000000000000000000042",
        "nonce": "0xa6",
        "chainId": "0x14a34"
      },
      "additionalContracts": [],
      "isFixedGasLimit": false
    }
  ],
  "receipts": [
    {
      "status": "0x1",
      "cumulativeGasUsed": "0xd3faa1",
      "logs": [
        {
          "address": "0xa373482b473e33b96412a6c0ca8b847e6bbb4d0d",
          "topics": [
            "0xddf252ad1be2c89b69c2b068fc378daa952ba7f163c4a11628f55a4df523b3ef",
            "0x0000000000000000000000000000000000000000000000000000000000000000",
            "0x0000000000000000000000004e5dc9df946500b07e9c66e4dd29bf9cd062002b"
          ],
          "data": "0x0000000000000000000000000000000000000000000000000000000000002710",
          "blockHash": "0x161ec48a27ff1c6a27dad05cb3a83c346e13dd577ece74907f0896be28dd39f5",
          "blockNumber": "0x165e1ab",
          "transactionHash": "0x127d06dbeff2c275f794acea958a8e5a4357c1917af80bc087cbfa90f08bf0fe",
          "transactionIndex": "0x2d",
          "logIndex": "0x18c",
          "removed": false
        }
      ],
      "logsBloom": "0x00000000000000000000000000000000000000000000000000000000000000000000000000000000000000000000000000000000000000000000000000000000000000000000000000000008000000000000000000200000000000000000000000000000020000000000000000000800000000000000000000000010000000000000000000001000004000000000000000000000000000000000000000000000000000000000000000000000000000000000000000000000000000000000000000010002000000000000000000000000000000000000800000100000000020000000000000000000000000000000000000000000000000000000000000000000",
      "type": "0x2",
      "transactionHash": "0x127d06dbeff2c275f794acea958a8e5a4357c1917af80bc087cbfa90f08bf0fe",
      "transactionIndex": "0x2d",
      "blockHash": "0x161ec48a27ff1c6a27dad05cb3a83c346e13dd577ece74907f0896be28dd39f5",
      "blockNumber": "0x165e1ab",
      "gasUsed": "0x8cb0",
      "effectiveGasPrice": "0xed777",
      "from": "0x7956c2c1b85f5ac14c2c537f669b65991428e268",
      "to": "0xa373482b473e33b96412a6c0ca8b847e6bbb4d0d",
      "contractAddress": null,
      "l1BaseFeeScalar": "0x44d",
      "l1BlobBaseFee": "0x1",
      "l1BlobBaseFeeScalar": "0xa118b",
      "l1Fee": "0x482a62",
      "l1GasPrice": "0x28f721",
      "l1GasUsed": "0x640"
    },
    {
      "status": "0x1",
      "cumulativeGasUsed": "0x4fd194",
      "logs": [
        {
          "address": "0xa373482b473e33b96412a6c0ca8b847e6bbb4d0d",
          "topics": [
            "0xddf252ad1be2c89b69c2b068fc378daa952ba7f163c4a11628f55a4df523b3ef",
            "0x0000000000000000000000000000000000000000000000000000000000000000",
            "0x00000000000000000000000067bfd0b42f5f39710b4e90301289f81eab6315da"
          ],
          "data": "0x0000000000000000000000000000000000000000000000000000000000002710",
          "blockHash": "0xc3035f65663f676185c87714dc57b00a57aaec43ccaa2af704cdb856c279b018",
          "blockNumber": "0x165e1ad",
          "transactionHash": "0xf5e4ad555bda9efcc42c17745b2707e44881f224ebb3dbe73ec6eaba018cacb0",
          "transactionIndex": "0x16",
          "logIndex": "0x92",
          "removed": false
        }
      ],
      "logsBloom": "0x00000000000000000080000000000000000000000000000000000000000000000000000000000000000000000000000000000000000000000000000000000000000000000000000000000008000000000000000000200000000000000000000000000000020000000000000000000800000000000000000000000010000000000000000000001000000000000000000000000000000000000000000000000000000000000000280000000000000000000000000000000000000000000000000000000002000000000000000000000000000000000000000000100000000020000000000000000000000000000000000000000000000000000000000000000000",
      "type": "0x2",
      "transactionHash": "0xf5e4ad555bda9efcc42c17745b2707e44881f224ebb3dbe73ec6eaba018cacb0",
      "transactionIndex": "0x16",
      "blockHash": "0xc3035f65663f676185c87714dc57b00a57aaec43ccaa2af704cdb856c279b018",
      "blockNumber": "0x165e1ad",
      "gasUsed": "0x8cc8",
      "effectiveGasPrice": "0xed77a",
      "from": "0x7956c2c1b85f5ac14c2c537f669b65991428e268",
      "to": "0xa373482b473e33b96412a6c0ca8b847e6bbb4d0d",
      "contractAddress": null,
      "l1BaseFeeScalar": "0x44d",
      "l1BlobBaseFee": "0x1",
      "l1BlobBaseFeeScalar": "0xa118b",
      "l1Fee": "0x4fb5b2",
      "l1GasPrice": "0x2d3f78",
      "l1GasUsed": "0x640"
    },
    {
      "status": "0x1",
      "cumulativeGasUsed": "0x137ef",
      "logs": [
        {
          "address": "0xa373482b473e33b96412a6c0ca8b847e6bbb4d0d",
          "topics": [
            "0xddf252ad1be2c89b69c2b068fc378daa952ba7f163c4a11628f55a4df523b3ef",
            "0x0000000000000000000000000000000000000000000000000000000000000000",
            "0x00000000000000000000000012be474d127757d0a6a36631294f8ffbcdef44f8"
          ],
          "data": "0x0000000000000000000000000000000000000000000000000000000000002710",
          "blockHash": "0xaae00c5bb153dde76f5a66dbdced9754a49736a028fd1c05ca8f87908faea199",
          "blockNumber": "0x165e1af",
          "transactionHash": "0x8d02dfd8b8b414ea6bbe4f3d7b4631b69957bbc44dafa7ddfe79e7dd5fbfd8ef",
          "transactionIndex": "0x1",
          "logIndex": "0x0",
          "removed": false
        }
      ],
      "logsBloom": "0x00000000000000000000000000000000000000000000000000000000000000000000000000000000000000000000000000000000000000000000000000000000000000000000000000000008000000000000000000200000000000000000000000000000020000000000000000000800000000000000000000800010000000000000000000001000000000000000000000000000000000000000000000000000008000000000000000000000000000000000000000000000000000000000000000000002000000000000000100000000000000000000000000100000000020000000000000000000000000000000000000000000000000000000000000000000",
      "type": "0x2",
      "transactionHash": "0x8d02dfd8b8b414ea6bbe4f3d7b4631b69957bbc44dafa7ddfe79e7dd5fbfd8ef",
      "transactionIndex": "0x1",
      "blockHash": "0xaae00c5bb153dde76f5a66dbdced9754a49736a028fd1c05ca8f87908faea199",
      "blockNumber": "0x165e1af",
      "gasUsed": "0x8cc8",
      "effectiveGasPrice": "0xed77a",
      "from": "0x7956c2c1b85f5ac14c2c537f669b65991428e268",
      "to": "0xa373482b473e33b96412a6c0ca8b847e6bbb4d0d",
      "contractAddress": null,
      "l1BaseFeeScalar": "0x44d",
      "l1BlobBaseFee": "0x1",
      "l1BlobBaseFeeScalar": "0xa118b",
      "l1Fee": "0x4fb5b2",
      "l1GasPrice": "0x2d3f78",
      "l1GasUsed": "0x640"
    },
    {
      "status": "0x1",
      "cumulativeGasUsed": "0x71b060",
      "logs": [
        {
          "address": "0x2e180501d3d68241dd0318c68fd9be0af1d519a1",
          "topics": [
            "0xa6911b1100a84108be7e4458ca4926ac7aac190db354ff63847b820b02beb88b"
          ],
          "data": "0x00000000000000000000000000000000000000000000000000000000000000c0000000000000000000000000000000000000000000000000000000000000004000000000000000000000000000000000000000000000000000000000000000c000000000000000000000000000000000000000000000000000000000000001200000000000000000000000000000000000000000000000000000000067df2fb800000000000000000000000000000000000000000000000000000000000001e0000000000000000000000000000000000000000000000000000000000000024000000000000000000000000000000000000000000000000000000000000002a0000000000000000000000000000000000000000000000000000000000000003c57696c6c204920504152444f4e204d5953454c463f20546865205241444943414c204c45465420697320544552524946494544206f6620746869732100000000000000000000000000000000000000000000000000000000000000000000004000000000000000000000000000000000000000000000000000000000000000800000000000000000000000000000000000000000000000000000000000000003594553000000000000000000000000000000000000000000000000000000000000000000000000000000000000000000000000000000000000000000000000024e4f000000000000000000000000000000000000000000000000000000000000000000000000000000000000000000000000000000000000000000000000003f5468697320706f6f6c2077696c6c20636c6f7365206966205472756d7020706f73747320746861742068652077696c6c20706172646f6e2068696d73656c6600000000000000000000000000000000000000000000000000000000000000003e477261646520594553206966205472756d7020706f7374732061626f757420706172646f6e696e672068696d73656c662c204e4f206f7468657277697365000000000000000000000000000000000000000000000000000000000000000000123131343139373039323230353731393535370000000000000000000000000000",
          "blockHash": "0xeda48e2982813a59944286210add1bbb00262c27375b1a729ae1296b980a038f",
          "blockNumber": "0x165e1b1",
          "transactionHash": "0xaca8c2cd43be09be1506a740f68ab55022035d98b53ac3733fa72a68ff7b8561",
          "transactionIndex": "0x1a",
          "logIndex": "0xb5",
          "removed": false
        }
      ],
      "logsBloom": "0x00000000000000000000000000000000000010000000000000000000000000000000000000000000000001000000000000000000000000000000000000000000000000000000000000000000000000000000000000000000000000000000000000000000000000000000000000000000000000000000000000000000000000000000000000000000000000000000004000000000000000000000000000000000000000000000000000000000000000000000000000000000000000000000000000000000000000000000000000000000000000000000000000000000000000000000028002000000000000000000000000000000000000000000000000000000",
      "type": "0x2",
      "transactionHash": "0xaca8c2cd43be09be1506a740f68ab55022035d98b53ac3733fa72a68ff7b8561",
      "transactionIndex": "0x1a",
      "blockHash": "0xeda48e2982813a59944286210add1bbb00262c27375b1a729ae1296b980a038f",
      "blockNumber": "0x165e1b1",
      "gasUsed": "0x65b89",
      "effectiveGasPrice": "0xed777",
      "from": "0x7956c2c1b85f5ac14c2c537f669b65991428e268",
      "to": "0x2e180501d3d68241dd0318c68fd9be0af1d519a1",
      "contractAddress": null,
      "l1BaseFeeScalar": "0x44d",
      "l1BlobBaseFee": "0x1",
      "l1BlobBaseFeeScalar": "0xa118b",
      "l1Fee": "0xf4195d",
      "l1GasPrice": "0x2d3f78",
      "l1GasUsed": "0x1323"
    },
    {
      "status": "0x1",
      "cumulativeGasUsed": "0xb1c907",
      "logs": [
        {
          "address": "0x2e180501d3d68241dd0318c68fd9be0af1d519a1",
          "topics": [
            "0xa6911b1100a84108be7e4458ca4926ac7aac190db354ff63847b820b02beb88b"
          ],
          "data": "0x00000000000000000000000000000000000000000000000000000000000000c1000000000000000000000000000000000000000000000000000000000000004000000000000000000000000000000000000000000000000000000000000000c000000000000000000000000000000000000000000000000000000000000001400000000000000000000000000000000000000000000000000000000067df2fb8000000000000000000000000000000000000000000000000000000000000020000000000000000000000000000000000000000000000000000000000000002800000000000000000000000000000000000000000000000000000000000000300000000000000000000000000000000000000000000000000000000000000005057696c6c204920464952452054484520464249204449524543544f52206f6e20646179206f6e653f205468652046424920686173206265656e20574541504f4e495a454420616761696e73742075732100000000000000000000000000000000000000000000000000000000000000000000000000000000000000000000004000000000000000000000000000000000000000000000000000000000000000800000000000000000000000000000000000000000000000000000000000000003594553000000000000000000000000000000000000000000000000000000000000000000000000000000000000000000000000000000000000000000000000024e4f00000000000000000000000000000000000000000000000000000000000000000000000000000000000000000000000000000000000000000000000000465468697320706f6f6c2077696c6c20636c6f7365206966205472756d70206d616b657320612073746174656d656e742061626f75742074686520464249204469726563746f7200000000000000000000000000000000000000000000000000000000000000000000000000000000000000000000000000000000000000000043477261646520594553206966205472756d7020736179732068652077696c6c20666972652074686520464249204469726563746f722c204e4f206f7468657277697365000000000000000000000000000000000000000000000000000000000000000000000000000000000000000000000000000000000000000000000000123131343230303137353038323830363838320000000000000000000000000000",
          "blockHash": "0x2f5cd33ebe3e36f188cd94d4fe971304c4c252274d1bff9d27360a6bedf67df0",
          "blockNumber": "0x165e1b2",
          "transactionHash": "0x9c7b77d3b3b0a18dddfcf158962a00713e70cb57485a56debb128398b1ce22ee",
          "transactionIndex": "0x29",
          "logIndex": "0x117",
          "removed": false
        }
      ],
      "logsBloom": "0x00000000000000000000000000000000000010000000000000000000000000000000000000000000000001000000000000000000000000000000000000000000000000000000000000000000000000000000000000000000000000000000000000000000000000000000000000000000000000000000000000000000000000000000000000000000000000000000004000000000000000000000000000000000000000000000000000000000000000000000000000000000000000000000000000000000000000000000000000000000000000000000000000000000000000000000028002000000000000000000000000000000000000000000000000000000",
      "type": "0x2",
      "transactionHash": "0x9c7b77d3b3b0a18dddfcf158962a00713e70cb57485a56debb128398b1ce22ee",
      "transactionIndex": "0x29",
      "blockHash": "0x2f5cd33ebe3e36f188cd94d4fe971304c4c252274d1bff9d27360a6bedf67df0",
      "blockNumber": "0x165e1b2",
      "gasUsed": "0x76593",
      "effectiveGasPrice": "0xed778",
      "from": "0x7956c2c1b85f5ac14c2c537f669b65991428e268",
      "to": "0x2e180501d3d68241dd0318c68fd9be0af1d519a1",
      "contractAddress": null,
      "l1BaseFeeScalar": "0x44d",
      "l1BlobBaseFee": "0x1",
      "l1BlobBaseFeeScalar": "0xa118b",
      "l1Fee": "0x1041a02",
      "l1GasPrice": "0x2d3f78",
      "l1GasUsed": "0x1464"
    },
    {
      "status": "0x1",
      "cumulativeGasUsed": "0x3f00ab",
      "logs": [
        {
          "address": "0x2e180501d3d68241dd0318c68fd9be0af1d519a1",
          "topics": [
            "0xa6911b1100a84108be7e4458ca4926ac7aac190db354ff63847b820b02beb88b"
          ],
          "data": "0x00000000000000000000000000000000000000000000000000000000000000c2000000000000000000000000000000000000000000000000000000000000004000000000000000000000000000000000000000000000000000000000000000c000000000000000000000000000000000000000000000000000000000000001400000000000000000000000000000000000000000000000000000000067df2fb80000000000000000000000000000000000000000000000000000000000000200000000000000000000000000000000000000000000000000000000000000026000000000000000000000000000000000000000000000000000000000000002c0000000000000000000000000000000000000000000000000000000000000005257696c6c20492057494e207468652064656261746520616761696e737420534c45455059204a4f453f2045766572796f6e65206b6e6f7773204920776f6e20746865206c617374206f6e65204249474c59210000000000000000000000000000000000000000000000000000000000000000000000000000000000000000004000000000000000000000000000000000000000000000000000000000000000800000000000000000000000000000000000000000000000000000000000000003594553000000000000000000000000000000000000000000000000000000000000000000000000000000000000000000000000000000000000000000000000024e4f00000000000000000000000000000000000000000000000000000000000000000000000000000000000000000000000000000000000000000000000000325468697320706f6f6c2077696c6c20636c6f73652061667465722074686520707265736964656e7469616c2064656261746500000000000000000000000000000000000000000000000000000000000000000000000000000000000000000030477261646520594553206966205472756d702077696e7320746865206465626174652c204e4f206f74686572776973650000000000000000000000000000000000000000000000000000000000000000000000000000000000000000000000123131343230303331333030393830323633380000000000000000000000000000",
          "blockHash": "0xfe12ad1f6ac3427ebb2add8dbe3c622a06f54fff83057aef66f0f77842358db5",
          "blockNumber": "0x165e1b4",
          "transactionHash": "0xd3785f28268335af4f1bdc161491982e60fe8862ac17284badb30f120ae6ae1d",
          "transactionIndex": "0x11",
          "logIndex": "0x65",
          "removed": false
        }
      ],
      "logsBloom": "0x00000000000000000000000000000000000010000000000000000000000000000000000000000000000001000000000000000000000000000000000000000000000000000000000000000000000000000000000000000000000000000000000000000000000000000000000000000000000000000000000000000000000000000000000000000000000000000000004000000000000000000000000000000000000000000000000000000000000000000000000000000000000000000000000000000000000000000000000000000000000000000000000000000000000000000000028002000000000000000000000000000000000000000000000000000000",
      "type": "0x2",
      "transactionHash": "0xd3785f28268335af4f1bdc161491982e60fe8862ac17284badb30f120ae6ae1d",
      "transactionIndex": "0x11",
      "blockHash": "0xfe12ad1f6ac3427ebb2add8dbe3c622a06f54fff83057aef66f0f77842358db5",
      "blockNumber": "0x165e1b4",
      "gasUsed": "0x6b377",
      "effectiveGasPrice": "0xed771",
      "from": "0x7956c2c1b85f5ac14c2c537f669b65991428e268",
      "to": "0x2e180501d3d68241dd0318c68fd9be0af1d519a1",
      "contractAddress": null,
      "l1BaseFeeScalar": "0x44d",
      "l1BlobBaseFee": "0x1",
      "l1BlobBaseFeeScalar": "0xa118b",
      "l1Fee": "0x110fd79",
      "l1GasPrice": "0x31ebef",
      "l1GasUsed": "0x1366"
    },
    {
      "status": "0x1",
      "cumulativeGasUsed": "0x7747aa",
      "logs": [
        {
          "address": "0xa373482b473e33b96412a6c0ca8b847e6bbb4d0d",
          "topics": [
            "0x8c5be1e5ebec7d5bd14f71427d1e84f3dd0314c0f7b2291e5b200ac8c7c3b925",
            "0x0000000000000000000000004e5dc9df946500b07e9c66e4dd29bf9cd062002b",
            "0x0000000000000000000000002e180501d3d68241dd0318c68fd9be0af1d519a1"
          ],
          "data": "0x000000000000000000000000000000000000000000000000000000050ba83711",
          "blockHash": "0x91c10c47357e23939a195821b0bd8da959119e42bdc824fd6c69259fff68c753",
          "blockNumber": "0x165e1b5",
          "transactionHash": "0x7a36ff319d3e99c09a96cb85dd5b8a1671c4c78732defdfd851517a8b396bfc9",
          "transactionIndex": "0x19",
          "logIndex": "0xc9",
          "removed": false
        }
      ],
      "logsBloom": "0x00000000000000000000000000000000000000000000000000000000000000000000000000000000000000000000000000000000000000000000000000200000000000000000000000000000000000000000000000200000000000000000000000000000000000000000000000000000000000000000000000000000000000000000000000081000804000000000000000000000000000000000000000000000020000000000000000000000000000000000000000000000000000000000000000010000000000000000000000000000000000010000800000100000000000000010000000000000000000000000000000000000000000000000000000000000",
      "type": "0x2",
      "transactionHash": "0x7a36ff319d3e99c09a96cb85dd5b8a1671c4c78732defdfd851517a8b396bfc9",
      "transactionIndex": "0x19",
      "blockHash": "0x91c10c47357e23939a195821b0bd8da959119e42bdc824fd6c69259fff68c753",
      "blockNumber": "0x165e1b5",
      "gasUsed": "0x70c0",
      "effectiveGasPrice": "0xed76e",
      "from": "0x4e5dc9df946500b07e9c66e4dd29bf9cd062002b",
      "to": "0xa373482b473e33b96412a6c0ca8b847e6bbb4d0d",
      "contractAddress": null,
      "l1BaseFeeScalar": "0x44d",
      "l1BlobBaseFee": "0x1",
      "l1BlobBaseFeeScalar": "0xa118b",
      "l1Fee": "0x57f163",
      "l1GasPrice": "0x31ebef",
      "l1GasUsed": "0x640"
    },
    {
      "status": "0x1",
      "cumulativeGasUsed": "0x2ea1d1",
      "logs": [
        {
          "address": "0x036cbd53842c5426634e7929541ec2318f3dcf7e",
          "topics": [
            "0x8c5be1e5ebec7d5bd14f71427d1e84f3dd0314c0f7b2291e5b200ac8c7c3b925",
            "0x0000000000000000000000004e5dc9df946500b07e9c66e4dd29bf9cd062002b",
            "0x0000000000000000000000002e180501d3d68241dd0318c68fd9be0af1d519a1"
          ],
          "data": "0x000000000000000000000000000000000000000000000000000000001d7bf26b",
          "blockHash": "0x39b251bf652fcc11384b3e43b124b5bced80e34c74f9025750de4378e9424b2e",
          "blockNumber": "0x165e1b7",
          "transactionHash": "0x4a6fbf6e648e3e1a3caa2c6105ea43ae6dd70ac884942785fef0809f516f715d",
          "transactionIndex": "0xe",
          "logIndex": "0x42",
          "removed": false
        }
      ],
      "logsBloom": "0x00000000040000000000000000000000000000000000000000000000000000000000000000000000000000000000000000000000000000000000000000200000000000000000000000000000000000000000000000000000000000000000000800000000000000000000000000000000000000000000000000000000000000000000000000080000804000000000000000000000000000000000000000000000020000000000000000000000000000000000000000000000000000000000000000010000000000000000000000000000000000010000800000000000000000000010000000000000000000000020000000000000000000000000000000000000",
      "type": "0x2",
      "transactionHash": "0x4a6fbf6e648e3e1a3caa2c6105ea43ae6dd70ac884942785fef0809f516f715d",
      "transactionIndex": "0xe",
      "blockHash": "0x39b251bf652fcc11384b3e43b124b5bced80e34c74f9025750de4378e9424b2e",
      "blockNumber": "0x165e1b7",
      "gasUsed": "0x95cd",
      "effectiveGasPrice": "0xed768",
      "from": "0x4e5dc9df946500b07e9c66e4dd29bf9cd062002b",
      "to": "0x036cbd53842c5426634e7929541ec2318f3dcf7e",
      "contractAddress": null,
      "l1BaseFeeScalar": "0x44d",
      "l1BlobBaseFee": "0x1",
      "l1BlobBaseFeeScalar": "0xa118b",
      "l1Fee": "0x57f163",
      "l1GasPrice": "0x31ebef",
      "l1GasUsed": "0x640"
    },
    {
      "status": "0x1",
      "cumulativeGasUsed": "0xc8d653",
      "logs": [
        {
          "address": "0xa373482b473e33b96412a6c0ca8b847e6bbb4d0d",
          "topics": [
            "0xddf252ad1be2c89b69c2b068fc378daa952ba7f163c4a11628f55a4df523b3ef",
            "0x0000000000000000000000004e5dc9df946500b07e9c66e4dd29bf9cd062002b",
            "0x0000000000000000000000002e180501d3d68241dd0318c68fd9be0af1d519a1"
          ],
          "data": "0x00000000000000000000000000000000000000000000000000000001837f43b8",
          "blockHash": "0x36b417304c89256d39bdbd176ddd01047b2922a16fbbb71dd19dfdce3383dd42",
          "blockNumber": "0x165e1b9",
          "transactionHash": "0x561996610d176a24345b3bc67c392509600c58cf0793255d4148c2e5a5d318cc",
          "transactionIndex": "0x24",
          "logIndex": "0x1b5",
          "removed": false
        },
        {
          "address": "0x2e180501d3d68241dd0318c68fd9be0af1d519a1",
          "topics": [
            "0xe523847b7270abe685bcbcb11a424b9030e5627e3d5770781dd5bbeb1ddee143",
            "0x0000000000000000000000000000000000000000000000000000000000000031",
            "0x00000000000000000000000000000000000000000000000000000000000000c0",
            "0x0000000000000000000000004e5dc9df946500b07e9c66e4dd29bf9cd062002b"
          ],
          "data": "0x000000000000000000000000000000000000000000000000000000000000000100000000000000000000000000000000000000000000000000000001837f43b80000000000000000000000000000000000000000000000000000000000000001",
          "blockHash": "0x36b417304c89256d39bdbd176ddd01047b2922a16fbbb71dd19dfdce3383dd42",
          "blockNumber": "0x165e1b9",
          "transactionHash": "0x561996610d176a24345b3bc67c392509600c58cf0793255d4148c2e5a5d318cc",
          "transactionIndex": "0x24",
          "logIndex": "0x1b6",
          "removed": false
        }
      ],
      "logsBloom": "0x00002000000000000000000000000000000010000000000000000000000000000000000000000000000003000000000000000000000000000000020000000000040000000000000000000008000000000000000000200001000000000000000000000000000000000000000000000000000040000000000000000010000000000000000000081000804000000000000000000000000000000400000000001000000000000000000000000000000000000000000000000000000000000000000000010002000000000000000000000000000000010000800000100000000000000000020000000000000000000000000000000000000010000000000000000000",
      "type": "0x2",
      "transactionHash": "0x561996610d176a24345b3bc67c392509600c58cf0793255d4148c2e5a5d318cc",
      "transactionIndex": "0x24",
      "blockHash": "0x36b417304c89256d39bdbd176ddd01047b2922a16fbbb71dd19dfdce3383dd42",
      "blockNumber": "0x165e1b9",
      "gasUsed": "0x7c1fa",
      "effectiveGasPrice": "0xed761",
      "from": "0x4e5dc9df946500b07e9c66e4dd29bf9cd062002b",
      "to": "0x2e180501d3d68241dd0318c68fd9be0af1d519a1",
      "contractAddress": null,
      "l1BaseFeeScalar": "0x44d",
      "l1BlobBaseFee": "0x1",
      "l1BlobBaseFeeScalar": "0xa118b",
      "l1Fee": "0x656b4d",
      "l1GasPrice": "0x36275a",
      "l1GasUsed": "0x6a4"
    },
    {
      "status": "0x1",
      "cumulativeGasUsed": "0x2a2878",
      "logs": [
        {
          "address": "0xa373482b473e33b96412a6c0ca8b847e6bbb4d0d",
          "topics": [
            "0xddf252ad1be2c89b69c2b068fc378daa952ba7f163c4a11628f55a4df523b3ef",
            "0x0000000000000000000000004e5dc9df946500b07e9c66e4dd29bf9cd062002b",
            "0x0000000000000000000000002e180501d3d68241dd0318c68fd9be0af1d519a1"
          ],
          "data": "0x00000000000000000000000000000000000000000000000000000001837f43b8",
          "blockHash": "0xbdfb63282d140c3e376187d7f37e0ed07608fb94885c718845d47788cb285367",
          "blockNumber": "0x165e1bb",
          "transactionHash": "0x7c0867595e9176604d7cb5c06f9b9f06efa29690142623cf63d3c4a9130bf94b",
          "transactionIndex": "0x7",
          "logIndex": "0x2b",
          "removed": false
        },
        {
          "address": "0x2e180501d3d68241dd0318c68fd9be0af1d519a1",
          "topics": [
            "0xe523847b7270abe685bcbcb11a424b9030e5627e3d5770781dd5bbeb1ddee143",
            "0x0000000000000000000000000000000000000000000000000000000000000032",
            "0x00000000000000000000000000000000000000000000000000000000000000c1",
            "0x0000000000000000000000004e5dc9df946500b07e9c66e4dd29bf9cd062002b"
          ],
          "data": "0x000000000000000000000000000000000000000000000000000000000000000100000000000000000000000000000000000000000000000000000001837f43b80000000000000000000000000000000000000000000000000000000000000001",
          "blockHash": "0xbdfb63282d140c3e376187d7f37e0ed07608fb94885c718845d47788cb285367",
          "blockNumber": "0x165e1bb",
          "transactionHash": "0x7c0867595e9176604d7cb5c06f9b9f06efa29690142623cf63d3c4a9130bf94b",
          "transactionIndex": "0x7",
          "logIndex": "0x2c",
          "removed": false
        }
      ],
      "logsBloom": "0x00002000000000000000000000000000000010000000000000000000000000000002000000000000000001000000000000000000000000000000000000000000000000000200000000000008000000000000000000200000000000000000000000000000000002000000000000000000000000000000000000000010000000000000000000081000804000000000000000000000000000000400000000000000000000000000000000000000000000000000000000000000000000000000000004010002800000000000000000000000000000010000800000100000000800000000020000000000000000000000000000000000000010000000000000000000",
      "type": "0x2",
      "transactionHash": "0x7c0867595e9176604d7cb5c06f9b9f06efa29690142623cf63d3c4a9130bf94b",
      "transactionIndex": "0x7",
      "blockHash": "0xbdfb63282d140c3e376187d7f37e0ed07608fb94885c718845d47788cb285367",
      "blockNumber": "0x165e1bb",
      "gasUsed": "0x7c1fa",
      "effectiveGasPrice": "0xed75f",
      "from": "0x4e5dc9df946500b07e9c66e4dd29bf9cd062002b",
      "to": "0x2e180501d3d68241dd0318c68fd9be0af1d519a1",
      "contractAddress": null,
      "l1BaseFeeScalar": "0x44d",
      "l1BlobBaseFee": "0x1",
      "l1BlobBaseFeeScalar": "0xa118b",
      "l1Fee": "0x656b4d",
      "l1GasPrice": "0x36275a",
      "l1GasUsed": "0x6a4"
    },
    {
      "status": "0x1",
      "cumulativeGasUsed": "0x9ec2f",
      "logs": [
        {
          "address": "0xa373482b473e33b96412a6c0ca8b847e6bbb4d0d",
          "topics": [
            "0xddf252ad1be2c89b69c2b068fc378daa952ba7f163c4a11628f55a4df523b3ef",
            "0x0000000000000000000000004e5dc9df946500b07e9c66e4dd29bf9cd062002b",
            "0x0000000000000000000000002e180501d3d68241dd0318c68fd9be0af1d519a1"
          ],
          "data": "0x00000000000000000000000000000000000000000000000000000001837f43b8",
          "blockHash": "0x51311b22cc8fb95a0393ccf767052b9ca8e6bc33022951c70da01e40aaae2d63",
          "blockNumber": "0x165e1bd",
          "transactionHash": "0x7ca6d6c72555e63b9eaa2ed82e3920c610bb9523bc83743880847163a2231b8e",
          "transactionIndex": "0x4",
          "logIndex": "0x3",
          "removed": false
        },
        {
          "address": "0x2e180501d3d68241dd0318c68fd9be0af1d519a1",
          "topics": [
            "0xe523847b7270abe685bcbcb11a424b9030e5627e3d5770781dd5bbeb1ddee143",
            "0x0000000000000000000000000000000000000000000000000000000000000033",
            "0x00000000000000000000000000000000000000000000000000000000000000c2",
            "0x0000000000000000000000004e5dc9df946500b07e9c66e4dd29bf9cd062002b"
          ],
          "data": "0x000000000000000000000000000000000000000000000000000000000000000000000000000000000000000000000000000000000000000000000001837f43b80000000000000000000000000000000000000000000000000000000000000001",
          "blockHash": "0x51311b22cc8fb95a0393ccf767052b9ca8e6bc33022951c70da01e40aaae2d63",
          "blockNumber": "0x165e1bd",
          "transactionHash": "0x7ca6d6c72555e63b9eaa2ed82e3920c610bb9523bc83743880847163a2231b8e",
          "transactionIndex": "0x4",
          "logIndex": "0x4",
          "removed": false
        }
      ],
      "logsBloom": "0x00002000000000000000000000000000000010000000008000000000000000000000000000000000000001000000000000000000000000000000000000000000000000000000000000000008000000000000000000200000000000000000000000000000000200000000000000000000000000000000000000000010000000000000000040081000804000000000000000000000000000000400000000000000000001000000000000000080000000000000000000000000000000000000000000010002000000000000000000000000000000010000800040100000000000000000020000000000000000000000000000000000000010000000000000000000",
      "type": "0x2",
      "transactionHash": "0x7ca6d6c72555e63b9eaa2ed82e3920c610bb9523bc83743880847163a2231b8e",
      "transactionIndex": "0x4",
      "blockHash": "0x51311b22cc8fb95a0393ccf767052b9ca8e6bc33022951c70da01e40aaae2d63",
      "blockNumber": "0x165e1bd",
      "gasUsed": "0x72676",
      "effectiveGasPrice": "0xed759",
      "from": "0x4e5dc9df946500b07e9c66e4dd29bf9cd062002b",
      "to": "0x2e180501d3d68241dd0318c68fd9be0af1d519a1",
      "contractAddress": null,
      "l1BaseFeeScalar": "0x44d",
      "l1BlobBaseFee": "0x1",
      "l1BlobBaseFeeScalar": "0xa118b",
      "l1Fee": "0x60a191",
      "l1GasPrice": "0x36275a",
      "l1GasUsed": "0x654"
    },
    {
      "status": "0x1",
      "cumulativeGasUsed": "0x602488",
      "logs": [
        {
          "address": "0x036cbd53842c5426634e7929541ec2318f3dcf7e",
          "topics": [
            "0xddf252ad1be2c89b69c2b068fc378daa952ba7f163c4a11628f55a4df523b3ef",
            "0x0000000000000000000000004e5dc9df946500b07e9c66e4dd29bf9cd062002b",
            "0x0000000000000000000000002e180501d3d68241dd0318c68fd9be0af1d519a1"
          ],
          "data": "0x00000000000000000000000000000000000000000000000000000000001e8480",
          "blockHash": "0xa743957ffb32e97e17bfb98973294333cd4489bab6b20000620721169a549f1a",
          "blockNumber": "0x165e1bf",
          "transactionHash": "0x893e998f1b98866aa582337229252146e812369b6ec4b6f4c325dede1bbad33e",
          "transactionIndex": "0x15",
          "logIndex": "0x98",
          "removed": false
        },
        {
          "address": "0x2e180501d3d68241dd0318c68fd9be0af1d519a1",
          "topics": [
            "0xe523847b7270abe685bcbcb11a424b9030e5627e3d5770781dd5bbeb1ddee143",
            "0x0000000000000000000000000000000000000000000000000000000000000034",
            "0x00000000000000000000000000000000000000000000000000000000000000c0",
            "0x0000000000000000000000004e5dc9df946500b07e9c66e4dd29bf9cd062002b"
          ],
          "data": "0x000000000000000000000000000000000000000000000000000000000000000000000000000000000000000000000000000000000000000000000000001e84800000000000000000000000000000000000000000000000000000000000000000",
          "blockHash": "0xa743957ffb32e97e17bfb98973294333cd4489bab6b20000620721169a549f1a",
          "blockNumber": "0x165e1bf",
          "transactionHash": "0x893e998f1b98866aa582337229252146e812369b6ec4b6f4c325dede1bbad33e",
          "transactionIndex": "0x15",
          "logIndex": "0x99",
          "removed": false
        }
      ],
      "logsBloom": "0x00002000040000000000000000000000000010000000000000000000000000000000000000000000200003000000000000000000000000000000020000000000000000000000000000000008000000000000000000000000000000000000000800000000000000000000000000000000000000000000000000000010000000000000000000080000804000000000000000000000000000000400000000021000000000000000000000000000000000000000000000000000000000000000000000010002000000000000000000000000000000010000800000000000000000000000020000000000000000000020000000000000000010000000000000000000",
      "type": "0x2",
      "transactionHash": "0x893e998f1b98866aa582337229252146e812369b6ec4b6f4c325dede1bbad33e",
      "transactionIndex": "0x15",
      "blockHash": "0xa743957ffb32e97e17bfb98973294333cd4489bab6b20000620721169a549f1a",
      "blockNumber": "0x165e1bf",
      "gasUsed": "0x67723",
      "effectiveGasPrice": "0xed753",
      "from": "0x4e5dc9df946500b07e9c66e4dd29bf9cd062002b",
      "to": "0x2e180501d3d68241dd0318c68fd9be0af1d519a1",
      "contractAddress": null,
      "l1BaseFeeScalar": "0x44d",
      "l1BlobBaseFee": "0x1",
      "l1BlobBaseFeeScalar": "0xa118b",
      "l1Fee": "0x592a2d",
      "l1GasPrice": "0x329d7e",
      "l1GasUsed": "0x640"
    },
    {
      "status": "0x1",
      "cumulativeGasUsed": "0x198e4d",
      "logs": [
        {
          "address": "0x036cbd53842c5426634e7929541ec2318f3dcf7e",
          "topics": [
            "0xddf252ad1be2c89b69c2b068fc378daa952ba7f163c4a11628f55a4df523b3ef",
            "0x0000000000000000000000004e5dc9df946500b07e9c66e4dd29bf9cd062002b",
            "0x0000000000000000000000002e180501d3d68241dd0318c68fd9be0af1d519a1"
          ],
          "data": "0x00000000000000000000000000000000000000000000000000000000000f4240",
          "blockHash": "0xec5d6aa13557783da17c8874350dcd94051547636e8661ea561bad2da874272b",
          "blockNumber": "0x165e1c1",
          "transactionHash": "0xb0e3e2fe062737bcdb092a5c1de9a645d5359ee6408426a13fbfe17a1eb3614c",
          "transactionIndex": "0x6",
          "logIndex": "0x1b",
          "removed": false
        },
        {
          "address": "0x2e180501d3d68241dd0318c68fd9be0af1d519a1",
          "topics": [
            "0xe523847b7270abe685bcbcb11a424b9030e5627e3d5770781dd5bbeb1ddee143",
            "0x0000000000000000000000000000000000000000000000000000000000000035",
            "0x00000000000000000000000000000000000000000000000000000000000000c1",
            "0x0000000000000000000000004e5dc9df946500b07e9c66e4dd29bf9cd062002b"
          ],
          "data": "0x000000000000000000000000000000000000000000000000000000000000000000000000000000000000000000000000000000000000000000000000000f42400000000000000000000000000000000000000000000000000000000000000000",
          "blockHash": "0xec5d6aa13557783da17c8874350dcd94051547636e8661ea561bad2da874272b",
          "blockNumber": "0x165e1c1",
          "transactionHash": "0xb0e3e2fe062737bcdb092a5c1de9a645d5359ee6408426a13fbfe17a1eb3614c",
          "transactionIndex": "0x6",
          "logIndex": "0x1c",
          "removed": false
        }
      ],
      "logsBloom": "0x00002000040000000000001000000000000010000000000000000000000000000000000000000002000001000000000000000000000000000000000000000000000000000200000000000008000000000000000000000000000000000000000800000000000002000000000000000000000000000000000000000010000000000000000000080000804000000000000000000000000000000400020000000000000000000000000000000000000000000000000000000000000000000000000004010002000000000000000000000000000000010000800000000000000000000000020000000000000000000020000000000000000010000000000000000000",
      "type": "0x2",
      "transactionHash": "0xb0e3e2fe062737bcdb092a5c1de9a645d5359ee6408426a13fbfe17a1eb3614c",
      "transactionIndex": "0x6",
      "blockHash": "0xec5d6aa13557783da17c8874350dcd94051547636e8661ea561bad2da874272b",
      "blockNumber": "0x165e1c1",
      "gasUsed": "0x67723",
      "effectiveGasPrice": "0xed754",
      "from": "0x4e5dc9df946500b07e9c66e4dd29bf9cd062002b",
      "to": "0x2e180501d3d68241dd0318c68fd9be0af1d519a1",
      "contractAddress": null,
      "l1BaseFeeScalar": "0x44d",
      "l1BlobBaseFee": "0x1",
      "l1BlobBaseFeeScalar": "0xa118b",
      "l1Fee": "0x592a2d",
      "l1GasPrice": "0x329d7e",
      "l1GasUsed": "0x640"
    },
    {
      "status": "0x1",
      "cumulativeGasUsed": "0x836667",
      "logs": [
        {
          "address": "0x036cbd53842c5426634e7929541ec2318f3dcf7e",
          "topics": [
            "0xddf252ad1be2c89b69c2b068fc378daa952ba7f163c4a11628f55a4df523b3ef",
            "0x0000000000000000000000004e5dc9df946500b07e9c66e4dd29bf9cd062002b",
            "0x0000000000000000000000002e180501d3d68241dd0318c68fd9be0af1d519a1"
          ],
          "data": "0x00000000000000000000000000000000000000000000000000000000001e8480",
          "blockHash": "0xbe56cf3fd2ca6f4e6da4ee5d9c8f9b49f4bc6f7499b91813c5d1da576e958eb7",
          "blockNumber": "0x165e1c3",
          "transactionHash": "0x90985e13dd5a58776563af967c7ad587fda698f373fd00ba307300ed13d11266",
          "transactionIndex": "0x17",
          "logIndex": "0xd5",
          "removed": false
        },
        {
          "address": "0x2e180501d3d68241dd0318c68fd9be0af1d519a1",
          "topics": [
            "0xe523847b7270abe685bcbcb11a424b9030e5627e3d5770781dd5bbeb1ddee143",
            "0x0000000000000000000000000000000000000000000000000000000000000036",
            "0x00000000000000000000000000000000000000000000000000000000000000c2",
            "0x0000000000000000000000004e5dc9df946500b07e9c66e4dd29bf9cd062002b"
          ],
          "data": "0x000000000000000000000000000000000000000000000000000000000000000100000000000000000000000000000000000000000000000000000000001e84800000000000000000000000000000000000000000000000000000000000000000",
          "blockHash": "0xbe56cf3fd2ca6f4e6da4ee5d9c8f9b49f4bc6f7499b91813c5d1da576e958eb7",
          "blockNumber": "0x165e1c3",
          "transactionHash": "0x90985e13dd5a58776563af967c7ad587fda698f373fd00ba307300ed13d11266",
          "transactionIndex": "0x17",
          "logIndex": "0xd6",
          "removed": false
        }
      ],
      "logsBloom": "0x00002000040000000000000000000000000010000000008000000000000000000000000000000000000001000000000000000000000000000000000000000000000000000000000000000008000000000000000000000000000000000000000800000000000200000000000000000000000000000000000000000010000000000000000000080000804000000000000000000000000000000400000000000000000000000000000000000000000000000000000000000000000000000002000000010002000000000000000000000000000000010000c00040000000000000000000020000000000000002000020000000000000000010000000000000000000",
      "type": "0x2",
      "transactionHash": "0x90985e13dd5a58776563af967c7ad587fda698f373fd00ba307300ed13d11266",
      "transactionIndex": "0x17",
      "blockHash": "0xbe56cf3fd2ca6f4e6da4ee5d9c8f9b49f4bc6f7499b91813c5d1da576e958eb7",
      "blockNumber": "0x165e1c3",
      "gasUsed": "0x712a7",
      "effectiveGasPrice": "0xed754",
      "from": "0x4e5dc9df946500b07e9c66e4dd29bf9cd062002b",
      "to": "0x2e180501d3d68241dd0318c68fd9be0af1d519a1",
      "contractAddress": null,
      "l1BaseFeeScalar": "0x44d",
      "l1BlobBaseFee": "0x1",
      "l1BlobBaseFeeScalar": "0xa118b",
      "l1Fee": "0x5c8e01",
      "l1GasPrice": "0x329d7e",
      "l1GasUsed": "0x67c"
    },
    {
      "status": "0x1",
      "cumulativeGasUsed": "0x59466a",
      "logs": [
        {
          "address": "0xa373482b473e33b96412a6c0ca8b847e6bbb4d0d",
          "topics": [
            "0x8c5be1e5ebec7d5bd14f71427d1e84f3dd0314c0f7b2291e5b200ac8c7c3b925",
            "0x00000000000000000000000067bfd0b42f5f39710b4e90301289f81eab6315da",
            "0x0000000000000000000000002e180501d3d68241dd0318c68fd9be0af1d519a1"
          ],
          "data": "0x0000000000000000000000000000000000000000000000000000000401d9a532",
          "blockHash": "0x8643efebdbe15408b9c9b96b3d570d1e714c97d16077eb76807f928ce0ff8905",
          "blockNumber": "0x165e1c4",
          "transactionHash": "0x7ec27ebbeef9c31e170709cefebeafb585e3132d103473e85a11dc1b8caa781b",
          "transactionIndex": "0x1c",
          "logIndex": "0x8e",
          "removed": false
        }
      ],
      "logsBloom": "0x00000000000000000080000000000000000000000000000000000000000000000000000000000000000000000000000000000000000000000000000000200000000000000000000000000000000000000000000000200000000000000000000000000000000000000000000000000000000000000000000000000000000000000000000000081000800000000000000000000000000000000000000000000000020000000000280000000000000000000000000000000000000000000000000000000000000000000000000000000000000000010000000000100000000000000010000000000000000000000000000000000000000000000000000000000000",
      "type": "0x2",
      "transactionHash": "0x7ec27ebbeef9c31e170709cefebeafb585e3132d103473e85a11dc1b8caa781b",
      "transactionIndex": "0x1c",
      "blockHash": "0x8643efebdbe15408b9c9b96b3d570d1e714c97d16077eb76807f928ce0ff8905",
      "blockNumber": "0x165e1c4",
      "gasUsed": "0x70c0",
      "effectiveGasPrice": "0xed755",
      "from": "0x67bfd0b42f5f39710b4e90301289f81eab6315da",
      "to": "0xa373482b473e33b96412a6c0ca8b847e6bbb4d0d",
      "contractAddress": null,
      "l1BaseFeeScalar": "0x44d",
      "l1BlobBaseFee": "0x1",
      "l1BlobBaseFeeScalar": "0xa118b",
      "l1Fee": "0x592a2d",
      "l1GasPrice": "0x329d7e",
      "l1GasUsed": "0x640"
    },
    {
      "status": "0x1",
      "cumulativeGasUsed": "0x303976",
      "logs": [
        {
          "address": "0x036cbd53842c5426634e7929541ec2318f3dcf7e",
          "topics": [
            "0x8c5be1e5ebec7d5bd14f71427d1e84f3dd0314c0f7b2291e5b200ac8c7c3b925",
            "0x00000000000000000000000067bfd0b42f5f39710b4e90301289f81eab6315da",
            "0x0000000000000000000000002e180501d3d68241dd0318c68fd9be0af1d519a1"
          ],
          "data": "0x000000000000000000000000000000000000000000000000000000001d34ce80",
          "blockHash": "0x503b4165a4d1b8d9b014b97ea297126fddf9167435b6362d308787a694ed3daf",
          "blockNumber": "0x165e1c6",
          "transactionHash": "0x1c6827a15772d72fbe58957998d959dcfd52f7128fcf1cbc764078e18a3665e0",
          "transactionIndex": "0xc",
          "logIndex": "0x52",
          "removed": false
        }
      ],
      "logsBloom": "0x00000000040000000080000000000000000000000000000000000000000000000000000000000000000000000000000000000000000000000000000000200000000000000000000000000000000000000000000000000000000000000000000800000000000000000000000000000000000000000000000000000000000000000000000000080000800000000000000000000000000000000000000000000000020000000000280000000000000000000000000000000000000000000000000000000000000000000000000000000000000000010000000000000000000000000010000000000000000000000020000000000000000000000000000000000000",
      "type": "0x2",
      "transactionHash": "0x1c6827a15772d72fbe58957998d959dcfd52f7128fcf1cbc764078e18a3665e0",
      "transactionIndex": "0xc",
      "blockHash": "0x503b4165a4d1b8d9b014b97ea297126fddf9167435b6362d308787a694ed3daf",
      "blockNumber": "0x165e1c6",
      "gasUsed": "0x95cd",
      "effectiveGasPrice": "0xed74f",
      "from": "0x67bfd0b42f5f39710b4e90301289f81eab6315da",
      "to": "0x036cbd53842c5426634e7929541ec2318f3dcf7e",
      "contractAddress": null,
      "l1BaseFeeScalar": "0x44d",
      "l1BlobBaseFee": "0x1",
      "l1BlobBaseFeeScalar": "0xa118b",
      "l1Fee": "0x60f3e6",
      "l1GasPrice": "0x370943",
      "l1GasUsed": "0x640"
    },
    {
      "status": "0x1",
      "cumulativeGasUsed": "0xa2c78f",
      "logs": [
        {
          "address": "0xa373482b473e33b96412a6c0ca8b847e6bbb4d0d",
          "topics": [
            "0xddf252ad1be2c89b69c2b068fc378daa952ba7f163c4a11628f55a4df523b3ef",
            "0x00000000000000000000000067bfd0b42f5f39710b4e90301289f81eab6315da",
            "0x0000000000000000000000002e180501d3d68241dd0318c68fd9be0af1d519a1"
          ],
          "data": "0x0000000000000000000000000000000000000000000000000000000133c14b28",
          "blockHash": "0x5d00f4f2f709676461e9fe84e79dbc459c198bce041cf91f50e4796d0ec0d14e",
          "blockNumber": "0x165e1c8",
          "transactionHash": "0xea7419798a0aa5f20d16ea21b8c93ac67856d16dfbdb767c8f12f36b3f4516cf",
          "transactionIndex": "0x1d",
          "logIndex": "0xa9",
          "removed": false
        },
        {
          "address": "0x2e180501d3d68241dd0318c68fd9be0af1d519a1",
          "topics": [
            "0xe523847b7270abe685bcbcb11a424b9030e5627e3d5770781dd5bbeb1ddee143",
            "0x0000000000000000000000000000000000000000000000000000000000000037",
            "0x00000000000000000000000000000000000000000000000000000000000000c0",
            "0x00000000000000000000000067bfd0b42f5f39710b4e90301289f81eab6315da"
          ],
          "data": "0x00000000000000000000000000000000000000000000000000000000000000000000000000000000000000000000000000000000000000000000000133c14b280000000000000000000000000000000000000000000000000000000000000001",
          "blockHash": "0x5d00f4f2f709676461e9fe84e79dbc459c198bce041cf91f50e4796d0ec0d14e",
          "blockNumber": "0x165e1c8",
          "transactionHash": "0xea7419798a0aa5f20d16ea21b8c93ac67856d16dfbdb767c8f12f36b3f4516cf",
          "transactionIndex": "0x1d",
          "logIndex": "0xaa",
          "removed": false
        }
      ],
      "logsBloom": "0x00002000200000000080000000000000000010000000000000000000000000000000000000000000000003000000000000000000000000000000020000000000000000000000000000000008000000000000000000200000000000000000000000000000000000000000000000000000000000000000000000000010000000000000000000081000800000000000000000000000000000000400000000001000000000000000280000000080000000000000000000000000000000000000000000000002000000000000000000000000000000010000000000100000000000000000020000000000000000000000000000000000100010000000000000000000",
      "type": "0x2",
      "transactionHash": "0xea7419798a0aa5f20d16ea21b8c93ac67856d16dfbdb767c8f12f36b3f4516cf",
      "transactionIndex": "0x1d",
      "blockHash": "0x5d00f4f2f709676461e9fe84e79dbc459c198bce041cf91f50e4796d0ec0d14e",
      "blockNumber": "0x165e1c8",
      "gasUsed": "0x6e3c2",
      "effectiveGasPrice": "0xed74f",
      "from": "0x67bfd0b42f5f39710b4e90301289f81eab6315da",
      "to": "0x2e180501d3d68241dd0318c68fd9be0af1d519a1",
      "contractAddress": null,
      "l1BaseFeeScalar": "0x44d",
      "l1BlobBaseFee": "0x1",
      "l1BlobBaseFeeScalar": "0xa118b",
      "l1Fee": "0x6234ac",
      "l1GasPrice": "0x370943",
      "l1GasUsed": "0x654"
    },
    {
      "status": "0x1",
      "cumulativeGasUsed": "0xf360be",
      "logs": [
        {
          "address": "0xa373482b473e33b96412a6c0ca8b847e6bbb4d0d",
          "topics": [
            "0xddf252ad1be2c89b69c2b068fc378daa952ba7f163c4a11628f55a4df523b3ef",
            "0x00000000000000000000000067bfd0b42f5f39710b4e90301289f81eab6315da",
            "0x0000000000000000000000002e180501d3d68241dd0318c68fd9be0af1d519a1"
          ],
          "data": "0x0000000000000000000000000000000000000000000000000000000133c14b28",
          "blockHash": "0xd5ddb6c66d1a51e8db11d8d83b6be8091cde04d13476650fa5ebba5cb2bc1867",
          "blockNumber": "0x165e1ca",
          "transactionHash": "0x7de886d76d5cdce9d8c93d392417e8f90641e05269c7bec6f5ec00a871bd3dbc",
          "transactionIndex": "0x29",
          "logIndex": "0x1b4",
          "removed": false
        },
        {
          "address": "0x2e180501d3d68241dd0318c68fd9be0af1d519a1",
          "topics": [
            "0xe523847b7270abe685bcbcb11a424b9030e5627e3d5770781dd5bbeb1ddee143",
            "0x0000000000000000000000000000000000000000000000000000000000000038",
            "0x00000000000000000000000000000000000000000000000000000000000000c1",
            "0x00000000000000000000000067bfd0b42f5f39710b4e90301289f81eab6315da"
          ],
          "data": "0x00000000000000000000000000000000000000000000000000000000000000010000000000000000000000000000000000000000000000000000000133c14b280000000000000000000000000000000000000000000000000000000000000001",
          "blockHash": "0xd5ddb6c66d1a51e8db11d8d83b6be8091cde04d13476650fa5ebba5cb2bc1867",
          "blockNumber": "0x165e1ca",
          "transactionHash": "0x7de886d76d5cdce9d8c93d392417e8f90641e05269c7bec6f5ec00a871bd3dbc",
          "transactionIndex": "0x29",
          "logIndex": "0x1b5",
          "removed": false
        }
      ],
      "logsBloom": "0x00002000000000000080000000000000000010000000000000000000000000000000000000000000000021000000000000000000000000000000000000000000000000000200000000000008000000000000000000200000000000000000000000000000000002000000000000000000000000002000000000000010000000000000000000081000800000000000000000000000000000000400000000000000000000000000280000000000000000000000000000000000000000000000000004000002000000000000000000000000000000010000000000100000000000000000020000000000000000000000000000000000000010000200000000000000",
      "type": "0x2",
      "transactionHash": "0x7de886d76d5cdce9d8c93d392417e8f90641e05269c7bec6f5ec00a871bd3dbc",
      "transactionIndex": "0x29",
      "blockHash": "0xd5ddb6c66d1a51e8db11d8d83b6be8091cde04d13476650fa5ebba5cb2bc1867",
      "blockNumber": "0x165e1ca",
      "gasUsed": "0x73c7a",
      "effectiveGasPrice": "0xed750",
      "from": "0x67bfd0b42f5f39710b4e90301289f81eab6315da",
      "to": "0x2e180501d3d68241dd0318c68fd9be0af1d519a1",
      "contractAddress": null,
      "l1BaseFeeScalar": "0x44d",
      "l1BlobBaseFee": "0x1",
      "l1BlobBaseFeeScalar": "0xa118b",
      "l1Fee": "0x6642c4",
      "l1GasPrice": "0x370943",
      "l1GasUsed": "0x697"
    },
    {
      "status": "0x1",
      "cumulativeGasUsed": "0x5b83bf",
      "logs": [
        {
          "address": "0xa373482b473e33b96412a6c0ca8b847e6bbb4d0d",
          "topics": [
            "0xddf252ad1be2c89b69c2b068fc378daa952ba7f163c4a11628f55a4df523b3ef",
            "0x00000000000000000000000067bfd0b42f5f39710b4e90301289f81eab6315da",
            "0x0000000000000000000000002e180501d3d68241dd0318c68fd9be0af1d519a1"
          ],
          "data": "0x0000000000000000000000000000000000000000000000000000000133c14b28",
          "blockHash": "0x8c6b951e7c6efe68e1680840f681a96f978a9acc8958a676925330608d5a2e0b",
          "blockNumber": "0x165e1cd",
          "transactionHash": "0x28ba5f013abfc054073af0f3950f02a7f8c0d90d9581e1c58d92b4f091e901c1",
          "transactionIndex": "0x15",
          "logIndex": "0x97",
          "removed": false
        },
        {
          "address": "0x2e180501d3d68241dd0318c68fd9be0af1d519a1",
          "topics": [
            "0xe523847b7270abe685bcbcb11a424b9030e5627e3d5770781dd5bbeb1ddee143",
            "0x0000000000000000000000000000000000000000000000000000000000000039",
            "0x00000000000000000000000000000000000000000000000000000000000000c2",
            "0x00000000000000000000000067bfd0b42f5f39710b4e90301289f81eab6315da"
          ],
          "data": "0x00000000000000000000000000000000000000000000000000000000000000010000000000000000000000000000000000000000000000000000000133c14b280000000000000000000000000000000000000000000000000000000000000001",
          "blockHash": "0x8c6b951e7c6efe68e1680840f681a96f978a9acc8958a676925330608d5a2e0b",
          "blockNumber": "0x165e1cd",
          "transactionHash": "0x28ba5f013abfc054073af0f3950f02a7f8c0d90d9581e1c58d92b4f091e901c1",
          "transactionIndex": "0x15",
          "logIndex": "0x98",
          "removed": false
        }
      ],
      "logsBloom": "0x00002000000000000080000000002000000010000000008000000000000000000080000000000000000001000000000000000000000000000000000000000000000000000000000000000008000000000000000000200000000000000000000000000000000200000000000000000000000000000000000000000010004000000000000000081000800000000000000000000000000000000400000000000000000000000000280000000000000000000000000000000000000000000000000000000002000000000000000000000000000000010000000040100000000000000000020000000000000000000000000000000000000010000000000000000000",
      "type": "0x2",
      "transactionHash": "0x28ba5f013abfc054073af0f3950f02a7f8c0d90d9581e1c58d92b4f091e901c1",
      "transactionIndex": "0x15",
      "blockHash": "0x8c6b951e7c6efe68e1680840f681a96f978a9acc8958a676925330608d5a2e0b",
      "blockNumber": "0x165e1cd",
      "gasUsed": "0x77f46",
      "effectiveGasPrice": "0xed74d",
      "from": "0x67bfd0b42f5f39710b4e90301289f81eab6315da",
      "to": "0x2e180501d3d68241dd0318c68fd9be0af1d519a1",
      "contractAddress": null,
      "l1BaseFeeScalar": "0x44d",
      "l1BlobBaseFee": "0x1",
      "l1BlobBaseFeeScalar": "0xa118b",
      "l1Fee": "0x612357",
      "l1GasPrice": "0x344774",
      "l1GasUsed": "0x697"
    },
    {
      "status": "0x1",
      "cumulativeGasUsed": "0x8beea3",
      "logs": [
        {
          "address": "0x036cbd53842c5426634e7929541ec2318f3dcf7e",
          "topics": [
            "0xddf252ad1be2c89b69c2b068fc378daa952ba7f163c4a11628f55a4df523b3ef",
            "0x00000000000000000000000067bfd0b42f5f39710b4e90301289f81eab6315da",
            "0x0000000000000000000000002e180501d3d68241dd0318c68fd9be0af1d519a1"
          ],
          "data": "0x00000000000000000000000000000000000000000000000000000000001e8480",
          "blockHash": "0x5841739a0e54ab0884af300caef0fc29f4dc7f1147a25361e8b1ca4a6fc356e3",
          "blockNumber": "0x165e1cf",
          "transactionHash": "0xa3907cfa4a2c61f62ba80b6cdf2c2f167e0950d87af1626ca645ae301a6aa64e",
          "transactionIndex": "0x15",
          "logIndex": "0xb4",
          "removed": false
        },
        {
          "address": "0x2e180501d3d68241dd0318c68fd9be0af1d519a1",
          "topics": [
            "0xe523847b7270abe685bcbcb11a424b9030e5627e3d5770781dd5bbeb1ddee143",
            "0x000000000000000000000000000000000000000000000000000000000000003a",
            "0x00000000000000000000000000000000000000000000000000000000000000c0",
            "0x00000000000000000000000067bfd0b42f5f39710b4e90301289f81eab6315da"
          ],
          "data": "0x000000000000000000000000000000000000000000000000000000000000000000000000000000000000000000000000000000000000000000000000001e84800000000000000000000000000000000000000000000000000000000000000000",
          "blockHash": "0x5841739a0e54ab0884af300caef0fc29f4dc7f1147a25361e8b1ca4a6fc356e3",
          "blockNumber": "0x165e1cf",
          "transactionHash": "0xa3907cfa4a2c61f62ba80b6cdf2c2f167e0950d87af1626ca645ae301a6aa64e",
          "transactionIndex": "0x15",
          "logIndex": "0xb5",
          "removed": false
        }
      ],
      "logsBloom": "0x00002000040000000080000000000000000010000000000000000000000000000000000000000000000003000000000000000000000000000000020000000000000000000000000000000008000000020000000000000000000000000000000800000000000000000000000000000000000000000000000000000010000000000000000000080000800000000000000000000080000000000400000000001000000000000000280000000000020000000000000000000000000000000000000000000002000000000000000000000000000000010000000000000000000000000000020000000000000000000020000000000000000010000000000000000000",
      "type": "0x2",
      "transactionHash": "0xa3907cfa4a2c61f62ba80b6cdf2c2f167e0950d87af1626ca645ae301a6aa64e",
      "transactionIndex": "0x15",
      "blockHash": "0x5841739a0e54ab0884af300caef0fc29f4dc7f1147a25361e8b1ca4a6fc356e3",
      "blockNumber": "0x165e1cf",
      "gasUsed": "0x6346f",
      "effectiveGasPrice": "0xed74d",
      "from": "0x67bfd0b42f5f39710b4e90301289f81eab6315da",
      "to": "0x2e180501d3d68241dd0318c68fd9be0af1d519a1",
      "contractAddress": null,
      "l1BaseFeeScalar": "0x44d",
      "l1BlobBaseFee": "0x1",
      "l1BlobBaseFeeScalar": "0xa118b",
      "l1Fee": "0x5c188c",
      "l1GasPrice": "0x344774",
      "l1GasUsed": "0x640"
    },
    {
      "status": "0x1",
      "cumulativeGasUsed": "0x17853a",
      "logs": [
        {
          "address": "0x036cbd53842c5426634e7929541ec2318f3dcf7e",
          "topics": [
            "0xddf252ad1be2c89b69c2b068fc378daa952ba7f163c4a11628f55a4df523b3ef",
            "0x00000000000000000000000067bfd0b42f5f39710b4e90301289f81eab6315da",
            "0x0000000000000000000000002e180501d3d68241dd0318c68fd9be0af1d519a1"
          ],
          "data": "0x00000000000000000000000000000000000000000000000000000000001e8480",
          "blockHash": "0x1743d152736ac759303b4413d62e122d14946640073b597238e34e1353429ffb",
          "blockNumber": "0x165e1d1",
          "transactionHash": "0xcd550a13bbb10c904c3de9e6fdfb92afc14be80eb8da371cda0298b65ebb4876",
          "transactionIndex": "0x3",
          "logIndex": "0xd",
          "removed": false
        },
        {
          "address": "0x2e180501d3d68241dd0318c68fd9be0af1d519a1",
          "topics": [
            "0xe523847b7270abe685bcbcb11a424b9030e5627e3d5770781dd5bbeb1ddee143",
            "0x000000000000000000000000000000000000000000000000000000000000003b",
            "0x00000000000000000000000000000000000000000000000000000000000000c1",
            "0x00000000000000000000000067bfd0b42f5f39710b4e90301289f81eab6315da"
          ],
          "data": "0x000000000000000000000000000000000000000000000000000000000000000000000000000000000000000000000000000000000000000000000000001e84800000000000000000000000000000000000000000000000000000000000000000",
          "blockHash": "0x1743d152736ac759303b4413d62e122d14946640073b597238e34e1353429ffb",
          "blockNumber": "0x165e1d1",
          "transactionHash": "0xcd550a13bbb10c904c3de9e6fdfb92afc14be80eb8da371cda0298b65ebb4876",
          "transactionIndex": "0x3",
          "logIndex": "0xe",
          "removed": false
        }
      ],
      "logsBloom": "0x00002000040000000080000000000000000010000000000000000000000000000000000000000000000001000000000000000000000000000000000000000000000000000200000000000008000000000000000000000000000000000000000800000000000002000000000000000020000000000000000000000010000000000000000800080000800000000000000000000000000000000400000000000000000000000000280000000000000000000000000000000000000000000000000004000002000000000000000000000000000000010000000000000002000000000000020000000000000000000020000000000000000010000000000000000000",
      "type": "0x2",
      "transactionHash": "0xcd550a13bbb10c904c3de9e6fdfb92afc14be80eb8da371cda0298b65ebb4876",
      "transactionIndex": "0x3",
      "blockHash": "0x1743d152736ac759303b4413d62e122d14946640073b597238e34e1353429ffb",
      "blockNumber": "0x165e1d1",
      "gasUsed": "0x6346f",
      "effectiveGasPrice": "0xed74b",
      "from": "0x67bfd0b42f5f39710b4e90301289f81eab6315da",
      "to": "0x2e180501d3d68241dd0318c68fd9be0af1d519a1",
      "contractAddress": null,
      "l1BaseFeeScalar": "0x44d",
      "l1BlobBaseFee": "0x1",
      "l1BlobBaseFeeScalar": "0xa118b",
      "l1Fee": "0x587a22",
      "l1GasPrice": "0x32398f",
      "l1GasUsed": "0x640"
    },
    {
      "status": "0x1",
      "cumulativeGasUsed": "0xb9c6a1",
      "logs": [
        {
          "address": "0x036cbd53842c5426634e7929541ec2318f3dcf7e",
          "topics": [
            "0xddf252ad1be2c89b69c2b068fc378daa952ba7f163c4a11628f55a4df523b3ef",
            "0x00000000000000000000000067bfd0b42f5f39710b4e90301289f81eab6315da",
            "0x0000000000000000000000002e180501d3d68241dd0318c68fd9be0af1d519a1"
          ],
          "data": "0x00000000000000000000000000000000000000000000000000000000001e8480",
          "blockHash": "0x6df05b905ecc945f2b509fa3be438d9989350d82556d4abc24cafe679a3968ac",
          "blockNumber": "0x165e1d3",
          "transactionHash": "0x28c8939c207ff631fd7309305e95eeaeabf461b311f39906f2cada7353e407e9",
          "transactionIndex": "0x1d",
          "logIndex": "0x1c8",
          "removed": false
        },
        {
          "address": "0x2e180501d3d68241dd0318c68fd9be0af1d519a1",
          "topics": [
            "0xe523847b7270abe685bcbcb11a424b9030e5627e3d5770781dd5bbeb1ddee143",
            "0x000000000000000000000000000000000000000000000000000000000000003c",
            "0x00000000000000000000000000000000000000000000000000000000000000c2",
            "0x00000000000000000000000067bfd0b42f5f39710b4e90301289f81eab6315da"
          ],
          "data": "0x000000000000000000000000000000000000000000000000000000000000000100000000000000000000000000000000000000000000000000000000001e84800000000000000000000000000000000000000000000000000000000000000000",
          "blockHash": "0x6df05b905ecc945f2b509fa3be438d9989350d82556d4abc24cafe679a3968ac",
          "blockNumber": "0x165e1d3",
          "transactionHash": "0x28c8939c207ff631fd7309305e95eeaeabf461b311f39906f2cada7353e407e9",
          "transactionIndex": "0x1d",
          "logIndex": "0x1c9",
          "removed": false
        }
      ],
      "logsBloom": "0x00002000040000000080000000040000000010000000008000000000000000000000000000000800080001000000000000000000000000000000000000000000000000000000000000000008000000000000000000000000000000000000000800000000000200000000000000000000000000000000000000000010000000000000000000080000800000000000000000000000000000000400000000000000000000000000280000000000000000000000000000000000000000000000000000000002000000000000000000000000000000010000000040000000000000000000020000000000000000000020000000000000000010000000000000000000",
      "type": "0x2",
      "transactionHash": "0x28c8939c207ff631fd7309305e95eeaeabf461b311f39906f2cada7353e407e9",
      "transactionIndex": "0x1d",
      "blockHash": "0x6df05b905ecc945f2b509fa3be438d9989350d82556d4abc24cafe679a3968ac",
      "blockNumber": "0x165e1d3",
      "gasUsed": "0x6cff3",
      "effectiveGasPrice": "0xed74a",
      "from": "0x67bfd0b42f5f39710b4e90301289f81eab6315da",
      "to": "0x2e180501d3d68241dd0318c68fd9be0af1d519a1",
      "contractAddress": null,
      "l1BaseFeeScalar": "0x44d",
      "l1BlobBaseFee": "0x1",
      "l1BlobBaseFeeScalar": "0xa118b",
      "l1Fee": "0x5b19cc",
      "l1GasPrice": "0x32398f",
      "l1GasUsed": "0x66f"
    },
    {
      "status": "0x1",
      "cumulativeGasUsed": "0x2239fb",
      "logs": [
        {
          "address": "0xa373482b473e33b96412a6c0ca8b847e6bbb4d0d",
          "topics": [
            "0x8c5be1e5ebec7d5bd14f71427d1e84f3dd0314c0f7b2291e5b200ac8c7c3b925",
            "0x00000000000000000000000012be474d127757d0a6a36631294f8ffbcdef44f8",
            "0x0000000000000000000000002e180501d3d68241dd0318c68fd9be0af1d519a1"
          ],
          "data": "0x00000000000000000000000000000000000000000000000000000002c2e1c2f1",
          "blockHash": "0xbb97928e9c3cce50de5f623bc785ca06d93431460cbebf67276764490fb68008",
          "blockNumber": "0x165e1d5",
          "transactionHash": "0xcbde06bfa5bdedbbbaaee55256ce35e6860228ad1083c9a456d40d5dbb330f2a",
          "transactionIndex": "0x6",
          "logIndex": "0x33",
          "removed": false
        }
      ],
      "logsBloom": "0x00000000000000000000000000000000000000000000000000000000000000000000000000000000000000000000000000000000000000000000000000200000000000000000000000000000000000000000000000200000000000000000000000000000000000000000000000000000000000000000000000800000000000000000000000081000800000000000000000000000000000000000000000000000028000000000000000000000000000000000000000000000000000000000000000000000000000000000000100000000000000010000000000100000000000000010000000000000000000000000000000000000000000000000000000000000",
      "type": "0x2",
      "transactionHash": "0xcbde06bfa5bdedbbbaaee55256ce35e6860228ad1083c9a456d40d5dbb330f2a",
      "transactionIndex": "0x6",
      "blockHash": "0xbb97928e9c3cce50de5f623bc785ca06d93431460cbebf67276764490fb68008",
      "blockNumber": "0x165e1d5",
      "gasUsed": "0x70c0",
      "effectiveGasPrice": "0xed74c",
      "from": "0x12be474d127757d0a6a36631294f8ffbcdef44f8",
      "to": "0xa373482b473e33b96412a6c0ca8b847e6bbb4d0d",
      "contractAddress": null,
      "l1BaseFeeScalar": "0x44d",
      "l1BlobBaseFee": "0x1",
      "l1BlobBaseFeeScalar": "0xa118b",
      "l1Fee": "0x587a22",
      "l1GasPrice": "0x32398f",
      "l1GasUsed": "0x640"
    },
    {
      "status": "0x1",
      "cumulativeGasUsed": "0x4024f2",
      "logs": [
        {
          "address": "0x036cbd53842c5426634e7929541ec2318f3dcf7e",
          "topics": [
            "0x8c5be1e5ebec7d5bd14f71427d1e84f3dd0314c0f7b2291e5b200ac8c7c3b925",
            "0x00000000000000000000000012be474d127757d0a6a36631294f8ffbcdef44f8",
            "0x0000000000000000000000002e180501d3d68241dd0318c68fd9be0af1d519a1"
          ],
          "data": "0x000000000000000000000000000000000000000000000000000000001e29b4d7",
          "blockHash": "0xbd6141ed71c7acd80bb163470ce3cf4da50d0370b73dfef15d95db743762560d",
          "blockNumber": "0x165e1d7",
          "transactionHash": "0xc3a46598189ba461e7ec8f266aec594d8dd081f2239fa7ccb6f73f5d02a4c093",
          "transactionIndex": "0x15",
          "logIndex": "0x5f",
          "removed": false
        }
      ],
      "logsBloom": "0x00000000040000000000000000000000000000000000000000000000000000000000000000000000000000000000000000000000000000000000000000200000000000000000000000000000000000000000000000000000000000000000000800000000000000000000000000000000000000000000000000800000000000000000000000080000800000000000000000000000000000000000000000000000028000000000000000000000000000000000000000000000000000000000000000000000000000000000000100000000000000010000000000000000000000000010000000000000000000000020000000000000000000000000000000000000",
      "type": "0x2",
      "transactionHash": "0xc3a46598189ba461e7ec8f266aec594d8dd081f2239fa7ccb6f73f5d02a4c093",
      "transactionIndex": "0x15",
      "blockHash": "0xbd6141ed71c7acd80bb163470ce3cf4da50d0370b73dfef15d95db743762560d",
      "blockNumber": "0x165e1d7",
      "gasUsed": "0x95cd",
      "effectiveGasPrice": "0xed74e",
      "from": "0x12be474d127757d0a6a36631294f8ffbcdef44f8",
      "to": "0x036cbd53842c5426634e7929541ec2318f3dcf7e",
      "contractAddress": null,
      "l1BaseFeeScalar": "0x44d",
      "l1BlobBaseFee": "0x1",
      "l1BlobBaseFeeScalar": "0xa118b",
      "l1Fee": "0x53c94a",
      "l1GasPrice": "0x2f8fe2",
      "l1GasUsed": "0x640"
    },
    {
      "status": "0x1",
      "cumulativeGasUsed": "0x126c60b",
      "logs": [
        {
          "address": "0xa373482b473e33b96412a6c0ca8b847e6bbb4d0d",
          "topics": [
            "0xddf252ad1be2c89b69c2b068fc378daa952ba7f163c4a11628f55a4df523b3ef",
            "0x00000000000000000000000012be474d127757d0a6a36631294f8ffbcdef44f8",
            "0x0000000000000000000000002e180501d3d68241dd0318c68fd9be0af1d519a1"
          ],
          "data": "0x00000000000000000000000000000000000000000000000000000000d4108748",
          "blockHash": "0xf333e54ac5e879fbe3689b516b4db726f76ca9d0f3c2f3813a9457450f224cd4",
          "blockNumber": "0x165e1d8",
          "transactionHash": "0xdd5fddb45a0ae695bcdc4327576de447ba54902a5f51387af34c35598d619ad7",
          "transactionIndex": "0x38",
          "logIndex": "0x1a0",
          "removed": false
        },
        {
          "address": "0x2e180501d3d68241dd0318c68fd9be0af1d519a1",
          "topics": [
            "0xe523847b7270abe685bcbcb11a424b9030e5627e3d5770781dd5bbeb1ddee143",
            "0x000000000000000000000000000000000000000000000000000000000000003d",
            "0x00000000000000000000000000000000000000000000000000000000000000c0",
            "0x00000000000000000000000012be474d127757d0a6a36631294f8ffbcdef44f8"
          ],
          "data": "0x000000000000000000000000000000000000000000000000000000000000000000000000000000000000000000000000000000000000000000000000d41087480000000000000000000000000000000000000000000000000000000000000001",
          "blockHash": "0xf333e54ac5e879fbe3689b516b4db726f76ca9d0f3c2f3813a9457450f224cd4",
          "blockNumber": "0x165e1d8",
          "transactionHash": "0xdd5fddb45a0ae695bcdc4327576de447ba54902a5f51387af34c35598d619ad7",
          "transactionIndex": "0x38",
          "logIndex": "0x1a1",
          "removed": false
        }
      ],
      "logsBloom": "0x00002000000000000000000000000000000010000000000000000000000000000000000000000000000003000000000000000000000000000000020000000000000000000000000000000008000000000000000000200000000000040000000020000040000000000000000000000000000000000000000000800010000000000000000000081000800000000000000000000000000000000400000000001000008000000000000000000000000000000000000000000000000000000000000000000002000000000000000100000000000000010000000000100000000000000000020000000000000000000000000000000000000010000000000000000000",
      "type": "0x2",
      "transactionHash": "0xdd5fddb45a0ae695bcdc4327576de447ba54902a5f51387af34c35598d619ad7",
      "transactionIndex": "0x38",
      "blockHash": "0xf333e54ac5e879fbe3689b516b4db726f76ca9d0f3c2f3813a9457450f224cd4",
      "blockNumber": "0x165e1d8",
      "gasUsed": "0x6a0ea",
      "effectiveGasPrice": "0xed74f",
      "from": "0x12be474d127757d0a6a36631294f8ffbcdef44f8",
      "to": "0x2e180501d3d68241dd0318c68fd9be0af1d519a1",
      "contractAddress": null,
      "l1BaseFeeScalar": "0x44d",
      "l1BlobBaseFee": "0x1",
      "l1BlobBaseFeeScalar": "0xa118b",
      "l1Fee": "0x542b14",
      "l1GasPrice": "0x2f8fe2",
      "l1GasUsed": "0x647"
    },
    {
      "status": "0x1",
      "cumulativeGasUsed": "0x2ed45e",
      "logs": [
        {
          "address": "0xa373482b473e33b96412a6c0ca8b847e6bbb4d0d",
          "topics": [
            "0xddf252ad1be2c89b69c2b068fc378daa952ba7f163c4a11628f55a4df523b3ef",
            "0x00000000000000000000000012be474d127757d0a6a36631294f8ffbcdef44f8",
            "0x0000000000000000000000002e180501d3d68241dd0318c68fd9be0af1d519a1"
          ],
          "data": "0x00000000000000000000000000000000000000000000000000000000d4108748",
          "blockHash": "0x482f92ec237140093ef7a24074b1a586b7e5de7462b171716f737a46a144dc03",
          "blockNumber": "0x165e1da",
          "transactionHash": "0xe70eb3b3d5420eb9b8aefc005be6ed159c50522c0e73bc5efd44820ecc4f4902",
          "transactionIndex": "0xd",
          "logIndex": "0x3b",
          "removed": false
        },
        {
          "address": "0x2e180501d3d68241dd0318c68fd9be0af1d519a1",
          "topics": [
            "0xe523847b7270abe685bcbcb11a424b9030e5627e3d5770781dd5bbeb1ddee143",
            "0x000000000000000000000000000000000000000000000000000000000000003e",
            "0x00000000000000000000000000000000000000000000000000000000000000c1",
            "0x00000000000000000000000012be474d127757d0a6a36631294f8ffbcdef44f8"
          ],
          "data": "0x000000000000000000000000000000000000000000000000000000000000000000000000000000000000000000000000000000000000000000000000d41087480000000000000000000000000000000000000000000000000000000000000001",
          "blockHash": "0x482f92ec237140093ef7a24074b1a586b7e5de7462b171716f737a46a144dc03",
          "blockNumber": "0x165e1da",
          "transactionHash": "0xe70eb3b3d5420eb9b8aefc005be6ed159c50522c0e73bc5efd44820ecc4f4902",
          "transactionIndex": "0xd",
          "logIndex": "0x3c",
          "removed": false
        }
      ],
      "logsBloom": "0x00002000000000000000000000000000000010000000000000000000000000000000000000000000000001000000000000000000000000000000000000000000000000000200000000000008000000010000004000200000000000000000000000000000000802000000000000000000000000000000000000800010000000000000000000081000800000000000000000000000000000000400000000000000008000000000000000000000000000000000000000000000000000000000000004000002000000000000000100000000000000010000000000100000000000000000020000000000000000000000000000000000000010000000000000000000",
      "type": "0x2",
      "transactionHash": "0xe70eb3b3d5420eb9b8aefc005be6ed159c50522c0e73bc5efd44820ecc4f4902",
      "transactionIndex": "0xd",
      "blockHash": "0x482f92ec237140093ef7a24074b1a586b7e5de7462b171716f737a46a144dc03",
      "blockNumber": "0x165e1da",
      "gasUsed": "0x6e3b6",
      "effectiveGasPrice": "0xed759",
      "from": "0x12be474d127757d0a6a36631294f8ffbcdef44f8",
      "to": "0x2e180501d3d68241dd0318c68fd9be0af1d519a1",
      "contractAddress": null,
      "l1BaseFeeScalar": "0x44d",
      "l1BlobBaseFee": "0x1",
      "l1BlobBaseFeeScalar": "0xa118b",
      "l1Fee": "0x542b14",
      "l1GasPrice": "0x2f8fe2",
      "l1GasUsed": "0x647"
    },
    {
      "status": "0x1",
      "cumulativeGasUsed": "0x8f9986",
      "logs": [
        {
          "address": "0xa373482b473e33b96412a6c0ca8b847e6bbb4d0d",
          "topics": [
            "0xddf252ad1be2c89b69c2b068fc378daa952ba7f163c4a11628f55a4df523b3ef",
            "0x00000000000000000000000012be474d127757d0a6a36631294f8ffbcdef44f8",
            "0x0000000000000000000000002e180501d3d68241dd0318c68fd9be0af1d519a1"
          ],
          "data": "0x00000000000000000000000000000000000000000000000000000000d4108748",
          "blockHash": "0xec4549986b3e5a4512f1edfec4ff7da59f5da6442f5c85a0873172f3fcbd1bd8",
          "blockNumber": "0x165e1dc",
          "transactionHash": "0x2117b9e61b84a745aa2600167d08487fcc79631f7627a79d44634af9d5a64843",
          "transactionIndex": "0x1e",
          "logIndex": "0xff",
          "removed": false
        },
        {
          "address": "0x2e180501d3d68241dd0318c68fd9be0af1d519a1",
          "topics": [
            "0xe523847b7270abe685bcbcb11a424b9030e5627e3d5770781dd5bbeb1ddee143",
            "0x000000000000000000000000000000000000000000000000000000000000003f",
            "0x00000000000000000000000000000000000000000000000000000000000000c2",
            "0x00000000000000000000000012be474d127757d0a6a36631294f8ffbcdef44f8"
          ],
          "data": "0x000000000000000000000000000000000000000000000000000000000000000100000000000000000000000000000000000000000000000000000000d41087480000000000000000000000000000000000000000000000000000000000000001",
          "blockHash": "0xec4549986b3e5a4512f1edfec4ff7da59f5da6442f5c85a0873172f3fcbd1bd8",
          "blockNumber": "0x165e1dc",
          "transactionHash": "0x2117b9e61b84a745aa2600167d08487fcc79631f7627a79d44634af9d5a64843",
          "transactionIndex": "0x1e",
          "logIndex": "0x100",
          "removed": false
        }
      ],
      "logsBloom": "0x00002000000000000000000000000000000010000000008000000000000000000000000000000000000001000000000000000000000000000000000000000080000000000000000000000008000000000000000000200000000000000000000000000008000200000000000000000000000000000000000000800010000000000000000000081000800000000000000000000000000000000400000000000000008000000000000000000000000000000000000000000000000000000000000000000002000000000000000100000000000000010000000040100000000000000000020000000000000000000000000000000000000010000001000000000000",
      "type": "0x2",
      "transactionHash": "0x2117b9e61b84a745aa2600167d08487fcc79631f7627a79d44634af9d5a64843",
      "transactionIndex": "0x1e",
      "blockHash": "0xec4549986b3e5a4512f1edfec4ff7da59f5da6442f5c85a0873172f3fcbd1bd8",
      "blockNumber": "0x165e1dc",
      "gasUsed": "0x73c6e",
      "effectiveGasPrice": "0xed756",
      "from": "0x12be474d127757d0a6a36631294f8ffbcdef44f8",
      "to": "0x2e180501d3d68241dd0318c68fd9be0af1d519a1",
      "contractAddress": null,
      "l1BaseFeeScalar": "0x44d",
      "l1BlobBaseFee": "0x1",
      "l1BlobBaseFeeScalar": "0xa118b",
      "l1Fee": "0x57ac32",
      "l1GasPrice": "0x2f8fe2",
      "l1GasUsed": "0x68a"
    },
    {
      "status": "0x1",
      "cumulativeGasUsed": "0x1bc3873",
      "logs": [
        {
          "address": "0x036cbd53842c5426634e7929541ec2318f3dcf7e",
          "topics": [
            "0xddf252ad1be2c89b69c2b068fc378daa952ba7f163c4a11628f55a4df523b3ef",
            "0x00000000000000000000000012be474d127757d0a6a36631294f8ffbcdef44f8",
            "0x0000000000000000000000002e180501d3d68241dd0318c68fd9be0af1d519a1"
          ],
          "data": "0x00000000000000000000000000000000000000000000000000000000002dc6c0",
          "blockHash": "0x09f1654da55018054a0f59d5b6690eab476169d4e72a0a0c0ca33b003591a1d0",
          "blockNumber": "0x165e1dd",
          "transactionHash": "0x8ec7860ecf0ada3347f0f8a99056662f9b83556ce874d627ff80bd12d59ad050",
          "transactionIndex": "0x30",
          "logIndex": "0x2af",
          "removed": false
        },
        {
          "address": "0x2e180501d3d68241dd0318c68fd9be0af1d519a1",
          "topics": [
            "0xe523847b7270abe685bcbcb11a424b9030e5627e3d5770781dd5bbeb1ddee143",
            "0x0000000000000000000000000000000000000000000000000000000000000040",
            "0x00000000000000000000000000000000000000000000000000000000000000c0",
            "0x00000000000000000000000012be474d127757d0a6a36631294f8ffbcdef44f8"
          ],
          "data": "0x000000000000000000000000000000000000000000000000000000000000000000000000000000000000000000000000000000000000000000000000002dc6c00000000000000000000000000000000000000000000000000000000000000000",
          "blockHash": "0x09f1654da55018054a0f59d5b6690eab476169d4e72a0a0c0ca33b003591a1d0",
          "blockNumber": "0x165e1dd",
          "transactionHash": "0x8ec7860ecf0ada3347f0f8a99056662f9b83556ce874d627ff80bd12d59ad050",
          "transactionIndex": "0x30",
          "logIndex": "0x2b0",
          "removed": false
        }
      ],
      "logsBloom": "0x00002000040000000000000000000000000010000000000000000000000000000000000100000000000003020000000000000000000000000000020000000000000000000000000000000008000000000000000000000000000080000000000800000000000000000000000000000000000000000000000000800010000000000000000000080000800000000000000000000000000000000400000000001000008000000000000000000000000000000000000000000000000000000000000000000002000000000000000100000000000000010000000000000000000000000000020000000000000000000020000000000000000010000000000000000000",
      "type": "0x2",
      "transactionHash": "0x8ec7860ecf0ada3347f0f8a99056662f9b83556ce874d627ff80bd12d59ad050",
      "transactionIndex": "0x30",
      "blockHash": "0x09f1654da55018054a0f59d5b6690eab476169d4e72a0a0c0ca33b003591a1d0",
      "blockNumber": "0x165e1dd",
      "gasUsed": "0x6346f",
      "effectiveGasPrice": "0xed756",
      "from": "0x12be474d127757d0a6a36631294f8ffbcdef44f8",
      "to": "0x2e180501d3d68241dd0318c68fd9be0af1d519a1",
      "contractAddress": null,
      "l1BaseFeeScalar": "0x44d",
      "l1BlobBaseFee": "0x1",
      "l1BlobBaseFeeScalar": "0xa118b",
      "l1Fee": "0x52e6d1",
      "l1GasPrice": "0x2f0f52",
      "l1GasUsed": "0x640"
    },
    {
      "status": "0x1",
      "cumulativeGasUsed": "0x70ae4d",
      "logs": [
        {
          "address": "0x036cbd53842c5426634e7929541ec2318f3dcf7e",
          "topics": [
            "0xddf252ad1be2c89b69c2b068fc378daa952ba7f163c4a11628f55a4df523b3ef",
            "0x00000000000000000000000012be474d127757d0a6a36631294f8ffbcdef44f8",
            "0x0000000000000000000000002e180501d3d68241dd0318c68fd9be0af1d519a1"
          ],
          "data": "0x00000000000000000000000000000000000000000000000000000000003d0900",
          "blockHash": "0x398fe9bb014849c35144ef7a14b943705268bdac496dd72e68a2def8f482ce2b",
          "blockNumber": "0x165e1df",
          "transactionHash": "0xb9912a74518606d900fbc2332ef39cf98d2959a82e0b05a733004ea001259273",
          "transactionIndex": "0x26",
          "logIndex": "0xb8",
          "removed": false
        },
        {
          "address": "0x2e180501d3d68241dd0318c68fd9be0af1d519a1",
          "topics": [
            "0xe523847b7270abe685bcbcb11a424b9030e5627e3d5770781dd5bbeb1ddee143",
            "0x0000000000000000000000000000000000000000000000000000000000000041",
            "0x00000000000000000000000000000000000000000000000000000000000000c1",
            "0x00000000000000000000000012be474d127757d0a6a36631294f8ffbcdef44f8"
          ],
          "data": "0x000000000000000000000000000000000000000000000000000000000000000000000000000000000000000000000000000000000000000000000000003d09000000000000000000000000000000000000000000000000000000000000000000",
          "blockHash": "0x398fe9bb014849c35144ef7a14b943705268bdac496dd72e68a2def8f482ce2b",
          "blockNumber": "0x165e1df",
          "transactionHash": "0xb9912a74518606d900fbc2332ef39cf98d2959a82e0b05a733004ea001259273",
          "transactionIndex": "0x26",
          "logIndex": "0xb9",
          "removed": false
        }
      ],
      "logsBloom": "0x00002000040000000000000000000000000010000000000000000000000000000000000000000000000001000000000000000000000000000000000000000000000001000200000000000008000000000000000000000000000000000000000800000000000002000000000000800000000000000000000000800010004000000000000000080000800000000000000000000000000000000400000000000000008000000000000000000000000000000000000000000000000000000000000004000002000000000000000100000000000000010000000000000000000000000000020000000000000000000020000000000000000010000000000000000000",
      "type": "0x2",
      "transactionHash": "0xb9912a74518606d900fbc2332ef39cf98d2959a82e0b05a733004ea001259273",
      "transactionIndex": "0x26",
      "blockHash": "0x398fe9bb014849c35144ef7a14b943705268bdac496dd72e68a2def8f482ce2b",
      "blockNumber": "0x165e1df",
      "gasUsed": "0x63463",
      "effectiveGasPrice": "0xed75d",
      "from": "0x12be474d127757d0a6a36631294f8ffbcdef44f8",
      "to": "0x2e180501d3d68241dd0318c68fd9be0af1d519a1",
      "contractAddress": null,
      "l1BaseFeeScalar": "0x44d",
      "l1BlobBaseFee": "0x1",
      "l1BlobBaseFeeScalar": "0xa118b",
      "l1Fee": "0x52e6d1",
      "l1GasPrice": "0x2f0f52",
      "l1GasUsed": "0x640"
    },
    {
      "status": "0x1",
      "cumulativeGasUsed": "0x8e30ef",
      "logs": [
        {
          "address": "0x036cbd53842c5426634e7929541ec2318f3dcf7e",
          "topics": [
            "0xddf252ad1be2c89b69c2b068fc378daa952ba7f163c4a11628f55a4df523b3ef",
            "0x00000000000000000000000012be474d127757d0a6a36631294f8ffbcdef44f8",
            "0x0000000000000000000000002e180501d3d68241dd0318c68fd9be0af1d519a1"
          ],
          "data": "0x00000000000000000000000000000000000000000000000000000000000f4240",
          "blockHash": "0x2f651249ad420816bdee779b2e2e054bbd22bdf7be79f3d08ca4ce95fb708797",
          "blockNumber": "0x165e1e1",
          "transactionHash": "0x1e1bd2d28e212e57ee1e731cb39e7d75be31d0cf7b3f0dc3065d2170d3d63d29",
          "transactionIndex": "0x21",
          "logIndex": "0xeb",
          "removed": false
        },
        {
          "address": "0x2e180501d3d68241dd0318c68fd9be0af1d519a1",
          "topics": [
            "0xe523847b7270abe685bcbcb11a424b9030e5627e3d5770781dd5bbeb1ddee143",
            "0x0000000000000000000000000000000000000000000000000000000000000042",
            "0x00000000000000000000000000000000000000000000000000000000000000c2",
            "0x00000000000000000000000012be474d127757d0a6a36631294f8ffbcdef44f8"
          ],
          "data": "0x000000000000000000000000000000000000000000000000000000000000000100000000000000000000000000000000000000000000000000000000000f42400000000000000000000000000000000000000000000000000000000000000000",
          "blockHash": "0x2f651249ad420816bdee779b2e2e054bbd22bdf7be79f3d08ca4ce95fb708797",
          "blockNumber": "0x165e1e1",
          "transactionHash": "0x1e1bd2d28e212e57ee1e731cb39e7d75be31d0cf7b3f0dc3065d2170d3d63d29",
          "transactionIndex": "0x21",
          "logIndex": "0xec",
          "removed": false
        }
      ],
      "logsBloom": "0x00002000040000000000000000000000000010000000008000000000000000000000000000000000000001000000000000000000000000000000000000000000000000000000000000000008000000000000000000000000000000000000000800000000000200000000000000000000000000080000000000800010000000000000000000080000800000000000000000000000000000000400008000000000008000000000000000000000000000000000000000000000000000000000000000000002000000000000000100000000000000010000000040000000000000000000020080000000000000000020000000000000000010000000000000000000",
      "type": "0x2",
      "transactionHash": "0x1e1bd2d28e212e57ee1e731cb39e7d75be31d0cf7b3f0dc3065d2170d3d63d29",
      "transactionIndex": "0x21",
      "blockHash": "0x2f651249ad420816bdee779b2e2e054bbd22bdf7be79f3d08ca4ce95fb708797",
      "blockNumber": "0x165e1e1",
      "gasUsed": "0x6cff3",
      "effectiveGasPrice": "0xed759",
      "from": "0x12be474d127757d0a6a36631294f8ffbcdef44f8",
      "to": "0x2e180501d3d68241dd0318c68fd9be0af1d519a1",
      "contractAddress": null,
      "l1BaseFeeScalar": "0x44d",
      "l1BlobBaseFee": "0x1",
      "l1BlobBaseFeeScalar": "0xa118b",
      "l1Fee": "0x555c28",
      "l1GasPrice": "0x2f0f52",
      "l1GasUsed": "0x66f"
    },
    {
      "status": "0x1",
      "cumulativeGasUsed": "0x20f6d9",
      "logs": [
        {
          "address": "0x2e180501d3d68241dd0318c68fd9be0af1d519a1",
          "topics": [
            "0xaf7faf29a251efa1bcf2b47dab1a72baa0906a2e4ff957e6cb6d4f7c642161ab",
            "0x0000000000000000000000000000000000000000000000000000000000000065"
          ],
          "data": "0x0000000000000000000000000000000000000000000000000000000000000000",
          "blockHash": "0xfda5266d9a19f4d92062775cd8e0bbabc865d50cfbea746bba456f956270c622",
          "blockNumber": "0x165e1e3",
          "transactionHash": "0x3b12fe1871bf3ca822582d2223b483875cd5d98100892ba4039daac59a5880df",
          "transactionIndex": "0x8",
          "logIndex": "0x26",
          "removed": false
        }
      ],
      "logsBloom": "0x02000000000000000000000000000000000010000000000000000000000000000000000000000000000001000000000000000000000000208000000000000000000000000000000000000000000000000000000000000000000000000000000000000000000000000000000000000000000000000000000000000000020000000000000000000000000000000000000000000000000000000000000004000000000000000000000000000000000000000000000000000000000040000000000000000000000000000000000000000000000000000000000000000000000000000000020000000000000000000000000000000000000000000000000000000000",
      "type": "0x2",
      "transactionHash": "0x3b12fe1871bf3ca822582d2223b483875cd5d98100892ba4039daac59a5880df",
      "transactionIndex": "0x8",
      "blockHash": "0xfda5266d9a19f4d92062775cd8e0bbabc865d50cfbea746bba456f956270c622",
      "blockNumber": "0x165e1e3",
      "gasUsed": "0x8a6b",
      "effectiveGasPrice": "0xed757",
      "from": "0x7956c2c1b85f5ac14c2c537f669b65991428e268",
      "to": "0x2e180501d3d68241dd0318c68fd9be0af1d519a1",
      "contractAddress": null,
      "l1BaseFeeScalar": "0x44d",
      "l1BlobBaseFee": "0x1",
      "l1BlobBaseFeeScalar": "0xa118b",
      "l1Fee": "0x4d525f",
      "l1GasPrice": "0x2be471",
      "l1GasUsed": "0x640"
    },
    {
      "status": "0x1",
      "cumulativeGasUsed": "0xc64e2e",
      "logs": [],
      "logsBloom": "0x00000000000000000000000000000000000000000000000000000000000000000000000000000000000000000000000000000000000000000000000000000000000000000000000000000000000000000000000000000000000000000000000000000000000000000000000000000000000000000000000000000000000000000000000000000000000000000000000000000000000000000000000000000000000000000000000000000000000000000000000000000000000000000000000000000000000000000000000000000000000000000000000000000000000000000000000000000000000000000000000000000000000000000000000000000000",
      "type": "0x2",
      "transactionHash": "0xc20faaa988a7d2954eeb03a0653380573845f9ff996f19eeb94de1c579888cfb",
      "transactionIndex": "0x31",
      "blockHash": "0xc569cf7e256c4ac5a12ac2c51a1177b7183c80074c3d8fef0c438c6fb081cf84",
      "blockNumber": "0x165e1e5",
      "gasUsed": "0xae48",
      "effectiveGasPrice": "0xed754",
      "from": "0x4e5dc9df946500b07e9c66e4dd29bf9cd062002b",
      "to": "0x2e180501d3d68241dd0318c68fd9be0af1d519a1",
      "contractAddress": null,
      "l1BaseFeeScalar": "0x44d",
      "l1BlobBaseFee": "0x1",
      "l1BlobBaseFeeScalar": "0xa118b",
      "l1Fee": "0x518e18",
      "l1GasPrice": "0x2be471",
      "l1GasUsed": "0x697"
    },
    {
      "status": "0x1",
      "cumulativeGasUsed": "0x3b8b4b",
      "logs": [],
      "logsBloom": "0x00000000000000000000000000000000000000000000000000000000000000000000000000000000000000000000000000000000000000000000000000000000000000000000000000000000000000000000000000000000000000000000000000000000000000000000000000000000000000000000000000000000000000000000000000000000000000000000000000000000000000000000000000000000000000000000000000000000000000000000000000000000000000000000000000000000000000000000000000000000000000000000000000000000000000000000000000000000000000000000000000000000000000000000000000000000",
      "type": "0x2",
      "transactionHash": "0x0292db04b1e967e3af338297ae8fc3410b077a2e94049a139a87c5cd0dabb099",
      "transactionIndex": "0x13",
      "blockHash": "0xc169bcc0fd77791aac6181610d2870e21e918bdea3a64ef078558335891a9d84",
      "blockNumber": "0x165e1e7",
      "gasUsed": "0xae48",
      "effectiveGasPrice": "0xed751",
      "from": "0x67bfd0b42f5f39710b4e90301289f81eab6315da",
      "to": "0x2e180501d3d68241dd0318c68fd9be0af1d519a1",
      "contractAddress": null,
      "l1BaseFeeScalar": "0x44d",
      "l1BlobBaseFee": "0x1",
      "l1BlobBaseFeeScalar": "0xa118b",
      "l1Fee": "0x50e883",
      "l1GasPrice": "0x2be471",
      "l1GasUsed": "0x68a"
    },
    {
      "status": "0x1",
      "cumulativeGasUsed": "0xa67f91",
      "logs": [],
      "logsBloom": "0x00000000000000000000000000000000000000000000000000000000000000000000000000000000000000000000000000000000000000000000000000000000000000000000000000000000000000000000000000000000000000000000000000000000000000000000000000000000000000000000000000000000000000000000000000000000000000000000000000000000000000000000000000000000000000000000000000000000000000000000000000000000000000000000000000000000000000000000000000000000000000000000000000000000000000000000000000000000000000000000000000000000000000000000000000000000",
      "type": "0x2",
      "transactionHash": "0x4e7a5154e737dad01473b8c7ec825ee2941eef85b18e3472bdc7446876423bfb",
      "transactionIndex": "0x1e",
      "blockHash": "0x03a6a70fd88c23502cfa54c6f4426920d640019d15c63f85f6f1398db619a263",
      "blockNumber": "0x165e1e9",
      "gasUsed": "0xae48",
      "effectiveGasPrice": "0xed754",
      "from": "0x12be474d127757d0a6a36631294f8ffbcdef44f8",
      "to": "0x2e180501d3d68241dd0318c68fd9be0af1d519a1",
      "contractAddress": null,
      "l1BaseFeeScalar": "0x44d",
      "l1BlobBaseFee": "0x1",
      "l1BlobBaseFeeScalar": "0xa118b",
      "l1Fee": "0x4c6fa1",
      "l1GasPrice": "0x297757",
      "l1GasUsed": "0x68a"
    }
  ],
  "libraries": [],
  "pending": [],
  "returns": {},
  "timestamp": 1742676659,
  "chain": 84532,
  "commit": "c2b0c0b"
}